{
	"VirtualClassroom.sol": {
		"VirtualClassroom": {
			"abi": [
				{
					"inputs": [
						{
							"internalType": "uint256",
							"name": "",
							"type": "uint256"
						},
						{
							"internalType": "address",
							"name": "",
							"type": "address"
						},
						{
							"internalType": "uint256",
							"name": "",
							"type": "uint256"
						}
					],
					"name": "attendance",
					"outputs": [
						{
							"internalType": "uint256",
							"name": "sessionId",
							"type": "uint256"
						},
						{
							"internalType": "bool",
							"name": "present",
							"type": "bool"
						}
					],
					"stateMutability": "view",
					"type": "function"
				},
				{
					"inputs": [],
					"name": "courseCount",
					"outputs": [
						{
							"internalType": "uint256",
							"name": "",
							"type": "uint256"
						}
					],
					"stateMutability": "view",
					"type": "function"
				},
				{
					"inputs": [
						{
							"internalType": "uint256",
							"name": "",
							"type": "uint256"
						},
						{
							"internalType": "uint256",
							"name": "",
							"type": "uint256"
						}
					],
					"name": "courseStudents",
					"outputs": [
						{
							"internalType": "address",
							"name": "",
							"type": "address"
						}
					],
					"stateMutability": "view",
					"type": "function"
				},
				{
					"inputs": [
						{
							"internalType": "uint256",
							"name": "",
							"type": "uint256"
						}
					],
					"name": "courses",
					"outputs": [
						{
							"internalType": "uint256",
							"name": "id",
							"type": "uint256"
						},
						{
							"internalType": "string",
							"name": "title",
							"type": "string"
						},
						{
							"internalType": "address",
							"name": "teacher",
							"type": "address"
						},
						{
							"internalType": "bool",
							"name": "exists",
							"type": "bool"
						}
					],
					"stateMutability": "view",
					"type": "function"
				},
				{
					"inputs": [
						{
							"internalType": "string",
							"name": "_title",
							"type": "string"
						}
					],
					"name": "createCourse",
					"outputs": [],
					"stateMutability": "nonpayable",
					"type": "function"
				},
				{
					"inputs": [
						{
							"internalType": "uint256",
							"name": "_courseId",
							"type": "uint256"
						},
						{
							"internalType": "string",
							"name": "_did",
							"type": "string"
						}
					],
					"name": "enrollInCourse",
					"outputs": [],
					"stateMutability": "nonpayable",
					"type": "function"
				},
				{
					"inputs": [
						{
							"internalType": "uint256",
							"name": "",
							"type": "uint256"
						},
						{
							"internalType": "address",
							"name": "",
							"type": "address"
						}
					],
					"name": "enrollments",
					"outputs": [
						{
							"internalType": "string",
							"name": "did",
							"type": "string"
						},
						{
							"internalType": "bool",
							"name": "enrolled",
							"type": "bool"
						}
					],
					"stateMutability": "view",
					"type": "function"
				},
				{
					"inputs": [
						{
							"internalType": "uint256",
							"name": "_courseId",
							"type": "uint256"
						},
						{
							"internalType": "address",
							"name": "_student",
							"type": "address"
						}
					],
					"name": "getGrade",
					"outputs": [
						{
							"internalType": "uint256",
							"name": "",
							"type": "uint256"
						}
					],
					"stateMutability": "view",
					"type": "function"
				},
				{
					"inputs": [
						{
							"internalType": "uint256",
							"name": "",
							"type": "uint256"
						},
						{
							"internalType": "address",
							"name": "",
							"type": "address"
						}
					],
					"name": "grades",
					"outputs": [
						{
							"internalType": "uint256",
							"name": "",
							"type": "uint256"
						}
					],
					"stateMutability": "view",
					"type": "function"
				},
				{
					"inputs": [
						{
							"internalType": "uint256",
							"name": "_courseId",
							"type": "uint256"
						},
						{
							"internalType": "address",
							"name": "_student",
							"type": "address"
						},
						{
							"internalType": "uint256",
							"name": "_sessionId",
							"type": "uint256"
						},
						{
							"internalType": "bool",
							"name": "_present",
							"type": "bool"
						}
					],
					"name": "markAttendance",
					"outputs": [],
					"stateMutability": "nonpayable",
					"type": "function"
				},
				{
					"inputs": [
						{
							"internalType": "uint256",
							"name": "_courseId",
							"type": "uint256"
						},
						{
							"internalType": "address",
							"name": "_student",
							"type": "address"
						},
						{
							"internalType": "uint256",
							"name": "_grade",
							"type": "uint256"
						}
					],
					"name": "submitGrade",
					"outputs": [],
					"stateMutability": "nonpayable",
					"type": "function"
				}
			],
			"devdoc": {
				"kind": "dev",
				"methods": {},
				"version": 1
			},
			"evm": {
				"assembly": "    /* \"VirtualClassroom.sol\":57:3007  contract VirtualClassroom {... */\n  mstore(0x40, 0x80)\n    /* \"VirtualClassroom.sol\":528:529  0 */\n  0x00\n    /* \"VirtualClassroom.sol\":502:529  uint public courseCount = 0 */\n  0x00\n  sstore\n    /* \"VirtualClassroom.sol\":57:3007  contract VirtualClassroom {... */\n  callvalue\n  dup1\n  iszero\n  tag_1\n  jumpi\n  revert(0x00, 0x00)\ntag_1:\n  pop\n  dataSize(sub_0)\n  dup1\n  dataOffset(sub_0)\n  0x00\n  codecopy\n  0x00\n  return\nstop\n\nsub_0: assembly {\n        /* \"VirtualClassroom.sol\":57:3007  contract VirtualClassroom {... */\n      mstore(0x40, 0x80)\n      callvalue\n      dup1\n      iszero\n      tag_1\n      jumpi\n      revert(0x00, 0x00)\n    tag_1:\n      pop\n      jumpi(tag_2, lt(calldatasize, 0x04))\n      shr(0xe0, calldataload(0x00))\n      dup1\n      0x6e274a34\n      gt\n      tag_14\n      jumpi\n      dup1\n      0x6e274a34\n      eq\n      tag_8\n      jumpi\n      dup1\n      0x8a38ab2c\n      eq\n      tag_9\n      jumpi\n      dup1\n      0x96f979d2\n      eq\n      tag_10\n      jumpi\n      dup1\n      0xb7f5d9a0\n      eq\n      tag_11\n      jumpi\n      dup1\n      0xdfb80403\n      eq\n      tag_12\n      jumpi\n      dup1\n      0xf79967f2\n      eq\n      tag_13\n      jumpi\n      jump(tag_2)\n    tag_14:\n      dup1\n      0x24b337ec\n      eq\n      tag_3\n      jumpi\n      dup1\n      0x49144927\n      eq\n      tag_4\n      jumpi\n      dup1\n      0x4d034705\n      eq\n      tag_5\n      jumpi\n      dup1\n      0x66055159\n      eq\n      tag_6\n      jumpi\n      dup1\n      0x6ca40e39\n      eq\n      tag_7\n      jumpi\n    tag_2:\n      revert(0x00, 0x00)\n        /* \"VirtualClassroom.sol\":2902:3004  function getGrade(uint _courseId, address _student) public view returns (uint) {... */\n    tag_3:\n      tag_15\n      0x04\n      dup1\n      calldatasize\n      sub\n      dup2\n      add\n      swap1\n      tag_16\n      swap2\n      swap1\n      tag_17\n      jump\t// in\n    tag_16:\n      tag_18\n      jump\t// in\n    tag_15:\n      mload(0x40)\n      tag_19\n      swap2\n      swap1\n      tag_20\n      jump\t// in\n    tag_19:\n      mload(0x40)\n      dup1\n      swap2\n      sub\n      swap1\n      return\n        /* \"VirtualClassroom.sol\":1449:2148  function enrollInCourse(uint _courseId, string memory _did) public {... */\n    tag_4:\n      tag_21\n      0x04\n      dup1\n      calldatasize\n      sub\n      dup2\n      add\n      swap1\n      tag_22\n      swap2\n      swap1\n      tag_23\n      jump\t// in\n    tag_22:\n      tag_24\n      jump\t// in\n    tag_21:\n      stop\n        /* \"VirtualClassroom.sol\":2202:2696  function markAttendance(uint _courseId, address _student, uint _sessionId, bool _present) public {... */\n    tag_5:\n      tag_25\n      0x04\n      dup1\n      calldatasize\n      sub\n      dup2\n      add\n      swap1\n      tag_26\n      swap2\n      swap1\n      tag_27\n      jump\t// in\n    tag_26:\n      tag_28\n      jump\t// in\n    tag_25:\n      stop\n        /* \"VirtualClassroom.sol\":502:529  uint public courseCount = 0 */\n    tag_6:\n      tag_29\n      tag_30\n      jump\t// in\n    tag_29:\n      mload(0x40)\n      tag_31\n      swap2\n      swap1\n      tag_20\n      jump\t// in\n    tag_31:\n      mload(0x40)\n      dup1\n      swap2\n      sub\n      swap1\n      return\n        /* \"VirtualClassroom.sol\":1038:1093  mapping(uint => mapping(address => uint)) public grades */\n    tag_7:\n      tag_32\n      0x04\n      dup1\n      calldatasize\n      sub\n      dup2\n      add\n      swap1\n      tag_33\n      swap2\n      swap1\n      tag_17\n      jump\t// in\n    tag_33:\n      tag_34\n      jump\t// in\n    tag_32:\n      mload(0x40)\n      tag_35\n      swap2\n      swap1\n      tag_20\n      jump\t// in\n    tag_35:\n      mload(0x40)\n      dup1\n      swap2\n      sub\n      swap1\n      return\n        /* \"VirtualClassroom.sol\":652:700  mapping(uint => address[]) public courseStudents */\n    tag_8:\n      tag_36\n      0x04\n      dup1\n      calldatasize\n      sub\n      dup2\n      add\n      swap1\n      tag_37\n      swap2\n      swap1\n      tag_38\n      jump\t// in\n    tag_37:\n      tag_39\n      jump\t// in\n    tag_36:\n      mload(0x40)\n      tag_40\n      swap2\n      swap1\n      tag_41\n      jump\t// in\n    tag_40:\n      mload(0x40)\n      dup1\n      swap2\n      sub\n      swap1\n      return\n        /* \"VirtualClassroom.sol\":1149:1400  function createCourse(string memory _title) public {... */\n    tag_9:\n      tag_42\n      0x04\n      dup1\n      calldatasize\n      sub\n      dup2\n      add\n      swap1\n      tag_43\n      swap2\n      swap1\n      tag_44\n      jump\t// in\n    tag_43:\n      tag_45\n      jump\t// in\n    tag_42:\n      stop\n        /* \"VirtualClassroom.sol\":562:600  mapping(uint => Course) public courses */\n    tag_10:\n      tag_46\n      0x04\n      dup1\n      calldatasize\n      sub\n      dup2\n      add\n      swap1\n      tag_47\n      swap2\n      swap1\n      tag_48\n      jump\t// in\n    tag_47:\n      tag_49\n      jump\t// in\n    tag_46:\n      mload(0x40)\n      tag_50\n      swap5\n      swap4\n      swap3\n      swap2\n      swap1\n      tag_51\n      jump\t// in\n    tag_50:\n      mload(0x40)\n      dup1\n      swap2\n      sub\n      swap1\n      return\n        /* \"VirtualClassroom.sol\":901:974  mapping(uint => mapping(address => AttendanceRecord[])) public attendance */\n    tag_11:\n      tag_52\n      0x04\n      dup1\n      calldatasize\n      sub\n      dup2\n      add\n      swap1\n      tag_53\n      swap2\n      swap1\n      tag_54\n      jump\t// in\n    tag_53:\n      tag_55\n      jump\t// in\n    tag_52:\n      mload(0x40)\n      tag_56\n      swap3\n      swap2\n      swap1\n      tag_57\n      jump\t// in\n    tag_56:\n      mload(0x40)\n      dup1\n      swap2\n      sub\n      swap1\n      return\n        /* \"VirtualClassroom.sol\":766:832  mapping(uint => mapping(address => Enrollment)) public enrollments */\n    tag_12:\n      tag_58\n      0x04\n      dup1\n      calldatasize\n      sub\n      dup2\n      add\n      swap1\n      tag_59\n      swap2\n      swap1\n      tag_17\n      jump\t// in\n    tag_59:\n      tag_60\n      jump\t// in\n    tag_58:\n      mload(0x40)\n      tag_61\n      swap3\n      swap2\n      swap1\n      tag_62\n      jump\t// in\n    tag_61:\n      mload(0x40)\n      dup1\n      swap2\n      sub\n      swap1\n      return\n        /* \"VirtualClassroom.sol\":2744:2842  function submitGrade(uint _courseId, address _student, uint _grade) public {... */\n    tag_13:\n      tag_63\n      0x04\n      dup1\n      calldatasize\n      sub\n      dup2\n      add\n      swap1\n      tag_64\n      swap2\n      swap1\n      tag_54\n      jump\t// in\n    tag_64:\n      tag_65\n      jump\t// in\n    tag_63:\n      stop\n        /* \"VirtualClassroom.sol\":2902:3004  function getGrade(uint _courseId, address _student) public view returns (uint) {... */\n    tag_18:\n        /* \"VirtualClassroom.sol\":2975:2979  uint */\n      0x00\n        /* \"VirtualClassroom.sol\":2902:3004  function getGrade(uint _courseId, address _student) public view returns (uint) {... */\n      swap3\n      swap2\n      pop\n      pop\n      jump\t// out\n        /* \"VirtualClassroom.sol\":1449:2148  function enrollInCourse(uint _courseId, string memory _did) public {... */\n    tag_24:\n        /* \"VirtualClassroom.sol\":1628:1635  courses */\n      0x01\n        /* \"VirtualClassroom.sol\":1628:1646  courses[_courseId] */\n      0x00\n        /* \"VirtualClassroom.sol\":1636:1645  _courseId */\n      dup4\n        /* \"VirtualClassroom.sol\":1628:1646  courses[_courseId] */\n      dup2\n      mstore\n      0x20\n      add\n      swap1\n      dup2\n      mstore\n      0x20\n      add\n      0x00\n      keccak256\n        /* \"VirtualClassroom.sol\":1628:1653  courses[_courseId].exists */\n      0x02\n      add\n      0x14\n      swap1\n      sload\n      swap1\n      0x0100\n      exp\n      swap1\n      div\n      0xff\n      and\n        /* \"VirtualClassroom.sol\":1620:1679  require(courses[_courseId].exists, \"Course does not exist\") */\n      tag_68\n      jumpi\n      mload(0x40)\n      0x08c379a000000000000000000000000000000000000000000000000000000000\n      dup2\n      mstore\n      0x04\n      add\n      tag_69\n      swap1\n      tag_70\n      jump\t// in\n    tag_69:\n      mload(0x40)\n      dup1\n      swap2\n      sub\n      swap1\n      revert\n    tag_68:\n        /* \"VirtualClassroom.sol\":1831:1842  enrollments */\n      0x03\n        /* \"VirtualClassroom.sol\":1831:1853  enrollments[_courseId] */\n      0x00\n        /* \"VirtualClassroom.sol\":1843:1852  _courseId */\n      dup4\n        /* \"VirtualClassroom.sol\":1831:1853  enrollments[_courseId] */\n      dup2\n      mstore\n      0x20\n      add\n      swap1\n      dup2\n      mstore\n      0x20\n      add\n      0x00\n      keccak256\n        /* \"VirtualClassroom.sol\":1831:1865  enrollments[_courseId][msg.sender] */\n      0x00\n        /* \"VirtualClassroom.sol\":1854:1864  msg.sender */\n      caller\n        /* \"VirtualClassroom.sol\":1831:1865  enrollments[_courseId][msg.sender] */\n      0xffffffffffffffffffffffffffffffffffffffff\n      and\n      0xffffffffffffffffffffffffffffffffffffffff\n      and\n      dup2\n      mstore\n      0x20\n      add\n      swap1\n      dup2\n      mstore\n      0x20\n      add\n      0x00\n      keccak256\n        /* \"VirtualClassroom.sol\":1831:1874  enrollments[_courseId][msg.sender].enrolled */\n      0x01\n      add\n      0x00\n      swap1\n      sload\n      swap1\n      0x0100\n      exp\n      swap1\n      div\n      0xff\n      and\n        /* \"VirtualClassroom.sol\":1830:1874  !enrollments[_courseId][msg.sender].enrolled */\n      iszero\n        /* \"VirtualClassroom.sol\":1822:1895  require(!enrollments[_courseId][msg.sender].enrolled, \"Already enrolled\") */\n      tag_71\n      jumpi\n      mload(0x40)\n      0x08c379a000000000000000000000000000000000000000000000000000000000\n      dup2\n      mstore\n      0x04\n      add\n      tag_72\n      swap1\n      tag_73\n      jump\t// in\n    tag_72:\n      mload(0x40)\n      dup1\n      swap2\n      sub\n      swap1\n      revert\n    tag_71:\n        /* \"VirtualClassroom.sol\":2000:2022  Enrollment(_did, true) */\n      mload(0x40)\n      dup1\n      0x40\n      add\n      0x40\n      mstore\n      dup1\n        /* \"VirtualClassroom.sol\":2011:2015  _did */\n      dup3\n        /* \"VirtualClassroom.sol\":2000:2022  Enrollment(_did, true) */\n      dup2\n      mstore\n      0x20\n      add\n        /* \"VirtualClassroom.sol\":2017:2021  true */\n      0x01\n        /* \"VirtualClassroom.sol\":2000:2022  Enrollment(_did, true) */\n      iszero\n      iszero\n      dup2\n      mstore\n      pop\n        /* \"VirtualClassroom.sol\":1963:1974  enrollments */\n      0x03\n        /* \"VirtualClassroom.sol\":1963:1985  enrollments[_courseId] */\n      0x00\n        /* \"VirtualClassroom.sol\":1975:1984  _courseId */\n      dup5\n        /* \"VirtualClassroom.sol\":1963:1985  enrollments[_courseId] */\n      dup2\n      mstore\n      0x20\n      add\n      swap1\n      dup2\n      mstore\n      0x20\n      add\n      0x00\n      keccak256\n        /* \"VirtualClassroom.sol\":1963:1997  enrollments[_courseId][msg.sender] */\n      0x00\n        /* \"VirtualClassroom.sol\":1986:1996  msg.sender */\n      caller\n        /* \"VirtualClassroom.sol\":1963:1997  enrollments[_courseId][msg.sender] */\n      0xffffffffffffffffffffffffffffffffffffffff\n      and\n      0xffffffffffffffffffffffffffffffffffffffff\n      and\n      dup2\n      mstore\n      0x20\n      add\n      swap1\n      dup2\n      mstore\n      0x20\n      add\n      0x00\n      keccak256\n        /* \"VirtualClassroom.sol\":1963:2022  enrollments[_courseId][msg.sender] = Enrollment(_did, true) */\n      0x00\n      dup3\n      add\n      mload\n      dup2\n      0x00\n      add\n      swap1\n      dup2\n      tag_74\n      swap2\n      swap1\n      tag_75\n      jump\t// in\n    tag_74:\n      pop\n      0x20\n      dup3\n      add\n      mload\n      dup2\n      0x01\n      add\n      exp(0x0100, 0x00)\n      dup2\n      sload\n      dup2\n      0xff\n      mul\n      not\n      and\n      swap1\n      dup4\n      iszero\n      iszero\n      mul\n      or\n      swap1\n      sstore\n      pop\n      swap1\n      pop\n      pop\n        /* \"VirtualClassroom.sol\":2099:2113  courseStudents */\n      0x02\n        /* \"VirtualClassroom.sol\":2099:2124  courseStudents[_courseId] */\n      0x00\n        /* \"VirtualClassroom.sol\":2114:2123  _courseId */\n      dup4\n        /* \"VirtualClassroom.sol\":2099:2124  courseStudents[_courseId] */\n      dup2\n      mstore\n      0x20\n      add\n      swap1\n      dup2\n      mstore\n      0x20\n      add\n      0x00\n      keccak256\n        /* \"VirtualClassroom.sol\":2130:2140  msg.sender */\n      caller\n        /* \"VirtualClassroom.sol\":2099:2141  courseStudents[_courseId].push(msg.sender) */\n      swap1\n      dup1\n      0x01\n      dup2\n      sload\n      add\n      dup1\n      dup3\n      sstore\n      dup1\n      swap2\n      pop\n      pop\n      0x01\n      swap1\n      sub\n      swap1\n      0x00\n      mstore\n      keccak256(0x00, 0x20)\n      add\n      0x00\n      swap1\n      swap2\n      swap1\n      swap2\n      swap1\n      swap2\n      0x0100\n      exp\n      dup2\n      sload\n      dup2\n      0xffffffffffffffffffffffffffffffffffffffff\n      mul\n      not\n      and\n      swap1\n      dup4\n      0xffffffffffffffffffffffffffffffffffffffff\n      and\n      mul\n      or\n      swap1\n      sstore\n      pop\n        /* \"VirtualClassroom.sol\":1449:2148  function enrollInCourse(uint _courseId, string memory _did) public {... */\n      pop\n      pop\n      jump\t// out\n        /* \"VirtualClassroom.sol\":2202:2696  function markAttendance(uint _courseId, address _student, uint _sessionId, bool _present) public {... */\n    tag_28:\n        /* \"VirtualClassroom.sol\":2392:2402  msg.sender */\n      caller\n        /* \"VirtualClassroom.sol\":2362:2402  courses[_courseId].teacher == msg.sender */\n      0xffffffffffffffffffffffffffffffffffffffff\n      and\n        /* \"VirtualClassroom.sol\":2362:2369  courses */\n      0x01\n        /* \"VirtualClassroom.sol\":2362:2380  courses[_courseId] */\n      0x00\n        /* \"VirtualClassroom.sol\":2370:2379  _courseId */\n      dup7\n        /* \"VirtualClassroom.sol\":2362:2380  courses[_courseId] */\n      dup2\n      mstore\n      0x20\n      add\n      swap1\n      dup2\n      mstore\n      0x20\n      add\n      0x00\n      keccak256\n        /* \"VirtualClassroom.sol\":2362:2388  courses[_courseId].teacher */\n      0x02\n      add\n      0x00\n      swap1\n      sload\n      swap1\n      0x0100\n      exp\n      swap1\n      div\n      0xffffffffffffffffffffffffffffffffffffffff\n      and\n        /* \"VirtualClassroom.sol\":2362:2402  courses[_courseId].teacher == msg.sender */\n      0xffffffffffffffffffffffffffffffffffffffff\n      and\n      eq\n        /* \"VirtualClassroom.sol\":2354:2435  require(courses[_courseId].teacher == msg.sender, \"Only the teacher can do this\") */\n      tag_78\n      jumpi\n      mload(0x40)\n      0x08c379a000000000000000000000000000000000000000000000000000000000\n      dup2\n      mstore\n      0x04\n      add\n      tag_79\n      swap1\n      tag_80\n      jump\t// in\n    tag_79:\n      mload(0x40)\n      dup1\n      swap2\n      sub\n      swap1\n      revert\n    tag_78:\n        /* \"VirtualClassroom.sol\":2502:2513  enrollments */\n      0x03\n        /* \"VirtualClassroom.sol\":2502:2524  enrollments[_courseId] */\n      0x00\n        /* \"VirtualClassroom.sol\":2514:2523  _courseId */\n      dup6\n        /* \"VirtualClassroom.sol\":2502:2524  enrollments[_courseId] */\n      dup2\n      mstore\n      0x20\n      add\n      swap1\n      dup2\n      mstore\n      0x20\n      add\n      0x00\n      keccak256\n        /* \"VirtualClassroom.sol\":2502:2534  enrollments[_courseId][_student] */\n      0x00\n        /* \"VirtualClassroom.sol\":2525:2533  _student */\n      dup5\n        /* \"VirtualClassroom.sol\":2502:2534  enrollments[_courseId][_student] */\n      0xffffffffffffffffffffffffffffffffffffffff\n      and\n      0xffffffffffffffffffffffffffffffffffffffff\n      and\n      dup2\n      mstore\n      0x20\n      add\n      swap1\n      dup2\n      mstore\n      0x20\n      add\n      0x00\n      keccak256\n        /* \"VirtualClassroom.sol\":2502:2543  enrollments[_courseId][_student].enrolled */\n      0x01\n      add\n      0x00\n      swap1\n      sload\n      swap1\n      0x0100\n      exp\n      swap1\n      div\n      0xff\n      and\n        /* \"VirtualClassroom.sol\":2494:2571  require(enrollments[_courseId][_student].enrolled, \"Student is not enrolled\") */\n      tag_81\n      jumpi\n      mload(0x40)\n      0x08c379a000000000000000000000000000000000000000000000000000000000\n      dup2\n      mstore\n      0x04\n      add\n      tag_82\n      swap1\n      tag_83\n      jump\t// in\n    tag_82:\n      mload(0x40)\n      dup1\n      swap2\n      sub\n      swap1\n      revert\n    tag_81:\n        /* \"VirtualClassroom.sol\":2613:2623  attendance */\n      0x04\n        /* \"VirtualClassroom.sol\":2613:2634  attendance[_courseId] */\n      0x00\n        /* \"VirtualClassroom.sol\":2624:2633  _courseId */\n      dup6\n        /* \"VirtualClassroom.sol\":2613:2634  attendance[_courseId] */\n      dup2\n      mstore\n      0x20\n      add\n      swap1\n      dup2\n      mstore\n      0x20\n      add\n      0x00\n      keccak256\n        /* \"VirtualClassroom.sol\":2613:2644  attendance[_courseId][_student] */\n      0x00\n        /* \"VirtualClassroom.sol\":2635:2643  _student */\n      dup5\n        /* \"VirtualClassroom.sol\":2613:2644  attendance[_courseId][_student] */\n      0xffffffffffffffffffffffffffffffffffffffff\n      and\n      0xffffffffffffffffffffffffffffffffffffffff\n      and\n      dup2\n      mstore\n      0x20\n      add\n      swap1\n      dup2\n      mstore\n      0x20\n      add\n      0x00\n      keccak256\n        /* \"VirtualClassroom.sol\":2650:2688  AttendanceRecord(_sessionId, _present) */\n      mload(0x40)\n      dup1\n      0x40\n      add\n      0x40\n      mstore\n      dup1\n        /* \"VirtualClassroom.sol\":2667:2677  _sessionId */\n      dup5\n        /* \"VirtualClassroom.sol\":2650:2688  AttendanceRecord(_sessionId, _present) */\n      dup2\n      mstore\n      0x20\n      add\n        /* \"VirtualClassroom.sol\":2679:2687  _present */\n      dup4\n        /* \"VirtualClassroom.sol\":2650:2688  AttendanceRecord(_sessionId, _present) */\n      iszero\n      iszero\n      dup2\n      mstore\n      pop\n        /* \"VirtualClassroom.sol\":2613:2689  attendance[_courseId][_student].push(AttendanceRecord(_sessionId, _present)) */\n      swap1\n      dup1\n      0x01\n      dup2\n      sload\n      add\n      dup1\n      dup3\n      sstore\n      dup1\n      swap2\n      pop\n      pop\n      0x01\n      swap1\n      sub\n      swap1\n      0x00\n      mstore\n      keccak256(0x00, 0x20)\n      swap1\n      0x02\n      mul\n      add\n      0x00\n      swap1\n      swap2\n      swap1\n      swap2\n      swap1\n      swap2\n      pop\n      0x00\n      dup3\n      add\n      mload\n      dup2\n      0x00\n      add\n      sstore\n      0x20\n      dup3\n      add\n      mload\n      dup2\n      0x01\n      add\n      exp(0x0100, 0x00)\n      dup2\n      sload\n      dup2\n      0xff\n      mul\n      not\n      and\n      swap1\n      dup4\n      iszero\n      iszero\n      mul\n      or\n      swap1\n      sstore\n      pop\n      pop\n      pop\n        /* \"VirtualClassroom.sol\":2202:2696  function markAttendance(uint _courseId, address _student, uint _sessionId, bool _present) public {... */\n      pop\n      pop\n      pop\n      pop\n      jump\t// out\n        /* \"VirtualClassroom.sol\":502:529  uint public courseCount = 0 */\n    tag_30:\n      sload(0x00)\n      dup2\n      jump\t// out\n        /* \"VirtualClassroom.sol\":1038:1093  mapping(uint => mapping(address => uint)) public grades */\n    tag_34:\n      mstore(0x20, 0x05)\n      dup2\n      0x00\n      mstore\n      mstore(0x20, keccak256(0x00, 0x40))\n      dup1\n      0x00\n      mstore\n      keccak256(0x00, 0x40)\n      0x00\n      swap2\n      pop\n      swap2\n      pop\n      pop\n      sload\n      dup2\n      jump\t// out\n        /* \"VirtualClassroom.sol\":652:700  mapping(uint => address[]) public courseStudents */\n    tag_39:\n      mstore(0x20, 0x02)\n      dup2\n      0x00\n      mstore\n      keccak256(0x00, 0x40)\n      dup2\n      dup2\n      sload\n      dup2\n      lt\n      tag_85\n      jumpi\n      0x00\n      dup1\n      revert\n    tag_85:\n      swap1\n      0x00\n      mstore\n      keccak256(0x00, 0x20)\n      add\n      0x00\n      swap2\n      pop\n      swap2\n      pop\n      swap1\n      sload\n      swap1\n      0x0100\n      exp\n      swap1\n      div\n      0xffffffffffffffffffffffffffffffffffffffff\n      and\n      dup2\n      jump\t// out\n        /* \"VirtualClassroom.sol\":1149:1400  function createCourse(string memory _title) public {... */\n    tag_45:\n        /* \"VirtualClassroom.sol\":1275:1286  courseCount */\n      0x00\n      0x00\n        /* \"VirtualClassroom.sol\":1275:1288  courseCount++ */\n      dup2\n      sload\n      dup1\n      swap3\n      swap2\n      swap1\n      tag_88\n      swap1\n      tag_89\n      jump\t// in\n    tag_88:\n      swap2\n      swap1\n      pop\n      sstore\n      pop\n        /* \"VirtualClassroom.sol\":1348:1393  Course(courseCount, _title, msg.sender, true) */\n      mload(0x40)\n      dup1\n      0x80\n      add\n      0x40\n      mstore\n      dup1\n        /* \"VirtualClassroom.sol\":1355:1366  courseCount */\n      sload(0x00)\n        /* \"VirtualClassroom.sol\":1348:1393  Course(courseCount, _title, msg.sender, true) */\n      dup2\n      mstore\n      0x20\n      add\n        /* \"VirtualClassroom.sol\":1368:1374  _title */\n      dup3\n        /* \"VirtualClassroom.sol\":1348:1393  Course(courseCount, _title, msg.sender, true) */\n      dup2\n      mstore\n      0x20\n      add\n        /* \"VirtualClassroom.sol\":1376:1386  msg.sender */\n      caller\n        /* \"VirtualClassroom.sol\":1348:1393  Course(courseCount, _title, msg.sender, true) */\n      0xffffffffffffffffffffffffffffffffffffffff\n      and\n      dup2\n      mstore\n      0x20\n      add\n        /* \"VirtualClassroom.sol\":1388:1392  true */\n      0x01\n        /* \"VirtualClassroom.sol\":1348:1393  Course(courseCount, _title, msg.sender, true) */\n      iszero\n      iszero\n      dup2\n      mstore\n      pop\n        /* \"VirtualClassroom.sol\":1325:1332  courses */\n      0x01\n        /* \"VirtualClassroom.sol\":1325:1345  courses[courseCount] */\n      0x00\n        /* \"VirtualClassroom.sol\":1333:1344  courseCount */\n      sload(0x00)\n        /* \"VirtualClassroom.sol\":1325:1345  courses[courseCount] */\n      dup2\n      mstore\n      0x20\n      add\n      swap1\n      dup2\n      mstore\n      0x20\n      add\n      0x00\n      keccak256\n        /* \"VirtualClassroom.sol\":1325:1393  courses[courseCount] = Course(courseCount, _title, msg.sender, true) */\n      0x00\n      dup3\n      add\n      mload\n      dup2\n      0x00\n      add\n      sstore\n      0x20\n      dup3\n      add\n      mload\n      dup2\n      0x01\n      add\n      swap1\n      dup2\n      tag_90\n      swap2\n      swap1\n      tag_75\n      jump\t// in\n    tag_90:\n      pop\n      0x40\n      dup3\n      add\n      mload\n      dup2\n      0x02\n      add\n      exp(0x0100, 0x00)\n      dup2\n      sload\n      dup2\n      0xffffffffffffffffffffffffffffffffffffffff\n      mul\n      not\n      and\n      swap1\n      dup4\n      0xffffffffffffffffffffffffffffffffffffffff\n      and\n      mul\n      or\n      swap1\n      sstore\n      pop\n      0x60\n      dup3\n      add\n      mload\n      dup2\n      0x02\n      add\n      exp(0x0100, 0x14)\n      dup2\n      sload\n      dup2\n      0xff\n      mul\n      not\n      and\n      swap1\n      dup4\n      iszero\n      iszero\n      mul\n      or\n      swap1\n      sstore\n      pop\n      swap1\n      pop\n      pop\n        /* \"VirtualClassroom.sol\":1149:1400  function createCourse(string memory _title) public {... */\n      pop\n      jump\t// out\n        /* \"VirtualClassroom.sol\":562:600  mapping(uint => Course) public courses */\n    tag_49:\n      mstore(0x20, 0x01)\n      dup1\n      0x00\n      mstore\n      keccak256(0x00, 0x40)\n      0x00\n      swap2\n      pop\n      swap1\n      pop\n      dup1\n      0x00\n      add\n      sload\n      swap1\n      dup1\n      0x01\n      add\n      dup1\n      sload\n      tag_91\n      swap1\n      tag_92\n      jump\t// in\n    tag_91:\n      dup1\n      0x1f\n      add\n      0x20\n      dup1\n      swap2\n      div\n      mul\n      0x20\n      add\n      mload(0x40)\n      swap1\n      dup2\n      add\n      0x40\n      mstore\n      dup1\n      swap3\n      swap2\n      swap1\n      dup2\n      dup2\n      mstore\n      0x20\n      add\n      dup3\n      dup1\n      sload\n      tag_93\n      swap1\n      tag_92\n      jump\t// in\n    tag_93:\n      dup1\n      iszero\n      tag_94\n      jumpi\n      dup1\n      0x1f\n      lt\n      tag_95\n      jumpi\n      0x0100\n      dup1\n      dup4\n      sload\n      div\n      mul\n      dup4\n      mstore\n      swap2\n      0x20\n      add\n      swap2\n      jump(tag_94)\n    tag_95:\n      dup3\n      add\n      swap2\n      swap1\n      0x00\n      mstore\n      keccak256(0x00, 0x20)\n      swap1\n    tag_96:\n      dup2\n      sload\n      dup2\n      mstore\n      swap1\n      0x01\n      add\n      swap1\n      0x20\n      add\n      dup1\n      dup4\n      gt\n      tag_96\n      jumpi\n      dup3\n      swap1\n      sub\n      0x1f\n      and\n      dup3\n      add\n      swap2\n    tag_94:\n      pop\n      pop\n      pop\n      pop\n      pop\n      swap1\n      dup1\n      0x02\n      add\n      0x00\n      swap1\n      sload\n      swap1\n      0x0100\n      exp\n      swap1\n      div\n      0xffffffffffffffffffffffffffffffffffffffff\n      and\n      swap1\n      dup1\n      0x02\n      add\n      0x14\n      swap1\n      sload\n      swap1\n      0x0100\n      exp\n      swap1\n      div\n      0xff\n      and\n      swap1\n      pop\n      dup5\n      jump\t// out\n        /* \"VirtualClassroom.sol\":901:974  mapping(uint => mapping(address => AttendanceRecord[])) public attendance */\n    tag_55:\n      mstore(0x20, 0x04)\n      dup3\n      0x00\n      mstore\n      mstore(0x20, keccak256(0x00, 0x40))\n      dup2\n      0x00\n      mstore\n      keccak256(0x00, 0x40)\n      dup2\n      dup2\n      sload\n      dup2\n      lt\n      tag_97\n      jumpi\n      0x00\n      dup1\n      revert\n    tag_97:\n      swap1\n      0x00\n      mstore\n      keccak256(0x00, 0x20)\n      swap1\n      0x02\n      mul\n      add\n      0x00\n      swap3\n      pop\n      swap3\n      pop\n      pop\n      pop\n      dup1\n      0x00\n      add\n      sload\n      swap1\n      dup1\n      0x01\n      add\n      0x00\n      swap1\n      sload\n      swap1\n      0x0100\n      exp\n      swap1\n      div\n      0xff\n      and\n      swap1\n      pop\n      dup3\n      jump\t// out\n        /* \"VirtualClassroom.sol\":766:832  mapping(uint => mapping(address => Enrollment)) public enrollments */\n    tag_60:\n      mstore(0x20, 0x03)\n      dup2\n      0x00\n      mstore\n      mstore(0x20, keccak256(0x00, 0x40))\n      dup1\n      0x00\n      mstore\n      keccak256(0x00, 0x40)\n      0x00\n      swap2\n      pop\n      swap2\n      pop\n      pop\n      dup1\n      0x00\n      add\n      dup1\n      sload\n      tag_99\n      swap1\n      tag_92\n      jump\t// in\n    tag_99:\n      dup1\n      0x1f\n      add\n      0x20\n      dup1\n      swap2\n      div\n      mul\n      0x20\n      add\n      mload(0x40)\n      swap1\n      dup2\n      add\n      0x40\n      mstore\n      dup1\n      swap3\n      swap2\n      swap1\n      dup2\n      dup2\n      mstore\n      0x20\n      add\n      dup3\n      dup1\n      sload\n      tag_100\n      swap1\n      tag_92\n      jump\t// in\n    tag_100:\n      dup1\n      iszero\n      tag_101\n      jumpi\n      dup1\n      0x1f\n      lt\n      tag_102\n      jumpi\n      0x0100\n      dup1\n      dup4\n      sload\n      div\n      mul\n      dup4\n      mstore\n      swap2\n      0x20\n      add\n      swap2\n      jump(tag_101)\n    tag_102:\n      dup3\n      add\n      swap2\n      swap1\n      0x00\n      mstore\n      keccak256(0x00, 0x20)\n      swap1\n    tag_103:\n      dup2\n      sload\n      dup2\n      mstore\n      swap1\n      0x01\n      add\n      swap1\n      0x20\n      add\n      dup1\n      dup4\n      gt\n      tag_103\n      jumpi\n      dup3\n      swap1\n      sub\n      0x1f\n      and\n      dup3\n      add\n      swap2\n    tag_101:\n      pop\n      pop\n      pop\n      pop\n      pop\n      swap1\n      dup1\n      0x01\n      add\n      0x00\n      swap1\n      sload\n      swap1\n      0x0100\n      exp\n      swap1\n      div\n      0xff\n      and\n      swap1\n      pop\n      dup3\n      jump\t// out\n        /* \"VirtualClassroom.sol\":2744:2842  function submitGrade(uint _courseId, address _student, uint _grade) public {... */\n    tag_65:\n      pop\n      pop\n      pop\n      jump\t// out\n        /* \"#utility.yul\":7:82   */\n    tag_105:\n        /* \"#utility.yul\":40:46   */\n      0x00\n        /* \"#utility.yul\":73:75   */\n      0x40\n        /* \"#utility.yul\":67:76   */\n      mload\n        /* \"#utility.yul\":57:76   */\n      swap1\n      pop\n        /* \"#utility.yul\":7:82   */\n      swap1\n      jump\t// out\n        /* \"#utility.yul\":88:205   */\n    tag_106:\n        /* \"#utility.yul\":197:198   */\n      0x00\n        /* \"#utility.yul\":194:195   */\n      0x00\n        /* \"#utility.yul\":187:199   */\n      revert\n        /* \"#utility.yul\":211:328   */\n    tag_107:\n        /* \"#utility.yul\":320:321   */\n      0x00\n        /* \"#utility.yul\":317:318   */\n      0x00\n        /* \"#utility.yul\":310:322   */\n      revert\n        /* \"#utility.yul\":334:411   */\n    tag_108:\n        /* \"#utility.yul\":371:378   */\n      0x00\n        /* \"#utility.yul\":400:405   */\n      dup2\n        /* \"#utility.yul\":389:405   */\n      swap1\n      pop\n        /* \"#utility.yul\":334:411   */\n      swap2\n      swap1\n      pop\n      jump\t// out\n        /* \"#utility.yul\":417:539   */\n    tag_109:\n        /* \"#utility.yul\":490:514   */\n      tag_166\n        /* \"#utility.yul\":508:513   */\n      dup2\n        /* \"#utility.yul\":490:514   */\n      tag_108\n      jump\t// in\n    tag_166:\n        /* \"#utility.yul\":483:488   */\n      dup2\n        /* \"#utility.yul\":480:515   */\n      eq\n        /* \"#utility.yul\":470:533   */\n      tag_167\n      jumpi\n        /* \"#utility.yul\":529:530   */\n      0x00\n        /* \"#utility.yul\":526:527   */\n      0x00\n        /* \"#utility.yul\":519:531   */\n      revert\n        /* \"#utility.yul\":470:533   */\n    tag_167:\n        /* \"#utility.yul\":417:539   */\n      pop\n      jump\t// out\n        /* \"#utility.yul\":545:684   */\n    tag_110:\n        /* \"#utility.yul\":591:596   */\n      0x00\n        /* \"#utility.yul\":629:635   */\n      dup2\n        /* \"#utility.yul\":616:636   */\n      calldataload\n        /* \"#utility.yul\":607:636   */\n      swap1\n      pop\n        /* \"#utility.yul\":645:678   */\n      tag_169\n        /* \"#utility.yul\":672:677   */\n      dup2\n        /* \"#utility.yul\":645:678   */\n      tag_109\n      jump\t// in\n    tag_169:\n        /* \"#utility.yul\":545:684   */\n      swap3\n      swap2\n      pop\n      pop\n      jump\t// out\n        /* \"#utility.yul\":690:816   */\n    tag_111:\n        /* \"#utility.yul\":727:734   */\n      0x00\n        /* \"#utility.yul\":767:809   */\n      0xffffffffffffffffffffffffffffffffffffffff\n        /* \"#utility.yul\":760:765   */\n      dup3\n        /* \"#utility.yul\":756:810   */\n      and\n        /* \"#utility.yul\":745:810   */\n      swap1\n      pop\n        /* \"#utility.yul\":690:816   */\n      swap2\n      swap1\n      pop\n      jump\t// out\n        /* \"#utility.yul\":822:918   */\n    tag_112:\n        /* \"#utility.yul\":859:866   */\n      0x00\n        /* \"#utility.yul\":888:912   */\n      tag_172\n        /* \"#utility.yul\":906:911   */\n      dup3\n        /* \"#utility.yul\":888:912   */\n      tag_111\n      jump\t// in\n    tag_172:\n        /* \"#utility.yul\":877:912   */\n      swap1\n      pop\n        /* \"#utility.yul\":822:918   */\n      swap2\n      swap1\n      pop\n      jump\t// out\n        /* \"#utility.yul\":924:1046   */\n    tag_113:\n        /* \"#utility.yul\":997:1021   */\n      tag_174\n        /* \"#utility.yul\":1015:1020   */\n      dup2\n        /* \"#utility.yul\":997:1021   */\n      tag_112\n      jump\t// in\n    tag_174:\n        /* \"#utility.yul\":990:995   */\n      dup2\n        /* \"#utility.yul\":987:1022   */\n      eq\n        /* \"#utility.yul\":977:1040   */\n      tag_175\n      jumpi\n        /* \"#utility.yul\":1036:1037   */\n      0x00\n        /* \"#utility.yul\":1033:1034   */\n      0x00\n        /* \"#utility.yul\":1026:1038   */\n      revert\n        /* \"#utility.yul\":977:1040   */\n    tag_175:\n        /* \"#utility.yul\":924:1046   */\n      pop\n      jump\t// out\n        /* \"#utility.yul\":1052:1191   */\n    tag_114:\n        /* \"#utility.yul\":1098:1103   */\n      0x00\n        /* \"#utility.yul\":1136:1142   */\n      dup2\n        /* \"#utility.yul\":1123:1143   */\n      calldataload\n        /* \"#utility.yul\":1114:1143   */\n      swap1\n      pop\n        /* \"#utility.yul\":1152:1185   */\n      tag_177\n        /* \"#utility.yul\":1179:1184   */\n      dup2\n        /* \"#utility.yul\":1152:1185   */\n      tag_113\n      jump\t// in\n    tag_177:\n        /* \"#utility.yul\":1052:1191   */\n      swap3\n      swap2\n      pop\n      pop\n      jump\t// out\n        /* \"#utility.yul\":1197:1671   */\n    tag_17:\n        /* \"#utility.yul\":1265:1271   */\n      0x00\n        /* \"#utility.yul\":1273:1279   */\n      0x00\n        /* \"#utility.yul\":1322:1324   */\n      0x40\n        /* \"#utility.yul\":1310:1319   */\n      dup4\n        /* \"#utility.yul\":1301:1308   */\n      dup6\n        /* \"#utility.yul\":1297:1320   */\n      sub\n        /* \"#utility.yul\":1293:1325   */\n      slt\n        /* \"#utility.yul\":1290:1409   */\n      iszero\n      tag_179\n      jumpi\n        /* \"#utility.yul\":1328:1407   */\n      tag_180\n      tag_106\n      jump\t// in\n    tag_180:\n        /* \"#utility.yul\":1290:1409   */\n    tag_179:\n        /* \"#utility.yul\":1448:1449   */\n      0x00\n        /* \"#utility.yul\":1473:1526   */\n      tag_181\n        /* \"#utility.yul\":1518:1525   */\n      dup6\n        /* \"#utility.yul\":1509:1515   */\n      dup3\n        /* \"#utility.yul\":1498:1507   */\n      dup7\n        /* \"#utility.yul\":1494:1516   */\n      add\n        /* \"#utility.yul\":1473:1526   */\n      tag_110\n      jump\t// in\n    tag_181:\n        /* \"#utility.yul\":1463:1526   */\n      swap3\n      pop\n        /* \"#utility.yul\":1419:1536   */\n      pop\n        /* \"#utility.yul\":1575:1577   */\n      0x20\n        /* \"#utility.yul\":1601:1654   */\n      tag_182\n        /* \"#utility.yul\":1646:1653   */\n      dup6\n        /* \"#utility.yul\":1637:1643   */\n      dup3\n        /* \"#utility.yul\":1626:1635   */\n      dup7\n        /* \"#utility.yul\":1622:1644   */\n      add\n        /* \"#utility.yul\":1601:1654   */\n      tag_114\n      jump\t// in\n    tag_182:\n        /* \"#utility.yul\":1591:1654   */\n      swap2\n      pop\n        /* \"#utility.yul\":1546:1664   */\n      pop\n        /* \"#utility.yul\":1197:1671   */\n      swap3\n      pop\n      swap3\n      swap1\n      pop\n      jump\t// out\n        /* \"#utility.yul\":1677:1795   */\n    tag_115:\n        /* \"#utility.yul\":1764:1788   */\n      tag_184\n        /* \"#utility.yul\":1782:1787   */\n      dup2\n        /* \"#utility.yul\":1764:1788   */\n      tag_108\n      jump\t// in\n    tag_184:\n        /* \"#utility.yul\":1759:1762   */\n      dup3\n        /* \"#utility.yul\":1752:1789   */\n      mstore\n        /* \"#utility.yul\":1677:1795   */\n      pop\n      pop\n      jump\t// out\n        /* \"#utility.yul\":1801:2023   */\n    tag_20:\n        /* \"#utility.yul\":1894:1898   */\n      0x00\n        /* \"#utility.yul\":1932:1934   */\n      0x20\n        /* \"#utility.yul\":1921:1930   */\n      dup3\n        /* \"#utility.yul\":1917:1935   */\n      add\n        /* \"#utility.yul\":1909:1935   */\n      swap1\n      pop\n        /* \"#utility.yul\":1945:2016   */\n      tag_186\n        /* \"#utility.yul\":2013:2014   */\n      0x00\n        /* \"#utility.yul\":2002:2011   */\n      dup4\n        /* \"#utility.yul\":1998:2015   */\n      add\n        /* \"#utility.yul\":1989:1995   */\n      dup5\n        /* \"#utility.yul\":1945:2016   */\n      tag_115\n      jump\t// in\n    tag_186:\n        /* \"#utility.yul\":1801:2023   */\n      swap3\n      swap2\n      pop\n      pop\n      jump\t// out\n        /* \"#utility.yul\":2029:2146   */\n    tag_116:\n        /* \"#utility.yul\":2138:2139   */\n      0x00\n        /* \"#utility.yul\":2135:2136   */\n      0x00\n        /* \"#utility.yul\":2128:2140   */\n      revert\n        /* \"#utility.yul\":2152:2269   */\n    tag_117:\n        /* \"#utility.yul\":2261:2262   */\n      0x00\n        /* \"#utility.yul\":2258:2259   */\n      0x00\n        /* \"#utility.yul\":2251:2263   */\n      revert\n        /* \"#utility.yul\":2275:2377   */\n    tag_118:\n        /* \"#utility.yul\":2316:2322   */\n      0x00\n        /* \"#utility.yul\":2367:2369   */\n      0x1f\n        /* \"#utility.yul\":2363:2370   */\n      not\n        /* \"#utility.yul\":2358:2360   */\n      0x1f\n        /* \"#utility.yul\":2351:2356   */\n      dup4\n        /* \"#utility.yul\":2347:2361   */\n      add\n        /* \"#utility.yul\":2343:2371   */\n      and\n        /* \"#utility.yul\":2333:2371   */\n      swap1\n      pop\n        /* \"#utility.yul\":2275:2377   */\n      swap2\n      swap1\n      pop\n      jump\t// out\n        /* \"#utility.yul\":2383:2563   */\n    tag_119:\n        /* \"#utility.yul\":2431:2508   */\n      0x4e487b7100000000000000000000000000000000000000000000000000000000\n        /* \"#utility.yul\":2428:2429   */\n      0x00\n        /* \"#utility.yul\":2421:2509   */\n      mstore\n        /* \"#utility.yul\":2528:2532   */\n      0x41\n        /* \"#utility.yul\":2525:2526   */\n      0x04\n        /* \"#utility.yul\":2518:2533   */\n      mstore\n        /* \"#utility.yul\":2552:2556   */\n      0x24\n        /* \"#utility.yul\":2549:2550   */\n      0x00\n        /* \"#utility.yul\":2542:2557   */\n      revert\n        /* \"#utility.yul\":2569:2850   */\n    tag_120:\n        /* \"#utility.yul\":2652:2679   */\n      tag_192\n        /* \"#utility.yul\":2674:2678   */\n      dup3\n        /* \"#utility.yul\":2652:2679   */\n      tag_118\n      jump\t// in\n    tag_192:\n        /* \"#utility.yul\":2644:2650   */\n      dup2\n        /* \"#utility.yul\":2640:2680   */\n      add\n        /* \"#utility.yul\":2782:2788   */\n      dup2\n        /* \"#utility.yul\":2770:2780   */\n      dup2\n        /* \"#utility.yul\":2767:2789   */\n      lt\n        /* \"#utility.yul\":2746:2764   */\n      0xffffffffffffffff\n        /* \"#utility.yul\":2734:2744   */\n      dup3\n        /* \"#utility.yul\":2731:2765   */\n      gt\n        /* \"#utility.yul\":2728:2790   */\n      or\n        /* \"#utility.yul\":2725:2813   */\n      iszero\n      tag_193\n      jumpi\n        /* \"#utility.yul\":2793:2811   */\n      tag_194\n      tag_119\n      jump\t// in\n    tag_194:\n        /* \"#utility.yul\":2725:2813   */\n    tag_193:\n        /* \"#utility.yul\":2833:2843   */\n      dup1\n        /* \"#utility.yul\":2829:2831   */\n      0x40\n        /* \"#utility.yul\":2822:2844   */\n      mstore\n        /* \"#utility.yul\":2612:2850   */\n      pop\n        /* \"#utility.yul\":2569:2850   */\n      pop\n      pop\n      jump\t// out\n        /* \"#utility.yul\":2856:2985   */\n    tag_121:\n        /* \"#utility.yul\":2890:2896   */\n      0x00\n        /* \"#utility.yul\":2917:2937   */\n      tag_196\n      tag_105\n      jump\t// in\n    tag_196:\n        /* \"#utility.yul\":2907:2937   */\n      swap1\n      pop\n        /* \"#utility.yul\":2946:2979   */\n      tag_197\n        /* \"#utility.yul\":2974:2978   */\n      dup3\n        /* \"#utility.yul\":2966:2972   */\n      dup3\n        /* \"#utility.yul\":2946:2979   */\n      tag_120\n      jump\t// in\n    tag_197:\n        /* \"#utility.yul\":2856:2985   */\n      swap2\n      swap1\n      pop\n      jump\t// out\n        /* \"#utility.yul\":2991:3299   */\n    tag_122:\n        /* \"#utility.yul\":3053:3057   */\n      0x00\n        /* \"#utility.yul\":3143:3161   */\n      0xffffffffffffffff\n        /* \"#utility.yul\":3135:3141   */\n      dup3\n        /* \"#utility.yul\":3132:3162   */\n      gt\n        /* \"#utility.yul\":3129:3185   */\n      iszero\n      tag_199\n      jumpi\n        /* \"#utility.yul\":3165:3183   */\n      tag_200\n      tag_119\n      jump\t// in\n    tag_200:\n        /* \"#utility.yul\":3129:3185   */\n    tag_199:\n        /* \"#utility.yul\":3203:3232   */\n      tag_201\n        /* \"#utility.yul\":3225:3231   */\n      dup3\n        /* \"#utility.yul\":3203:3232   */\n      tag_118\n      jump\t// in\n    tag_201:\n        /* \"#utility.yul\":3195:3232   */\n      swap1\n      pop\n        /* \"#utility.yul\":3287:3291   */\n      0x20\n        /* \"#utility.yul\":3281:3285   */\n      dup2\n        /* \"#utility.yul\":3277:3292   */\n      add\n        /* \"#utility.yul\":3269:3292   */\n      swap1\n      pop\n        /* \"#utility.yul\":2991:3299   */\n      swap2\n      swap1\n      pop\n      jump\t// out\n        /* \"#utility.yul\":3305:3453   */\n    tag_123:\n        /* \"#utility.yul\":3403:3409   */\n      dup3\n        /* \"#utility.yul\":3398:3401   */\n      dup2\n        /* \"#utility.yul\":3393:3396   */\n      dup4\n        /* \"#utility.yul\":3380:3410   */\n      calldatacopy\n        /* \"#utility.yul\":3444:3445   */\n      0x00\n        /* \"#utility.yul\":3435:3441   */\n      dup4\n        /* \"#utility.yul\":3430:3433   */\n      dup4\n        /* \"#utility.yul\":3426:3442   */\n      add\n        /* \"#utility.yul\":3419:3446   */\n      mstore\n        /* \"#utility.yul\":3305:3453   */\n      pop\n      pop\n      pop\n      jump\t// out\n        /* \"#utility.yul\":3459:3884   */\n    tag_124:\n        /* \"#utility.yul\":3537:3542   */\n      0x00\n        /* \"#utility.yul\":3562:3628   */\n      tag_204\n        /* \"#utility.yul\":3578:3627   */\n      tag_205\n        /* \"#utility.yul\":3620:3626   */\n      dup5\n        /* \"#utility.yul\":3578:3627   */\n      tag_122\n      jump\t// in\n    tag_205:\n        /* \"#utility.yul\":3562:3628   */\n      tag_121\n      jump\t// in\n    tag_204:\n        /* \"#utility.yul\":3553:3628   */\n      swap1\n      pop\n        /* \"#utility.yul\":3651:3657   */\n      dup3\n        /* \"#utility.yul\":3644:3649   */\n      dup2\n        /* \"#utility.yul\":3637:3658   */\n      mstore\n        /* \"#utility.yul\":3689:3693   */\n      0x20\n        /* \"#utility.yul\":3682:3687   */\n      dup2\n        /* \"#utility.yul\":3678:3694   */\n      add\n        /* \"#utility.yul\":3727:3730   */\n      dup5\n        /* \"#utility.yul\":3718:3724   */\n      dup5\n        /* \"#utility.yul\":3713:3716   */\n      dup5\n        /* \"#utility.yul\":3709:3725   */\n      add\n        /* \"#utility.yul\":3706:3731   */\n      gt\n        /* \"#utility.yul\":3703:3815   */\n      iszero\n      tag_206\n      jumpi\n        /* \"#utility.yul\":3734:3813   */\n      tag_207\n      tag_117\n      jump\t// in\n    tag_207:\n        /* \"#utility.yul\":3703:3815   */\n    tag_206:\n        /* \"#utility.yul\":3824:3878   */\n      tag_208\n        /* \"#utility.yul\":3871:3877   */\n      dup5\n        /* \"#utility.yul\":3866:3869   */\n      dup3\n        /* \"#utility.yul\":3861:3864   */\n      dup6\n        /* \"#utility.yul\":3824:3878   */\n      tag_123\n      jump\t// in\n    tag_208:\n        /* \"#utility.yul\":3543:3884   */\n      pop\n        /* \"#utility.yul\":3459:3884   */\n      swap4\n      swap3\n      pop\n      pop\n      pop\n      jump\t// out\n        /* \"#utility.yul\":3904:4244   */\n    tag_125:\n        /* \"#utility.yul\":3960:3965   */\n      0x00\n        /* \"#utility.yul\":4009:4012   */\n      dup3\n        /* \"#utility.yul\":4002:4006   */\n      0x1f\n        /* \"#utility.yul\":3994:4000   */\n      dup4\n        /* \"#utility.yul\":3990:4007   */\n      add\n        /* \"#utility.yul\":3986:4013   */\n      slt\n        /* \"#utility.yul\":3976:4098   */\n      tag_210\n      jumpi\n        /* \"#utility.yul\":4017:4096   */\n      tag_211\n      tag_116\n      jump\t// in\n    tag_211:\n        /* \"#utility.yul\":3976:4098   */\n    tag_210:\n        /* \"#utility.yul\":4134:4140   */\n      dup2\n        /* \"#utility.yul\":4121:4141   */\n      calldataload\n        /* \"#utility.yul\":4159:4238   */\n      tag_212\n        /* \"#utility.yul\":4234:4237   */\n      dup5\n        /* \"#utility.yul\":4226:4232   */\n      dup3\n        /* \"#utility.yul\":4219:4223   */\n      0x20\n        /* \"#utility.yul\":4211:4217   */\n      dup7\n        /* \"#utility.yul\":4207:4224   */\n      add\n        /* \"#utility.yul\":4159:4238   */\n      tag_124\n      jump\t// in\n    tag_212:\n        /* \"#utility.yul\":4150:4238   */\n      swap2\n      pop\n        /* \"#utility.yul\":3966:4244   */\n      pop\n        /* \"#utility.yul\":3904:4244   */\n      swap3\n      swap2\n      pop\n      pop\n      jump\t// out\n        /* \"#utility.yul\":4250:4904   */\n    tag_23:\n        /* \"#utility.yul\":4328:4334   */\n      0x00\n        /* \"#utility.yul\":4336:4342   */\n      0x00\n        /* \"#utility.yul\":4385:4387   */\n      0x40\n        /* \"#utility.yul\":4373:4382   */\n      dup4\n        /* \"#utility.yul\":4364:4371   */\n      dup6\n        /* \"#utility.yul\":4360:4383   */\n      sub\n        /* \"#utility.yul\":4356:4388   */\n      slt\n        /* \"#utility.yul\":4353:4472   */\n      iszero\n      tag_214\n      jumpi\n        /* \"#utility.yul\":4391:4470   */\n      tag_215\n      tag_106\n      jump\t// in\n    tag_215:\n        /* \"#utility.yul\":4353:4472   */\n    tag_214:\n        /* \"#utility.yul\":4511:4512   */\n      0x00\n        /* \"#utility.yul\":4536:4589   */\n      tag_216\n        /* \"#utility.yul\":4581:4588   */\n      dup6\n        /* \"#utility.yul\":4572:4578   */\n      dup3\n        /* \"#utility.yul\":4561:4570   */\n      dup7\n        /* \"#utility.yul\":4557:4579   */\n      add\n        /* \"#utility.yul\":4536:4589   */\n      tag_110\n      jump\t// in\n    tag_216:\n        /* \"#utility.yul\":4526:4589   */\n      swap3\n      pop\n        /* \"#utility.yul\":4482:4599   */\n      pop\n        /* \"#utility.yul\":4666:4668   */\n      0x20\n        /* \"#utility.yul\":4655:4664   */\n      dup4\n        /* \"#utility.yul\":4651:4669   */\n      add\n        /* \"#utility.yul\":4638:4670   */\n      calldataload\n        /* \"#utility.yul\":4697:4715   */\n      0xffffffffffffffff\n        /* \"#utility.yul\":4689:4695   */\n      dup2\n        /* \"#utility.yul\":4686:4716   */\n      gt\n        /* \"#utility.yul\":4683:4800   */\n      iszero\n      tag_217\n      jumpi\n        /* \"#utility.yul\":4719:4798   */\n      tag_218\n      tag_107\n      jump\t// in\n    tag_218:\n        /* \"#utility.yul\":4683:4800   */\n    tag_217:\n        /* \"#utility.yul\":4824:4887   */\n      tag_219\n        /* \"#utility.yul\":4879:4886   */\n      dup6\n        /* \"#utility.yul\":4870:4876   */\n      dup3\n        /* \"#utility.yul\":4859:4868   */\n      dup7\n        /* \"#utility.yul\":4855:4877   */\n      add\n        /* \"#utility.yul\":4824:4887   */\n      tag_125\n      jump\t// in\n    tag_219:\n        /* \"#utility.yul\":4814:4887   */\n      swap2\n      pop\n        /* \"#utility.yul\":4609:4897   */\n      pop\n        /* \"#utility.yul\":4250:4904   */\n      swap3\n      pop\n      swap3\n      swap1\n      pop\n      jump\t// out\n        /* \"#utility.yul\":4910:5000   */\n    tag_126:\n        /* \"#utility.yul\":4944:4951   */\n      0x00\n        /* \"#utility.yul\":4987:4992   */\n      dup2\n        /* \"#utility.yul\":4980:4993   */\n      iszero\n        /* \"#utility.yul\":4973:4994   */\n      iszero\n        /* \"#utility.yul\":4962:4994   */\n      swap1\n      pop\n        /* \"#utility.yul\":4910:5000   */\n      swap2\n      swap1\n      pop\n      jump\t// out\n        /* \"#utility.yul\":5006:5122   */\n    tag_127:\n        /* \"#utility.yul\":5076:5097   */\n      tag_222\n        /* \"#utility.yul\":5091:5096   */\n      dup2\n        /* \"#utility.yul\":5076:5097   */\n      tag_126\n      jump\t// in\n    tag_222:\n        /* \"#utility.yul\":5069:5074   */\n      dup2\n        /* \"#utility.yul\":5066:5098   */\n      eq\n        /* \"#utility.yul\":5056:5116   */\n      tag_223\n      jumpi\n        /* \"#utility.yul\":5112:5113   */\n      0x00\n        /* \"#utility.yul\":5109:5110   */\n      0x00\n        /* \"#utility.yul\":5102:5114   */\n      revert\n        /* \"#utility.yul\":5056:5116   */\n    tag_223:\n        /* \"#utility.yul\":5006:5122   */\n      pop\n      jump\t// out\n        /* \"#utility.yul\":5128:5261   */\n    tag_128:\n        /* \"#utility.yul\":5171:5176   */\n      0x00\n        /* \"#utility.yul\":5209:5215   */\n      dup2\n        /* \"#utility.yul\":5196:5216   */\n      calldataload\n        /* \"#utility.yul\":5187:5216   */\n      swap1\n      pop\n        /* \"#utility.yul\":5225:5255   */\n      tag_225\n        /* \"#utility.yul\":5249:5254   */\n      dup2\n        /* \"#utility.yul\":5225:5255   */\n      tag_127\n      jump\t// in\n    tag_225:\n        /* \"#utility.yul\":5128:5261   */\n      swap3\n      swap2\n      pop\n      pop\n      jump\t// out\n        /* \"#utility.yul\":5267:6026   */\n    tag_27:\n        /* \"#utility.yul\":5350:5356   */\n      0x00\n        /* \"#utility.yul\":5358:5364   */\n      0x00\n        /* \"#utility.yul\":5366:5372   */\n      0x00\n        /* \"#utility.yul\":5374:5380   */\n      0x00\n        /* \"#utility.yul\":5423:5426   */\n      0x80\n        /* \"#utility.yul\":5411:5420   */\n      dup6\n        /* \"#utility.yul\":5402:5409   */\n      dup8\n        /* \"#utility.yul\":5398:5421   */\n      sub\n        /* \"#utility.yul\":5394:5427   */\n      slt\n        /* \"#utility.yul\":5391:5511   */\n      iszero\n      tag_227\n      jumpi\n        /* \"#utility.yul\":5430:5509   */\n      tag_228\n      tag_106\n      jump\t// in\n    tag_228:\n        /* \"#utility.yul\":5391:5511   */\n    tag_227:\n        /* \"#utility.yul\":5550:5551   */\n      0x00\n        /* \"#utility.yul\":5575:5628   */\n      tag_229\n        /* \"#utility.yul\":5620:5627   */\n      dup8\n        /* \"#utility.yul\":5611:5617   */\n      dup3\n        /* \"#utility.yul\":5600:5609   */\n      dup9\n        /* \"#utility.yul\":5596:5618   */\n      add\n        /* \"#utility.yul\":5575:5628   */\n      tag_110\n      jump\t// in\n    tag_229:\n        /* \"#utility.yul\":5565:5628   */\n      swap5\n      pop\n        /* \"#utility.yul\":5521:5638   */\n      pop\n        /* \"#utility.yul\":5677:5679   */\n      0x20\n        /* \"#utility.yul\":5703:5756   */\n      tag_230\n        /* \"#utility.yul\":5748:5755   */\n      dup8\n        /* \"#utility.yul\":5739:5745   */\n      dup3\n        /* \"#utility.yul\":5728:5737   */\n      dup9\n        /* \"#utility.yul\":5724:5746   */\n      add\n        /* \"#utility.yul\":5703:5756   */\n      tag_114\n      jump\t// in\n    tag_230:\n        /* \"#utility.yul\":5693:5756   */\n      swap4\n      pop\n        /* \"#utility.yul\":5648:5766   */\n      pop\n        /* \"#utility.yul\":5805:5807   */\n      0x40\n        /* \"#utility.yul\":5831:5884   */\n      tag_231\n        /* \"#utility.yul\":5876:5883   */\n      dup8\n        /* \"#utility.yul\":5867:5873   */\n      dup3\n        /* \"#utility.yul\":5856:5865   */\n      dup9\n        /* \"#utility.yul\":5852:5874   */\n      add\n        /* \"#utility.yul\":5831:5884   */\n      tag_110\n      jump\t// in\n    tag_231:\n        /* \"#utility.yul\":5821:5884   */\n      swap3\n      pop\n        /* \"#utility.yul\":5776:5894   */\n      pop\n        /* \"#utility.yul\":5933:5935   */\n      0x60\n        /* \"#utility.yul\":5959:6009   */\n      tag_232\n        /* \"#utility.yul\":6001:6008   */\n      dup8\n        /* \"#utility.yul\":5992:5998   */\n      dup3\n        /* \"#utility.yul\":5981:5990   */\n      dup9\n        /* \"#utility.yul\":5977:5999   */\n      add\n        /* \"#utility.yul\":5959:6009   */\n      tag_128\n      jump\t// in\n    tag_232:\n        /* \"#utility.yul\":5949:6009   */\n      swap2\n      pop\n        /* \"#utility.yul\":5904:6019   */\n      pop\n        /* \"#utility.yul\":5267:6026   */\n      swap3\n      swap6\n      swap2\n      swap5\n      pop\n      swap3\n      pop\n      jump\t// out\n        /* \"#utility.yul\":6032:6506   */\n    tag_38:\n        /* \"#utility.yul\":6100:6106   */\n      0x00\n        /* \"#utility.yul\":6108:6114   */\n      0x00\n        /* \"#utility.yul\":6157:6159   */\n      0x40\n        /* \"#utility.yul\":6145:6154   */\n      dup4\n        /* \"#utility.yul\":6136:6143   */\n      dup6\n        /* \"#utility.yul\":6132:6155   */\n      sub\n        /* \"#utility.yul\":6128:6160   */\n      slt\n        /* \"#utility.yul\":6125:6244   */\n      iszero\n      tag_234\n      jumpi\n        /* \"#utility.yul\":6163:6242   */\n      tag_235\n      tag_106\n      jump\t// in\n    tag_235:\n        /* \"#utility.yul\":6125:6244   */\n    tag_234:\n        /* \"#utility.yul\":6283:6284   */\n      0x00\n        /* \"#utility.yul\":6308:6361   */\n      tag_236\n        /* \"#utility.yul\":6353:6360   */\n      dup6\n        /* \"#utility.yul\":6344:6350   */\n      dup3\n        /* \"#utility.yul\":6333:6342   */\n      dup7\n        /* \"#utility.yul\":6329:6351   */\n      add\n        /* \"#utility.yul\":6308:6361   */\n      tag_110\n      jump\t// in\n    tag_236:\n        /* \"#utility.yul\":6298:6361   */\n      swap3\n      pop\n        /* \"#utility.yul\":6254:6371   */\n      pop\n        /* \"#utility.yul\":6410:6412   */\n      0x20\n        /* \"#utility.yul\":6436:6489   */\n      tag_237\n        /* \"#utility.yul\":6481:6488   */\n      dup6\n        /* \"#utility.yul\":6472:6478   */\n      dup3\n        /* \"#utility.yul\":6461:6470   */\n      dup7\n        /* \"#utility.yul\":6457:6479   */\n      add\n        /* \"#utility.yul\":6436:6489   */\n      tag_110\n      jump\t// in\n    tag_237:\n        /* \"#utility.yul\":6426:6489   */\n      swap2\n      pop\n        /* \"#utility.yul\":6381:6499   */\n      pop\n        /* \"#utility.yul\":6032:6506   */\n      swap3\n      pop\n      swap3\n      swap1\n      pop\n      jump\t// out\n        /* \"#utility.yul\":6512:6630   */\n    tag_129:\n        /* \"#utility.yul\":6599:6623   */\n      tag_239\n        /* \"#utility.yul\":6617:6622   */\n      dup2\n        /* \"#utility.yul\":6599:6623   */\n      tag_112\n      jump\t// in\n    tag_239:\n        /* \"#utility.yul\":6594:6597   */\n      dup3\n        /* \"#utility.yul\":6587:6624   */\n      mstore\n        /* \"#utility.yul\":6512:6630   */\n      pop\n      pop\n      jump\t// out\n        /* \"#utility.yul\":6636:6858   */\n    tag_41:\n        /* \"#utility.yul\":6729:6733   */\n      0x00\n        /* \"#utility.yul\":6767:6769   */\n      0x20\n        /* \"#utility.yul\":6756:6765   */\n      dup3\n        /* \"#utility.yul\":6752:6770   */\n      add\n        /* \"#utility.yul\":6744:6770   */\n      swap1\n      pop\n        /* \"#utility.yul\":6780:6851   */\n      tag_241\n        /* \"#utility.yul\":6848:6849   */\n      0x00\n        /* \"#utility.yul\":6837:6846   */\n      dup4\n        /* \"#utility.yul\":6833:6850   */\n      add\n        /* \"#utility.yul\":6824:6830   */\n      dup5\n        /* \"#utility.yul\":6780:6851   */\n      tag_129\n      jump\t// in\n    tag_241:\n        /* \"#utility.yul\":6636:6858   */\n      swap3\n      swap2\n      pop\n      pop\n      jump\t// out\n        /* \"#utility.yul\":6864:7373   */\n    tag_44:\n        /* \"#utility.yul\":6933:6939   */\n      0x00\n        /* \"#utility.yul\":6982:6984   */\n      0x20\n        /* \"#utility.yul\":6970:6979   */\n      dup3\n        /* \"#utility.yul\":6961:6968   */\n      dup5\n        /* \"#utility.yul\":6957:6980   */\n      sub\n        /* \"#utility.yul\":6953:6985   */\n      slt\n        /* \"#utility.yul\":6950:7069   */\n      iszero\n      tag_243\n      jumpi\n        /* \"#utility.yul\":6988:7067   */\n      tag_244\n      tag_106\n      jump\t// in\n    tag_244:\n        /* \"#utility.yul\":6950:7069   */\n    tag_243:\n        /* \"#utility.yul\":7136:7137   */\n      0x00\n        /* \"#utility.yul\":7125:7134   */\n      dup3\n        /* \"#utility.yul\":7121:7138   */\n      add\n        /* \"#utility.yul\":7108:7139   */\n      calldataload\n        /* \"#utility.yul\":7166:7184   */\n      0xffffffffffffffff\n        /* \"#utility.yul\":7158:7164   */\n      dup2\n        /* \"#utility.yul\":7155:7185   */\n      gt\n        /* \"#utility.yul\":7152:7269   */\n      iszero\n      tag_245\n      jumpi\n        /* \"#utility.yul\":7188:7267   */\n      tag_246\n      tag_107\n      jump\t// in\n    tag_246:\n        /* \"#utility.yul\":7152:7269   */\n    tag_245:\n        /* \"#utility.yul\":7293:7356   */\n      tag_247\n        /* \"#utility.yul\":7348:7355   */\n      dup5\n        /* \"#utility.yul\":7339:7345   */\n      dup3\n        /* \"#utility.yul\":7328:7337   */\n      dup6\n        /* \"#utility.yul\":7324:7346   */\n      add\n        /* \"#utility.yul\":7293:7356   */\n      tag_125\n      jump\t// in\n    tag_247:\n        /* \"#utility.yul\":7283:7356   */\n      swap2\n      pop\n        /* \"#utility.yul\":7079:7366   */\n      pop\n        /* \"#utility.yul\":6864:7373   */\n      swap3\n      swap2\n      pop\n      pop\n      jump\t// out\n        /* \"#utility.yul\":7379:7708   */\n    tag_48:\n        /* \"#utility.yul\":7438:7444   */\n      0x00\n        /* \"#utility.yul\":7487:7489   */\n      0x20\n        /* \"#utility.yul\":7475:7484   */\n      dup3\n        /* \"#utility.yul\":7466:7473   */\n      dup5\n        /* \"#utility.yul\":7462:7485   */\n      sub\n        /* \"#utility.yul\":7458:7490   */\n      slt\n        /* \"#utility.yul\":7455:7574   */\n      iszero\n      tag_249\n      jumpi\n        /* \"#utility.yul\":7493:7572   */\n      tag_250\n      tag_106\n      jump\t// in\n    tag_250:\n        /* \"#utility.yul\":7455:7574   */\n    tag_249:\n        /* \"#utility.yul\":7613:7614   */\n      0x00\n        /* \"#utility.yul\":7638:7691   */\n      tag_251\n        /* \"#utility.yul\":7683:7690   */\n      dup5\n        /* \"#utility.yul\":7674:7680   */\n      dup3\n        /* \"#utility.yul\":7663:7672   */\n      dup6\n        /* \"#utility.yul\":7659:7681   */\n      add\n        /* \"#utility.yul\":7638:7691   */\n      tag_110\n      jump\t// in\n    tag_251:\n        /* \"#utility.yul\":7628:7691   */\n      swap2\n      pop\n        /* \"#utility.yul\":7584:7701   */\n      pop\n        /* \"#utility.yul\":7379:7708   */\n      swap3\n      swap2\n      pop\n      pop\n      jump\t// out\n        /* \"#utility.yul\":7714:7813   */\n    tag_130:\n        /* \"#utility.yul\":7766:7772   */\n      0x00\n        /* \"#utility.yul\":7800:7805   */\n      dup2\n        /* \"#utility.yul\":7794:7806   */\n      mload\n        /* \"#utility.yul\":7784:7806   */\n      swap1\n      pop\n        /* \"#utility.yul\":7714:7813   */\n      swap2\n      swap1\n      pop\n      jump\t// out\n        /* \"#utility.yul\":7819:7988   */\n    tag_131:\n        /* \"#utility.yul\":7903:7914   */\n      0x00\n        /* \"#utility.yul\":7937:7943   */\n      dup3\n        /* \"#utility.yul\":7932:7935   */\n      dup3\n        /* \"#utility.yul\":7925:7944   */\n      mstore\n        /* \"#utility.yul\":7977:7981   */\n      0x20\n        /* \"#utility.yul\":7972:7975   */\n      dup3\n        /* \"#utility.yul\":7968:7982   */\n      add\n        /* \"#utility.yul\":7953:7982   */\n      swap1\n      pop\n        /* \"#utility.yul\":7819:7988   */\n      swap3\n      swap2\n      pop\n      pop\n      jump\t// out\n        /* \"#utility.yul\":7994:8133   */\n    tag_132:\n        /* \"#utility.yul\":8083:8089   */\n      dup3\n        /* \"#utility.yul\":8078:8081   */\n      dup2\n        /* \"#utility.yul\":8073:8076   */\n      dup4\n        /* \"#utility.yul\":8067:8090   */\n      mcopy\n        /* \"#utility.yul\":8124:8125   */\n      0x00\n        /* \"#utility.yul\":8115:8121   */\n      dup4\n        /* \"#utility.yul\":8110:8113   */\n      dup4\n        /* \"#utility.yul\":8106:8122   */\n      add\n        /* \"#utility.yul\":8099:8126   */\n      mstore\n        /* \"#utility.yul\":7994:8133   */\n      pop\n      pop\n      pop\n      jump\t// out\n        /* \"#utility.yul\":8139:8516   */\n    tag_133:\n        /* \"#utility.yul\":8227:8230   */\n      0x00\n        /* \"#utility.yul\":8255:8294   */\n      tag_256\n        /* \"#utility.yul\":8288:8293   */\n      dup3\n        /* \"#utility.yul\":8255:8294   */\n      tag_130\n      jump\t// in\n    tag_256:\n        /* \"#utility.yul\":8310:8381   */\n      tag_257\n        /* \"#utility.yul\":8374:8380   */\n      dup2\n        /* \"#utility.yul\":8369:8372   */\n      dup6\n        /* \"#utility.yul\":8310:8381   */\n      tag_131\n      jump\t// in\n    tag_257:\n        /* \"#utility.yul\":8303:8381   */\n      swap4\n      pop\n        /* \"#utility.yul\":8390:8455   */\n      tag_258\n        /* \"#utility.yul\":8448:8454   */\n      dup2\n        /* \"#utility.yul\":8443:8446   */\n      dup6\n        /* \"#utility.yul\":8436:8440   */\n      0x20\n        /* \"#utility.yul\":8429:8434   */\n      dup7\n        /* \"#utility.yul\":8425:8441   */\n      add\n        /* \"#utility.yul\":8390:8455   */\n      tag_132\n      jump\t// in\n    tag_258:\n        /* \"#utility.yul\":8480:8509   */\n      tag_259\n        /* \"#utility.yul\":8502:8508   */\n      dup2\n        /* \"#utility.yul\":8480:8509   */\n      tag_118\n      jump\t// in\n    tag_259:\n        /* \"#utility.yul\":8475:8478   */\n      dup5\n        /* \"#utility.yul\":8471:8510   */\n      add\n        /* \"#utility.yul\":8464:8510   */\n      swap2\n      pop\n        /* \"#utility.yul\":8231:8516   */\n      pop\n        /* \"#utility.yul\":8139:8516   */\n      swap3\n      swap2\n      pop\n      pop\n      jump\t// out\n        /* \"#utility.yul\":8522:8631   */\n    tag_134:\n        /* \"#utility.yul\":8603:8624   */\n      tag_261\n        /* \"#utility.yul\":8618:8623   */\n      dup2\n        /* \"#utility.yul\":8603:8624   */\n      tag_126\n      jump\t// in\n    tag_261:\n        /* \"#utility.yul\":8598:8601   */\n      dup3\n        /* \"#utility.yul\":8591:8625   */\n      mstore\n        /* \"#utility.yul\":8522:8631   */\n      pop\n      pop\n      jump\t// out\n        /* \"#utility.yul\":8637:9269   */\n    tag_51:\n        /* \"#utility.yul\":8828:8832   */\n      0x00\n        /* \"#utility.yul\":8866:8869   */\n      0x80\n        /* \"#utility.yul\":8855:8864   */\n      dup3\n        /* \"#utility.yul\":8851:8870   */\n      add\n        /* \"#utility.yul\":8843:8870   */\n      swap1\n      pop\n        /* \"#utility.yul\":8880:8951   */\n      tag_263\n        /* \"#utility.yul\":8948:8949   */\n      0x00\n        /* \"#utility.yul\":8937:8946   */\n      dup4\n        /* \"#utility.yul\":8933:8950   */\n      add\n        /* \"#utility.yul\":8924:8930   */\n      dup8\n        /* \"#utility.yul\":8880:8951   */\n      tag_115\n      jump\t// in\n    tag_263:\n        /* \"#utility.yul\":8998:9007   */\n      dup2\n        /* \"#utility.yul\":8992:8996   */\n      dup2\n        /* \"#utility.yul\":8988:9008   */\n      sub\n        /* \"#utility.yul\":8983:8985   */\n      0x20\n        /* \"#utility.yul\":8972:8981   */\n      dup4\n        /* \"#utility.yul\":8968:8986   */\n      add\n        /* \"#utility.yul\":8961:9009   */\n      mstore\n        /* \"#utility.yul\":9026:9104   */\n      tag_264\n        /* \"#utility.yul\":9099:9103   */\n      dup2\n        /* \"#utility.yul\":9090:9096   */\n      dup7\n        /* \"#utility.yul\":9026:9104   */\n      tag_133\n      jump\t// in\n    tag_264:\n        /* \"#utility.yul\":9018:9104   */\n      swap1\n      pop\n        /* \"#utility.yul\":9114:9186   */\n      tag_265\n        /* \"#utility.yul\":9182:9184   */\n      0x40\n        /* \"#utility.yul\":9171:9180   */\n      dup4\n        /* \"#utility.yul\":9167:9185   */\n      add\n        /* \"#utility.yul\":9158:9164   */\n      dup6\n        /* \"#utility.yul\":9114:9186   */\n      tag_129\n      jump\t// in\n    tag_265:\n        /* \"#utility.yul\":9196:9262   */\n      tag_266\n        /* \"#utility.yul\":9258:9260   */\n      0x60\n        /* \"#utility.yul\":9247:9256   */\n      dup4\n        /* \"#utility.yul\":9243:9261   */\n      add\n        /* \"#utility.yul\":9234:9240   */\n      dup5\n        /* \"#utility.yul\":9196:9262   */\n      tag_134\n      jump\t// in\n    tag_266:\n        /* \"#utility.yul\":8637:9269   */\n      swap6\n      swap5\n      pop\n      pop\n      pop\n      pop\n      pop\n      jump\t// out\n        /* \"#utility.yul\":9275:9894   */\n    tag_54:\n        /* \"#utility.yul\":9352:9358   */\n      0x00\n        /* \"#utility.yul\":9360:9366   */\n      0x00\n        /* \"#utility.yul\":9368:9374   */\n      0x00\n        /* \"#utility.yul\":9417:9419   */\n      0x60\n        /* \"#utility.yul\":9405:9414   */\n      dup5\n        /* \"#utility.yul\":9396:9403   */\n      dup7\n        /* \"#utility.yul\":9392:9415   */\n      sub\n        /* \"#utility.yul\":9388:9420   */\n      slt\n        /* \"#utility.yul\":9385:9504   */\n      iszero\n      tag_268\n      jumpi\n        /* \"#utility.yul\":9423:9502   */\n      tag_269\n      tag_106\n      jump\t// in\n    tag_269:\n        /* \"#utility.yul\":9385:9504   */\n    tag_268:\n        /* \"#utility.yul\":9543:9544   */\n      0x00\n        /* \"#utility.yul\":9568:9621   */\n      tag_270\n        /* \"#utility.yul\":9613:9620   */\n      dup7\n        /* \"#utility.yul\":9604:9610   */\n      dup3\n        /* \"#utility.yul\":9593:9602   */\n      dup8\n        /* \"#utility.yul\":9589:9611   */\n      add\n        /* \"#utility.yul\":9568:9621   */\n      tag_110\n      jump\t// in\n    tag_270:\n        /* \"#utility.yul\":9558:9621   */\n      swap4\n      pop\n        /* \"#utility.yul\":9514:9631   */\n      pop\n        /* \"#utility.yul\":9670:9672   */\n      0x20\n        /* \"#utility.yul\":9696:9749   */\n      tag_271\n        /* \"#utility.yul\":9741:9748   */\n      dup7\n        /* \"#utility.yul\":9732:9738   */\n      dup3\n        /* \"#utility.yul\":9721:9730   */\n      dup8\n        /* \"#utility.yul\":9717:9739   */\n      add\n        /* \"#utility.yul\":9696:9749   */\n      tag_114\n      jump\t// in\n    tag_271:\n        /* \"#utility.yul\":9686:9749   */\n      swap3\n      pop\n        /* \"#utility.yul\":9641:9759   */\n      pop\n        /* \"#utility.yul\":9798:9800   */\n      0x40\n        /* \"#utility.yul\":9824:9877   */\n      tag_272\n        /* \"#utility.yul\":9869:9876   */\n      dup7\n        /* \"#utility.yul\":9860:9866   */\n      dup3\n        /* \"#utility.yul\":9849:9858   */\n      dup8\n        /* \"#utility.yul\":9845:9867   */\n      add\n        /* \"#utility.yul\":9824:9877   */\n      tag_110\n      jump\t// in\n    tag_272:\n        /* \"#utility.yul\":9814:9877   */\n      swap2\n      pop\n        /* \"#utility.yul\":9769:9887   */\n      pop\n        /* \"#utility.yul\":9275:9894   */\n      swap3\n      pop\n      swap3\n      pop\n      swap3\n      jump\t// out\n        /* \"#utility.yul\":9900:10220   */\n    tag_57:\n        /* \"#utility.yul\":10015:10019   */\n      0x00\n        /* \"#utility.yul\":10053:10055   */\n      0x40\n        /* \"#utility.yul\":10042:10051   */\n      dup3\n        /* \"#utility.yul\":10038:10056   */\n      add\n        /* \"#utility.yul\":10030:10056   */\n      swap1\n      pop\n        /* \"#utility.yul\":10066:10137   */\n      tag_274\n        /* \"#utility.yul\":10134:10135   */\n      0x00\n        /* \"#utility.yul\":10123:10132   */\n      dup4\n        /* \"#utility.yul\":10119:10136   */\n      add\n        /* \"#utility.yul\":10110:10116   */\n      dup6\n        /* \"#utility.yul\":10066:10137   */\n      tag_115\n      jump\t// in\n    tag_274:\n        /* \"#utility.yul\":10147:10213   */\n      tag_275\n        /* \"#utility.yul\":10209:10211   */\n      0x20\n        /* \"#utility.yul\":10198:10207   */\n      dup4\n        /* \"#utility.yul\":10194:10212   */\n      add\n        /* \"#utility.yul\":10185:10191   */\n      dup5\n        /* \"#utility.yul\":10147:10213   */\n      tag_134\n      jump\t// in\n    tag_275:\n        /* \"#utility.yul\":9900:10220   */\n      swap4\n      swap3\n      pop\n      pop\n      pop\n      jump\t// out\n        /* \"#utility.yul\":10226:10637   */\n    tag_62:\n        /* \"#utility.yul\":10361:10365   */\n      0x00\n        /* \"#utility.yul\":10399:10401   */\n      0x40\n        /* \"#utility.yul\":10388:10397   */\n      dup3\n        /* \"#utility.yul\":10384:10402   */\n      add\n        /* \"#utility.yul\":10376:10402   */\n      swap1\n      pop\n        /* \"#utility.yul\":10448:10457   */\n      dup2\n        /* \"#utility.yul\":10442:10446   */\n      dup2\n        /* \"#utility.yul\":10438:10458   */\n      sub\n        /* \"#utility.yul\":10434:10435   */\n      0x00\n        /* \"#utility.yul\":10423:10432   */\n      dup4\n        /* \"#utility.yul\":10419:10436   */\n      add\n        /* \"#utility.yul\":10412:10459   */\n      mstore\n        /* \"#utility.yul\":10476:10554   */\n      tag_277\n        /* \"#utility.yul\":10549:10553   */\n      dup2\n        /* \"#utility.yul\":10540:10546   */\n      dup6\n        /* \"#utility.yul\":10476:10554   */\n      tag_133\n      jump\t// in\n    tag_277:\n        /* \"#utility.yul\":10468:10554   */\n      swap1\n      pop\n        /* \"#utility.yul\":10564:10630   */\n      tag_278\n        /* \"#utility.yul\":10626:10628   */\n      0x20\n        /* \"#utility.yul\":10615:10624   */\n      dup4\n        /* \"#utility.yul\":10611:10629   */\n      add\n        /* \"#utility.yul\":10602:10608   */\n      dup5\n        /* \"#utility.yul\":10564:10630   */\n      tag_134\n      jump\t// in\n    tag_278:\n        /* \"#utility.yul\":10226:10637   */\n      swap4\n      swap3\n      pop\n      pop\n      pop\n      jump\t// out\n        /* \"#utility.yul\":10643:10814   */\n    tag_135:\n        /* \"#utility.yul\":10783:10806   */\n      0x436f7572736520646f6573206e6f742065786973740000000000000000000000\n        /* \"#utility.yul\":10779:10780   */\n      0x00\n        /* \"#utility.yul\":10771:10777   */\n      dup3\n        /* \"#utility.yul\":10767:10781   */\n      add\n        /* \"#utility.yul\":10760:10807   */\n      mstore\n        /* \"#utility.yul\":10643:10814   */\n      pop\n      jump\t// out\n        /* \"#utility.yul\":10820:11186   */\n    tag_136:\n        /* \"#utility.yul\":10962:10965   */\n      0x00\n        /* \"#utility.yul\":10983:11050   */\n      tag_281\n        /* \"#utility.yul\":11047:11049   */\n      0x15\n        /* \"#utility.yul\":11042:11045   */\n      dup4\n        /* \"#utility.yul\":10983:11050   */\n      tag_131\n      jump\t// in\n    tag_281:\n        /* \"#utility.yul\":10976:11050   */\n      swap2\n      pop\n        /* \"#utility.yul\":11059:11152   */\n      tag_282\n        /* \"#utility.yul\":11148:11151   */\n      dup3\n        /* \"#utility.yul\":11059:11152   */\n      tag_135\n      jump\t// in\n    tag_282:\n        /* \"#utility.yul\":11177:11179   */\n      0x20\n        /* \"#utility.yul\":11172:11175   */\n      dup3\n        /* \"#utility.yul\":11168:11180   */\n      add\n        /* \"#utility.yul\":11161:11180   */\n      swap1\n      pop\n        /* \"#utility.yul\":10820:11186   */\n      swap2\n      swap1\n      pop\n      jump\t// out\n        /* \"#utility.yul\":11192:11611   */\n    tag_70:\n        /* \"#utility.yul\":11358:11362   */\n      0x00\n        /* \"#utility.yul\":11396:11398   */\n      0x20\n        /* \"#utility.yul\":11385:11394   */\n      dup3\n        /* \"#utility.yul\":11381:11399   */\n      add\n        /* \"#utility.yul\":11373:11399   */\n      swap1\n      pop\n        /* \"#utility.yul\":11445:11454   */\n      dup2\n        /* \"#utility.yul\":11439:11443   */\n      dup2\n        /* \"#utility.yul\":11435:11455   */\n      sub\n        /* \"#utility.yul\":11431:11432   */\n      0x00\n        /* \"#utility.yul\":11420:11429   */\n      dup4\n        /* \"#utility.yul\":11416:11433   */\n      add\n        /* \"#utility.yul\":11409:11456   */\n      mstore\n        /* \"#utility.yul\":11473:11604   */\n      tag_284\n        /* \"#utility.yul\":11599:11603   */\n      dup2\n        /* \"#utility.yul\":11473:11604   */\n      tag_136\n      jump\t// in\n    tag_284:\n        /* \"#utility.yul\":11465:11604   */\n      swap1\n      pop\n        /* \"#utility.yul\":11192:11611   */\n      swap2\n      swap1\n      pop\n      jump\t// out\n        /* \"#utility.yul\":11617:11783   */\n    tag_137:\n        /* \"#utility.yul\":11757:11775   */\n      0x416c726561647920656e726f6c6c656400000000000000000000000000000000\n        /* \"#utility.yul\":11753:11754   */\n      0x00\n        /* \"#utility.yul\":11745:11751   */\n      dup3\n        /* \"#utility.yul\":11741:11755   */\n      add\n        /* \"#utility.yul\":11734:11776   */\n      mstore\n        /* \"#utility.yul\":11617:11783   */\n      pop\n      jump\t// out\n        /* \"#utility.yul\":11789:12155   */\n    tag_138:\n        /* \"#utility.yul\":11931:11934   */\n      0x00\n        /* \"#utility.yul\":11952:12019   */\n      tag_287\n        /* \"#utility.yul\":12016:12018   */\n      0x10\n        /* \"#utility.yul\":12011:12014   */\n      dup4\n        /* \"#utility.yul\":11952:12019   */\n      tag_131\n      jump\t// in\n    tag_287:\n        /* \"#utility.yul\":11945:12019   */\n      swap2\n      pop\n        /* \"#utility.yul\":12028:12121   */\n      tag_288\n        /* \"#utility.yul\":12117:12120   */\n      dup3\n        /* \"#utility.yul\":12028:12121   */\n      tag_137\n      jump\t// in\n    tag_288:\n        /* \"#utility.yul\":12146:12148   */\n      0x20\n        /* \"#utility.yul\":12141:12144   */\n      dup3\n        /* \"#utility.yul\":12137:12149   */\n      add\n        /* \"#utility.yul\":12130:12149   */\n      swap1\n      pop\n        /* \"#utility.yul\":11789:12155   */\n      swap2\n      swap1\n      pop\n      jump\t// out\n        /* \"#utility.yul\":12161:12580   */\n    tag_73:\n        /* \"#utility.yul\":12327:12331   */\n      0x00\n        /* \"#utility.yul\":12365:12367   */\n      0x20\n        /* \"#utility.yul\":12354:12363   */\n      dup3\n        /* \"#utility.yul\":12350:12368   */\n      add\n        /* \"#utility.yul\":12342:12368   */\n      swap1\n      pop\n        /* \"#utility.yul\":12414:12423   */\n      dup2\n        /* \"#utility.yul\":12408:12412   */\n      dup2\n        /* \"#utility.yul\":12404:12424   */\n      sub\n        /* \"#utility.yul\":12400:12401   */\n      0x00\n        /* \"#utility.yul\":12389:12398   */\n      dup4\n        /* \"#utility.yul\":12385:12402   */\n      add\n        /* \"#utility.yul\":12378:12425   */\n      mstore\n        /* \"#utility.yul\":12442:12573   */\n      tag_290\n        /* \"#utility.yul\":12568:12572   */\n      dup2\n        /* \"#utility.yul\":12442:12573   */\n      tag_138\n      jump\t// in\n    tag_290:\n        /* \"#utility.yul\":12434:12573   */\n      swap1\n      pop\n        /* \"#utility.yul\":12161:12580   */\n      swap2\n      swap1\n      pop\n      jump\t// out\n        /* \"#utility.yul\":12586:12766   */\n    tag_139:\n        /* \"#utility.yul\":12634:12711   */\n      0x4e487b7100000000000000000000000000000000000000000000000000000000\n        /* \"#utility.yul\":12631:12632   */\n      0x00\n        /* \"#utility.yul\":12624:12712   */\n      mstore\n        /* \"#utility.yul\":12731:12735   */\n      0x22\n        /* \"#utility.yul\":12728:12729   */\n      0x04\n        /* \"#utility.yul\":12721:12736   */\n      mstore\n        /* \"#utility.yul\":12755:12759   */\n      0x24\n        /* \"#utility.yul\":12752:12753   */\n      0x00\n        /* \"#utility.yul\":12745:12760   */\n      revert\n        /* \"#utility.yul\":12772:13092   */\n    tag_92:\n        /* \"#utility.yul\":12816:12822   */\n      0x00\n        /* \"#utility.yul\":12853:12854   */\n      0x02\n        /* \"#utility.yul\":12847:12851   */\n      dup3\n        /* \"#utility.yul\":12843:12855   */\n      div\n        /* \"#utility.yul\":12833:12855   */\n      swap1\n      pop\n        /* \"#utility.yul\":12900:12901   */\n      0x01\n        /* \"#utility.yul\":12894:12898   */\n      dup3\n        /* \"#utility.yul\":12890:12902   */\n      and\n        /* \"#utility.yul\":12921:12939   */\n      dup1\n        /* \"#utility.yul\":12911:12992   */\n      tag_293\n      jumpi\n        /* \"#utility.yul\":12977:12981   */\n      0x7f\n        /* \"#utility.yul\":12969:12975   */\n      dup3\n        /* \"#utility.yul\":12965:12982   */\n      and\n        /* \"#utility.yul\":12955:12982   */\n      swap2\n      pop\n        /* \"#utility.yul\":12911:12992   */\n    tag_293:\n        /* \"#utility.yul\":13039:13041   */\n      0x20\n        /* \"#utility.yul\":13031:13037   */\n      dup3\n        /* \"#utility.yul\":13028:13042   */\n      lt\n        /* \"#utility.yul\":13008:13026   */\n      dup2\n        /* \"#utility.yul\":13005:13043   */\n      sub\n        /* \"#utility.yul\":13002:13086   */\n      tag_294\n      jumpi\n        /* \"#utility.yul\":13058:13076   */\n      tag_295\n      tag_139\n      jump\t// in\n    tag_295:\n        /* \"#utility.yul\":13002:13086   */\n    tag_294:\n        /* \"#utility.yul\":12823:13092   */\n      pop\n        /* \"#utility.yul\":12772:13092   */\n      swap2\n      swap1\n      pop\n      jump\t// out\n        /* \"#utility.yul\":13098:13239   */\n    tag_140:\n        /* \"#utility.yul\":13147:13151   */\n      0x00\n        /* \"#utility.yul\":13170:13173   */\n      dup2\n        /* \"#utility.yul\":13162:13173   */\n      swap1\n      pop\n        /* \"#utility.yul\":13193:13196   */\n      dup2\n        /* \"#utility.yul\":13190:13191   */\n      0x00\n        /* \"#utility.yul\":13183:13197   */\n      mstore\n        /* \"#utility.yul\":13227:13231   */\n      0x20\n        /* \"#utility.yul\":13224:13225   */\n      0x00\n        /* \"#utility.yul\":13214:13232   */\n      keccak256\n        /* \"#utility.yul\":13206:13232   */\n      swap1\n      pop\n        /* \"#utility.yul\":13098:13239   */\n      swap2\n      swap1\n      pop\n      jump\t// out\n        /* \"#utility.yul\":13245:13338   */\n    tag_141:\n        /* \"#utility.yul\":13282:13288   */\n      0x00\n        /* \"#utility.yul\":13329:13331   */\n      0x20\n        /* \"#utility.yul\":13324:13326   */\n      0x1f\n        /* \"#utility.yul\":13317:13322   */\n      dup4\n        /* \"#utility.yul\":13313:13327   */\n      add\n        /* \"#utility.yul\":13309:13332   */\n      div\n        /* \"#utility.yul\":13299:13332   */\n      swap1\n      pop\n        /* \"#utility.yul\":13245:13338   */\n      swap2\n      swap1\n      pop\n      jump\t// out\n        /* \"#utility.yul\":13344:13451   */\n    tag_142:\n        /* \"#utility.yul\":13388:13396   */\n      0x00\n        /* \"#utility.yul\":13438:13443   */\n      dup3\n        /* \"#utility.yul\":13432:13436   */\n      dup3\n        /* \"#utility.yul\":13428:13444   */\n      shl\n        /* \"#utility.yul\":13407:13444   */\n      swap1\n      pop\n        /* \"#utility.yul\":13344:13451   */\n      swap3\n      swap2\n      pop\n      pop\n      jump\t// out\n        /* \"#utility.yul\":13457:13850   */\n    tag_143:\n        /* \"#utility.yul\":13526:13532   */\n      0x00\n        /* \"#utility.yul\":13576:13577   */\n      0x08\n        /* \"#utility.yul\":13564:13574   */\n      dup4\n        /* \"#utility.yul\":13560:13578   */\n      mul\n        /* \"#utility.yul\":13599:13696   */\n      tag_300\n        /* \"#utility.yul\":13629:13695   */\n      0xffffffffffffffffffffffffffffffffffffffffffffffffffffffffffffffff\n        /* \"#utility.yul\":13618:13627   */\n      dup3\n        /* \"#utility.yul\":13599:13696   */\n      tag_142\n      jump\t// in\n    tag_300:\n        /* \"#utility.yul\":13717:13756   */\n      tag_301\n        /* \"#utility.yul\":13747:13755   */\n      dup7\n        /* \"#utility.yul\":13736:13745   */\n      dup4\n        /* \"#utility.yul\":13717:13756   */\n      tag_142\n      jump\t// in\n    tag_301:\n        /* \"#utility.yul\":13705:13756   */\n      swap6\n      pop\n        /* \"#utility.yul\":13789:13793   */\n      dup1\n        /* \"#utility.yul\":13785:13794   */\n      not\n        /* \"#utility.yul\":13778:13783   */\n      dup5\n        /* \"#utility.yul\":13774:13795   */\n      and\n        /* \"#utility.yul\":13765:13795   */\n      swap4\n      pop\n        /* \"#utility.yul\":13838:13842   */\n      dup1\n        /* \"#utility.yul\":13828:13836   */\n      dup7\n        /* \"#utility.yul\":13824:13843   */\n      and\n        /* \"#utility.yul\":13817:13822   */\n      dup5\n        /* \"#utility.yul\":13814:13844   */\n      or\n        /* \"#utility.yul\":13804:13844   */\n      swap3\n      pop\n        /* \"#utility.yul\":13533:13850   */\n      pop\n      pop\n        /* \"#utility.yul\":13457:13850   */\n      swap4\n      swap3\n      pop\n      pop\n      pop\n      jump\t// out\n        /* \"#utility.yul\":13856:13916   */\n    tag_144:\n        /* \"#utility.yul\":13884:13887   */\n      0x00\n        /* \"#utility.yul\":13905:13910   */\n      dup2\n        /* \"#utility.yul\":13898:13910   */\n      swap1\n      pop\n        /* \"#utility.yul\":13856:13916   */\n      swap2\n      swap1\n      pop\n      jump\t// out\n        /* \"#utility.yul\":13922:14064   */\n    tag_145:\n        /* \"#utility.yul\":13972:13981   */\n      0x00\n        /* \"#utility.yul\":14005:14058   */\n      tag_304\n        /* \"#utility.yul\":14023:14057   */\n      tag_305\n        /* \"#utility.yul\":14032:14056   */\n      tag_306\n        /* \"#utility.yul\":14050:14055   */\n      dup5\n        /* \"#utility.yul\":14032:14056   */\n      tag_108\n      jump\t// in\n    tag_306:\n        /* \"#utility.yul\":14023:14057   */\n      tag_144\n      jump\t// in\n    tag_305:\n        /* \"#utility.yul\":14005:14058   */\n      tag_108\n      jump\t// in\n    tag_304:\n        /* \"#utility.yul\":13992:14058   */\n      swap1\n      pop\n        /* \"#utility.yul\":13922:14064   */\n      swap2\n      swap1\n      pop\n      jump\t// out\n        /* \"#utility.yul\":14070:14145   */\n    tag_146:\n        /* \"#utility.yul\":14113:14116   */\n      0x00\n        /* \"#utility.yul\":14134:14139   */\n      dup2\n        /* \"#utility.yul\":14127:14139   */\n      swap1\n      pop\n        /* \"#utility.yul\":14070:14145   */\n      swap2\n      swap1\n      pop\n      jump\t// out\n        /* \"#utility.yul\":14151:14420   */\n    tag_147:\n        /* \"#utility.yul\":14261:14300   */\n      tag_309\n        /* \"#utility.yul\":14292:14299   */\n      dup4\n        /* \"#utility.yul\":14261:14300   */\n      tag_145\n      jump\t// in\n    tag_309:\n        /* \"#utility.yul\":14322:14413   */\n      tag_310\n        /* \"#utility.yul\":14371:14412   */\n      tag_311\n        /* \"#utility.yul\":14395:14411   */\n      dup3\n        /* \"#utility.yul\":14371:14412   */\n      tag_146\n      jump\t// in\n    tag_311:\n        /* \"#utility.yul\":14363:14369   */\n      dup5\n        /* \"#utility.yul\":14356:14360   */\n      dup5\n        /* \"#utility.yul\":14350:14361   */\n      sload\n        /* \"#utility.yul\":14322:14413   */\n      tag_143\n      jump\t// in\n    tag_310:\n        /* \"#utility.yul\":14316:14320   */\n      dup3\n        /* \"#utility.yul\":14309:14414   */\n      sstore\n        /* \"#utility.yul\":14227:14420   */\n      pop\n        /* \"#utility.yul\":14151:14420   */\n      pop\n      pop\n      pop\n      jump\t// out\n        /* \"#utility.yul\":14426:14499   */\n    tag_148:\n        /* \"#utility.yul\":14471:14474   */\n      0x00\n        /* \"#utility.yul\":14492:14493   */\n      0x00\n        /* \"#utility.yul\":14485:14493   */\n      swap1\n      pop\n        /* \"#utility.yul\":14426:14499   */\n      swap1\n      jump\t// out\n        /* \"#utility.yul\":14505:14694   */\n    tag_149:\n        /* \"#utility.yul\":14582:14614   */\n      tag_314\n      tag_148\n      jump\t// in\n    tag_314:\n        /* \"#utility.yul\":14623:14688   */\n      tag_315\n        /* \"#utility.yul\":14681:14687   */\n      dup2\n        /* \"#utility.yul\":14673:14679   */\n      dup5\n        /* \"#utility.yul\":14667:14671   */\n      dup5\n        /* \"#utility.yul\":14623:14688   */\n      tag_147\n      jump\t// in\n    tag_315:\n        /* \"#utility.yul\":14558:14694   */\n      pop\n        /* \"#utility.yul\":14505:14694   */\n      pop\n      pop\n      jump\t// out\n        /* \"#utility.yul\":14700:14886   */\n    tag_150:\n        /* \"#utility.yul\":14760:14880   */\n    tag_317:\n        /* \"#utility.yul\":14777:14780   */\n      dup2\n        /* \"#utility.yul\":14770:14775   */\n      dup2\n        /* \"#utility.yul\":14767:14781   */\n      lt\n        /* \"#utility.yul\":14760:14880   */\n      iszero\n      tag_319\n      jumpi\n        /* \"#utility.yul\":14831:14870   */\n      tag_320\n        /* \"#utility.yul\":14868:14869   */\n      0x00\n        /* \"#utility.yul\":14861:14866   */\n      dup3\n        /* \"#utility.yul\":14831:14870   */\n      tag_149\n      jump\t// in\n    tag_320:\n        /* \"#utility.yul\":14804:14805   */\n      0x01\n        /* \"#utility.yul\":14797:14802   */\n      dup2\n        /* \"#utility.yul\":14793:14806   */\n      add\n        /* \"#utility.yul\":14784:14806   */\n      swap1\n      pop\n        /* \"#utility.yul\":14760:14880   */\n      jump(tag_317)\n    tag_319:\n        /* \"#utility.yul\":14700:14886   */\n      pop\n      pop\n      jump\t// out\n        /* \"#utility.yul\":14892:15435   */\n    tag_151:\n        /* \"#utility.yul\":14993:14995   */\n      0x1f\n        /* \"#utility.yul\":14988:14991   */\n      dup3\n        /* \"#utility.yul\":14985:14996   */\n      gt\n        /* \"#utility.yul\":14982:15428   */\n      iszero\n      tag_322\n      jumpi\n        /* \"#utility.yul\":15027:15065   */\n      tag_323\n        /* \"#utility.yul\":15059:15064   */\n      dup2\n        /* \"#utility.yul\":15027:15065   */\n      tag_140\n      jump\t// in\n    tag_323:\n        /* \"#utility.yul\":15111:15140   */\n      tag_324\n        /* \"#utility.yul\":15129:15139   */\n      dup5\n        /* \"#utility.yul\":15111:15140   */\n      tag_141\n      jump\t// in\n    tag_324:\n        /* \"#utility.yul\":15101:15109   */\n      dup2\n        /* \"#utility.yul\":15097:15141   */\n      add\n        /* \"#utility.yul\":15294:15296   */\n      0x20\n        /* \"#utility.yul\":15282:15292   */\n      dup6\n        /* \"#utility.yul\":15279:15297   */\n      lt\n        /* \"#utility.yul\":15276:15325   */\n      iszero\n      tag_325\n      jumpi\n        /* \"#utility.yul\":15315:15323   */\n      dup2\n        /* \"#utility.yul\":15300:15323   */\n      swap1\n      pop\n        /* \"#utility.yul\":15276:15325   */\n    tag_325:\n        /* \"#utility.yul\":15338:15418   */\n      tag_326\n        /* \"#utility.yul\":15394:15416   */\n      tag_327\n        /* \"#utility.yul\":15412:15415   */\n      dup6\n        /* \"#utility.yul\":15394:15416   */\n      tag_141\n      jump\t// in\n    tag_327:\n        /* \"#utility.yul\":15384:15392   */\n      dup4\n        /* \"#utility.yul\":15380:15417   */\n      add\n        /* \"#utility.yul\":15367:15378   */\n      dup3\n        /* \"#utility.yul\":15338:15418   */\n      tag_150\n      jump\t// in\n    tag_326:\n        /* \"#utility.yul\":14997:15428   */\n      pop\n      pop\n        /* \"#utility.yul\":14982:15428   */\n    tag_322:\n        /* \"#utility.yul\":14892:15435   */\n      pop\n      pop\n      pop\n      jump\t// out\n        /* \"#utility.yul\":15441:15558   */\n    tag_152:\n        /* \"#utility.yul\":15495:15503   */\n      0x00\n        /* \"#utility.yul\":15545:15550   */\n      dup3\n        /* \"#utility.yul\":15539:15543   */\n      dup3\n        /* \"#utility.yul\":15535:15551   */\n      shr\n        /* \"#utility.yul\":15514:15551   */\n      swap1\n      pop\n        /* \"#utility.yul\":15441:15558   */\n      swap3\n      swap2\n      pop\n      pop\n      jump\t// out\n        /* \"#utility.yul\":15564:15733   */\n    tag_153:\n        /* \"#utility.yul\":15608:15614   */\n      0x00\n        /* \"#utility.yul\":15641:15692   */\n      tag_330\n        /* \"#utility.yul\":15689:15690   */\n      0x00\n        /* \"#utility.yul\":15685:15691   */\n      not\n        /* \"#utility.yul\":15677:15682   */\n      dup5\n        /* \"#utility.yul\":15674:15675   */\n      0x08\n        /* \"#utility.yul\":15670:15683   */\n      mul\n        /* \"#utility.yul\":15641:15692   */\n      tag_152\n      jump\t// in\n    tag_330:\n        /* \"#utility.yul\":15637:15693   */\n      not\n        /* \"#utility.yul\":15722:15726   */\n      dup1\n        /* \"#utility.yul\":15716:15720   */\n      dup4\n        /* \"#utility.yul\":15712:15727   */\n      and\n        /* \"#utility.yul\":15702:15727   */\n      swap2\n      pop\n        /* \"#utility.yul\":15615:15733   */\n      pop\n        /* \"#utility.yul\":15564:15733   */\n      swap3\n      swap2\n      pop\n      pop\n      jump\t// out\n        /* \"#utility.yul\":15738:16033   */\n    tag_154:\n        /* \"#utility.yul\":15814:15818   */\n      0x00\n        /* \"#utility.yul\":15960:15989   */\n      tag_332\n        /* \"#utility.yul\":15985:15988   */\n      dup4\n        /* \"#utility.yul\":15979:15983   */\n      dup4\n        /* \"#utility.yul\":15960:15989   */\n      tag_153\n      jump\t// in\n    tag_332:\n        /* \"#utility.yul\":15952:15989   */\n      swap2\n      pop\n        /* \"#utility.yul\":16022:16025   */\n      dup3\n        /* \"#utility.yul\":16019:16020   */\n      0x02\n        /* \"#utility.yul\":16015:16026   */\n      mul\n        /* \"#utility.yul\":16009:16013   */\n      dup3\n        /* \"#utility.yul\":16006:16027   */\n      or\n        /* \"#utility.yul\":15998:16027   */\n      swap1\n      pop\n        /* \"#utility.yul\":15738:16033   */\n      swap3\n      swap2\n      pop\n      pop\n      jump\t// out\n        /* \"#utility.yul\":16038:17433   */\n    tag_75:\n        /* \"#utility.yul\":16155:16192   */\n      tag_334\n        /* \"#utility.yul\":16188:16191   */\n      dup3\n        /* \"#utility.yul\":16155:16192   */\n      tag_130\n      jump\t// in\n    tag_334:\n        /* \"#utility.yul\":16257:16275   */\n      0xffffffffffffffff\n        /* \"#utility.yul\":16249:16255   */\n      dup2\n        /* \"#utility.yul\":16246:16276   */\n      gt\n        /* \"#utility.yul\":16243:16299   */\n      iszero\n      tag_335\n      jumpi\n        /* \"#utility.yul\":16279:16297   */\n      tag_336\n      tag_119\n      jump\t// in\n    tag_336:\n        /* \"#utility.yul\":16243:16299   */\n    tag_335:\n        /* \"#utility.yul\":16323:16361   */\n      tag_337\n        /* \"#utility.yul\":16355:16359   */\n      dup3\n        /* \"#utility.yul\":16349:16360   */\n      sload\n        /* \"#utility.yul\":16323:16361   */\n      tag_92\n      jump\t// in\n    tag_337:\n        /* \"#utility.yul\":16408:16475   */\n      tag_338\n        /* \"#utility.yul\":16468:16474   */\n      dup3\n        /* \"#utility.yul\":16460:16466   */\n      dup3\n        /* \"#utility.yul\":16454:16458   */\n      dup6\n        /* \"#utility.yul\":16408:16475   */\n      tag_151\n      jump\t// in\n    tag_338:\n        /* \"#utility.yul\":16502:16503   */\n      0x00\n        /* \"#utility.yul\":16526:16530   */\n      0x20\n        /* \"#utility.yul\":16513:16530   */\n      swap1\n      pop\n        /* \"#utility.yul\":16558:16560   */\n      0x1f\n        /* \"#utility.yul\":16550:16556   */\n      dup4\n        /* \"#utility.yul\":16547:16561   */\n      gt\n        /* \"#utility.yul\":16575:16576   */\n      0x01\n        /* \"#utility.yul\":16570:17188   */\n      dup2\n      eq\n      tag_340\n      jumpi\n        /* \"#utility.yul\":17232:17233   */\n      0x00\n        /* \"#utility.yul\":17249:17255   */\n      dup5\n        /* \"#utility.yul\":17246:17323   */\n      iszero\n      tag_341\n      jumpi\n        /* \"#utility.yul\":17298:17307   */\n      dup3\n        /* \"#utility.yul\":17293:17296   */\n      dup8\n        /* \"#utility.yul\":17289:17308   */\n      add\n        /* \"#utility.yul\":17283:17309   */\n      mload\n        /* \"#utility.yul\":17274:17309   */\n      swap1\n      pop\n        /* \"#utility.yul\":17246:17323   */\n    tag_341:\n        /* \"#utility.yul\":17349:17416   */\n      tag_342\n        /* \"#utility.yul\":17409:17415   */\n      dup6\n        /* \"#utility.yul\":17402:17407   */\n      dup3\n        /* \"#utility.yul\":17349:17416   */\n      tag_154\n      jump\t// in\n    tag_342:\n        /* \"#utility.yul\":17343:17347   */\n      dup7\n        /* \"#utility.yul\":17336:17417   */\n      sstore\n        /* \"#utility.yul\":17205:17427   */\n      pop\n        /* \"#utility.yul\":16540:17427   */\n      jump(tag_339)\n        /* \"#utility.yul\":16570:17188   */\n    tag_340:\n        /* \"#utility.yul\":16622:16626   */\n      0x1f\n        /* \"#utility.yul\":16618:16627   */\n      not\n        /* \"#utility.yul\":16610:16616   */\n      dup5\n        /* \"#utility.yul\":16606:16628   */\n      and\n        /* \"#utility.yul\":16656:16693   */\n      tag_343\n        /* \"#utility.yul\":16688:16692   */\n      dup7\n        /* \"#utility.yul\":16656:16693   */\n      tag_140\n      jump\t// in\n    tag_343:\n        /* \"#utility.yul\":16715:16716   */\n      0x00\n        /* \"#utility.yul\":16729:16937   */\n    tag_344:\n        /* \"#utility.yul\":16743:16750   */\n      dup3\n        /* \"#utility.yul\":16740:16741   */\n      dup2\n        /* \"#utility.yul\":16737:16751   */\n      lt\n        /* \"#utility.yul\":16729:16937   */\n      iszero\n      tag_346\n      jumpi\n        /* \"#utility.yul\":16822:16831   */\n      dup5\n        /* \"#utility.yul\":16817:16820   */\n      dup10\n        /* \"#utility.yul\":16813:16832   */\n      add\n        /* \"#utility.yul\":16807:16833   */\n      mload\n        /* \"#utility.yul\":16799:16805   */\n      dup3\n        /* \"#utility.yul\":16792:16834   */\n      sstore\n        /* \"#utility.yul\":16873:16874   */\n      0x01\n        /* \"#utility.yul\":16865:16871   */\n      dup3\n        /* \"#utility.yul\":16861:16875   */\n      add\n        /* \"#utility.yul\":16851:16875   */\n      swap2\n      pop\n        /* \"#utility.yul\":16920:16922   */\n      0x20\n        /* \"#utility.yul\":16909:16918   */\n      dup6\n        /* \"#utility.yul\":16905:16923   */\n      add\n        /* \"#utility.yul\":16892:16923   */\n      swap5\n      pop\n        /* \"#utility.yul\":16766:16770   */\n      0x20\n        /* \"#utility.yul\":16763:16764   */\n      dup2\n        /* \"#utility.yul\":16759:16771   */\n      add\n        /* \"#utility.yul\":16754:16771   */\n      swap1\n      pop\n        /* \"#utility.yul\":16729:16937   */\n      jump(tag_344)\n    tag_346:\n        /* \"#utility.yul\":16965:16971   */\n      dup7\n        /* \"#utility.yul\":16956:16963   */\n      dup4\n        /* \"#utility.yul\":16953:16972   */\n      lt\n        /* \"#utility.yul\":16950:17129   */\n      iszero\n      tag_347\n      jumpi\n        /* \"#utility.yul\":17023:17032   */\n      dup5\n        /* \"#utility.yul\":17018:17021   */\n      dup10\n        /* \"#utility.yul\":17014:17033   */\n      add\n        /* \"#utility.yul\":17008:17034   */\n      mload\n        /* \"#utility.yul\":17066:17114   */\n      tag_348\n        /* \"#utility.yul\":17108:17112   */\n      0x1f\n        /* \"#utility.yul\":17100:17106   */\n      dup10\n        /* \"#utility.yul\":17096:17113   */\n      and\n        /* \"#utility.yul\":17085:17094   */\n      dup3\n        /* \"#utility.yul\":17066:17114   */\n      tag_153\n      jump\t// in\n    tag_348:\n        /* \"#utility.yul\":17058:17064   */\n      dup4\n        /* \"#utility.yul\":17051:17115   */\n      sstore\n        /* \"#utility.yul\":16973:17129   */\n      pop\n        /* \"#utility.yul\":16950:17129   */\n    tag_347:\n        /* \"#utility.yul\":17175:17176   */\n      0x01\n        /* \"#utility.yul\":17171:17172   */\n      0x02\n        /* \"#utility.yul\":17163:17169   */\n      dup9\n        /* \"#utility.yul\":17159:17173   */\n      mul\n        /* \"#utility.yul\":17155:17177   */\n      add\n        /* \"#utility.yul\":17149:17153   */\n      dup9\n        /* \"#utility.yul\":17142:17178   */\n      sstore\n        /* \"#utility.yul\":16577:17188   */\n      pop\n      pop\n      pop\n        /* \"#utility.yul\":16540:17427   */\n    tag_339:\n      pop\n        /* \"#utility.yul\":16130:17433   */\n      pop\n      pop\n      pop\n        /* \"#utility.yul\":16038:17433   */\n      pop\n      pop\n      jump\t// out\n        /* \"#utility.yul\":17439:17617   */\n    tag_155:\n        /* \"#utility.yul\":17579:17609   */\n      0x4f6e6c792074686520746561636865722063616e20646f207468697300000000\n        /* \"#utility.yul\":17575:17576   */\n      0x00\n        /* \"#utility.yul\":17567:17573   */\n      dup3\n        /* \"#utility.yul\":17563:17577   */\n      add\n        /* \"#utility.yul\":17556:17610   */\n      mstore\n        /* \"#utility.yul\":17439:17617   */\n      pop\n      jump\t// out\n        /* \"#utility.yul\":17623:17989   */\n    tag_156:\n        /* \"#utility.yul\":17765:17768   */\n      0x00\n        /* \"#utility.yul\":17786:17853   */\n      tag_351\n        /* \"#utility.yul\":17850:17852   */\n      0x1c\n        /* \"#utility.yul\":17845:17848   */\n      dup4\n        /* \"#utility.yul\":17786:17853   */\n      tag_131\n      jump\t// in\n    tag_351:\n        /* \"#utility.yul\":17779:17853   */\n      swap2\n      pop\n        /* \"#utility.yul\":17862:17955   */\n      tag_352\n        /* \"#utility.yul\":17951:17954   */\n      dup3\n        /* \"#utility.yul\":17862:17955   */\n      tag_155\n      jump\t// in\n    tag_352:\n        /* \"#utility.yul\":17980:17982   */\n      0x20\n        /* \"#utility.yul\":17975:17978   */\n      dup3\n        /* \"#utility.yul\":17971:17983   */\n      add\n        /* \"#utility.yul\":17964:17983   */\n      swap1\n      pop\n        /* \"#utility.yul\":17623:17989   */\n      swap2\n      swap1\n      pop\n      jump\t// out\n        /* \"#utility.yul\":17995:18414   */\n    tag_80:\n        /* \"#utility.yul\":18161:18165   */\n      0x00\n        /* \"#utility.yul\":18199:18201   */\n      0x20\n        /* \"#utility.yul\":18188:18197   */\n      dup3\n        /* \"#utility.yul\":18184:18202   */\n      add\n        /* \"#utility.yul\":18176:18202   */\n      swap1\n      pop\n        /* \"#utility.yul\":18248:18257   */\n      dup2\n        /* \"#utility.yul\":18242:18246   */\n      dup2\n        /* \"#utility.yul\":18238:18258   */\n      sub\n        /* \"#utility.yul\":18234:18235   */\n      0x00\n        /* \"#utility.yul\":18223:18232   */\n      dup4\n        /* \"#utility.yul\":18219:18236   */\n      add\n        /* \"#utility.yul\":18212:18259   */\n      mstore\n        /* \"#utility.yul\":18276:18407   */\n      tag_354\n        /* \"#utility.yul\":18402:18406   */\n      dup2\n        /* \"#utility.yul\":18276:18407   */\n      tag_156\n      jump\t// in\n    tag_354:\n        /* \"#utility.yul\":18268:18407   */\n      swap1\n      pop\n        /* \"#utility.yul\":17995:18414   */\n      swap2\n      swap1\n      pop\n      jump\t// out\n        /* \"#utility.yul\":18420:18593   */\n    tag_157:\n        /* \"#utility.yul\":18560:18585   */\n      0x53747564656e74206973206e6f7420656e726f6c6c6564000000000000000000\n        /* \"#utility.yul\":18556:18557   */\n      0x00\n        /* \"#utility.yul\":18548:18554   */\n      dup3\n        /* \"#utility.yul\":18544:18558   */\n      add\n        /* \"#utility.yul\":18537:18586   */\n      mstore\n        /* \"#utility.yul\":18420:18593   */\n      pop\n      jump\t// out\n        /* \"#utility.yul\":18599:18965   */\n    tag_158:\n        /* \"#utility.yul\":18741:18744   */\n      0x00\n        /* \"#utility.yul\":18762:18829   */\n      tag_357\n        /* \"#utility.yul\":18826:18828   */\n      0x17\n        /* \"#utility.yul\":18821:18824   */\n      dup4\n        /* \"#utility.yul\":18762:18829   */\n      tag_131\n      jump\t// in\n    tag_357:\n        /* \"#utility.yul\":18755:18829   */\n      swap2\n      pop\n        /* \"#utility.yul\":18838:18931   */\n      tag_358\n        /* \"#utility.yul\":18927:18930   */\n      dup3\n        /* \"#utility.yul\":18838:18931   */\n      tag_157\n      jump\t// in\n    tag_358:\n        /* \"#utility.yul\":18956:18958   */\n      0x20\n        /* \"#utility.yul\":18951:18954   */\n      dup3\n        /* \"#utility.yul\":18947:18959   */\n      add\n        /* \"#utility.yul\":18940:18959   */\n      swap1\n      pop\n        /* \"#utility.yul\":18599:18965   */\n      swap2\n      swap1\n      pop\n      jump\t// out\n        /* \"#utility.yul\":18971:19390   */\n    tag_83:\n        /* \"#utility.yul\":19137:19141   */\n      0x00\n        /* \"#utility.yul\":19175:19177   */\n      0x20\n        /* \"#utility.yul\":19164:19173   */\n      dup3\n        /* \"#utility.yul\":19160:19178   */\n      add\n        /* \"#utility.yul\":19152:19178   */\n      swap1\n      pop\n        /* \"#utility.yul\":19224:19233   */\n      dup2\n        /* \"#utility.yul\":19218:19222   */\n      dup2\n        /* \"#utility.yul\":19214:19234   */\n      sub\n        /* \"#utility.yul\":19210:19211   */\n      0x00\n        /* \"#utility.yul\":19199:19208   */\n      dup4\n        /* \"#utility.yul\":19195:19212   */\n      add\n        /* \"#utility.yul\":19188:19235   */\n      mstore\n        /* \"#utility.yul\":19252:19383   */\n      tag_360\n        /* \"#utility.yul\":19378:19382   */\n      dup2\n        /* \"#utility.yul\":19252:19383   */\n      tag_158\n      jump\t// in\n    tag_360:\n        /* \"#utility.yul\":19244:19383   */\n      swap1\n      pop\n        /* \"#utility.yul\":18971:19390   */\n      swap2\n      swap1\n      pop\n      jump\t// out\n        /* \"#utility.yul\":19396:19576   */\n    tag_159:\n        /* \"#utility.yul\":19444:19521   */\n      0x4e487b7100000000000000000000000000000000000000000000000000000000\n        /* \"#utility.yul\":19441:19442   */\n      0x00\n        /* \"#utility.yul\":19434:19522   */\n      mstore\n        /* \"#utility.yul\":19541:19545   */\n      0x11\n        /* \"#utility.yul\":19538:19539   */\n      0x04\n        /* \"#utility.yul\":19531:19546   */\n      mstore\n        /* \"#utility.yul\":19565:19569   */\n      0x24\n        /* \"#utility.yul\":19562:19563   */\n      0x00\n        /* \"#utility.yul\":19555:19570   */\n      revert\n        /* \"#utility.yul\":19582:19815   */\n    tag_89:\n        /* \"#utility.yul\":19621:19624   */\n      0x00\n        /* \"#utility.yul\":19644:19668   */\n      tag_363\n        /* \"#utility.yul\":19662:19667   */\n      dup3\n        /* \"#utility.yul\":19644:19668   */\n      tag_108\n      jump\t// in\n    tag_363:\n        /* \"#utility.yul\":19635:19668   */\n      swap2\n      pop\n        /* \"#utility.yul\":19690:19756   */\n      0xffffffffffffffffffffffffffffffffffffffffffffffffffffffffffffffff\n        /* \"#utility.yul\":19683:19688   */\n      dup3\n        /* \"#utility.yul\":19680:19757   */\n      sub\n        /* \"#utility.yul\":19677:19780   */\n      tag_364\n      jumpi\n        /* \"#utility.yul\":19760:19778   */\n      tag_365\n      tag_159\n      jump\t// in\n    tag_365:\n        /* \"#utility.yul\":19677:19780   */\n    tag_364:\n        /* \"#utility.yul\":19807:19808   */\n      0x01\n        /* \"#utility.yul\":19800:19805   */\n      dup3\n        /* \"#utility.yul\":19796:19809   */\n      add\n        /* \"#utility.yul\":19789:19809   */\n      swap1\n      pop\n        /* \"#utility.yul\":19582:19815   */\n      swap2\n      swap1\n      pop\n      jump\t// out\n\n    auxdata: 0xa2646970667358221220b1d575c11699be7c643f52d531d06ca2bff5cbed41e041820ed25c60dc7edba664736f6c634300081e0033\n}\n",
				"bytecode": {
					"linkReferences": {},
					"object": "60806040525f5f553480156011575f5ffd5b5061142d8061001f5f395ff3fe608060405234801561000f575f5ffd5b50600436106100a7575f3560e01c80636e274a341161006f5780636e274a34146101615780638a38ab2c1461019157806396f979d2146101ad578063b7f5d9a0146101e0578063dfb8040314610211578063f79967f214610242576100a7565b806324b337ec146100ab57806349144927146100db5780634d034705146100f757806366055159146101135780636ca40e3914610131575b5f5ffd5b6100c560048036038101906100c09190610a4c565b61025e565b6040516100d29190610a99565b60405180910390f35b6100f560048036038101906100f09190610bee565b610265565b005b610111600480360381019061010c9190610c7d565b61046f565b005b61011b610663565b6040516101289190610a99565b60405180910390f35b61014b60048036038101906101469190610a4c565b610668565b6040516101589190610a99565b60405180910390f35b61017b60048036038101906101769190610ce1565b610688565b6040516101889190610d2e565b60405180910390f35b6101ab60048036038101906101a69190610d47565b6106d0565b005b6101c760048036038101906101c29190610d8e565b6107bd565b6040516101d79493929190610e28565b60405180910390f35b6101fa60048036038101906101f59190610e72565b61089b565b604051610208929190610ec2565b60405180910390f35b61022b60048036038101906102269190610a4c565b6108ec565b604051610239929190610ee9565b60405180910390f35b61025c60048036038101906102579190610e72565b6109a9565b005b5f92915050565b60015f8381526020019081526020015f2060020160149054906101000a900460ff166102c6576040517f08c379a00000000000000000000000000000000000000000000000000000000081526004016102bd90610f61565b60405180910390fd5b60035f8381526020019081526020015f205f3373ffffffffffffffffffffffffffffffffffffffff1673ffffffffffffffffffffffffffffffffffffffff1681526020019081526020015f206001015f9054906101000a900460ff1615610362576040517f08c379a000000000000000000000000000000000000000000000000000000000815260040161035990610fc9565b60405180910390fd5b60405180604001604052808281526020016001151581525060035f8481526020019081526020015f205f3373ffffffffffffffffffffffffffffffffffffffff1673ffffffffffffffffffffffffffffffffffffffff1681526020019081526020015f205f820151815f0190816103d991906111e4565b506020820151816001015f6101000a81548160ff02191690831515021790555090505060025f8381526020019081526020015f2033908060018154018082558091505060019003905f5260205f20015f9091909190916101000a81548173ffffffffffffffffffffffffffffffffffffffff021916908373ffffffffffffffffffffffffffffffffffffffff1602179055505050565b3373ffffffffffffffffffffffffffffffffffffffff1660015f8681526020019081526020015f206002015f9054906101000a900473ffffffffffffffffffffffffffffffffffffffff1673ffffffffffffffffffffffffffffffffffffffff1614610510576040517f08c379a0000000000000000000000000000000000000000000000000000000008152600401610507906112fd565b60405180910390fd5b60035f8581526020019081526020015f205f8473ffffffffffffffffffffffffffffffffffffffff1673ffffffffffffffffffffffffffffffffffffffff1681526020019081526020015f206001015f9054906101000a900460ff166105ab576040517f08c379a00000000000000000000000000000000000000000000000000000000081526004016105a290611365565b60405180910390fd5b60045f8581526020019081526020015f205f8473ffffffffffffffffffffffffffffffffffffffff1673ffffffffffffffffffffffffffffffffffffffff1681526020019081526020015f206040518060400160405280848152602001831515815250908060018154018082558091505060019003905f5260205f2090600202015f909190919091505f820151815f01556020820151816001015f6101000a81548160ff021916908315150217905550505050505050565b5f5481565b6005602052815f5260405f20602052805f5260405f205f91509150505481565b6002602052815f5260405f2081815481106106a1575f80fd5b905f5260205f20015f915091509054906101000a900473ffffffffffffffffffffffffffffffffffffffff1681565b5f5f8154809291906106e1906113b0565b919050555060405180608001604052805f5481526020018281526020013373ffffffffffffffffffffffffffffffffffffffff1681526020016001151581525060015f5f5481526020019081526020015f205f820151815f0155602082015181600101908161075091906111e4565b506040820151816002015f6101000a81548173ffffffffffffffffffffffffffffffffffffffff021916908373ffffffffffffffffffffffffffffffffffffffff16021790555060608201518160020160146101000a81548160ff02191690831515021790555090505050565b6001602052805f5260405f205f91509050805f0154908060010180546107e290611014565b80601f016020809104026020016040519081016040528092919081815260200182805461080e90611014565b80156108595780601f1061083057610100808354040283529160200191610859565b820191905f5260205f20905b81548152906001019060200180831161083c57829003601f168201915b505050505090806002015f9054906101000a900473ffffffffffffffffffffffffffffffffffffffff16908060020160149054906101000a900460ff16905084565b6004602052825f5260405f20602052815f5260405f2081815481106108be575f80fd5b905f5260205f2090600202015f925092505050805f015490806001015f9054906101000a900460ff16905082565b6003602052815f5260405f20602052805f5260405f205f9150915050805f01805461091690611014565b80601f016020809104026020016040519081016040528092919081815260200182805461094290611014565b801561098d5780601f106109645761010080835404028352916020019161098d565b820191905f5260205f20905b81548152906001019060200180831161097057829003601f168201915b505050505090806001015f9054906101000a900460ff16905082565b505050565b5f604051905090565b5f5ffd5b5f5ffd5b5f819050919050565b6109d1816109bf565b81146109db575f5ffd5b50565b5f813590506109ec816109c8565b92915050565b5f73ffffffffffffffffffffffffffffffffffffffff82169050919050565b5f610a1b826109f2565b9050919050565b610a2b81610a11565b8114610a35575f5ffd5b50565b5f81359050610a4681610a22565b92915050565b5f5f60408385031215610a6257610a616109b7565b5b5f610a6f858286016109de565b9250506020610a8085828601610a38565b9150509250929050565b610a93816109bf565b82525050565b5f602082019050610aac5f830184610a8a565b92915050565b5f5ffd5b5f5ffd5b5f601f19601f8301169050919050565b7f4e487b71000000000000000000000000000000000000000000000000000000005f52604160045260245ffd5b610b0082610aba565b810181811067ffffffffffffffff82111715610b1f57610b1e610aca565b5b80604052505050565b5f610b316109ae565b9050610b3d8282610af7565b919050565b5f67ffffffffffffffff821115610b5c57610b5b610aca565b5b610b6582610aba565b9050602081019050919050565b828183375f83830152505050565b5f610b92610b8d84610b42565b610b28565b905082815260208101848484011115610bae57610bad610ab6565b5b610bb9848285610b72565b509392505050565b5f82601f830112610bd557610bd4610ab2565b5b8135610be5848260208601610b80565b91505092915050565b5f5f60408385031215610c0457610c036109b7565b5b5f610c11858286016109de565b925050602083013567ffffffffffffffff811115610c3257610c316109bb565b5b610c3e85828601610bc1565b9150509250929050565b5f8115159050919050565b610c5c81610c48565b8114610c66575f5ffd5b50565b5f81359050610c7781610c53565b92915050565b5f5f5f5f60808587031215610c9557610c946109b7565b5b5f610ca2878288016109de565b9450506020610cb387828801610a38565b9350506040610cc4878288016109de565b9250506060610cd587828801610c69565b91505092959194509250565b5f5f60408385031215610cf757610cf66109b7565b5b5f610d04858286016109de565b9250506020610d15858286016109de565b9150509250929050565b610d2881610a11565b82525050565b5f602082019050610d415f830184610d1f565b92915050565b5f60208284031215610d5c57610d5b6109b7565b5b5f82013567ffffffffffffffff811115610d7957610d786109bb565b5b610d8584828501610bc1565b91505092915050565b5f60208284031215610da357610da26109b7565b5b5f610db0848285016109de565b91505092915050565b5f81519050919050565b5f82825260208201905092915050565b8281835e5f83830152505050565b5f610deb82610db9565b610df58185610dc3565b9350610e05818560208601610dd3565b610e0e81610aba565b840191505092915050565b610e2281610c48565b82525050565b5f608082019050610e3b5f830187610a8a565b8181036020830152610e4d8186610de1565b9050610e5c6040830185610d1f565b610e696060830184610e19565b95945050505050565b5f5f5f60608486031215610e8957610e886109b7565b5b5f610e96868287016109de565b9350506020610ea786828701610a38565b9250506040610eb8868287016109de565b9150509250925092565b5f604082019050610ed55f830185610a8a565b610ee26020830184610e19565b9392505050565b5f6040820190508181035f830152610f018185610de1565b9050610f106020830184610e19565b9392505050565b7f436f7572736520646f6573206e6f7420657869737400000000000000000000005f82015250565b5f610f4b601583610dc3565b9150610f5682610f17565b602082019050919050565b5f6020820190508181035f830152610f7881610f3f565b9050919050565b7f416c726561647920656e726f6c6c6564000000000000000000000000000000005f82015250565b5f610fb3601083610dc3565b9150610fbe82610f7f565b602082019050919050565b5f6020820190508181035f830152610fe081610fa7565b9050919050565b7f4e487b71000000000000000000000000000000000000000000000000000000005f52602260045260245ffd5b5f600282049050600182168061102b57607f821691505b60208210810361103e5761103d610fe7565b5b50919050565b5f819050815f5260205f209050919050565b5f6020601f8301049050919050565b5f82821b905092915050565b5f600883026110a07fffffffffffffffffffffffffffffffffffffffffffffffffffffffffffffffff82611065565b6110aa8683611065565b95508019841693508086168417925050509392505050565b5f819050919050565b5f6110e56110e06110db846109bf565b6110c2565b6109bf565b9050919050565b5f819050919050565b6110fe836110cb565b61111261110a826110ec565b848454611071565b825550505050565b5f5f905090565b61112961111a565b6111348184846110f5565b505050565b5b818110156111575761114c5f82611121565b60018101905061113a565b5050565b601f82111561119c5761116d81611044565b61117684611056565b81016020851015611185578190505b61119961119185611056565b830182611139565b50505b505050565b5f82821c905092915050565b5f6111bc5f19846008026111a1565b1980831691505092915050565b5f6111d483836111ad565b9150826002028217905092915050565b6111ed82610db9565b67ffffffffffffffff81111561120657611205610aca565b5b6112108254611014565b61121b82828561115b565b5f60209050601f83116001811461124c575f841561123a578287015190505b61124485826111c9565b8655506112ab565b601f19841661125a86611044565b5f5b828110156112815784890151825560018201915060208501945060208101905061125c565b8683101561129e578489015161129a601f8916826111ad565b8355505b6001600288020188555050505b505050505050565b7f4f6e6c792074686520746561636865722063616e20646f2074686973000000005f82015250565b5f6112e7601c83610dc3565b91506112f2826112b3565b602082019050919050565b5f6020820190508181035f830152611314816112db565b9050919050565b7f53747564656e74206973206e6f7420656e726f6c6c65640000000000000000005f82015250565b5f61134f601783610dc3565b915061135a8261131b565b602082019050919050565b5f6020820190508181035f83015261137c81611343565b9050919050565b7f4e487b71000000000000000000000000000000000000000000000000000000005f52601160045260245ffd5b5f6113ba826109bf565b91507fffffffffffffffffffffffffffffffffffffffffffffffffffffffffffffffff82036113ec576113eb611383565b5b60018201905091905056fea2646970667358221220b1d575c11699be7c643f52d531d06ca2bff5cbed41e041820ed25c60dc7edba664736f6c634300081e0033",
					"opcodes": "PUSH1 0x80 PUSH1 0x40 MSTORE PUSH0 PUSH0 SSTORE CALLVALUE DUP1 ISZERO PUSH1 0x11 JUMPI PUSH0 PUSH0 REVERT JUMPDEST POP PUSH2 0x142D DUP1 PUSH2 0x1F PUSH0 CODECOPY PUSH0 RETURN INVALID PUSH1 0x80 PUSH1 0x40 MSTORE CALLVALUE DUP1 ISZERO PUSH2 0xF JUMPI PUSH0 PUSH0 REVERT JUMPDEST POP PUSH1 0x4 CALLDATASIZE LT PUSH2 0xA7 JUMPI PUSH0 CALLDATALOAD PUSH1 0xE0 SHR DUP1 PUSH4 0x6E274A34 GT PUSH2 0x6F JUMPI DUP1 PUSH4 0x6E274A34 EQ PUSH2 0x161 JUMPI DUP1 PUSH4 0x8A38AB2C EQ PUSH2 0x191 JUMPI DUP1 PUSH4 0x96F979D2 EQ PUSH2 0x1AD JUMPI DUP1 PUSH4 0xB7F5D9A0 EQ PUSH2 0x1E0 JUMPI DUP1 PUSH4 0xDFB80403 EQ PUSH2 0x211 JUMPI DUP1 PUSH4 0xF79967F2 EQ PUSH2 0x242 JUMPI PUSH2 0xA7 JUMP JUMPDEST DUP1 PUSH4 0x24B337EC EQ PUSH2 0xAB JUMPI DUP1 PUSH4 0x49144927 EQ PUSH2 0xDB JUMPI DUP1 PUSH4 0x4D034705 EQ PUSH2 0xF7 JUMPI DUP1 PUSH4 0x66055159 EQ PUSH2 0x113 JUMPI DUP1 PUSH4 0x6CA40E39 EQ PUSH2 0x131 JUMPI JUMPDEST PUSH0 PUSH0 REVERT JUMPDEST PUSH2 0xC5 PUSH1 0x4 DUP1 CALLDATASIZE SUB DUP2 ADD SWAP1 PUSH2 0xC0 SWAP2 SWAP1 PUSH2 0xA4C JUMP JUMPDEST PUSH2 0x25E JUMP JUMPDEST PUSH1 0x40 MLOAD PUSH2 0xD2 SWAP2 SWAP1 PUSH2 0xA99 JUMP JUMPDEST PUSH1 0x40 MLOAD DUP1 SWAP2 SUB SWAP1 RETURN JUMPDEST PUSH2 0xF5 PUSH1 0x4 DUP1 CALLDATASIZE SUB DUP2 ADD SWAP1 PUSH2 0xF0 SWAP2 SWAP1 PUSH2 0xBEE JUMP JUMPDEST PUSH2 0x265 JUMP JUMPDEST STOP JUMPDEST PUSH2 0x111 PUSH1 0x4 DUP1 CALLDATASIZE SUB DUP2 ADD SWAP1 PUSH2 0x10C SWAP2 SWAP1 PUSH2 0xC7D JUMP JUMPDEST PUSH2 0x46F JUMP JUMPDEST STOP JUMPDEST PUSH2 0x11B PUSH2 0x663 JUMP JUMPDEST PUSH1 0x40 MLOAD PUSH2 0x128 SWAP2 SWAP1 PUSH2 0xA99 JUMP JUMPDEST PUSH1 0x40 MLOAD DUP1 SWAP2 SUB SWAP1 RETURN JUMPDEST PUSH2 0x14B PUSH1 0x4 DUP1 CALLDATASIZE SUB DUP2 ADD SWAP1 PUSH2 0x146 SWAP2 SWAP1 PUSH2 0xA4C JUMP JUMPDEST PUSH2 0x668 JUMP JUMPDEST PUSH1 0x40 MLOAD PUSH2 0x158 SWAP2 SWAP1 PUSH2 0xA99 JUMP JUMPDEST PUSH1 0x40 MLOAD DUP1 SWAP2 SUB SWAP1 RETURN JUMPDEST PUSH2 0x17B PUSH1 0x4 DUP1 CALLDATASIZE SUB DUP2 ADD SWAP1 PUSH2 0x176 SWAP2 SWAP1 PUSH2 0xCE1 JUMP JUMPDEST PUSH2 0x688 JUMP JUMPDEST PUSH1 0x40 MLOAD PUSH2 0x188 SWAP2 SWAP1 PUSH2 0xD2E JUMP JUMPDEST PUSH1 0x40 MLOAD DUP1 SWAP2 SUB SWAP1 RETURN JUMPDEST PUSH2 0x1AB PUSH1 0x4 DUP1 CALLDATASIZE SUB DUP2 ADD SWAP1 PUSH2 0x1A6 SWAP2 SWAP1 PUSH2 0xD47 JUMP JUMPDEST PUSH2 0x6D0 JUMP JUMPDEST STOP JUMPDEST PUSH2 0x1C7 PUSH1 0x4 DUP1 CALLDATASIZE SUB DUP2 ADD SWAP1 PUSH2 0x1C2 SWAP2 SWAP1 PUSH2 0xD8E JUMP JUMPDEST PUSH2 0x7BD JUMP JUMPDEST PUSH1 0x40 MLOAD PUSH2 0x1D7 SWAP5 SWAP4 SWAP3 SWAP2 SWAP1 PUSH2 0xE28 JUMP JUMPDEST PUSH1 0x40 MLOAD DUP1 SWAP2 SUB SWAP1 RETURN JUMPDEST PUSH2 0x1FA PUSH1 0x4 DUP1 CALLDATASIZE SUB DUP2 ADD SWAP1 PUSH2 0x1F5 SWAP2 SWAP1 PUSH2 0xE72 JUMP JUMPDEST PUSH2 0x89B JUMP JUMPDEST PUSH1 0x40 MLOAD PUSH2 0x208 SWAP3 SWAP2 SWAP1 PUSH2 0xEC2 JUMP JUMPDEST PUSH1 0x40 MLOAD DUP1 SWAP2 SUB SWAP1 RETURN JUMPDEST PUSH2 0x22B PUSH1 0x4 DUP1 CALLDATASIZE SUB DUP2 ADD SWAP1 PUSH2 0x226 SWAP2 SWAP1 PUSH2 0xA4C JUMP JUMPDEST PUSH2 0x8EC JUMP JUMPDEST PUSH1 0x40 MLOAD PUSH2 0x239 SWAP3 SWAP2 SWAP1 PUSH2 0xEE9 JUMP JUMPDEST PUSH1 0x40 MLOAD DUP1 SWAP2 SUB SWAP1 RETURN JUMPDEST PUSH2 0x25C PUSH1 0x4 DUP1 CALLDATASIZE SUB DUP2 ADD SWAP1 PUSH2 0x257 SWAP2 SWAP1 PUSH2 0xE72 JUMP JUMPDEST PUSH2 0x9A9 JUMP JUMPDEST STOP JUMPDEST PUSH0 SWAP3 SWAP2 POP POP JUMP JUMPDEST PUSH1 0x1 PUSH0 DUP4 DUP2 MSTORE PUSH1 0x20 ADD SWAP1 DUP2 MSTORE PUSH1 0x20 ADD PUSH0 KECCAK256 PUSH1 0x2 ADD PUSH1 0x14 SWAP1 SLOAD SWAP1 PUSH2 0x100 EXP SWAP1 DIV PUSH1 0xFF AND PUSH2 0x2C6 JUMPI PUSH1 0x40 MLOAD PUSH32 0x8C379A000000000000000000000000000000000000000000000000000000000 DUP2 MSTORE PUSH1 0x4 ADD PUSH2 0x2BD SWAP1 PUSH2 0xF61 JUMP JUMPDEST PUSH1 0x40 MLOAD DUP1 SWAP2 SUB SWAP1 REVERT JUMPDEST PUSH1 0x3 PUSH0 DUP4 DUP2 MSTORE PUSH1 0x20 ADD SWAP1 DUP2 MSTORE PUSH1 0x20 ADD PUSH0 KECCAK256 PUSH0 CALLER PUSH20 0xFFFFFFFFFFFFFFFFFFFFFFFFFFFFFFFFFFFFFFFF AND PUSH20 0xFFFFFFFFFFFFFFFFFFFFFFFFFFFFFFFFFFFFFFFF AND DUP2 MSTORE PUSH1 0x20 ADD SWAP1 DUP2 MSTORE PUSH1 0x20 ADD PUSH0 KECCAK256 PUSH1 0x1 ADD PUSH0 SWAP1 SLOAD SWAP1 PUSH2 0x100 EXP SWAP1 DIV PUSH1 0xFF AND ISZERO PUSH2 0x362 JUMPI PUSH1 0x40 MLOAD PUSH32 0x8C379A000000000000000000000000000000000000000000000000000000000 DUP2 MSTORE PUSH1 0x4 ADD PUSH2 0x359 SWAP1 PUSH2 0xFC9 JUMP JUMPDEST PUSH1 0x40 MLOAD DUP1 SWAP2 SUB SWAP1 REVERT JUMPDEST PUSH1 0x40 MLOAD DUP1 PUSH1 0x40 ADD PUSH1 0x40 MSTORE DUP1 DUP3 DUP2 MSTORE PUSH1 0x20 ADD PUSH1 0x1 ISZERO ISZERO DUP2 MSTORE POP PUSH1 0x3 PUSH0 DUP5 DUP2 MSTORE PUSH1 0x20 ADD SWAP1 DUP2 MSTORE PUSH1 0x20 ADD PUSH0 KECCAK256 PUSH0 CALLER PUSH20 0xFFFFFFFFFFFFFFFFFFFFFFFFFFFFFFFFFFFFFFFF AND PUSH20 0xFFFFFFFFFFFFFFFFFFFFFFFFFFFFFFFFFFFFFFFF AND DUP2 MSTORE PUSH1 0x20 ADD SWAP1 DUP2 MSTORE PUSH1 0x20 ADD PUSH0 KECCAK256 PUSH0 DUP3 ADD MLOAD DUP2 PUSH0 ADD SWAP1 DUP2 PUSH2 0x3D9 SWAP2 SWAP1 PUSH2 0x11E4 JUMP JUMPDEST POP PUSH1 0x20 DUP3 ADD MLOAD DUP2 PUSH1 0x1 ADD PUSH0 PUSH2 0x100 EXP DUP2 SLOAD DUP2 PUSH1 0xFF MUL NOT AND SWAP1 DUP4 ISZERO ISZERO MUL OR SWAP1 SSTORE POP SWAP1 POP POP PUSH1 0x2 PUSH0 DUP4 DUP2 MSTORE PUSH1 0x20 ADD SWAP1 DUP2 MSTORE PUSH1 0x20 ADD PUSH0 KECCAK256 CALLER SWAP1 DUP1 PUSH1 0x1 DUP2 SLOAD ADD DUP1 DUP3 SSTORE DUP1 SWAP2 POP POP PUSH1 0x1 SWAP1 SUB SWAP1 PUSH0 MSTORE PUSH1 0x20 PUSH0 KECCAK256 ADD PUSH0 SWAP1 SWAP2 SWAP1 SWAP2 SWAP1 SWAP2 PUSH2 0x100 EXP DUP2 SLOAD DUP2 PUSH20 0xFFFFFFFFFFFFFFFFFFFFFFFFFFFFFFFFFFFFFFFF MUL NOT AND SWAP1 DUP4 PUSH20 0xFFFFFFFFFFFFFFFFFFFFFFFFFFFFFFFFFFFFFFFF AND MUL OR SWAP1 SSTORE POP POP POP JUMP JUMPDEST CALLER PUSH20 0xFFFFFFFFFFFFFFFFFFFFFFFFFFFFFFFFFFFFFFFF AND PUSH1 0x1 PUSH0 DUP7 DUP2 MSTORE PUSH1 0x20 ADD SWAP1 DUP2 MSTORE PUSH1 0x20 ADD PUSH0 KECCAK256 PUSH1 0x2 ADD PUSH0 SWAP1 SLOAD SWAP1 PUSH2 0x100 EXP SWAP1 DIV PUSH20 0xFFFFFFFFFFFFFFFFFFFFFFFFFFFFFFFFFFFFFFFF AND PUSH20 0xFFFFFFFFFFFFFFFFFFFFFFFFFFFFFFFFFFFFFFFF AND EQ PUSH2 0x510 JUMPI PUSH1 0x40 MLOAD PUSH32 0x8C379A000000000000000000000000000000000000000000000000000000000 DUP2 MSTORE PUSH1 0x4 ADD PUSH2 0x507 SWAP1 PUSH2 0x12FD JUMP JUMPDEST PUSH1 0x40 MLOAD DUP1 SWAP2 SUB SWAP1 REVERT JUMPDEST PUSH1 0x3 PUSH0 DUP6 DUP2 MSTORE PUSH1 0x20 ADD SWAP1 DUP2 MSTORE PUSH1 0x20 ADD PUSH0 KECCAK256 PUSH0 DUP5 PUSH20 0xFFFFFFFFFFFFFFFFFFFFFFFFFFFFFFFFFFFFFFFF AND PUSH20 0xFFFFFFFFFFFFFFFFFFFFFFFFFFFFFFFFFFFFFFFF AND DUP2 MSTORE PUSH1 0x20 ADD SWAP1 DUP2 MSTORE PUSH1 0x20 ADD PUSH0 KECCAK256 PUSH1 0x1 ADD PUSH0 SWAP1 SLOAD SWAP1 PUSH2 0x100 EXP SWAP1 DIV PUSH1 0xFF AND PUSH2 0x5AB JUMPI PUSH1 0x40 MLOAD PUSH32 0x8C379A000000000000000000000000000000000000000000000000000000000 DUP2 MSTORE PUSH1 0x4 ADD PUSH2 0x5A2 SWAP1 PUSH2 0x1365 JUMP JUMPDEST PUSH1 0x40 MLOAD DUP1 SWAP2 SUB SWAP1 REVERT JUMPDEST PUSH1 0x4 PUSH0 DUP6 DUP2 MSTORE PUSH1 0x20 ADD SWAP1 DUP2 MSTORE PUSH1 0x20 ADD PUSH0 KECCAK256 PUSH0 DUP5 PUSH20 0xFFFFFFFFFFFFFFFFFFFFFFFFFFFFFFFFFFFFFFFF AND PUSH20 0xFFFFFFFFFFFFFFFFFFFFFFFFFFFFFFFFFFFFFFFF AND DUP2 MSTORE PUSH1 0x20 ADD SWAP1 DUP2 MSTORE PUSH1 0x20 ADD PUSH0 KECCAK256 PUSH1 0x40 MLOAD DUP1 PUSH1 0x40 ADD PUSH1 0x40 MSTORE DUP1 DUP5 DUP2 MSTORE PUSH1 0x20 ADD DUP4 ISZERO ISZERO DUP2 MSTORE POP SWAP1 DUP1 PUSH1 0x1 DUP2 SLOAD ADD DUP1 DUP3 SSTORE DUP1 SWAP2 POP POP PUSH1 0x1 SWAP1 SUB SWAP1 PUSH0 MSTORE PUSH1 0x20 PUSH0 KECCAK256 SWAP1 PUSH1 0x2 MUL ADD PUSH0 SWAP1 SWAP2 SWAP1 SWAP2 SWAP1 SWAP2 POP PUSH0 DUP3 ADD MLOAD DUP2 PUSH0 ADD SSTORE PUSH1 0x20 DUP3 ADD MLOAD DUP2 PUSH1 0x1 ADD PUSH0 PUSH2 0x100 EXP DUP2 SLOAD DUP2 PUSH1 0xFF MUL NOT AND SWAP1 DUP4 ISZERO ISZERO MUL OR SWAP1 SSTORE POP POP POP POP POP POP POP JUMP JUMPDEST PUSH0 SLOAD DUP2 JUMP JUMPDEST PUSH1 0x5 PUSH1 0x20 MSTORE DUP2 PUSH0 MSTORE PUSH1 0x40 PUSH0 KECCAK256 PUSH1 0x20 MSTORE DUP1 PUSH0 MSTORE PUSH1 0x40 PUSH0 KECCAK256 PUSH0 SWAP2 POP SWAP2 POP POP SLOAD DUP2 JUMP JUMPDEST PUSH1 0x2 PUSH1 0x20 MSTORE DUP2 PUSH0 MSTORE PUSH1 0x40 PUSH0 KECCAK256 DUP2 DUP2 SLOAD DUP2 LT PUSH2 0x6A1 JUMPI PUSH0 DUP1 REVERT JUMPDEST SWAP1 PUSH0 MSTORE PUSH1 0x20 PUSH0 KECCAK256 ADD PUSH0 SWAP2 POP SWAP2 POP SWAP1 SLOAD SWAP1 PUSH2 0x100 EXP SWAP1 DIV PUSH20 0xFFFFFFFFFFFFFFFFFFFFFFFFFFFFFFFFFFFFFFFF AND DUP2 JUMP JUMPDEST PUSH0 PUSH0 DUP2 SLOAD DUP1 SWAP3 SWAP2 SWAP1 PUSH2 0x6E1 SWAP1 PUSH2 0x13B0 JUMP JUMPDEST SWAP2 SWAP1 POP SSTORE POP PUSH1 0x40 MLOAD DUP1 PUSH1 0x80 ADD PUSH1 0x40 MSTORE DUP1 PUSH0 SLOAD DUP2 MSTORE PUSH1 0x20 ADD DUP3 DUP2 MSTORE PUSH1 0x20 ADD CALLER PUSH20 0xFFFFFFFFFFFFFFFFFFFFFFFFFFFFFFFFFFFFFFFF AND DUP2 MSTORE PUSH1 0x20 ADD PUSH1 0x1 ISZERO ISZERO DUP2 MSTORE POP PUSH1 0x1 PUSH0 PUSH0 SLOAD DUP2 MSTORE PUSH1 0x20 ADD SWAP1 DUP2 MSTORE PUSH1 0x20 ADD PUSH0 KECCAK256 PUSH0 DUP3 ADD MLOAD DUP2 PUSH0 ADD SSTORE PUSH1 0x20 DUP3 ADD MLOAD DUP2 PUSH1 0x1 ADD SWAP1 DUP2 PUSH2 0x750 SWAP2 SWAP1 PUSH2 0x11E4 JUMP JUMPDEST POP PUSH1 0x40 DUP3 ADD MLOAD DUP2 PUSH1 0x2 ADD PUSH0 PUSH2 0x100 EXP DUP2 SLOAD DUP2 PUSH20 0xFFFFFFFFFFFFFFFFFFFFFFFFFFFFFFFFFFFFFFFF MUL NOT AND SWAP1 DUP4 PUSH20 0xFFFFFFFFFFFFFFFFFFFFFFFFFFFFFFFFFFFFFFFF AND MUL OR SWAP1 SSTORE POP PUSH1 0x60 DUP3 ADD MLOAD DUP2 PUSH1 0x2 ADD PUSH1 0x14 PUSH2 0x100 EXP DUP2 SLOAD DUP2 PUSH1 0xFF MUL NOT AND SWAP1 DUP4 ISZERO ISZERO MUL OR SWAP1 SSTORE POP SWAP1 POP POP POP JUMP JUMPDEST PUSH1 0x1 PUSH1 0x20 MSTORE DUP1 PUSH0 MSTORE PUSH1 0x40 PUSH0 KECCAK256 PUSH0 SWAP2 POP SWAP1 POP DUP1 PUSH0 ADD SLOAD SWAP1 DUP1 PUSH1 0x1 ADD DUP1 SLOAD PUSH2 0x7E2 SWAP1 PUSH2 0x1014 JUMP JUMPDEST DUP1 PUSH1 0x1F ADD PUSH1 0x20 DUP1 SWAP2 DIV MUL PUSH1 0x20 ADD PUSH1 0x40 MLOAD SWAP1 DUP2 ADD PUSH1 0x40 MSTORE DUP1 SWAP3 SWAP2 SWAP1 DUP2 DUP2 MSTORE PUSH1 0x20 ADD DUP3 DUP1 SLOAD PUSH2 0x80E SWAP1 PUSH2 0x1014 JUMP JUMPDEST DUP1 ISZERO PUSH2 0x859 JUMPI DUP1 PUSH1 0x1F LT PUSH2 0x830 JUMPI PUSH2 0x100 DUP1 DUP4 SLOAD DIV MUL DUP4 MSTORE SWAP2 PUSH1 0x20 ADD SWAP2 PUSH2 0x859 JUMP JUMPDEST DUP3 ADD SWAP2 SWAP1 PUSH0 MSTORE PUSH1 0x20 PUSH0 KECCAK256 SWAP1 JUMPDEST DUP2 SLOAD DUP2 MSTORE SWAP1 PUSH1 0x1 ADD SWAP1 PUSH1 0x20 ADD DUP1 DUP4 GT PUSH2 0x83C JUMPI DUP3 SWAP1 SUB PUSH1 0x1F AND DUP3 ADD SWAP2 JUMPDEST POP POP POP POP POP SWAP1 DUP1 PUSH1 0x2 ADD PUSH0 SWAP1 SLOAD SWAP1 PUSH2 0x100 EXP SWAP1 DIV PUSH20 0xFFFFFFFFFFFFFFFFFFFFFFFFFFFFFFFFFFFFFFFF AND SWAP1 DUP1 PUSH1 0x2 ADD PUSH1 0x14 SWAP1 SLOAD SWAP1 PUSH2 0x100 EXP SWAP1 DIV PUSH1 0xFF AND SWAP1 POP DUP5 JUMP JUMPDEST PUSH1 0x4 PUSH1 0x20 MSTORE DUP3 PUSH0 MSTORE PUSH1 0x40 PUSH0 KECCAK256 PUSH1 0x20 MSTORE DUP2 PUSH0 MSTORE PUSH1 0x40 PUSH0 KECCAK256 DUP2 DUP2 SLOAD DUP2 LT PUSH2 0x8BE JUMPI PUSH0 DUP1 REVERT JUMPDEST SWAP1 PUSH0 MSTORE PUSH1 0x20 PUSH0 KECCAK256 SWAP1 PUSH1 0x2 MUL ADD PUSH0 SWAP3 POP SWAP3 POP POP POP DUP1 PUSH0 ADD SLOAD SWAP1 DUP1 PUSH1 0x1 ADD PUSH0 SWAP1 SLOAD SWAP1 PUSH2 0x100 EXP SWAP1 DIV PUSH1 0xFF AND SWAP1 POP DUP3 JUMP JUMPDEST PUSH1 0x3 PUSH1 0x20 MSTORE DUP2 PUSH0 MSTORE PUSH1 0x40 PUSH0 KECCAK256 PUSH1 0x20 MSTORE DUP1 PUSH0 MSTORE PUSH1 0x40 PUSH0 KECCAK256 PUSH0 SWAP2 POP SWAP2 POP POP DUP1 PUSH0 ADD DUP1 SLOAD PUSH2 0x916 SWAP1 PUSH2 0x1014 JUMP JUMPDEST DUP1 PUSH1 0x1F ADD PUSH1 0x20 DUP1 SWAP2 DIV MUL PUSH1 0x20 ADD PUSH1 0x40 MLOAD SWAP1 DUP2 ADD PUSH1 0x40 MSTORE DUP1 SWAP3 SWAP2 SWAP1 DUP2 DUP2 MSTORE PUSH1 0x20 ADD DUP3 DUP1 SLOAD PUSH2 0x942 SWAP1 PUSH2 0x1014 JUMP JUMPDEST DUP1 ISZERO PUSH2 0x98D JUMPI DUP1 PUSH1 0x1F LT PUSH2 0x964 JUMPI PUSH2 0x100 DUP1 DUP4 SLOAD DIV MUL DUP4 MSTORE SWAP2 PUSH1 0x20 ADD SWAP2 PUSH2 0x98D JUMP JUMPDEST DUP3 ADD SWAP2 SWAP1 PUSH0 MSTORE PUSH1 0x20 PUSH0 KECCAK256 SWAP1 JUMPDEST DUP2 SLOAD DUP2 MSTORE SWAP1 PUSH1 0x1 ADD SWAP1 PUSH1 0x20 ADD DUP1 DUP4 GT PUSH2 0x970 JUMPI DUP3 SWAP1 SUB PUSH1 0x1F AND DUP3 ADD SWAP2 JUMPDEST POP POP POP POP POP SWAP1 DUP1 PUSH1 0x1 ADD PUSH0 SWAP1 SLOAD SWAP1 PUSH2 0x100 EXP SWAP1 DIV PUSH1 0xFF AND SWAP1 POP DUP3 JUMP JUMPDEST POP POP POP JUMP JUMPDEST PUSH0 PUSH1 0x40 MLOAD SWAP1 POP SWAP1 JUMP JUMPDEST PUSH0 PUSH0 REVERT JUMPDEST PUSH0 PUSH0 REVERT JUMPDEST PUSH0 DUP2 SWAP1 POP SWAP2 SWAP1 POP JUMP JUMPDEST PUSH2 0x9D1 DUP2 PUSH2 0x9BF JUMP JUMPDEST DUP2 EQ PUSH2 0x9DB JUMPI PUSH0 PUSH0 REVERT JUMPDEST POP JUMP JUMPDEST PUSH0 DUP2 CALLDATALOAD SWAP1 POP PUSH2 0x9EC DUP2 PUSH2 0x9C8 JUMP JUMPDEST SWAP3 SWAP2 POP POP JUMP JUMPDEST PUSH0 PUSH20 0xFFFFFFFFFFFFFFFFFFFFFFFFFFFFFFFFFFFFFFFF DUP3 AND SWAP1 POP SWAP2 SWAP1 POP JUMP JUMPDEST PUSH0 PUSH2 0xA1B DUP3 PUSH2 0x9F2 JUMP JUMPDEST SWAP1 POP SWAP2 SWAP1 POP JUMP JUMPDEST PUSH2 0xA2B DUP2 PUSH2 0xA11 JUMP JUMPDEST DUP2 EQ PUSH2 0xA35 JUMPI PUSH0 PUSH0 REVERT JUMPDEST POP JUMP JUMPDEST PUSH0 DUP2 CALLDATALOAD SWAP1 POP PUSH2 0xA46 DUP2 PUSH2 0xA22 JUMP JUMPDEST SWAP3 SWAP2 POP POP JUMP JUMPDEST PUSH0 PUSH0 PUSH1 0x40 DUP4 DUP6 SUB SLT ISZERO PUSH2 0xA62 JUMPI PUSH2 0xA61 PUSH2 0x9B7 JUMP JUMPDEST JUMPDEST PUSH0 PUSH2 0xA6F DUP6 DUP3 DUP7 ADD PUSH2 0x9DE JUMP JUMPDEST SWAP3 POP POP PUSH1 0x20 PUSH2 0xA80 DUP6 DUP3 DUP7 ADD PUSH2 0xA38 JUMP JUMPDEST SWAP2 POP POP SWAP3 POP SWAP3 SWAP1 POP JUMP JUMPDEST PUSH2 0xA93 DUP2 PUSH2 0x9BF JUMP JUMPDEST DUP3 MSTORE POP POP JUMP JUMPDEST PUSH0 PUSH1 0x20 DUP3 ADD SWAP1 POP PUSH2 0xAAC PUSH0 DUP4 ADD DUP5 PUSH2 0xA8A JUMP JUMPDEST SWAP3 SWAP2 POP POP JUMP JUMPDEST PUSH0 PUSH0 REVERT JUMPDEST PUSH0 PUSH0 REVERT JUMPDEST PUSH0 PUSH1 0x1F NOT PUSH1 0x1F DUP4 ADD AND SWAP1 POP SWAP2 SWAP1 POP JUMP JUMPDEST PUSH32 0x4E487B7100000000000000000000000000000000000000000000000000000000 PUSH0 MSTORE PUSH1 0x41 PUSH1 0x4 MSTORE PUSH1 0x24 PUSH0 REVERT JUMPDEST PUSH2 0xB00 DUP3 PUSH2 0xABA JUMP JUMPDEST DUP2 ADD DUP2 DUP2 LT PUSH8 0xFFFFFFFFFFFFFFFF DUP3 GT OR ISZERO PUSH2 0xB1F JUMPI PUSH2 0xB1E PUSH2 0xACA JUMP JUMPDEST JUMPDEST DUP1 PUSH1 0x40 MSTORE POP POP POP JUMP JUMPDEST PUSH0 PUSH2 0xB31 PUSH2 0x9AE JUMP JUMPDEST SWAP1 POP PUSH2 0xB3D DUP3 DUP3 PUSH2 0xAF7 JUMP JUMPDEST SWAP2 SWAP1 POP JUMP JUMPDEST PUSH0 PUSH8 0xFFFFFFFFFFFFFFFF DUP3 GT ISZERO PUSH2 0xB5C JUMPI PUSH2 0xB5B PUSH2 0xACA JUMP JUMPDEST JUMPDEST PUSH2 0xB65 DUP3 PUSH2 0xABA JUMP JUMPDEST SWAP1 POP PUSH1 0x20 DUP2 ADD SWAP1 POP SWAP2 SWAP1 POP JUMP JUMPDEST DUP3 DUP2 DUP4 CALLDATACOPY PUSH0 DUP4 DUP4 ADD MSTORE POP POP POP JUMP JUMPDEST PUSH0 PUSH2 0xB92 PUSH2 0xB8D DUP5 PUSH2 0xB42 JUMP JUMPDEST PUSH2 0xB28 JUMP JUMPDEST SWAP1 POP DUP3 DUP2 MSTORE PUSH1 0x20 DUP2 ADD DUP5 DUP5 DUP5 ADD GT ISZERO PUSH2 0xBAE JUMPI PUSH2 0xBAD PUSH2 0xAB6 JUMP JUMPDEST JUMPDEST PUSH2 0xBB9 DUP5 DUP3 DUP6 PUSH2 0xB72 JUMP JUMPDEST POP SWAP4 SWAP3 POP POP POP JUMP JUMPDEST PUSH0 DUP3 PUSH1 0x1F DUP4 ADD SLT PUSH2 0xBD5 JUMPI PUSH2 0xBD4 PUSH2 0xAB2 JUMP JUMPDEST JUMPDEST DUP2 CALLDATALOAD PUSH2 0xBE5 DUP5 DUP3 PUSH1 0x20 DUP7 ADD PUSH2 0xB80 JUMP JUMPDEST SWAP2 POP POP SWAP3 SWAP2 POP POP JUMP JUMPDEST PUSH0 PUSH0 PUSH1 0x40 DUP4 DUP6 SUB SLT ISZERO PUSH2 0xC04 JUMPI PUSH2 0xC03 PUSH2 0x9B7 JUMP JUMPDEST JUMPDEST PUSH0 PUSH2 0xC11 DUP6 DUP3 DUP7 ADD PUSH2 0x9DE JUMP JUMPDEST SWAP3 POP POP PUSH1 0x20 DUP4 ADD CALLDATALOAD PUSH8 0xFFFFFFFFFFFFFFFF DUP2 GT ISZERO PUSH2 0xC32 JUMPI PUSH2 0xC31 PUSH2 0x9BB JUMP JUMPDEST JUMPDEST PUSH2 0xC3E DUP6 DUP3 DUP7 ADD PUSH2 0xBC1 JUMP JUMPDEST SWAP2 POP POP SWAP3 POP SWAP3 SWAP1 POP JUMP JUMPDEST PUSH0 DUP2 ISZERO ISZERO SWAP1 POP SWAP2 SWAP1 POP JUMP JUMPDEST PUSH2 0xC5C DUP2 PUSH2 0xC48 JUMP JUMPDEST DUP2 EQ PUSH2 0xC66 JUMPI PUSH0 PUSH0 REVERT JUMPDEST POP JUMP JUMPDEST PUSH0 DUP2 CALLDATALOAD SWAP1 POP PUSH2 0xC77 DUP2 PUSH2 0xC53 JUMP JUMPDEST SWAP3 SWAP2 POP POP JUMP JUMPDEST PUSH0 PUSH0 PUSH0 PUSH0 PUSH1 0x80 DUP6 DUP8 SUB SLT ISZERO PUSH2 0xC95 JUMPI PUSH2 0xC94 PUSH2 0x9B7 JUMP JUMPDEST JUMPDEST PUSH0 PUSH2 0xCA2 DUP8 DUP3 DUP9 ADD PUSH2 0x9DE JUMP JUMPDEST SWAP5 POP POP PUSH1 0x20 PUSH2 0xCB3 DUP8 DUP3 DUP9 ADD PUSH2 0xA38 JUMP JUMPDEST SWAP4 POP POP PUSH1 0x40 PUSH2 0xCC4 DUP8 DUP3 DUP9 ADD PUSH2 0x9DE JUMP JUMPDEST SWAP3 POP POP PUSH1 0x60 PUSH2 0xCD5 DUP8 DUP3 DUP9 ADD PUSH2 0xC69 JUMP JUMPDEST SWAP2 POP POP SWAP3 SWAP6 SWAP2 SWAP5 POP SWAP3 POP JUMP JUMPDEST PUSH0 PUSH0 PUSH1 0x40 DUP4 DUP6 SUB SLT ISZERO PUSH2 0xCF7 JUMPI PUSH2 0xCF6 PUSH2 0x9B7 JUMP JUMPDEST JUMPDEST PUSH0 PUSH2 0xD04 DUP6 DUP3 DUP7 ADD PUSH2 0x9DE JUMP JUMPDEST SWAP3 POP POP PUSH1 0x20 PUSH2 0xD15 DUP6 DUP3 DUP7 ADD PUSH2 0x9DE JUMP JUMPDEST SWAP2 POP POP SWAP3 POP SWAP3 SWAP1 POP JUMP JUMPDEST PUSH2 0xD28 DUP2 PUSH2 0xA11 JUMP JUMPDEST DUP3 MSTORE POP POP JUMP JUMPDEST PUSH0 PUSH1 0x20 DUP3 ADD SWAP1 POP PUSH2 0xD41 PUSH0 DUP4 ADD DUP5 PUSH2 0xD1F JUMP JUMPDEST SWAP3 SWAP2 POP POP JUMP JUMPDEST PUSH0 PUSH1 0x20 DUP3 DUP5 SUB SLT ISZERO PUSH2 0xD5C JUMPI PUSH2 0xD5B PUSH2 0x9B7 JUMP JUMPDEST JUMPDEST PUSH0 DUP3 ADD CALLDATALOAD PUSH8 0xFFFFFFFFFFFFFFFF DUP2 GT ISZERO PUSH2 0xD79 JUMPI PUSH2 0xD78 PUSH2 0x9BB JUMP JUMPDEST JUMPDEST PUSH2 0xD85 DUP5 DUP3 DUP6 ADD PUSH2 0xBC1 JUMP JUMPDEST SWAP2 POP POP SWAP3 SWAP2 POP POP JUMP JUMPDEST PUSH0 PUSH1 0x20 DUP3 DUP5 SUB SLT ISZERO PUSH2 0xDA3 JUMPI PUSH2 0xDA2 PUSH2 0x9B7 JUMP JUMPDEST JUMPDEST PUSH0 PUSH2 0xDB0 DUP5 DUP3 DUP6 ADD PUSH2 0x9DE JUMP JUMPDEST SWAP2 POP POP SWAP3 SWAP2 POP POP JUMP JUMPDEST PUSH0 DUP2 MLOAD SWAP1 POP SWAP2 SWAP1 POP JUMP JUMPDEST PUSH0 DUP3 DUP3 MSTORE PUSH1 0x20 DUP3 ADD SWAP1 POP SWAP3 SWAP2 POP POP JUMP JUMPDEST DUP3 DUP2 DUP4 MCOPY PUSH0 DUP4 DUP4 ADD MSTORE POP POP POP JUMP JUMPDEST PUSH0 PUSH2 0xDEB DUP3 PUSH2 0xDB9 JUMP JUMPDEST PUSH2 0xDF5 DUP2 DUP6 PUSH2 0xDC3 JUMP JUMPDEST SWAP4 POP PUSH2 0xE05 DUP2 DUP6 PUSH1 0x20 DUP7 ADD PUSH2 0xDD3 JUMP JUMPDEST PUSH2 0xE0E DUP2 PUSH2 0xABA JUMP JUMPDEST DUP5 ADD SWAP2 POP POP SWAP3 SWAP2 POP POP JUMP JUMPDEST PUSH2 0xE22 DUP2 PUSH2 0xC48 JUMP JUMPDEST DUP3 MSTORE POP POP JUMP JUMPDEST PUSH0 PUSH1 0x80 DUP3 ADD SWAP1 POP PUSH2 0xE3B PUSH0 DUP4 ADD DUP8 PUSH2 0xA8A JUMP JUMPDEST DUP2 DUP2 SUB PUSH1 0x20 DUP4 ADD MSTORE PUSH2 0xE4D DUP2 DUP7 PUSH2 0xDE1 JUMP JUMPDEST SWAP1 POP PUSH2 0xE5C PUSH1 0x40 DUP4 ADD DUP6 PUSH2 0xD1F JUMP JUMPDEST PUSH2 0xE69 PUSH1 0x60 DUP4 ADD DUP5 PUSH2 0xE19 JUMP JUMPDEST SWAP6 SWAP5 POP POP POP POP POP JUMP JUMPDEST PUSH0 PUSH0 PUSH0 PUSH1 0x60 DUP5 DUP7 SUB SLT ISZERO PUSH2 0xE89 JUMPI PUSH2 0xE88 PUSH2 0x9B7 JUMP JUMPDEST JUMPDEST PUSH0 PUSH2 0xE96 DUP7 DUP3 DUP8 ADD PUSH2 0x9DE JUMP JUMPDEST SWAP4 POP POP PUSH1 0x20 PUSH2 0xEA7 DUP7 DUP3 DUP8 ADD PUSH2 0xA38 JUMP JUMPDEST SWAP3 POP POP PUSH1 0x40 PUSH2 0xEB8 DUP7 DUP3 DUP8 ADD PUSH2 0x9DE JUMP JUMPDEST SWAP2 POP POP SWAP3 POP SWAP3 POP SWAP3 JUMP JUMPDEST PUSH0 PUSH1 0x40 DUP3 ADD SWAP1 POP PUSH2 0xED5 PUSH0 DUP4 ADD DUP6 PUSH2 0xA8A JUMP JUMPDEST PUSH2 0xEE2 PUSH1 0x20 DUP4 ADD DUP5 PUSH2 0xE19 JUMP JUMPDEST SWAP4 SWAP3 POP POP POP JUMP JUMPDEST PUSH0 PUSH1 0x40 DUP3 ADD SWAP1 POP DUP2 DUP2 SUB PUSH0 DUP4 ADD MSTORE PUSH2 0xF01 DUP2 DUP6 PUSH2 0xDE1 JUMP JUMPDEST SWAP1 POP PUSH2 0xF10 PUSH1 0x20 DUP4 ADD DUP5 PUSH2 0xE19 JUMP JUMPDEST SWAP4 SWAP3 POP POP POP JUMP JUMPDEST PUSH32 0x436F7572736520646F6573206E6F742065786973740000000000000000000000 PUSH0 DUP3 ADD MSTORE POP JUMP JUMPDEST PUSH0 PUSH2 0xF4B PUSH1 0x15 DUP4 PUSH2 0xDC3 JUMP JUMPDEST SWAP2 POP PUSH2 0xF56 DUP3 PUSH2 0xF17 JUMP JUMPDEST PUSH1 0x20 DUP3 ADD SWAP1 POP SWAP2 SWAP1 POP JUMP JUMPDEST PUSH0 PUSH1 0x20 DUP3 ADD SWAP1 POP DUP2 DUP2 SUB PUSH0 DUP4 ADD MSTORE PUSH2 0xF78 DUP2 PUSH2 0xF3F JUMP JUMPDEST SWAP1 POP SWAP2 SWAP1 POP JUMP JUMPDEST PUSH32 0x416C726561647920656E726F6C6C656400000000000000000000000000000000 PUSH0 DUP3 ADD MSTORE POP JUMP JUMPDEST PUSH0 PUSH2 0xFB3 PUSH1 0x10 DUP4 PUSH2 0xDC3 JUMP JUMPDEST SWAP2 POP PUSH2 0xFBE DUP3 PUSH2 0xF7F JUMP JUMPDEST PUSH1 0x20 DUP3 ADD SWAP1 POP SWAP2 SWAP1 POP JUMP JUMPDEST PUSH0 PUSH1 0x20 DUP3 ADD SWAP1 POP DUP2 DUP2 SUB PUSH0 DUP4 ADD MSTORE PUSH2 0xFE0 DUP2 PUSH2 0xFA7 JUMP JUMPDEST SWAP1 POP SWAP2 SWAP1 POP JUMP JUMPDEST PUSH32 0x4E487B7100000000000000000000000000000000000000000000000000000000 PUSH0 MSTORE PUSH1 0x22 PUSH1 0x4 MSTORE PUSH1 0x24 PUSH0 REVERT JUMPDEST PUSH0 PUSH1 0x2 DUP3 DIV SWAP1 POP PUSH1 0x1 DUP3 AND DUP1 PUSH2 0x102B JUMPI PUSH1 0x7F DUP3 AND SWAP2 POP JUMPDEST PUSH1 0x20 DUP3 LT DUP2 SUB PUSH2 0x103E JUMPI PUSH2 0x103D PUSH2 0xFE7 JUMP JUMPDEST JUMPDEST POP SWAP2 SWAP1 POP JUMP JUMPDEST PUSH0 DUP2 SWAP1 POP DUP2 PUSH0 MSTORE PUSH1 0x20 PUSH0 KECCAK256 SWAP1 POP SWAP2 SWAP1 POP JUMP JUMPDEST PUSH0 PUSH1 0x20 PUSH1 0x1F DUP4 ADD DIV SWAP1 POP SWAP2 SWAP1 POP JUMP JUMPDEST PUSH0 DUP3 DUP3 SHL SWAP1 POP SWAP3 SWAP2 POP POP JUMP JUMPDEST PUSH0 PUSH1 0x8 DUP4 MUL PUSH2 0x10A0 PUSH32 0xFFFFFFFFFFFFFFFFFFFFFFFFFFFFFFFFFFFFFFFFFFFFFFFFFFFFFFFFFFFFFFFF DUP3 PUSH2 0x1065 JUMP JUMPDEST PUSH2 0x10AA DUP7 DUP4 PUSH2 0x1065 JUMP JUMPDEST SWAP6 POP DUP1 NOT DUP5 AND SWAP4 POP DUP1 DUP7 AND DUP5 OR SWAP3 POP POP POP SWAP4 SWAP3 POP POP POP JUMP JUMPDEST PUSH0 DUP2 SWAP1 POP SWAP2 SWAP1 POP JUMP JUMPDEST PUSH0 PUSH2 0x10E5 PUSH2 0x10E0 PUSH2 0x10DB DUP5 PUSH2 0x9BF JUMP JUMPDEST PUSH2 0x10C2 JUMP JUMPDEST PUSH2 0x9BF JUMP JUMPDEST SWAP1 POP SWAP2 SWAP1 POP JUMP JUMPDEST PUSH0 DUP2 SWAP1 POP SWAP2 SWAP1 POP JUMP JUMPDEST PUSH2 0x10FE DUP4 PUSH2 0x10CB JUMP JUMPDEST PUSH2 0x1112 PUSH2 0x110A DUP3 PUSH2 0x10EC JUMP JUMPDEST DUP5 DUP5 SLOAD PUSH2 0x1071 JUMP JUMPDEST DUP3 SSTORE POP POP POP POP JUMP JUMPDEST PUSH0 PUSH0 SWAP1 POP SWAP1 JUMP JUMPDEST PUSH2 0x1129 PUSH2 0x111A JUMP JUMPDEST PUSH2 0x1134 DUP2 DUP5 DUP5 PUSH2 0x10F5 JUMP JUMPDEST POP POP POP JUMP JUMPDEST JUMPDEST DUP2 DUP2 LT ISZERO PUSH2 0x1157 JUMPI PUSH2 0x114C PUSH0 DUP3 PUSH2 0x1121 JUMP JUMPDEST PUSH1 0x1 DUP2 ADD SWAP1 POP PUSH2 0x113A JUMP JUMPDEST POP POP JUMP JUMPDEST PUSH1 0x1F DUP3 GT ISZERO PUSH2 0x119C JUMPI PUSH2 0x116D DUP2 PUSH2 0x1044 JUMP JUMPDEST PUSH2 0x1176 DUP5 PUSH2 0x1056 JUMP JUMPDEST DUP2 ADD PUSH1 0x20 DUP6 LT ISZERO PUSH2 0x1185 JUMPI DUP2 SWAP1 POP JUMPDEST PUSH2 0x1199 PUSH2 0x1191 DUP6 PUSH2 0x1056 JUMP JUMPDEST DUP4 ADD DUP3 PUSH2 0x1139 JUMP JUMPDEST POP POP JUMPDEST POP POP POP JUMP JUMPDEST PUSH0 DUP3 DUP3 SHR SWAP1 POP SWAP3 SWAP2 POP POP JUMP JUMPDEST PUSH0 PUSH2 0x11BC PUSH0 NOT DUP5 PUSH1 0x8 MUL PUSH2 0x11A1 JUMP JUMPDEST NOT DUP1 DUP4 AND SWAP2 POP POP SWAP3 SWAP2 POP POP JUMP JUMPDEST PUSH0 PUSH2 0x11D4 DUP4 DUP4 PUSH2 0x11AD JUMP JUMPDEST SWAP2 POP DUP3 PUSH1 0x2 MUL DUP3 OR SWAP1 POP SWAP3 SWAP2 POP POP JUMP JUMPDEST PUSH2 0x11ED DUP3 PUSH2 0xDB9 JUMP JUMPDEST PUSH8 0xFFFFFFFFFFFFFFFF DUP2 GT ISZERO PUSH2 0x1206 JUMPI PUSH2 0x1205 PUSH2 0xACA JUMP JUMPDEST JUMPDEST PUSH2 0x1210 DUP3 SLOAD PUSH2 0x1014 JUMP JUMPDEST PUSH2 0x121B DUP3 DUP3 DUP6 PUSH2 0x115B JUMP JUMPDEST PUSH0 PUSH1 0x20 SWAP1 POP PUSH1 0x1F DUP4 GT PUSH1 0x1 DUP2 EQ PUSH2 0x124C JUMPI PUSH0 DUP5 ISZERO PUSH2 0x123A JUMPI DUP3 DUP8 ADD MLOAD SWAP1 POP JUMPDEST PUSH2 0x1244 DUP6 DUP3 PUSH2 0x11C9 JUMP JUMPDEST DUP7 SSTORE POP PUSH2 0x12AB JUMP JUMPDEST PUSH1 0x1F NOT DUP5 AND PUSH2 0x125A DUP7 PUSH2 0x1044 JUMP JUMPDEST PUSH0 JUMPDEST DUP3 DUP2 LT ISZERO PUSH2 0x1281 JUMPI DUP5 DUP10 ADD MLOAD DUP3 SSTORE PUSH1 0x1 DUP3 ADD SWAP2 POP PUSH1 0x20 DUP6 ADD SWAP5 POP PUSH1 0x20 DUP2 ADD SWAP1 POP PUSH2 0x125C JUMP JUMPDEST DUP7 DUP4 LT ISZERO PUSH2 0x129E JUMPI DUP5 DUP10 ADD MLOAD PUSH2 0x129A PUSH1 0x1F DUP10 AND DUP3 PUSH2 0x11AD JUMP JUMPDEST DUP4 SSTORE POP JUMPDEST PUSH1 0x1 PUSH1 0x2 DUP9 MUL ADD DUP9 SSTORE POP POP POP JUMPDEST POP POP POP POP POP POP JUMP JUMPDEST PUSH32 0x4F6E6C792074686520746561636865722063616E20646F207468697300000000 PUSH0 DUP3 ADD MSTORE POP JUMP JUMPDEST PUSH0 PUSH2 0x12E7 PUSH1 0x1C DUP4 PUSH2 0xDC3 JUMP JUMPDEST SWAP2 POP PUSH2 0x12F2 DUP3 PUSH2 0x12B3 JUMP JUMPDEST PUSH1 0x20 DUP3 ADD SWAP1 POP SWAP2 SWAP1 POP JUMP JUMPDEST PUSH0 PUSH1 0x20 DUP3 ADD SWAP1 POP DUP2 DUP2 SUB PUSH0 DUP4 ADD MSTORE PUSH2 0x1314 DUP2 PUSH2 0x12DB JUMP JUMPDEST SWAP1 POP SWAP2 SWAP1 POP JUMP JUMPDEST PUSH32 0x53747564656E74206973206E6F7420656E726F6C6C6564000000000000000000 PUSH0 DUP3 ADD MSTORE POP JUMP JUMPDEST PUSH0 PUSH2 0x134F PUSH1 0x17 DUP4 PUSH2 0xDC3 JUMP JUMPDEST SWAP2 POP PUSH2 0x135A DUP3 PUSH2 0x131B JUMP JUMPDEST PUSH1 0x20 DUP3 ADD SWAP1 POP SWAP2 SWAP1 POP JUMP JUMPDEST PUSH0 PUSH1 0x20 DUP3 ADD SWAP1 POP DUP2 DUP2 SUB PUSH0 DUP4 ADD MSTORE PUSH2 0x137C DUP2 PUSH2 0x1343 JUMP JUMPDEST SWAP1 POP SWAP2 SWAP1 POP JUMP JUMPDEST PUSH32 0x4E487B7100000000000000000000000000000000000000000000000000000000 PUSH0 MSTORE PUSH1 0x11 PUSH1 0x4 MSTORE PUSH1 0x24 PUSH0 REVERT JUMPDEST PUSH0 PUSH2 0x13BA DUP3 PUSH2 0x9BF JUMP JUMPDEST SWAP2 POP PUSH32 0xFFFFFFFFFFFFFFFFFFFFFFFFFFFFFFFFFFFFFFFFFFFFFFFFFFFFFFFFFFFFFFFF DUP3 SUB PUSH2 0x13EC JUMPI PUSH2 0x13EB PUSH2 0x1383 JUMP JUMPDEST JUMPDEST PUSH1 0x1 DUP3 ADD SWAP1 POP SWAP2 SWAP1 POP JUMP INVALID LOG2 PUSH5 0x6970667358 0x22 SLT KECCAK256 0xB1 0xD5 PUSH22 0xC11699BE7C643F52D531D06CA2BFF5CBED41E041820E 0xD2 TLOAD PUSH1 0xDC PUSH31 0xDBA664736F6C634300081E0033000000000000000000000000000000000000 "
				},
				"gasEstimates": {
					"creation": {
						"codeDepositCost": "1033000",
						"executionCost": "6076",
						"totalCost": "1039076"
					},
					"external": {
						"attendance(uint256,address,uint256)": "infinite",
						"courseCount()": "2491",
						"courseStudents(uint256,uint256)": "infinite",
						"courses(uint256)": "infinite",
						"createCourse(string)": "infinite",
						"enrollInCourse(uint256,string)": "infinite",
						"enrollments(uint256,address)": "infinite",
						"getGrade(uint256,address)": "infinite",
						"grades(uint256,address)": "infinite",
						"markAttendance(uint256,address,uint256,bool)": "infinite",
						"submitGrade(uint256,address,uint256)": "infinite"
					}
				},
				"methodIdentifiers": {
					"attendance(uint256,address,uint256)": "b7f5d9a0",
					"courseCount()": "66055159",
					"courseStudents(uint256,uint256)": "6e274a34",
					"courses(uint256)": "96f979d2",
					"createCourse(string)": "8a38ab2c",
					"enrollInCourse(uint256,string)": "49144927",
					"enrollments(uint256,address)": "dfb80403",
					"getGrade(uint256,address)": "24b337ec",
					"grades(uint256,address)": "6ca40e39",
					"markAttendance(uint256,address,uint256,bool)": "4d034705",
					"submitGrade(uint256,address,uint256)": "f79967f2"
				}
			},
			"storageLayout": {
				"storage": [
					{
						"astId": 23,
						"contract": "VirtualClassroom.sol:VirtualClassroom",
						"label": "courseCount",
						"offset": 0,
						"slot": "0",
						"type": "t_uint256"
					},
					{
						"astId": 28,
						"contract": "VirtualClassroom.sol:VirtualClassroom",
						"label": "courses",
						"offset": 0,
						"slot": "1",
						"type": "t_mapping(t_uint256,t_struct(Course)10_storage)"
					},
					{
						"astId": 33,
						"contract": "VirtualClassroom.sol:VirtualClassroom",
						"label": "courseStudents",
						"offset": 0,
						"slot": "2",
						"type": "t_mapping(t_uint256,t_array(t_address)dyn_storage)"
					},
					{
						"astId": 40,
						"contract": "VirtualClassroom.sol:VirtualClassroom",
						"label": "enrollments",
						"offset": 0,
						"slot": "3",
						"type": "t_mapping(t_uint256,t_mapping(t_address,t_struct(Enrollment)15_storage))"
					},
					{
						"astId": 48,
						"contract": "VirtualClassroom.sol:VirtualClassroom",
						"label": "attendance",
						"offset": 0,
						"slot": "4",
						"type": "t_mapping(t_uint256,t_mapping(t_address,t_array(t_struct(AttendanceRecord)20_storage)dyn_storage))"
					},
					{
						"astId": 54,
						"contract": "VirtualClassroom.sol:VirtualClassroom",
						"label": "grades",
						"offset": 0,
						"slot": "5",
						"type": "t_mapping(t_uint256,t_mapping(t_address,t_uint256))"
					}
				],
				"types": {
					"t_address": {
						"encoding": "inplace",
						"label": "address",
						"numberOfBytes": "20"
					},
					"t_array(t_address)dyn_storage": {
						"base": "t_address",
						"encoding": "dynamic_array",
						"label": "address[]",
						"numberOfBytes": "32"
					},
					"t_array(t_struct(AttendanceRecord)20_storage)dyn_storage": {
						"base": "t_struct(AttendanceRecord)20_storage",
						"encoding": "dynamic_array",
						"label": "struct VirtualClassroom.AttendanceRecord[]",
						"numberOfBytes": "32"
					},
					"t_bool": {
						"encoding": "inplace",
						"label": "bool",
						"numberOfBytes": "1"
					},
					"t_mapping(t_address,t_array(t_struct(AttendanceRecord)20_storage)dyn_storage)": {
						"encoding": "mapping",
						"key": "t_address",
						"label": "mapping(address => struct VirtualClassroom.AttendanceRecord[])",
						"numberOfBytes": "32",
						"value": "t_array(t_struct(AttendanceRecord)20_storage)dyn_storage"
					},
					"t_mapping(t_address,t_struct(Enrollment)15_storage)": {
						"encoding": "mapping",
						"key": "t_address",
						"label": "mapping(address => struct VirtualClassroom.Enrollment)",
						"numberOfBytes": "32",
						"value": "t_struct(Enrollment)15_storage"
					},
					"t_mapping(t_address,t_uint256)": {
						"encoding": "mapping",
						"key": "t_address",
						"label": "mapping(address => uint256)",
						"numberOfBytes": "32",
						"value": "t_uint256"
					},
					"t_mapping(t_uint256,t_array(t_address)dyn_storage)": {
						"encoding": "mapping",
						"key": "t_uint256",
						"label": "mapping(uint256 => address[])",
						"numberOfBytes": "32",
						"value": "t_array(t_address)dyn_storage"
					},
					"t_mapping(t_uint256,t_mapping(t_address,t_array(t_struct(AttendanceRecord)20_storage)dyn_storage))": {
						"encoding": "mapping",
						"key": "t_uint256",
						"label": "mapping(uint256 => mapping(address => struct VirtualClassroom.AttendanceRecord[]))",
						"numberOfBytes": "32",
						"value": "t_mapping(t_address,t_array(t_struct(AttendanceRecord)20_storage)dyn_storage)"
					},
					"t_mapping(t_uint256,t_mapping(t_address,t_struct(Enrollment)15_storage))": {
						"encoding": "mapping",
						"key": "t_uint256",
						"label": "mapping(uint256 => mapping(address => struct VirtualClassroom.Enrollment))",
						"numberOfBytes": "32",
						"value": "t_mapping(t_address,t_struct(Enrollment)15_storage)"
					},
					"t_mapping(t_uint256,t_mapping(t_address,t_uint256))": {
						"encoding": "mapping",
						"key": "t_uint256",
						"label": "mapping(uint256 => mapping(address => uint256))",
						"numberOfBytes": "32",
						"value": "t_mapping(t_address,t_uint256)"
					},
					"t_mapping(t_uint256,t_struct(Course)10_storage)": {
						"encoding": "mapping",
						"key": "t_uint256",
						"label": "mapping(uint256 => struct VirtualClassroom.Course)",
						"numberOfBytes": "32",
						"value": "t_struct(Course)10_storage"
					},
					"t_string_storage": {
						"encoding": "bytes",
						"label": "string",
						"numberOfBytes": "32"
					},
					"t_struct(AttendanceRecord)20_storage": {
						"encoding": "inplace",
						"label": "struct VirtualClassroom.AttendanceRecord",
						"members": [
							{
								"astId": 17,
								"contract": "VirtualClassroom.sol:VirtualClassroom",
								"label": "sessionId",
								"offset": 0,
								"slot": "0",
								"type": "t_uint256"
							},
							{
								"astId": 19,
								"contract": "VirtualClassroom.sol:VirtualClassroom",
								"label": "present",
								"offset": 0,
								"slot": "1",
								"type": "t_bool"
							}
						],
						"numberOfBytes": "64"
					},
					"t_struct(Course)10_storage": {
						"encoding": "inplace",
						"label": "struct VirtualClassroom.Course",
						"members": [
							{
								"astId": 3,
								"contract": "VirtualClassroom.sol:VirtualClassroom",
								"label": "id",
								"offset": 0,
								"slot": "0",
								"type": "t_uint256"
							},
							{
								"astId": 5,
								"contract": "VirtualClassroom.sol:VirtualClassroom",
								"label": "title",
								"offset": 0,
								"slot": "1",
								"type": "t_string_storage"
							},
							{
								"astId": 7,
								"contract": "VirtualClassroom.sol:VirtualClassroom",
								"label": "teacher",
								"offset": 0,
								"slot": "2",
								"type": "t_address"
							},
							{
								"astId": 9,
								"contract": "VirtualClassroom.sol:VirtualClassroom",
								"label": "exists",
								"offset": 20,
								"slot": "2",
								"type": "t_bool"
							}
						],
						"numberOfBytes": "96"
					},
					"t_struct(Enrollment)15_storage": {
						"encoding": "inplace",
						"label": "struct VirtualClassroom.Enrollment",
						"members": [
							{
								"astId": 12,
								"contract": "VirtualClassroom.sol:VirtualClassroom",
								"label": "did",
								"offset": 0,
								"slot": "0",
								"type": "t_string_storage"
							},
							{
								"astId": 14,
								"contract": "VirtualClassroom.sol:VirtualClassroom",
								"label": "enrolled",
								"offset": 0,
								"slot": "1",
								"type": "t_bool"
							}
						],
						"numberOfBytes": "64"
					},
					"t_uint256": {
						"encoding": "inplace",
						"label": "uint256",
						"numberOfBytes": "32"
					}
				}
			},
			"userdoc": {
				"kind": "user",
				"methods": {},
				"version": 1
			}
		}
	}
}