{
  "_format": "hh3-artifact-1",
  "contractName": "ClarityChain",
  "sourceName": "contracts/ClarityChain.sol",
  "abi": [
    {
      "inputs": [
        {
          "internalType": "address[]",
          "name": "_validators",
          "type": "address[]"
        }
      ],
      "stateMutability": "nonpayable",
      "type": "constructor"
    },
    {
      "inputs": [],
      "name": "AlreadyApprovedIdentityProposal",
      "type": "error"
    },
    {
      "inputs": [],
      "name": "AlreadyApprovedProposal",
      "type": "error"
    },
    {
      "inputs": [],
      "name": "AmountExceedsVendorCap",
      "type": "error"
    },
    {
      "inputs": [],
      "name": "AmountMustBeGreaterThanZero",
      "type": "error"
    },
    {
      "inputs": [],
      "name": "CallerNotAssociatedVendor",
      "type": "error"
    },
    {
      "inputs": [],
      "name": "CampaignDoesNotExist",
      "type": "error"
    },
    {
      "inputs": [],
      "name": "CampaignNotActive",
      "type": "error"
    },
    {
      "inputs": [],
      "name": "CapMustBeGreaterThanZero",
      "type": "error"
    },
    {
      "inputs": [],
      "name": "DonationExceedsGoal",
      "type": "error"
    },
    {
      "inputs": [],
      "name": "DonationMustBeGreaterThanZero",
      "type": "error"
    },
    {
      "inputs": [],
      "name": "GoalMustBeGreaterThanZero",
      "type": "error"
    },
    {
      "inputs": [],
      "name": "IdentityProposalAlreadyExecuted",
      "type": "error"
    },
    {
      "inputs": [],
      "name": "IdentityProposalDoesNotExist",
      "type": "error"
    },
    {
      "inputs": [],
      "name": "InstructionsCannotBeEmpty",
      "type": "error"
    },
    {
      "inputs": [],
      "name": "InsufficientCampaignFunds",
      "type": "error"
    },
    {
      "inputs": [],
      "name": "InvalidValidatorAddress",
      "type": "error"
    },
    {
      "inputs": [],
      "name": "InvalidVendorAddress",
      "type": "error"
    },
    {
      "inputs": [],
      "name": "NameCannotBeEmpty",
      "type": "error"
    },
    {
      "inputs": [],
      "name": "NeedBetweenThreeAndFiveValidators",
      "type": "error"
    },
    {
      "inputs": [],
      "name": "NoDonationFoundForWallet",
      "type": "error"
    },
    {
      "inputs": [],
      "name": "NotCampaignNGO",
      "type": "error"
    },
    {
      "inputs": [],
      "name": "NotOwner",
      "type": "error"
    },
    {
      "inputs": [],
      "name": "NotValidator",
      "type": "error"
    },
    {
      "inputs": [],
      "name": "NothingLeftToRefund",
      "type": "error"
    },
    {
      "inputs": [],
      "name": "ProfileLinkRequired",
      "type": "error"
    },
    {
      "inputs": [],
      "name": "ProposalAlreadyExecuted",
      "type": "error"
    },
    {
      "inputs": [],
      "name": "ProposalDoesNotExist",
      "type": "error"
    },
    {
      "inputs": [],
      "name": "ReentrantCall",
      "type": "error"
    },
    {
      "inputs": [],
      "name": "RefundAmountMustBeGreaterThanZero",
      "type": "error"
    },
    {
      "inputs": [],
      "name": "RefundTransferFailed",
      "type": "error"
    },
    {
      "inputs": [],
      "name": "RefundsAlreadyEnabled",
      "type": "error"
    },
    {
      "inputs": [],
      "name": "RefundsNotEnabled",
      "type": "error"
    },
    {
      "inputs": [],
      "name": "TransferToVendorFailed",
      "type": "error"
    },
    {
      "inputs": [],
      "name": "VendorAlreadyAssociated",
      "type": "error"
    },
    {
      "inputs": [],
      "name": "VendorAlreadyWhitelisted",
      "type": "error"
    },
    {
      "inputs": [],
      "name": "VendorNameCannotBeEmpty",
      "type": "error"
    },
    {
      "inputs": [],
      "name": "VendorNotAssociatedWithCampaign",
      "type": "error"
    },
    {
      "inputs": [],
      "name": "VendorNotWhitelisted",
      "type": "error"
    },
    {
      "inputs": [],
      "name": "VendorNotWhitelistedRejected",
      "type": "error"
    },
    {
      "inputs": [],
      "name": "VerificationLinkRequired",
      "type": "error"
    },
    {
      "inputs": [],
      "name": "WalletAlreadyVerified",
      "type": "error"
    },
    {
      "anonymous": false,
      "inputs": [
        {
          "indexed": true,
          "internalType": "uint256",
          "name": "campaignId",
          "type": "uint256"
        }
      ],
      "name": "CampaignClosed",
      "type": "event"
    },
    {
      "anonymous": false,
      "inputs": [
        {
          "indexed": true,
          "internalType": "uint256",
          "name": "campaignId",
          "type": "uint256"
        },
        {
          "indexed": false,
          "internalType": "string",
          "name": "name",
          "type": "string"
        },
        {
          "indexed": true,
          "internalType": "address",
          "name": "ngo",
          "type": "address"
        },
        {
          "indexed": false,
          "internalType": "uint256",
          "name": "goalAmount",
          "type": "uint256"
        }
      ],
      "name": "CampaignCreated",
      "type": "event"
    },
    {
      "anonymous": false,
      "inputs": [
        {
          "indexed": true,
          "internalType": "uint256",
          "name": "campaignId",
          "type": "uint256"
        },
        {
          "indexed": true,
          "internalType": "address",
          "name": "donor",
          "type": "address"
        },
        {
          "indexed": false,
          "internalType": "uint256",
          "name": "amount",
          "type": "uint256"
        }
      ],
      "name": "DonationReceived",
      "type": "event"
    },
    {
      "anonymous": false,
      "inputs": [
        {
          "indexed": true,
          "internalType": "uint256",
          "name": "proposalId",
          "type": "uint256"
        },
        {
          "indexed": true,
          "internalType": "address",
          "name": "applicant",
          "type": "address"
        },
        {
          "indexed": false,
          "internalType": "string",
          "name": "profileLinks",
          "type": "string"
        }
      ],
      "name": "IdentityVerificationApplied",
      "type": "event"
    },
    {
      "anonymous": false,
      "inputs": [
        {
          "indexed": true,
          "internalType": "uint256",
          "name": "proposalId",
          "type": "uint256"
        },
        {
          "indexed": true,
          "internalType": "address",
          "name": "validator",
          "type": "address"
        },
        {
          "indexed": false,
          "internalType": "uint256",
          "name": "currentApprovals",
          "type": "uint256"
        }
      ],
      "name": "IdentityVerificationSigned",
      "type": "event"
    },
    {
      "anonymous": false,
      "inputs": [
        {
          "indexed": true,
          "internalType": "uint256",
          "name": "proposalId",
          "type": "uint256"
        },
        {
          "indexed": true,
          "internalType": "address",
          "name": "applicant",
          "type": "address"
        },
        {
          "indexed": false,
          "internalType": "string",
          "name": "profileLinks",
          "type": "string"
        }
      ],
      "name": "IdentityVerified",
      "type": "event"
    },
    {
      "anonymous": false,
      "inputs": [
        {
          "indexed": true,
          "internalType": "uint256",
          "name": "campaignId",
          "type": "uint256"
        },
        {
          "indexed": true,
          "internalType": "address",
          "name": "donor",
          "type": "address"
        },
        {
          "indexed": false,
          "internalType": "uint256",
          "name": "amount",
          "type": "uint256"
        }
      ],
      "name": "RefundClaimed",
      "type": "event"
    },
    {
      "anonymous": false,
      "inputs": [
        {
          "indexed": true,
          "internalType": "uint256",
          "name": "campaignId",
          "type": "uint256"
        },
        {
          "indexed": false,
          "internalType": "uint256",
          "name": "refundableAmount",
          "type": "uint256"
        }
      ],
      "name": "RefundsEnabled",
      "type": "event"
    },
    {
      "anonymous": false,
      "inputs": [
        {
          "indexed": true,
          "internalType": "uint256",
          "name": "proposalId",
          "type": "uint256"
        },
        {
          "indexed": true,
          "internalType": "address",
          "name": "validator",
          "type": "address"
        },
        {
          "indexed": false,
          "internalType": "uint256",
          "name": "currentApprovals",
          "type": "uint256"
        }
      ],
      "name": "VendorApprovalSigned",
      "type": "event"
    },
    {
      "anonymous": false,
      "inputs": [
        {
          "indexed": true,
          "internalType": "uint256",
          "name": "campaignId",
          "type": "uint256"
        },
        {
          "indexed": true,
          "internalType": "address",
          "name": "vendor",
          "type": "address"
        },
        {
          "indexed": false,
          "internalType": "uint256",
          "name": "cap",
          "type": "uint256"
        },
        {
          "indexed": false,
          "internalType": "string",
          "name": "instructions",
          "type": "string"
        }
      ],
      "name": "VendorAssociated",
      "type": "event"
    },
    {
      "anonymous": false,
      "inputs": [
        {
          "indexed": true,
          "internalType": "uint256",
          "name": "proposalId",
          "type": "uint256"
        },
        {
          "indexed": true,
          "internalType": "address",
          "name": "vendor",
          "type": "address"
        },
        {
          "indexed": false,
          "internalType": "string",
          "name": "vendorName",
          "type": "string"
        },
        {
          "indexed": true,
          "internalType": "address",
          "name": "proposedBy",
          "type": "address"
        }
      ],
      "name": "VendorProposed",
      "type": "event"
    },
    {
      "anonymous": false,
      "inputs": [
        {
          "indexed": true,
          "internalType": "uint256",
          "name": "campaignId",
          "type": "uint256"
        },
        {
          "indexed": true,
          "internalType": "address",
          "name": "vendor",
          "type": "address"
        },
        {
          "indexed": false,
          "internalType": "uint256",
          "name": "amount",
          "type": "uint256"
        }
      ],
      "name": "VendorRefundedCampaign",
      "type": "event"
    },
    {
      "anonymous": false,
      "inputs": [
        {
          "indexed": true,
          "internalType": "uint256",
          "name": "proposalId",
          "type": "uint256"
        },
        {
          "indexed": true,
          "internalType": "address",
          "name": "vendor",
          "type": "address"
        },
        {
          "indexed": false,
          "internalType": "string",
          "name": "vendorName",
          "type": "string"
        }
      ],
      "name": "VendorWhitelisted",
      "type": "event"
    },
    {
      "anonymous": false,
      "inputs": [
        {
          "indexed": true,
          "internalType": "uint256",
          "name": "campaignId",
          "type": "uint256"
        },
        {
          "indexed": true,
          "internalType": "address",
          "name": "vendor",
          "type": "address"
        },
        {
          "indexed": false,
          "internalType": "string",
          "name": "vendorName",
          "type": "string"
        },
        {
          "indexed": false,
          "internalType": "uint256",
          "name": "amount",
          "type": "uint256"
        }
      ],
      "name": "WithdrawalToVendor",
      "type": "event"
    },
    {
      "inputs": [],
      "name": "REQUIRED_APPROVALS",
      "outputs": [
        {
          "internalType": "uint256",
          "name": "",
          "type": "uint256"
        }
      ],
      "stateMutability": "view",
      "type": "function"
    },
    {
      "inputs": [
        {
          "internalType": "string",
          "name": "profileLinks",
          "type": "string"
        }
      ],
      "name": "applyForVerification",
      "outputs": [
        {
          "internalType": "uint256",
          "name": "proposalId",
          "type": "uint256"
        }
      ],
      "stateMutability": "nonpayable",
      "type": "function"
    },
    {
      "inputs": [
        {
          "internalType": "uint256",
          "name": "proposalId",
          "type": "uint256"
        }
      ],
      "name": "approveIdentity",
      "outputs": [],
      "stateMutability": "nonpayable",
      "type": "function"
    },
    {
      "inputs": [
        {
          "internalType": "uint256",
          "name": "proposalId",
          "type": "uint256"
        }
      ],
      "name": "approveVendor",
      "outputs": [],
      "stateMutability": "nonpayable",
      "type": "function"
    },
    {
      "inputs": [
        {
          "internalType": "uint256",
          "name": "campaignId",
          "type": "uint256"
        },
        {
          "internalType": "address",
          "name": "vendor",
          "type": "address"
        },
        {
          "internalType": "uint256",
          "name": "cap",
          "type": "uint256"
        },
        {
          "internalType": "string",
          "name": "instructions",
          "type": "string"
        }
      ],
      "name": "associateVendor",
      "outputs": [],
      "stateMutability": "nonpayable",
      "type": "function"
    },
    {
      "inputs": [],
      "name": "campaignCount",
      "outputs": [
        {
          "internalType": "uint256",
          "name": "",
          "type": "uint256"
        }
      ],
      "stateMutability": "view",
      "type": "function"
    },
    {
      "inputs": [
        {
          "internalType": "uint256",
          "name": "",
          "type": "uint256"
        },
        {
          "internalType": "address",
          "name": "",
          "type": "address"
        }
      ],
      "name": "campaignVendors",
      "outputs": [
        {
          "internalType": "uint256",
          "name": "cap",
          "type": "uint256"
        },
        {
          "internalType": "uint256",
          "name": "spent",
          "type": "uint256"
        },
        {
          "internalType": "string",
          "name": "instructions",
          "type": "string"
        },
        {
          "internalType": "bool",
          "name": "associated",
          "type": "bool"
        }
      ],
      "stateMutability": "view",
      "type": "function"
    },
    {
      "inputs": [
        {
          "internalType": "uint256",
          "name": "",
          "type": "uint256"
        }
      ],
      "name": "campaigns",
      "outputs": [
        {
          "internalType": "string",
          "name": "name",
          "type": "string"
        },
        {
          "internalType": "address",
          "name": "ngo",
          "type": "address"
        },
        {
          "internalType": "uint256",
          "name": "goalAmount",
          "type": "uint256"
        },
        {
          "internalType": "uint256",
          "name": "raisedAmount",
          "type": "uint256"
        },
        {
          "internalType": "uint256",
          "name": "withdrawnAmount",
          "type": "uint256"
        },
        {
          "internalType": "bool",
          "name": "active",
          "type": "bool"
        },
        {
          "internalType": "bool",
          "name": "refundsEnabled",
          "type": "bool"
        }
      ],
      "stateMutability": "view",
      "type": "function"
    },
    {
      "inputs": [
        {
          "internalType": "uint256",
          "name": "campaignId",
          "type": "uint256"
        }
      ],
      "name": "claimRefund",
      "outputs": [],
      "stateMutability": "nonpayable",
      "type": "function"
    },
    {
      "inputs": [
        {
          "internalType": "uint256",
          "name": "campaignId",
          "type": "uint256"
        }
      ],
      "name": "closeCampaign",
      "outputs": [],
      "stateMutability": "nonpayable",
      "type": "function"
    },
    {
      "inputs": [
        {
          "internalType": "string",
          "name": "_name",
          "type": "string"
        },
        {
          "internalType": "uint256",
          "name": "_goalAmount",
          "type": "uint256"
        }
      ],
      "name": "createCampaign",
      "outputs": [
        {
          "internalType": "uint256",
          "name": "campaignId",
          "type": "uint256"
        }
      ],
      "stateMutability": "nonpayable",
      "type": "function"
    },
    {
      "inputs": [
        {
          "internalType": "uint256",
          "name": "campaignId",
          "type": "uint256"
        }
      ],
      "name": "donate",
      "outputs": [],
      "stateMutability": "payable",
      "type": "function"
    },
    {
      "inputs": [
        {
          "internalType": "uint256",
          "name": "",
          "type": "uint256"
        },
        {
          "internalType": "address",
          "name": "",
          "type": "address"
        }
      ],
      "name": "donorAmounts",
      "outputs": [
        {
          "internalType": "uint256",
          "name": "",
          "type": "uint256"
        }
      ],
      "stateMutability": "view",
      "type": "function"
    },
    {
      "inputs": [
        {
          "internalType": "uint256",
          "name": "campaignId",
          "type": "uint256"
        }
      ],
      "name": "enableRefunds",
      "outputs": [],
      "stateMutability": "nonpayable",
      "type": "function"
    },
    {
      "inputs": [
        {
          "internalType": "uint256",
          "name": "campaignId",
          "type": "uint256"
        }
      ],
      "name": "getAvailableFunds",
      "outputs": [
        {
          "internalType": "uint256",
          "name": "",
          "type": "uint256"
        }
      ],
      "stateMutability": "view",
      "type": "function"
    },
    {
      "inputs": [
        {
          "internalType": "uint256",
          "name": "campaignId",
          "type": "uint256"
        }
      ],
      "name": "getCampaign",
      "outputs": [
        {
          "internalType": "string",
          "name": "name",
          "type": "string"
        },
        {
          "internalType": "address",
          "name": "ngo",
          "type": "address"
        },
        {
          "internalType": "uint256",
          "name": "goalAmount",
          "type": "uint256"
        },
        {
          "internalType": "uint256",
          "name": "raisedAmount",
          "type": "uint256"
        },
        {
          "internalType": "uint256",
          "name": "withdrawnAmount",
          "type": "uint256"
        },
        {
          "internalType": "bool",
          "name": "active",
          "type": "bool"
        },
        {
          "internalType": "bool",
          "name": "refundsEnabled",
          "type": "bool"
        }
      ],
      "stateMutability": "view",
      "type": "function"
    },
    {
      "inputs": [
        {
          "internalType": "uint256",
          "name": "campaignId",
          "type": "uint256"
        }
      ],
      "name": "getCampaignDonors",
      "outputs": [
        {
          "internalType": "address[]",
          "name": "",
          "type": "address[]"
        }
      ],
      "stateMutability": "view",
      "type": "function"
    },
    {
      "inputs": [
        {
          "internalType": "uint256",
          "name": "campaignId",
          "type": "uint256"
        },
        {
          "internalType": "address",
          "name": "vendor",
          "type": "address"
        }
      ],
      "name": "getCampaignVendor",
      "outputs": [
        {
          "internalType": "uint256",
          "name": "cap",
          "type": "uint256"
        },
        {
          "internalType": "uint256",
          "name": "spent",
          "type": "uint256"
        },
        {
          "internalType": "string",
          "name": "instructions",
          "type": "string"
        },
        {
          "internalType": "bool",
          "name": "associated",
          "type": "bool"
        }
      ],
      "stateMutability": "view",
      "type": "function"
    },
    {
      "inputs": [
        {
          "internalType": "uint256",
          "name": "campaignId",
          "type": "uint256"
        }
      ],
      "name": "getCampaignVendorList",
      "outputs": [
        {
          "internalType": "address[]",
          "name": "",
          "type": "address[]"
        }
      ],
      "stateMutability": "view",
      "type": "function"
    },
    {
      "inputs": [
        {
          "internalType": "address",
          "name": "wallet",
          "type": "address"
        }
      ],
      "name": "getIdentityInfo",
      "outputs": [
        {
          "internalType": "bool",
          "name": "verified",
          "type": "bool"
        },
        {
          "internalType": "string",
          "name": "links",
          "type": "string"
        }
      ],
      "stateMutability": "view",
      "type": "function"
    },
    {
      "inputs": [
        {
          "internalType": "uint256",
          "name": "proposalId",
          "type": "uint256"
        }
      ],
      "name": "getIdentityProposalStatus",
      "outputs": [
        {
          "internalType": "address",
          "name": "applicant",
          "type": "address"
        },
        {
          "internalType": "string",
          "name": "profileLinks",
          "type": "string"
        },
        {
          "internalType": "uint256",
          "name": "approvals",
          "type": "uint256"
        },
        {
          "internalType": "bool",
          "name": "executed",
          "type": "bool"
        }
      ],
      "stateMutability": "view",
      "type": "function"
    },
    {
      "inputs": [
        {
          "internalType": "uint256",
          "name": "proposalId",
          "type": "uint256"
        }
      ],
      "name": "getProposalStatus",
      "outputs": [
        {
          "internalType": "address",
          "name": "vendor",
          "type": "address"
        },
        {
          "internalType": "string",
          "name": "vendorName",
          "type": "string"
        },
        {
          "internalType": "uint256",
          "name": "approvals",
          "type": "uint256"
        },
        {
          "internalType": "bool",
          "name": "executed",
          "type": "bool"
        }
      ],
      "stateMutability": "view",
      "type": "function"
    },
    {
      "inputs": [
        {
          "internalType": "uint256",
          "name": "campaignId",
          "type": "uint256"
        },
        {
          "internalType": "address",
          "name": "donor",
          "type": "address"
        }
      ],
      "name": "getRefundAmount",
      "outputs": [
        {
          "internalType": "uint256",
          "name": "",
          "type": "uint256"
        }
      ],
      "stateMutability": "view",
      "type": "function"
    },
    {
      "inputs": [
        {
          "internalType": "uint256",
          "name": "campaignId",
          "type": "uint256"
        }
      ],
      "name": "getTransactionCount",
      "outputs": [
        {
          "internalType": "uint256",
          "name": "",
          "type": "uint256"
        }
      ],
      "stateMutability": "view",
      "type": "function"
    },
    {
      "inputs": [
        {
          "internalType": "uint256",
          "name": "campaignId",
          "type": "uint256"
        }
      ],
      "name": "getTransactionsByCampaign",
      "outputs": [
        {
          "components": [
            {
              "internalType": "enum ClarityChain.TxType",
              "name": "txType",
              "type": "uint8"
            },
            {
              "internalType": "address",
              "name": "actor",
              "type": "address"
            },
            {
              "internalType": "address",
              "name": "vendor",
              "type": "address"
            },
            {
              "internalType": "uint256",
              "name": "amount",
              "type": "uint256"
            },
            {
              "internalType": "uint256",
              "name": "timestamp",
              "type": "uint256"
            }
          ],
          "internalType": "struct ClarityChain.Transaction[]",
          "name": "",
          "type": "tuple[]"
        }
      ],
      "stateMutability": "view",
      "type": "function"
    },
    {
      "inputs": [],
      "name": "getValidators",
      "outputs": [
        {
          "internalType": "address[5]",
          "name": "",
          "type": "address[5]"
        }
      ],
      "stateMutability": "view",
      "type": "function"
    },
    {
      "inputs": [],
      "name": "getWhitelistedVendors",
      "outputs": [
        {
          "internalType": "address[]",
          "name": "addresses",
          "type": "address[]"
        },
        {
          "internalType": "string[]",
          "name": "names",
          "type": "string[]"
        }
      ],
      "stateMutability": "view",
      "type": "function"
    },
    {
      "inputs": [
        {
          "internalType": "address",
          "name": "",
          "type": "address"
        }
      ],
      "name": "identityLinks",
      "outputs": [
        {
          "internalType": "string",
          "name": "",
          "type": "string"
        }
      ],
      "stateMutability": "view",
      "type": "function"
    },
    {
      "inputs": [
        {
          "internalType": "uint256",
          "name": "",
          "type": "uint256"
        }
      ],
      "name": "identityProposalApplicant",
      "outputs": [
        {
          "internalType": "address",
          "name": "",
          "type": "address"
        }
      ],
      "stateMutability": "view",
      "type": "function"
    },
    {
      "inputs": [
        {
          "internalType": "uint256",
          "name": "",
          "type": "uint256"
        }
      ],
      "name": "identityProposalApprovalCount",
      "outputs": [
        {
          "internalType": "uint256",
          "name": "",
          "type": "uint256"
        }
      ],
      "stateMutability": "view",
      "type": "function"
    },
    {
      "inputs": [
        {
          "internalType": "uint256",
          "name": "",
          "type": "uint256"
        },
        {
          "internalType": "address",
          "name": "",
          "type": "address"
        }
      ],
      "name": "identityProposalApprovals",
      "outputs": [
        {
          "internalType": "bool",
          "name": "",
          "type": "bool"
        }
      ],
      "stateMutability": "view",
      "type": "function"
    },
    {
      "inputs": [],
      "name": "identityProposalCount",
      "outputs": [
        {
          "internalType": "uint256",
          "name": "",
          "type": "uint256"
        }
      ],
      "stateMutability": "view",
      "type": "function"
    },
    {
      "inputs": [
        {
          "internalType": "uint256",
          "name": "",
          "type": "uint256"
        }
      ],
      "name": "identityProposalExecuted",
      "outputs": [
        {
          "internalType": "bool",
          "name": "",
          "type": "bool"
        }
      ],
      "stateMutability": "view",
      "type": "function"
    },
    {
      "inputs": [
        {
          "internalType": "uint256",
          "name": "",
          "type": "uint256"
        }
      ],
      "name": "identityProposalLinks",
      "outputs": [
        {
          "internalType": "string",
          "name": "",
          "type": "string"
        }
      ],
      "stateMutability": "view",
      "type": "function"
    },
    {
      "inputs": [
        {
          "internalType": "address",
          "name": "vendor",
          "type": "address"
        }
      ],
      "name": "isVendorWhitelisted",
      "outputs": [
        {
          "internalType": "bool",
          "name": "",
          "type": "bool"
        }
      ],
      "stateMutability": "view",
      "type": "function"
    },
    {
      "inputs": [],
      "name": "owner",
      "outputs": [
        {
          "internalType": "address",
          "name": "",
          "type": "address"
        }
      ],
      "stateMutability": "view",
      "type": "function"
    },
    {
      "inputs": [
        {
          "internalType": "uint256",
          "name": "",
          "type": "uint256"
        }
      ],
      "name": "proposalApprovalCount",
      "outputs": [
        {
          "internalType": "uint256",
          "name": "",
          "type": "uint256"
        }
      ],
      "stateMutability": "view",
      "type": "function"
    },
    {
      "inputs": [
        {
          "internalType": "uint256",
          "name": "",
          "type": "uint256"
        },
        {
          "internalType": "address",
          "name": "",
          "type": "address"
        }
      ],
      "name": "proposalApprovals",
      "outputs": [
        {
          "internalType": "bool",
          "name": "",
          "type": "bool"
        }
      ],
      "stateMutability": "view",
      "type": "function"
    },
    {
      "inputs": [],
      "name": "proposalCount",
      "outputs": [
        {
          "internalType": "uint256",
          "name": "",
          "type": "uint256"
        }
      ],
      "stateMutability": "view",
      "type": "function"
    },
    {
      "inputs": [
        {
          "internalType": "uint256",
          "name": "",
          "type": "uint256"
        }
      ],
      "name": "proposalExecuted",
      "outputs": [
        {
          "internalType": "bool",
          "name": "",
          "type": "bool"
        }
      ],
      "stateMutability": "view",
      "type": "function"
    },
    {
      "inputs": [
        {
          "internalType": "uint256",
          "name": "",
          "type": "uint256"
        }
      ],
      "name": "proposalVendorAddress",
      "outputs": [
        {
          "internalType": "address",
          "name": "",
          "type": "address"
        }
      ],
      "stateMutability": "view",
      "type": "function"
    },
    {
      "inputs": [
        {
          "internalType": "uint256",
          "name": "",
          "type": "uint256"
        }
      ],
      "name": "proposalVendorName",
      "outputs": [
        {
          "internalType": "string",
          "name": "",
          "type": "string"
        }
      ],
      "stateMutability": "view",
      "type": "function"
    },
    {
      "inputs": [
        {
          "internalType": "address",
          "name": "vendor",
          "type": "address"
        },
        {
          "internalType": "string",
          "name": "vendorName",
          "type": "string"
        }
      ],
      "name": "proposeVendor",
      "outputs": [
        {
          "internalType": "uint256",
          "name": "proposalId",
          "type": "uint256"
        }
      ],
      "stateMutability": "nonpayable",
      "type": "function"
    },
    {
      "inputs": [],
      "name": "validatorCount",
      "outputs": [
        {
          "internalType": "uint256",
          "name": "",
          "type": "uint256"
        }
      ],
      "stateMutability": "view",
      "type": "function"
    },
    {
      "inputs": [
        {
          "internalType": "uint256",
          "name": "",
          "type": "uint256"
        }
      ],
      "name": "validators",
      "outputs": [
        {
          "internalType": "address",
          "name": "",
          "type": "address"
        }
      ],
      "stateMutability": "view",
      "type": "function"
    },
    {
      "inputs": [
        {
          "internalType": "address",
          "name": "",
          "type": "address"
        }
      ],
      "name": "vendorNames",
      "outputs": [
        {
          "internalType": "string",
          "name": "",
          "type": "string"
        }
      ],
      "stateMutability": "view",
      "type": "function"
    },
    {
      "inputs": [
        {
          "internalType": "uint256",
          "name": "campaignId",
          "type": "uint256"
        }
      ],
      "name": "vendorRefundToCampaign",
      "outputs": [],
      "stateMutability": "payable",
      "type": "function"
    },
    {
      "inputs": [
        {
          "internalType": "address",
          "name": "",
          "type": "address"
        }
      ],
      "name": "verifiedIdentities",
      "outputs": [
        {
          "internalType": "bool",
          "name": "",
          "type": "bool"
        }
      ],
      "stateMutability": "view",
      "type": "function"
    },
    {
      "inputs": [
        {
          "internalType": "address",
          "name": "",
          "type": "address"
        }
      ],
      "name": "whitelistedVendors",
      "outputs": [
        {
          "internalType": "bool",
          "name": "",
          "type": "bool"
        }
      ],
      "stateMutability": "view",
      "type": "function"
    },
    {
      "inputs": [
        {
          "internalType": "uint256",
          "name": "campaignId",
          "type": "uint256"
        },
        {
          "internalType": "address payable",
          "name": "vendor",
          "type": "address"
        },
        {
          "internalType": "uint256",
          "name": "amount",
          "type": "uint256"
        }
      ],
      "name": "withdrawToVendor",
      "outputs": [],
      "stateMutability": "nonpayable",
      "type": "function"
    }
  ],
  "bytecode": "0x608060405234801561000f575f5ffd5b5060405161633038038061633083398181016040528101906100319190610389565b600381511080610042575060058151115b15610079576040517f32b0828800000000000000000000000000000000000000000000000000000000815260040160405180910390fd5b335f5f6101000a81548173ffffffffffffffffffffffffffffffffffffffff021916908373ffffffffffffffffffffffffffffffffffffffff16021790555080516010819055505f5f90505b81518110156101c7575f73ffffffffffffffffffffffffffffffffffffffff168282815181106100f8576100f76103d0565b5b602002602001015173ffffffffffffffffffffffffffffffffffffffff160361014d576040517f713ce51100000000000000000000000000000000000000000000000000000000815260040160405180910390fd5b8181815181106101605761015f6103d0565b5b6020026020010151600b826005811061017c5761017b6103d0565b5b015f6101000a81548173ffffffffffffffffffffffffffffffffffffffff021916908373ffffffffffffffffffffffffffffffffffffffff16021790555080806001019150506100c5565b50506103fd565b5f604051905090565b5f5ffd5b5f5ffd5b5f5ffd5b5f601f19601f8301169050919050565b7f4e487b71000000000000000000000000000000000000000000000000000000005f52604160045260245ffd5b610229826101e3565b810181811067ffffffffffffffff82111715610248576102476101f3565b5b80604052505050565b5f61025a6101ce565b90506102668282610220565b919050565b5f67ffffffffffffffff821115610285576102846101f3565b5b602082029050602081019050919050565b5f5ffd5b5f73ffffffffffffffffffffffffffffffffffffffff82169050919050565b5f6102c38261029a565b9050919050565b6102d3816102b9565b81146102dd575f5ffd5b50565b5f815190506102ee816102ca565b92915050565b5f6103066103018461026b565b610251565b9050808382526020820190506020840283018581111561032957610328610296565b5b835b81811015610352578061033e88826102e0565b84526020840193505060208101905061032b565b5050509392505050565b5f82601f8301126103705761036f6101df565b5b81516103808482602086016102f4565b91505092915050565b5f6020828403121561039e5761039d6101d7565b5b5f82015167ffffffffffffffff8111156103bb576103ba6101db565b5b6103c78482850161035c565b91505092915050565b7f4e487b71000000000000000000000000000000000000000000000000000000005f52603260045260245ffd5b615f268061040a5f395ff3fe6080604052600436106102c8575f3560e01c80636ce7178611610174578063b2bf6027116100db578063da35c66411610094578063f14faf6f1161006e578063f14faf6f14610c84578063f243ce2314610ca0578063f53bba0914610cca578063fe7aacf114610d06576102c8565b8063da35c66414610be2578063ef3e72d614610c0c578063f102a67c14610c48576102c8565b8063b2bf602714610ac0578063b7ab4db514610ae8578063c14eff9714610b12578063c5f8b36214610b4e578063c8c4f95a14610b8a578063ccc0bde414610ba6576102c8565b806381b764fb1161012d57806381b764fb1461097d5780638da5cb5b146109ba57806398024fc8146109e4578063a53cf40914610a20578063b0e1c1e114610a5c578063b25117ba14610a84576102c8565b80636ce717861461083b5780636e7bfc57146108635780637274e30d1461089f5780637434261c146108c957806377db3bf914610905578063806e65dc14610941576102c8565b80633896927c1161023357806340e8791a116101ec5780635598f8cc116101c65780635598f8cc1461077f578063599c5533146107c15780635b7baf64146107eb57806366bb74d214610813576102c8565b806340e8791a146106dc5780634733c2711461071b57806352b2380914610757576102c8565b80633896927c146105715780633896a8af146105ad578063393aaf9a146105e95780633a0f38f7146106255780633de5d0de14610661578063401853b71461069d576102c8565b8063158f695c11610285578063158f695c1461041d5780631689da8214610445578063209b7d5f146104815780632621ddf4146104bd578063283195c9146104f957806335aa2e4414610535576102c8565b806305730e22146102cc5780630f1aff0a146102f75780630f43a67714610336578063103616e8146103605780631060cb611461039c578063141961bc146103db575b5f5ffd5b3480156102d7575f5ffd5b506102e0610d42565b6040516102ee929190615041565b60405180910390f35b348015610302575f5ffd5b5061031d600480360381019061031891906150ba565b610ff1565b60405161032d9493929190615165565b60405180910390f35b348015610341575f5ffd5b5061034a61113c565b60405161035791906151af565b60405180910390f35b34801561036b575f5ffd5b50610386600480360381019061038191906150ba565b611142565b60405161039391906151c8565b60405180910390f35b3480156103a7575f5ffd5b506103c260048036038101906103bd919061520b565b61115f565b6040516103d29493929190615249565b60405180910390f35b3480156103e6575f5ffd5b5061040160048036038101906103fc91906150ba565b611228565b6040516104149796959493929190615293565b60405180910390f35b348015610428575f5ffd5b50610443600480360381019061043e91906150ba565b611324565b005b348015610450575f5ffd5b5061046b60048036038101906104669190615307565b6117fd565b6040516104789190615332565b60405180910390f35b34801561048c575f5ffd5b506104a760048036038101906104a291906150ba565b611898565b6040516104b49190615352565b60405180910390f35b3480156104c8575f5ffd5b506104e360048036038101906104de91906150ba565b611971565b6040516104f091906151af565b60405180910390f35b348015610504575f5ffd5b5061051f600480360381019061051a919061549e565b611986565b60405161052c91906151af565b60405180910390f35b348015610540575f5ffd5b5061055b600480360381019061055691906150ba565b611c1a565b60405161056891906154f8565b60405180910390f35b34801561057c575f5ffd5b50610597600480360381019061059291906150ba565b611c4e565b6040516105a491906151af565b60405180910390f35b3480156105b8575f5ffd5b506105d360048036038101906105ce91906150ba565b611c63565b6040516105e091906151c8565b60405180910390f35b3480156105f4575f5ffd5b5061060f600480360381019061060a91906150ba565b611c80565b60405161061c9190615352565b60405180910390f35b348015610630575f5ffd5b5061064b600480360381019061064691906150ba565b611d59565b6040516106589190615332565b60405180910390f35b34801561066c575f5ffd5b50610687600480360381019061068291906150ba565b611df4565b60405161069491906151af565b60405180910390f35b3480156106a8575f5ffd5b506106c360048036038101906106be91906150ba565b611e4e565b6040516106d39493929190615165565b60405180910390f35b3480156106e7575f5ffd5b5061070260048036038101906106fd919061520b565b611f99565b6040516107129493929190615249565b60405180910390f35b348015610726575f5ffd5b50610741600480360381019061073c919061520b565b6120e4565b60405161074e91906151c8565b60405180910390f35b348015610762575f5ffd5b5061077d600480360381019061077891906150ba565b61210e565b005b34801561078a575f5ffd5b506107a560048036038101906107a091906150ba565b6122c9565b6040516107b89796959493929190615293565b60405180910390f35b3480156107cc575f5ffd5b506107d561241f565b6040516107e291906151af565b60405180910390f35b3480156107f6575f5ffd5b50610811600480360381019061080c91906150ba565b612424565b005b34801561081e575f5ffd5b5061083960048036038101906108349190615511565b6127d7565b005b348015610846575f5ffd5b50610861600480360381019061085c91906150ba565b612c0d565b005b34801561086e575f5ffd5b5061088960048036038101906108849190615307565b6130e6565b60405161089691906151c8565b60405180910390f35b3480156108aa575f5ffd5b506108b3613138565b6040516108c091906151af565b60405180910390f35b3480156108d4575f5ffd5b506108ef60048036038101906108ea91906150ba565b61313e565b6040516108fc9190615332565b60405180910390f35b348015610910575f5ffd5b5061092b60048036038101906109269190615591565b6131d9565b60405161093891906151af565b60405180910390f35b34801561094c575f5ffd5b506109676004803603810190610962919061520b565b6133b6565b60405161097491906151c8565b60405180910390f35b348015610988575f5ffd5b506109a3600480360381019061099e9190615307565b6133e0565b6040516109b19291906155d8565b60405180910390f35b3480156109c5575f5ffd5b506109ce6134fd565b6040516109db91906154f8565b60405180910390f35b3480156109ef575f5ffd5b50610a0a6004803603810190610a059190615307565b613521565b604051610a1791906151c8565b60405180910390f35b348015610a2b575f5ffd5b50610a466004803603810190610a419190615307565b61353e565b604051610a5391906151c8565b60405180910390f35b348015610a67575f5ffd5b50610a826004803603810190610a7d91906150ba565b61355b565b005b348015610a8f575f5ffd5b50610aaa6004803603810190610aa591906150ba565b61368d565b604051610ab791906154f8565b60405180910390f35b348015610acb575f5ffd5b50610ae66004803603810190610ae19190615641565b6136bd565b005b348015610af3575f5ffd5b50610afc613da1565b604051610b099190615710565b60405180910390f35b348015610b1d575f5ffd5b50610b386004803603810190610b3391906150ba565b613e21565b604051610b4591906151af565b60405180910390f35b348015610b59575f5ffd5b50610b746004803603810190610b6f91906150ba565b613e8f565b604051610b8191906154f8565b60405180910390f35b610ba46004803603810190610b9f91906150ba565b613ebf565b005b348015610bb1575f5ffd5b50610bcc6004803603810190610bc7919061520b565b6142ca565b604051610bd991906151af565b60405180910390f35b348015610bed575f5ffd5b50610bf66142ea565b604051610c0391906151af565b60405180910390f35b348015610c17575f5ffd5b50610c326004803603810190610c2d9190615307565b6142f0565b604051610c3f9190615332565b60405180910390f35b348015610c53575f5ffd5b50610c6e6004803603810190610c699190615729565b61438b565b604051610c7b91906151af565b60405180910390f35b610c9e6004803603810190610c9991906150ba565b61458b565b005b348015610cab575f5ffd5b50610cb4614aba565b604051610cc191906151af565b60405180910390f35b348015610cd5575f5ffd5b50610cf06004803603810190610ceb919061520b565b614ac0565b604051610cfd91906151af565b60405180910390f35b348015610d11575f5ffd5b50610d2c6004803603810190610d2791906150ba565b614bd0565b604051610d399190615913565b60405180910390f35b6060805f5f90505f5f90505b601154811015610d975760155f8281526020019081526020015f205f9054906101000a900460ff1615610d8a578180610d8690615960565b9250505b8080600101915050610d4e565b508067ffffffffffffffff811115610db257610db161537a565b5b604051908082528060200260200182016040528015610de05781602001602082028036833780820191505090505b5092508067ffffffffffffffff811115610dfd57610dfc61537a565b5b604051908082528060200260200182016040528015610e3057816020015b6060815260200190600190039081610e1b5790505b5091505f5f90505f5f90505b601154811015610fea5760155f8281526020019081526020015f205f9054906101000a900460ff1615610fdd575f60125f8381526020019081526020015f205f9054906101000a900473ffffffffffffffffffffffffffffffffffffffff16905080868481518110610eb157610eb06159a7565b5b602002602001019073ffffffffffffffffffffffffffffffffffffffff16908173ffffffffffffffffffffffffffffffffffffffff168152505060075f8273ffffffffffffffffffffffffffffffffffffffff1673ffffffffffffffffffffffffffffffffffffffff1681526020019081526020015f208054610f3390615a01565b80601f0160208091040260200160405190810160405280929190818152602001828054610f5f90615a01565b8015610faa5780601f10610f8157610100808354040283529160200191610faa565b820191905f5260205f20905b815481529060010190602001808311610f8d57829003601f168201915b5050505050858481518110610fc257610fc16159a7565b5b60200260200101819052508280610fd890615960565b935050505b8080600101915050610e3c565b5050509091565b5f60605f5f6017548510611031576040517fe8d659d800000000000000000000000000000000000000000000000000000000815260040160405180910390fd5b60185f8681526020019081526020015f205f9054906101000a900473ffffffffffffffffffffffffffffffffffffffff1660195f8781526020019081526020015f20601a5f8881526020019081526020015f2054601b5f8981526020019081526020015f205f9054906101000a900460ff168280546110af90615a01565b80601f01602080910402602001604051908101604052809291908181526020018280546110db90615a01565b80156111265780601f106110fd57610100808354040283529160200191611126565b820191905f5260205f20905b81548152906001019060200180831161110957829003601f168201915b5050505050925093509350935093509193509193565b60105481565b6015602052805f5260405f205f915054906101000a900460ff1681565b6008602052815f5260405f20602052805f5260405f205f9150915050805f01549080600101549080600201805461119590615a01565b80601f01602080910402602001604051908101604052809291908181526020018280546111c190615a01565b801561120c5780601f106111e35761010080835404028352916020019161120c565b820191905f5260205f20905b8154815290600101906020018083116111ef57829003601f168201915b505050505090806003015f9054906101000a900460ff16905084565b6002602052805f5260405f205f91509050805f01805461124790615a01565b80601f016020809104026020016040519081016040528092919081815260200182805461127390615a01565b80156112be5780601f10611295576101008083540402835291602001916112be565b820191905f5260205f20905b8154815290600101906020018083116112a157829003601f168201915b505050505090806001015f9054906101000a900473ffffffffffffffffffffffffffffffffffffffff1690806002015490806003015490806004015490806005015f9054906101000a900460ff16908060050160019054906101000a900460ff16905087565b5f5f90505f5f90505b6010548110156113b4573373ffffffffffffffffffffffffffffffffffffffff16600b8260058110611362576113616159a7565b5b015f9054906101000a900473ffffffffffffffffffffffffffffffffffffffff1673ffffffffffffffffffffffffffffffffffffffff16036113a757600191506113b4565b808060010191505061132d565b50806113ec576040517f2ec5b44900000000000000000000000000000000000000000000000000000000815260040160405180910390fd5b6017548210611427576040517fe8d659d800000000000000000000000000000000000000000000000000000000815260040160405180910390fd5b601b5f8381526020019081526020015f205f9054906101000a900460ff161561147c576040517fda8556ff00000000000000000000000000000000000000000000000000000000815260040160405180910390fd5b601c5f8381526020019081526020015f205f3373ffffffffffffffffffffffffffffffffffffffff1673ffffffffffffffffffffffffffffffffffffffff1681526020019081526020015f205f9054906101000a900460ff161561150c576040517fcd42303e00000000000000000000000000000000000000000000000000000000815260040160405180910390fd5b6001601c5f8481526020019081526020015f205f3373ffffffffffffffffffffffffffffffffffffffff1673ffffffffffffffffffffffffffffffffffffffff1681526020019081526020015f205f6101000a81548160ff021916908315150217905550601a5f8381526020019081526020015f205f81548092919061159190615960565b91905055503373ffffffffffffffffffffffffffffffffffffffff16827f2446ca06f5cf205b8398fc0b34fc86ba8d0587c20beda7bceede0a39b1e2a90d601a5f8681526020019081526020015f20546040516115ee91906151af565b60405180910390a36003601a5f8481526020019081526020015f2054106117f9575f60185f8481526020019081526020015f205f9054906101000a900473ffffffffffffffffffffffffffffffffffffffff1690505f60195f8581526020019081526020015f20805461166090615a01565b80601f016020809104026020016040519081016040528092919081815260200182805461168c90615a01565b80156116d75780601f106116ae576101008083540402835291602001916116d7565b820191905f5260205f20905b8154815290600101906020018083116116ba57829003601f168201915b505050505090506001601d5f8473ffffffffffffffffffffffffffffffffffffffff1673ffffffffffffffffffffffffffffffffffffffff1681526020019081526020015f205f6101000a81548160ff02191690831515021790555080601e5f8473ffffffffffffffffffffffffffffffffffffffff1673ffffffffffffffffffffffffffffffffffffffff1681526020019081526020015f20908161177d9190615bd1565b506001601b5f8681526020019081526020015f205f6101000a81548160ff0219169083151502179055508173ffffffffffffffffffffffffffffffffffffffff16847fbc7b9390c7ca1023f818f4c48284f90b0e4a8057b1dd89729eabdffa7b410c88836040516117ee9190615332565b60405180910390a350505b5050565b6007602052805f5260405f205f91509050805461181990615a01565b80601f016020809104026020016040519081016040528092919081815260200182805461184590615a01565b80156118905780601f1061186757610100808354040283529160200191611890565b820191905f5260205f20905b81548152906001019060200180831161187357829003601f168201915b505050505081565b60608160015481106118d6576040517f9b35ed3b00000000000000000000000000000000000000000000000000000000815260040160405180910390fd5b60045f8481526020019081526020015f2080548060200260200160405190810160405280929190818152602001828054801561196457602002820191905f5260205f20905b815f9054906101000a900473ffffffffffffffffffffffffffffffffffffffff1673ffffffffffffffffffffffffffffffffffffffff168152602001906001019080831161191b575b5050505050915050919050565b601a602052805f5260405f205f915090505481565b5f5f73ffffffffffffffffffffffffffffffffffffffff168373ffffffffffffffffffffffffffffffffffffffff16036119ec576040517f764be74800000000000000000000000000000000000000000000000000000000815260040160405180910390fd5b5f825103611a26576040517f7ab8b59400000000000000000000000000000000000000000000000000000000815260040160405180910390fd5b60065f8473ffffffffffffffffffffffffffffffffffffffff1673ffffffffffffffffffffffffffffffffffffffff1681526020019081526020015f205f9054906101000a900460ff1615611aa7576040517f11fe1dc200000000000000000000000000000000000000000000000000000000815260040160405180910390fd5b611ab082614d71565b611ae6576040517fac1eded500000000000000000000000000000000000000000000000000000000815260040160405180910390fd5b60115490508260125f8381526020019081526020015f205f6101000a81548173ffffffffffffffffffffffffffffffffffffffff021916908373ffffffffffffffffffffffffffffffffffffffff1602179055508160135f8381526020019081526020015f209081611b589190615bd1565b505f60145f8381526020019081526020015f20819055505f60155f8381526020019081526020015f205f6101000a81548160ff02191690831515021790555060115f815480929190611ba990615960565b91905055503373ffffffffffffffffffffffffffffffffffffffff168373ffffffffffffffffffffffffffffffffffffffff16827f283919160e4663db5f89b51932d29899258afa8f45472dce627901b0d81a312985604051611c0c9190615332565b60405180910390a492915050565b600b8160058110611c29575f80fd5b015f915054906101000a900473ffffffffffffffffffffffffffffffffffffffff1681565b6014602052805f5260405f205f915090505481565b601b602052805f5260405f205f915054906101000a900460ff1681565b6060816001548110611cbe576040517f9b35ed3b00000000000000000000000000000000000000000000000000000000815260040160405180910390fd5b60095f8481526020019081526020015f20805480602002602001604051908101604052809291908181526020018280548015611d4c57602002820191905f5260205f20905b815f9054906101000a900473ffffffffffffffffffffffffffffffffffffffff1673ffffffffffffffffffffffffffffffffffffffff1681526020019060010190808311611d03575b5050505050915050919050565b6013602052805f5260405f205f915090508054611d7590615a01565b80601f0160208091040260200160405190810160405280929190818152602001828054611da190615a01565b8015611dec5780601f10611dc357610100808354040283529160200191611dec565b820191905f5260205f20905b815481529060010190602001808311611dcf57829003601f168201915b505050505081565b5f816001548110611e31576040517f9b35ed3b00000000000000000000000000000000000000000000000000000000815260040160405180910390fd5b600a5f8481526020019081526020015f2080549050915050919050565b5f60605f5f6011548510611e8e576040517fd9c78e0200000000000000000000000000000000000000000000000000000000815260040160405180910390fd5b60125f8681526020019081526020015f205f9054906101000a900473ffffffffffffffffffffffffffffffffffffffff1660135f8781526020019081526020015f2060145f8881526020019081526020015f205460155f8981526020019081526020015f205f9054906101000a900460ff16828054611f0c90615a01565b80601f0160208091040260200160405190810160405280929190818152602001828054611f3890615a01565b8015611f835780601f10611f5a57610100808354040283529160200191611f83565b820191905f5260205f20905b815481529060010190602001808311611f6657829003601f168201915b5050505050925093509350935093509193509193565b5f5f60605f856001548110611fda576040517f9b35ed3b00000000000000000000000000000000000000000000000000000000815260040160405180910390fd5b5f60085f8981526020019081526020015f205f8873ffffffffffffffffffffffffffffffffffffffff1673ffffffffffffffffffffffffffffffffffffffff1681526020019081526020015f209050805f0154816001015482600201836003015f9054906101000a900460ff1681805461205390615a01565b80601f016020809104026020016040519081016040528092919081815260200182805461207f90615a01565b80156120ca5780601f106120a1576101008083540402835291602001916120ca565b820191905f5260205f20905b8154815290600101906020018083116120ad57829003601f168201915b505050505091509550955095509550505092959194509250565b6016602052815f5260405f20602052805f5260405f205f915091509054906101000a900460ff1681565b80600154811061214a576040517f9b35ed3b00000000000000000000000000000000000000000000000000000000815260040160405180910390fd5b813373ffffffffffffffffffffffffffffffffffffffff1660025f8381526020019081526020015f206001015f9054906101000a900473ffffffffffffffffffffffffffffffffffffffff1673ffffffffffffffffffffffffffffffffffffffff16146121e3576040517f7d762ee400000000000000000000000000000000000000000000000000000000815260040160405180910390fd5b5f60025f8581526020019081526020015f2090508060050160019054906101000a900460ff1615612240576040517ff5e6fbc600000000000000000000000000000000000000000000000000000000815260040160405180910390fd5b5f816005015f6101000a81548160ff02191690831515021790555060018160050160016101000a81548160ff021916908315150217905550837f9d89339efaabc79993cee28742c00a934cf47c83f7f84ded158cf05eb204a4ba826004015483600301546122ae9190615ca0565b6040516122bb91906151af565b60405180910390a250505050565b60605f5f5f5f5f5f87600154811061230d576040517f9b35ed3b00000000000000000000000000000000000000000000000000000000815260040160405180910390fd5b5f60025f8b81526020019081526020015f209050805f01816001015f9054906101000a900473ffffffffffffffffffffffffffffffffffffffff16826002015483600301548460040154856005015f9054906101000a900460ff168660050160019054906101000a900460ff1686805461238690615a01565b80601f01602080910402602001604051908101604052809291908181526020018280546123b290615a01565b80156123fd5780601f106123d4576101008083540402835291602001916123fd565b820191905f5260205f20905b8154815290600101906020018083116123e057829003601f168201915b5050505050965098509850985098509850985098505050919395979092949650565b600381565b806001548110612460576040517f9b35ed3b00000000000000000000000000000000000000000000000000000000815260040160405180910390fd5b5f60149054906101000a900460ff16156124a6576040517f37ed32e800000000000000000000000000000000000000000000000000000000815260040160405180910390fd5b60015f60146101000a81548160ff0219169083151502179055505f60025f8481526020019081526020015f2090508060050160019054906101000a900460ff1661251c576040517f64547e6900000000000000000000000000000000000000000000000000000000815260040160405180910390fd5b5f60035f8581526020019081526020015f205f3373ffffffffffffffffffffffffffffffffffffffff1673ffffffffffffffffffffffffffffffffffffffff1681526020019081526020015f205490505f81036125a5576040517fe541d76e00000000000000000000000000000000000000000000000000000000815260040160405180910390fd5b5f826004015483600301546125ba9190615ca0565b90505f836003015482846125ce9190615cd3565b6125d89190615d41565b90505f8103612613576040517f97114f0f00000000000000000000000000000000000000000000000000000000815260040160405180910390fd5b5f60035f8881526020019081526020015f205f3373ffffffffffffffffffffffffffffffffffffffff1673ffffffffffffffffffffffffffffffffffffffff1681526020019081526020015f20819055505f60055f8881526020019081526020015f205f3373ffffffffffffffffffffffffffffffffffffffff1673ffffffffffffffffffffffffffffffffffffffff1681526020019081526020015f205f6101000a81548160ff0219169083151502179055505f3373ffffffffffffffffffffffffffffffffffffffff16826040516126ec90615d9e565b5f6040518083038185875af1925050503d805f8114612726576040519150601f19603f3d011682016040523d82523d5f602084013e61272b565b606091505b5050905080612766576040517fcbe4e8c300000000000000000000000000000000000000000000000000000000815260040160405180910390fd5b3373ffffffffffffffffffffffffffffffffffffffff16877ff3f402280ef0a7905e124aa621b65eaeb2725c343e8b36d398ed78c29daf285c846040516127ad91906151af565b60405180910390a350505050505f5f60146101000a81548160ff0219169083151502179055505050565b836001548110612813576040517f9b35ed3b00000000000000000000000000000000000000000000000000000000815260040160405180910390fd5b8460025f8281526020019081526020015f206005015f9054906101000a900460ff1661286b576040517f433528b600000000000000000000000000000000000000000000000000000000815260040160405180910390fd5b853373ffffffffffffffffffffffffffffffffffffffff1660025f8381526020019081526020015f206001015f9054906101000a900473ffffffffffffffffffffffffffffffffffffffff1673ffffffffffffffffffffffffffffffffffffffff1614612904576040517f7d762ee400000000000000000000000000000000000000000000000000000000815260040160405180910390fd5b60065f8773ffffffffffffffffffffffffffffffffffffffff1673ffffffffffffffffffffffffffffffffffffffff1681526020019081526020015f205f9054906101000a900460ff16612984576040517f655a380300000000000000000000000000000000000000000000000000000000815260040160405180910390fd5b60085f8881526020019081526020015f205f8773ffffffffffffffffffffffffffffffffffffffff1673ffffffffffffffffffffffffffffffffffffffff1681526020019081526020015f206003015f9054906101000a900460ff1615612a17576040517fc756f1c900000000000000000000000000000000000000000000000000000000815260040160405180910390fd5b5f8503612a50576040517f4edc228c00000000000000000000000000000000000000000000000000000000815260040160405180910390fd5b5f845103612a8a576040517f91ea039700000000000000000000000000000000000000000000000000000000815260040160405180910390fd5b60405180608001604052808681526020015f81526020018581526020016001151581525060085f8981526020019081526020015f205f8873ffffffffffffffffffffffffffffffffffffffff1673ffffffffffffffffffffffffffffffffffffffff1681526020019081526020015f205f820151815f0155602082015181600101556040820151816002019081612b219190615bd1565b506060820151816003015f6101000a81548160ff02191690831515021790555090505060095f8881526020019081526020015f2086908060018154018082558091505060019003905f5260205f20015f9091909190916101000a81548173ffffffffffffffffffffffffffffffffffffffff021916908373ffffffffffffffffffffffffffffffffffffffff1602179055508573ffffffffffffffffffffffffffffffffffffffff16877fd7fd7b50460a5d11bb1dabdbb3fb5e184ebba96f5e1ca25597f43301c09effce8787604051612bfc929190615db2565b60405180910390a350505050505050565b5f5f90505f5f90505b601054811015612c9d573373ffffffffffffffffffffffffffffffffffffffff16600b8260058110612c4b57612c4a6159a7565b5b015f9054906101000a900473ffffffffffffffffffffffffffffffffffffffff1673ffffffffffffffffffffffffffffffffffffffff1603612c905760019150612c9d565b8080600101915050612c16565b5080612cd5576040517f2ec5b44900000000000000000000000000000000000000000000000000000000815260040160405180910390fd5b6011548210612d10576040517fd9c78e0200000000000000000000000000000000000000000000000000000000815260040160405180910390fd5b60155f8381526020019081526020015f205f9054906101000a900460ff1615612d65576040517f51618d5300000000000000000000000000000000000000000000000000000000815260040160405180910390fd5b60165f8381526020019081526020015f205f3373ffffffffffffffffffffffffffffffffffffffff1673ffffffffffffffffffffffffffffffffffffffff1681526020019081526020015f205f9054906101000a900460ff1615612df5576040517fffafa3af00000000000000000000000000000000000000000000000000000000815260040160405180910390fd5b600160165f8481526020019081526020015f205f3373ffffffffffffffffffffffffffffffffffffffff1673ffffffffffffffffffffffffffffffffffffffff1681526020019081526020015f205f6101000a81548160ff02191690831515021790555060145f8381526020019081526020015f205f815480929190612e7a90615960565b91905055503373ffffffffffffffffffffffffffffffffffffffff16827f67aa4bd29fe554ec4fe772990f621e4fff951c79197005dd4f3a008c0130a89e60145f8681526020019081526020015f2054604051612ed791906151af565b60405180910390a3600360145f8481526020019081526020015f2054106130e2575f60125f8481526020019081526020015f205f9054906101000a900473ffffffffffffffffffffffffffffffffffffffff1690505f60135f8581526020019081526020015f208054612f4990615a01565b80601f0160208091040260200160405190810160405280929190818152602001828054612f7590615a01565b8015612fc05780601f10612f9757610100808354040283529160200191612fc0565b820191905f5260205f20905b815481529060010190602001808311612fa357829003601f168201915b50505050509050600160065f8473ffffffffffffffffffffffffffffffffffffffff1673ffffffffffffffffffffffffffffffffffffffff1681526020019081526020015f205f6101000a81548160ff0219169083151502179055508060075f8473ffffffffffffffffffffffffffffffffffffffff1673ffffffffffffffffffffffffffffffffffffffff1681526020019081526020015f2090816130669190615bd1565b50600160155f8681526020019081526020015f205f6101000a81548160ff0219169083151502179055508173ffffffffffffffffffffffffffffffffffffffff16847f5e10a2cd0896305954e023d35ecefc2116cfe2fa9e898222c92a5a4b5a2510b2836040516130d79190615332565b60405180910390a350505b5050565b5f60065f8373ffffffffffffffffffffffffffffffffffffffff1673ffffffffffffffffffffffffffffffffffffffff1681526020019081526020015f205f9054906101000a900460ff169050919050565b60015481565b6019602052805f5260405f205f91509050805461315a90615a01565b80601f016020809104026020016040519081016040528092919081815260200182805461318690615a01565b80156131d15780601f106131a8576101008083540402835291602001916131d1565b820191905f5260205f20905b8154815290600101906020018083116131b457829003601f168201915b505050505081565b5f6131e382614d71565b613219576040517fcab03e0d00000000000000000000000000000000000000000000000000000000815260040160405180910390fd5b601d5f3373ffffffffffffffffffffffffffffffffffffffff1673ffffffffffffffffffffffffffffffffffffffff1681526020019081526020015f205f9054906101000a900460ff161561329a576040517ffbbbb58900000000000000000000000000000000000000000000000000000000815260040160405180910390fd5b60175490503360185f8381526020019081526020015f205f6101000a81548173ffffffffffffffffffffffffffffffffffffffff021916908373ffffffffffffffffffffffffffffffffffffffff1602179055508160195f8381526020019081526020015f20908161330c9190615bd1565b505f601a5f8381526020019081526020015f20819055505f601b5f8381526020019081526020015f205f6101000a81548160ff02191690831515021790555060175f81548092919061335d90615960565b91905055503373ffffffffffffffffffffffffffffffffffffffff16817f520f95e8f98aed51c9a03468be080f3d4af2199fa84ca0d0aac846eee684d2e2846040516133a99190615332565b60405180910390a3919050565b601c602052815f5260405f20602052805f5260405f205f915091509054906101000a900460ff1681565b5f6060601d5f8473ffffffffffffffffffffffffffffffffffffffff1673ffffffffffffffffffffffffffffffffffffffff1681526020019081526020015f205f9054906101000a900460ff16601e5f8573ffffffffffffffffffffffffffffffffffffffff1673ffffffffffffffffffffffffffffffffffffffff1681526020019081526020015f2080805461347690615a01565b80601f01602080910402602001604051908101604052809291908181526020018280546134a290615a01565b80156134ed5780601f106134c4576101008083540402835291602001916134ed565b820191905f5260205f20905b8154815290600101906020018083116134d057829003601f168201915b5050505050905091509150915091565b5f5f9054906101000a900473ffffffffffffffffffffffffffffffffffffffff1681565b6006602052805f5260405f205f915054906101000a900460ff1681565b601d602052805f5260405f205f915054906101000a900460ff1681565b806001548110613597576040517f9b35ed3b00000000000000000000000000000000000000000000000000000000815260040160405180910390fd5b813373ffffffffffffffffffffffffffffffffffffffff1660025f8381526020019081526020015f206001015f9054906101000a900473ffffffffffffffffffffffffffffffffffffffff1673ffffffffffffffffffffffffffffffffffffffff1614613630576040517f7d762ee400000000000000000000000000000000000000000000000000000000815260040160405180910390fd5b5f60025f8581526020019081526020015f206005015f6101000a81548160ff021916908315150217905550827f5e6eb33a418de5dbbc17f989f7ae362cdfbb1748c5d603137c767027a354edbc60405160405180910390a2505050565b6012602052805f5260405f205f915054906101000a900473ffffffffffffffffffffffffffffffffffffffff1681565b8260015481106136f9576040517f9b35ed3b00000000000000000000000000000000000000000000000000000000815260040160405180910390fd5b8360025f8281526020019081526020015f206005015f9054906101000a900460ff16613751576040517f433528b600000000000000000000000000000000000000000000000000000000815260040160405180910390fd5b843373ffffffffffffffffffffffffffffffffffffffff1660025f8381526020019081526020015f206001015f9054906101000a900473ffffffffffffffffffffffffffffffffffffffff1673ffffffffffffffffffffffffffffffffffffffff16146137ea576040517f7d762ee400000000000000000000000000000000000000000000000000000000815260040160405180910390fd5b5f60149054906101000a900460ff1615613830576040517f37ed32e800000000000000000000000000000000000000000000000000000000815260040160405180910390fd5b60015f60146101000a81548160ff02191690831515021790555060065f8673ffffffffffffffffffffffffffffffffffffffff1673ffffffffffffffffffffffffffffffffffffffff1681526020019081526020015f205f9054906101000a900460ff166138ca576040517f88a76f3d00000000000000000000000000000000000000000000000000000000815260040160405180910390fd5b60085f8781526020019081526020015f205f8673ffffffffffffffffffffffffffffffffffffffff1673ffffffffffffffffffffffffffffffffffffffff1681526020019081526020015f206003015f9054906101000a900460ff1661395c576040517f0ba82be300000000000000000000000000000000000000000000000000000000815260040160405180910390fd5b5f8403613995576040517f5e85ae7300000000000000000000000000000000000000000000000000000000815260040160405180910390fd5b5f60085f8881526020019081526020015f205f8773ffffffffffffffffffffffffffffffffffffffff1673ffffffffffffffffffffffffffffffffffffffff1681526020019081526020015f209050805f01548582600101546139f89190615de0565b1115613a30576040517f06ddbf2200000000000000000000000000000000000000000000000000000000815260040160405180910390fd5b5f60025f8981526020019081526020015f206004015460025f8a81526020019081526020015f2060030154613a659190615ca0565b905080861115613aa1576040517f69ffdadc00000000000000000000000000000000000000000000000000000000815260040160405180910390fd5b85826001015f828254613ab49190615de0565b925050819055508560025f8a81526020019081526020015f206004015f828254613ade9190615de0565b925050819055505f8773ffffffffffffffffffffffffffffffffffffffff1687604051613b0a90615d9e565b5f6040518083038185875af1925050503d805f8114613b44576040519150601f19603f3d011682016040523d82523d5f602084013e613b49565b606091505b5050905080613b84576040517ff5e9448800000000000000000000000000000000000000000000000000000000815260040160405180910390fd5b600a5f8a81526020019081526020015f206040518060a0016040528060016002811115613bb457613bb36157ac565b5b81526020013373ffffffffffffffffffffffffffffffffffffffff1681526020018a73ffffffffffffffffffffffffffffffffffffffff16815260200189815260200142815250908060018154018082558091505060019003905f5260205f2090600402015f909190919091505f820151815f015f6101000a81548160ff02191690836002811115613c4957613c486157ac565b5b02179055506020820151815f0160016101000a81548173ffffffffffffffffffffffffffffffffffffffff021916908373ffffffffffffffffffffffffffffffffffffffff1602179055506040820151816001015f6101000a81548173ffffffffffffffffffffffffffffffffffffffff021916908373ffffffffffffffffffffffffffffffffffffffff160217905550606082015181600201556080820151816003015550508773ffffffffffffffffffffffffffffffffffffffff16897f732cd91831afb5863a4f2409954bd8d5d26e45a12a6d70f603ded109ddc274b560075f8c73ffffffffffffffffffffffffffffffffffffffff1673ffffffffffffffffffffffffffffffffffffffff1681526020019081526020015f208a604051613d75929190615e94565b60405180910390a35050505f5f60146101000a81548160ff021916908315150217905550505050505050565b613da9614e0d565b600b600580602002604051908101604052809291908260058015613e17576020028201915b815f9054906101000a900473ffffffffffffffffffffffffffffffffffffffff1673ffffffffffffffffffffffffffffffffffffffff1681526020019060010190808311613dce575b5050505050905090565b5f816001548110613e5e576040517f9b35ed3b00000000000000000000000000000000000000000000000000000000815260040160405180910390fd5b5f60025f8581526020019081526020015f20905080600401548160030154613e869190615ca0565b92505050919050565b6018602052805f5260405f205f915054906101000a900473ffffffffffffffffffffffffffffffffffffffff1681565b806001548110613efb576040517f9b35ed3b00000000000000000000000000000000000000000000000000000000815260040160405180910390fd5b5f60149054906101000a900460ff1615613f41576040517f37ed32e800000000000000000000000000000000000000000000000000000000815260040160405180910390fd5b60015f60146101000a81548160ff0219169083151502179055505f3403613f94576040517fd7f2cb6200000000000000000000000000000000000000000000000000000000815260040160405180910390fd5b60085f8381526020019081526020015f205f3373ffffffffffffffffffffffffffffffffffffffff1673ffffffffffffffffffffffffffffffffffffffff1681526020019081526020015f206003015f9054906101000a900460ff16614026576040517f66eec34500000000000000000000000000000000000000000000000000000000815260040160405180910390fd5b5f60085f8481526020019081526020015f205f3373ffffffffffffffffffffffffffffffffffffffff1673ffffffffffffffffffffffffffffffffffffffff1681526020019081526020015f2090508060010154341161409f5734816001015f8282546140939190615ca0565b925050819055506140a9565b5f81600101819055505b5f60025f8581526020019081526020015f209050806004015434116140e75734816004015f8282546140db9190615ca0565b925050819055506140f1565b5f81600401819055505b600a5f8581526020019081526020015f206040518060a001604052806002808111156141205761411f6157ac565b5b81526020013373ffffffffffffffffffffffffffffffffffffffff1681526020013373ffffffffffffffffffffffffffffffffffffffff16815260200134815260200142815250908060018154018082558091505060019003905f5260205f2090600402015f909190919091505f820151815f015f6101000a81548160ff021916908360028111156141b5576141b46157ac565b5b02179055506020820151815f0160016101000a81548173ffffffffffffffffffffffffffffffffffffffff021916908373ffffffffffffffffffffffffffffffffffffffff1602179055506040820151816001015f6101000a81548173ffffffffffffffffffffffffffffffffffffffff021916908373ffffffffffffffffffffffffffffffffffffffff160217905550606082015181600201556080820151816003015550503373ffffffffffffffffffffffffffffffffffffffff16847f51582bfd68edc3621bee64ac54a2b5e7c043a8555da24fda4f0abe2e65e83d2f346040516142a391906151af565b60405180910390a350505f5f60146101000a81548160ff0219169083151502179055505050565b6003602052815f5260405f20602052805f5260405f205f91509150505481565b60115481565b601e602052805f5260405f205f91509050805461430c90615a01565b80601f016020809104026020016040519081016040528092919081815260200182805461433890615a01565b80156143835780601f1061435a57610100808354040283529160200191614383565b820191905f5260205f20905b81548152906001019060200180831161436657829003601f168201915b505050505081565b5f5f8351036143c6576040517fcf48253200000000000000000000000000000000000000000000000000000000815260040160405180910390fd5b5f82036143ff576040517fbf2cfade00000000000000000000000000000000000000000000000000000000815260040160405180910390fd5b60015490506040518060e001604052808481526020013373ffffffffffffffffffffffffffffffffffffffff1681526020018381526020015f81526020015f81526020016001151581526020015f151581525060025f8381526020019081526020015f205f820151815f0190816144769190615bd1565b506020820151816001015f6101000a81548173ffffffffffffffffffffffffffffffffffffffff021916908373ffffffffffffffffffffffffffffffffffffffff16021790555060408201518160020155606082015181600301556080820151816004015560a0820151816005015f6101000a81548160ff02191690831515021790555060c08201518160050160016101000a81548160ff02191690831515021790555090505060015f81548092919061452f90615960565b91905055503373ffffffffffffffffffffffffffffffffffffffff16817f85d038f2d0b3728e5fede2ce367934666edeabb735999e2be302dc035466b98b858560405161457d929190615ec2565b60405180910390a392915050565b8060015481106145c7576040517f9b35ed3b00000000000000000000000000000000000000000000000000000000815260040160405180910390fd5b8160025f8281526020019081526020015f206005015f9054906101000a900460ff1661461f576040517f433528b600000000000000000000000000000000000000000000000000000000815260040160405180910390fd5b5f60149054906101000a900460ff1615614665576040517f37ed32e800000000000000000000000000000000000000000000000000000000815260040160405180910390fd5b60015f60146101000a81548160ff0219169083151502179055505f34036146b8576040517f4368db7400000000000000000000000000000000000000000000000000000000815260040160405180910390fd5b60025f8481526020019081526020015f20600201543460025f8681526020019081526020015f20600301546146ed9190615de0565b1115614725576040517f676cb4d900000000000000000000000000000000000000000000000000000000815260040160405180910390fd5b60055f8481526020019081526020015f205f3373ffffffffffffffffffffffffffffffffffffffff1673ffffffffffffffffffffffffffffffffffffffff1681526020019081526020015f205f9054906101000a900460ff1661485657600160055f8581526020019081526020015f205f3373ffffffffffffffffffffffffffffffffffffffff1673ffffffffffffffffffffffffffffffffffffffff1681526020019081526020015f205f6101000a81548160ff02191690831515021790555060045f8481526020019081526020015f2033908060018154018082558091505060019003905f5260205f20015f9091909190916101000a81548173ffffffffffffffffffffffffffffffffffffffff021916908373ffffffffffffffffffffffffffffffffffffffff1602179055505b3460035f8581526020019081526020015f205f3373ffffffffffffffffffffffffffffffffffffffff1673ffffffffffffffffffffffffffffffffffffffff1681526020019081526020015f205f8282546148b19190615de0565b925050819055503460025f8581526020019081526020015f206003015f8282546148db9190615de0565b92505081905550600a5f8481526020019081526020015f206040518060a001604052805f6002811115614911576149106157ac565b5b81526020013373ffffffffffffffffffffffffffffffffffffffff1681526020015f73ffffffffffffffffffffffffffffffffffffffff16815260200134815260200142815250908060018154018082558091505060019003905f5260205f2090600402015f909190919091505f820151815f015f6101000a81548160ff021916908360028111156149a6576149a56157ac565b5b02179055506020820151815f0160016101000a81548173ffffffffffffffffffffffffffffffffffffffff021916908373ffffffffffffffffffffffffffffffffffffffff1602179055506040820151816001015f6101000a81548173ffffffffffffffffffffffffffffffffffffffff021916908373ffffffffffffffffffffffffffffffffffffffff160217905550606082015181600201556080820151816003015550503373ffffffffffffffffffffffffffffffffffffffff16837f0b5b4c52969ff7329ecf7ee536409fda87812b15a8622bc6e8cdeab3aee14a2634604051614a9491906151af565b60405180910390a35f5f60146101000a81548160ff021916908315150217905550505050565b60175481565b5f826001548110614afd576040517f9b35ed3b00000000000000000000000000000000000000000000000000000000815260040160405180910390fd5b5f60025f8681526020019081526020015f2090508060050160019054906101000a900460ff16614b30575f925050614bc9565b5f60035f8781526020019081526020015f205f8673ffffffffffffffffffffffffffffffffffffffff1673ffffffffffffffffffffffffffffffffffffffff1681526020019081526020015f205490505f8103614b91575f93505050614bc9565b5f82600401548360030154614ba69190615ca0565b905082600301548183614bb99190615cd3565b614bc39190615d41565b94505050505b5092915050565b6060816001548110614c0e576040517f9b35ed3b00000000000000000000000000000000000000000000000000000000815260040160405180910390fd5b600a5f8481526020019081526020015f20805480602002602001604051908101604052809291908181526020015f905b82821015614d65578382905f5260205f2090600402016040518060a00160405290815f82015f9054906101000a900460ff166002811115614c8257614c816157ac565b5b6002811115614c9457614c936157ac565b5b81526020015f820160019054906101000a900473ffffffffffffffffffffffffffffffffffffffff1673ffffffffffffffffffffffffffffffffffffffff1673ffffffffffffffffffffffffffffffffffffffff168152602001600182015f9054906101000a900473ffffffffffffffffffffffffffffffffffffffff1673ffffffffffffffffffffffffffffffffffffffff1673ffffffffffffffffffffffffffffffffffffffff1681526020016002820154815260200160038201548152505081526020019060010190614c3e565b50505050915050919050565b5f5f8290505f5f90505b8151811015614e02577f7c00000000000000000000000000000000000000000000000000000000000000828281518110614db857614db76159a7565b5b602001015160f81c60f81b7effffffffffffffffffffffffffffffffffffffffffffffffffffffffffffff191603614df557600192505050614e08565b8080600101915050614d7b565b505f9150505b919050565b6040518060a00160405280600590602082028036833780820191505090505090565b5f81519050919050565b5f82825260208201905092915050565b5f819050602082019050919050565b5f73ffffffffffffffffffffffffffffffffffffffff82169050919050565b5f614e8182614e58565b9050919050565b614e9181614e77565b82525050565b5f614ea28383614e88565b60208301905092915050565b5f602082019050919050565b5f614ec482614e2f565b614ece8185614e39565b9350614ed983614e49565b805f5b83811015614f09578151614ef08882614e97565b9750614efb83614eae565b925050600181019050614edc565b5085935050505092915050565b5f81519050919050565b5f82825260208201905092915050565b5f819050602082019050919050565b5f81519050919050565b5f82825260208201905092915050565b8281835e5f83830152505050565b5f601f19601f8301169050919050565b5f614f8182614f3f565b614f8b8185614f49565b9350614f9b818560208601614f59565b614fa481614f67565b840191505092915050565b5f614fba8383614f77565b905092915050565b5f602082019050919050565b5f614fd882614f16565b614fe28185614f20565b935083602082028501614ff485614f30565b805f5b8581101561502f57848403895281516150108582614faf565b945061501b83614fc2565b925060208a01995050600181019050614ff7565b50829750879550505050505092915050565b5f6040820190508181035f8301526150598185614eba565b9050818103602083015261506d8184614fce565b90509392505050565b5f604051905090565b5f5ffd5b5f5ffd5b5f819050919050565b61509981615087565b81146150a3575f5ffd5b50565b5f813590506150b481615090565b92915050565b5f602082840312156150cf576150ce61507f565b5b5f6150dc848285016150a6565b91505092915050565b6150ee81614e77565b82525050565b5f82825260208201905092915050565b5f61510e82614f3f565b61511881856150f4565b9350615128818560208601614f59565b61513181614f67565b840191505092915050565b61514581615087565b82525050565b5f8115159050919050565b61515f8161514b565b82525050565b5f6080820190506151785f8301876150e5565b818103602083015261518a8186615104565b9050615199604083018561513c565b6151a66060830184615156565b95945050505050565b5f6020820190506151c25f83018461513c565b92915050565b5f6020820190506151db5f830184615156565b92915050565b6151ea81614e77565b81146151f4575f5ffd5b50565b5f81359050615205816151e1565b92915050565b5f5f604083850312156152215761522061507f565b5b5f61522e858286016150a6565b925050602061523f858286016151f7565b9150509250929050565b5f60808201905061525c5f83018761513c565b615269602083018661513c565b818103604083015261527b8185615104565b905061528a6060830184615156565b95945050505050565b5f60e0820190508181035f8301526152ab818a615104565b90506152ba60208301896150e5565b6152c7604083018861513c565b6152d4606083018761513c565b6152e1608083018661513c565b6152ee60a0830185615156565b6152fb60c0830184615156565b98975050505050505050565b5f6020828403121561531c5761531b61507f565b5b5f615329848285016151f7565b91505092915050565b5f6020820190508181035f83015261534a8184615104565b905092915050565b5f6020820190508181035f83015261536a8184614eba565b905092915050565b5f5ffd5b5f5ffd5b7f4e487b71000000000000000000000000000000000000000000000000000000005f52604160045260245ffd5b6153b082614f67565b810181811067ffffffffffffffff821117156153cf576153ce61537a565b5b80604052505050565b5f6153e1615076565b90506153ed82826153a7565b919050565b5f67ffffffffffffffff82111561540c5761540b61537a565b5b61541582614f67565b9050602081019050919050565b828183375f83830152505050565b5f61544261543d846153f2565b6153d8565b90508281526020810184848401111561545e5761545d615376565b5b615469848285615422565b509392505050565b5f82601f83011261548557615484615372565b5b8135615495848260208601615430565b91505092915050565b5f5f604083850312156154b4576154b361507f565b5b5f6154c1858286016151f7565b925050602083013567ffffffffffffffff8111156154e2576154e1615083565b5b6154ee85828601615471565b9150509250929050565b5f60208201905061550b5f8301846150e5565b92915050565b5f5f5f5f608085870312156155295761552861507f565b5b5f615536878288016150a6565b9450506020615547878288016151f7565b9350506040615558878288016150a6565b925050606085013567ffffffffffffffff81111561557957615578615083565b5b61558587828801615471565b91505092959194509250565b5f602082840312156155a6576155a561507f565b5b5f82013567ffffffffffffffff8111156155c3576155c2615083565b5b6155cf84828501615471565b91505092915050565b5f6040820190506155eb5f830185615156565b81810360208301526155fd8184615104565b90509392505050565b5f61561082614e58565b9050919050565b61562081615606565b811461562a575f5ffd5b50565b5f8135905061563b81615617565b92915050565b5f5f5f606084860312156156585761565761507f565b5b5f615665868287016150a6565b93505060206156768682870161562d565b9250506040615687868287016150a6565b9150509250925092565b5f60059050919050565b5f81905092915050565b5f819050919050565b5f602082019050919050565b6156c381615691565b6156cd818461569b565b92506156d8826156a5565b805f5b838110156157085781516156ef8782614e97565b96506156fa836156ae565b9250506001810190506156db565b505050505050565b5f60a0820190506157235f8301846156ba565b92915050565b5f5f6040838503121561573f5761573e61507f565b5b5f83013567ffffffffffffffff81111561575c5761575b615083565b5b61576885828601615471565b9250506020615779858286016150a6565b9150509250929050565b5f81519050919050565b5f82825260208201905092915050565b5f819050602082019050919050565b7f4e487b71000000000000000000000000000000000000000000000000000000005f52602160045260245ffd5b600381106157ea576157e96157ac565b5b50565b5f8190506157fa826157d9565b919050565b5f615809826157ed565b9050919050565b615819816157ff565b82525050565b61582881615087565b82525050565b60a082015f8201516158425f850182615810565b5060208201516158556020850182614e88565b5060408201516158686040850182614e88565b50606082015161587b606085018261581f565b50608082015161588e608085018261581f565b50505050565b5f61589f838361582e565b60a08301905092915050565b5f602082019050919050565b5f6158c182615783565b6158cb818561578d565b93506158d68361579d565b805f5b838110156159065781516158ed8882615894565b97506158f8836158ab565b9250506001810190506158d9565b5085935050505092915050565b5f6020820190508181035f83015261592b81846158b7565b905092915050565b7f4e487b71000000000000000000000000000000000000000000000000000000005f52601160045260245ffd5b5f61596a82615087565b91507fffffffffffffffffffffffffffffffffffffffffffffffffffffffffffffffff820361599c5761599b615933565b5b600182019050919050565b7f4e487b71000000000000000000000000000000000000000000000000000000005f52603260045260245ffd5b7f4e487b71000000000000000000000000000000000000000000000000000000005f52602260045260245ffd5b5f6002820490506001821680615a1857607f821691505b602082108103615a2b57615a2a6159d4565b5b50919050565b5f819050815f5260205f209050919050565b5f6020601f8301049050919050565b5f82821b905092915050565b5f60088302615a8d7fffffffffffffffffffffffffffffffffffffffffffffffffffffffffffffffff82615a52565b615a978683615a52565b95508019841693508086168417925050509392505050565b5f819050919050565b5f615ad2615acd615ac884615087565b615aaf565b615087565b9050919050565b5f819050919050565b615aeb83615ab8565b615aff615af782615ad9565b848454615a5e565b825550505050565b5f5f905090565b615b16615b07565b615b21818484615ae2565b505050565b5b81811015615b4457615b395f82615b0e565b600181019050615b27565b5050565b601f821115615b8957615b5a81615a31565b615b6384615a43565b81016020851015615b72578190505b615b86615b7e85615a43565b830182615b26565b50505b505050565b5f82821c905092915050565b5f615ba95f1984600802615b8e565b1980831691505092915050565b5f615bc18383615b9a565b9150826002028217905092915050565b615bda82614f3f565b67ffffffffffffffff811115615bf357615bf261537a565b5b615bfd8254615a01565b615c08828285615b48565b5f60209050601f831160018114615c39575f8415615c27578287015190505b615c318582615bb6565b865550615c98565b601f198416615c4786615a31565b5f5b82811015615c6e57848901518255600182019150602085019450602081019050615c49565b86831015615c8b5784890151615c87601f891682615b9a565b8355505b6001600288020188555050505b505050505050565b5f615caa82615087565b9150615cb583615087565b9250828203905081811115615ccd57615ccc615933565b5b92915050565b5f615cdd82615087565b9150615ce883615087565b9250828202615cf681615087565b91508282048414831517615d0d57615d0c615933565b5b5092915050565b7f4e487b71000000000000000000000000000000000000000000000000000000005f52601260045260245ffd5b5f615d4b82615087565b9150615d5683615087565b925082615d6657615d65615d14565b5b828204905092915050565b5f81905092915050565b50565b5f615d895f83615d71565b9150615d9482615d7b565b5f82019050919050565b5f615da882615d7e565b9150819050919050565b5f604082019050615dc55f83018561513c565b8181036020830152615dd78184615104565b90509392505050565b5f615dea82615087565b9150615df583615087565b9250828201905080821115615e0d57615e0c615933565b5b92915050565b5f8154615e1f81615a01565b615e2981866150f4565b9450600182165f8114615e435760018114615e5957615e8b565b60ff198316865281151560200286019350615e8b565b615e6285615a31565b5f5b83811015615e8357815481890152600182019150602081019050615e64565b808801955050505b50505092915050565b5f6040820190508181035f830152615eac8185615e13565b9050615ebb602083018461513c565b9392505050565b5f6040820190508181035f830152615eda8185615104565b9050615ee9602083018461513c565b939250505056fea26469706673582212208aca336ddfe04137365c768862d4fb1230cc9dc6a5b5359c5c68b00cd5a27a6064736f6c634300081c0033",
  "linkReferences": {},
  "deployedLinkReferences": {},
  "immutableReferences": {},
  "inputSourceName": "project/contracts/ClarityChain.sol",
  "buildInfoId": "solc-0_8_28-80ab9d15a013479385c3f0b473c9936223d21e3f"
}