{
  "_format": "hh3-artifact-1",
  "contractName": "ClarityChain",
  "sourceName": "contracts/ClarityChain.sol",
  "abi": [
    {
      "inputs": [
        {
          "internalType": "address[]",
          "name": "_validators",
          "type": "address[]"
        }
      ],
      "stateMutability": "nonpayable",
      "type": "constructor"
    },
    {
      "inputs": [],
      "name": "AlreadyApprovedIdentityProposal",
      "type": "error"
    },
    {
      "inputs": [],
      "name": "AlreadyApprovedProposal",
      "type": "error"
    },
    {
      "inputs": [],
      "name": "AmountExceedsVendorCap",
      "type": "error"
    },
    {
      "inputs": [],
      "name": "AmountMustBeGreaterThanZero",
      "type": "error"
    },
    {
      "inputs": [],
      "name": "CallerNotAssociatedVendor",
      "type": "error"
    },
    {
      "inputs": [],
      "name": "CampaignDoesNotExist",
      "type": "error"
    },
    {
      "inputs": [],
      "name": "CampaignNotActive",
      "type": "error"
    },
    {
      "inputs": [],
      "name": "CapMustBeGreaterThanZero",
      "type": "error"
    },
    {
      "inputs": [],
      "name": "DonationExceedsGoal",
      "type": "error"
    },
    {
      "inputs": [],
      "name": "DonationMustBeGreaterThanZero",
      "type": "error"
    },
    {
      "inputs": [],
      "name": "GoalMustBeGreaterThanZero",
      "type": "error"
    },
    {
      "inputs": [],
      "name": "IdentityProposalAlreadyExecuted",
      "type": "error"
    },
    {
      "inputs": [],
      "name": "IdentityProposalDoesNotExist",
      "type": "error"
    },
    {
      "inputs": [],
      "name": "InstructionsCannotBeEmpty",
      "type": "error"
    },
    {
      "inputs": [],
      "name": "InsufficientCampaignFunds",
      "type": "error"
    },
    {
      "inputs": [],
      "name": "InvalidValidatorAddress",
      "type": "error"
    },
    {
      "inputs": [],
      "name": "InvalidVendorAddress",
      "type": "error"
    },
    {
      "inputs": [],
      "name": "NameCannotBeEmpty",
      "type": "error"
    },
    {
      "inputs": [],
      "name": "NeedBetweenThreeAndFiveValidators",
      "type": "error"
    },
    {
      "inputs": [],
      "name": "NoDonationFoundForWallet",
      "type": "error"
    },
    {
      "inputs": [],
      "name": "NotCampaignNGO",
      "type": "error"
    },
    {
      "inputs": [],
      "name": "NotOwner",
      "type": "error"
    },
    {
      "inputs": [],
      "name": "NotValidator",
      "type": "error"
    },
    {
      "inputs": [],
      "name": "NothingLeftToRefund",
      "type": "error"
    },
    {
      "inputs": [],
      "name": "ProfileLinkRequired",
      "type": "error"
    },
    {
      "inputs": [],
      "name": "ProposalAlreadyExecuted",
      "type": "error"
    },
    {
      "inputs": [],
      "name": "ProposalDoesNotExist",
      "type": "error"
    },
    {
      "inputs": [],
      "name": "ReentrantCall",
      "type": "error"
    },
    {
      "inputs": [],
      "name": "RefundAmountMustBeGreaterThanZero",
      "type": "error"
    },
    {
      "inputs": [],
      "name": "RefundTransferFailed",
      "type": "error"
    },
    {
      "inputs": [],
      "name": "RefundsAlreadyEnabled",
      "type": "error"
    },
    {
      "inputs": [],
      "name": "RefundsNotEnabled",
      "type": "error"
    },
    {
      "inputs": [],
      "name": "TransferToVendorFailed",
      "type": "error"
    },
    {
      "inputs": [],
      "name": "VendorAlreadyAssociated",
      "type": "error"
    },
    {
      "inputs": [],
      "name": "VendorAlreadyWhitelisted",
      "type": "error"
    },
    {
      "inputs": [],
      "name": "VendorNameCannotBeEmpty",
      "type": "error"
    },
    {
      "inputs": [],
      "name": "VendorNotAssociatedWithCampaign",
      "type": "error"
    },
    {
      "inputs": [],
      "name": "VendorNotWhitelisted",
      "type": "error"
    },
    {
      "inputs": [],
      "name": "VendorNotWhitelistedRejected",
      "type": "error"
    },
    {
      "inputs": [],
      "name": "VerificationLinkRequired",
      "type": "error"
    },
    {
      "inputs": [],
      "name": "WalletAlreadyVerified",
      "type": "error"
    },
    {
      "anonymous": false,
      "inputs": [
        {
          "indexed": true,
          "internalType": "uint256",
          "name": "campaignId",
          "type": "uint256"
        }
      ],
      "name": "CampaignClosed",
      "type": "event"
    },
    {
      "anonymous": false,
      "inputs": [
        {
          "indexed": true,
          "internalType": "uint256",
          "name": "campaignId",
          "type": "uint256"
        },
        {
          "indexed": false,
          "internalType": "string",
          "name": "name",
          "type": "string"
        },
        {
          "indexed": true,
          "internalType": "address",
          "name": "ngo",
          "type": "address"
        },
        {
          "indexed": false,
          "internalType": "uint256",
          "name": "goalAmount",
          "type": "uint256"
        }
      ],
      "name": "CampaignCreated",
      "type": "event"
    },
    {
      "anonymous": false,
      "inputs": [
        {
          "indexed": true,
          "internalType": "uint256",
          "name": "campaignId",
          "type": "uint256"
        },
        {
          "indexed": true,
          "internalType": "address",
          "name": "donor",
          "type": "address"
        },
        {
          "indexed": false,
          "internalType": "uint256",
          "name": "amount",
          "type": "uint256"
        }
      ],
      "name": "DonationReceived",
      "type": "event"
    },
    {
      "anonymous": false,
      "inputs": [
        {
          "indexed": true,
          "internalType": "uint256",
          "name": "proposalId",
          "type": "uint256"
        },
        {
          "indexed": true,
          "internalType": "address",
          "name": "applicant",
          "type": "address"
        },
        {
          "indexed": false,
          "internalType": "string",
          "name": "profileLinks",
          "type": "string"
        }
      ],
      "name": "IdentityVerificationApplied",
      "type": "event"
    },
    {
      "anonymous": false,
      "inputs": [
        {
          "indexed": true,
          "internalType": "uint256",
          "name": "proposalId",
          "type": "uint256"
        },
        {
          "indexed": true,
          "internalType": "address",
          "name": "validator",
          "type": "address"
        },
        {
          "indexed": false,
          "internalType": "uint256",
          "name": "currentApprovals",
          "type": "uint256"
        }
      ],
      "name": "IdentityVerificationSigned",
      "type": "event"
    },
    {
      "anonymous": false,
      "inputs": [
        {
          "indexed": true,
          "internalType": "uint256",
          "name": "proposalId",
          "type": "uint256"
        },
        {
          "indexed": true,
          "internalType": "address",
          "name": "applicant",
          "type": "address"
        },
        {
          "indexed": false,
          "internalType": "string",
          "name": "profileLinks",
          "type": "string"
        }
      ],
      "name": "IdentityVerified",
      "type": "event"
    },
    {
      "anonymous": false,
      "inputs": [
        {
          "indexed": true,
          "internalType": "uint256",
          "name": "campaignId",
          "type": "uint256"
        },
        {
          "indexed": true,
          "internalType": "address",
          "name": "donor",
          "type": "address"
        },
        {
          "indexed": false,
          "internalType": "uint256",
          "name": "amount",
          "type": "uint256"
        }
      ],
      "name": "RefundClaimed",
      "type": "event"
    },
    {
      "anonymous": false,
      "inputs": [
        {
          "indexed": true,
          "internalType": "uint256",
          "name": "campaignId",
          "type": "uint256"
        },
        {
          "indexed": false,
          "internalType": "uint256",
          "name": "refundableAmount",
          "type": "uint256"
        }
      ],
      "name": "RefundsEnabled",
      "type": "event"
    },
    {
      "anonymous": false,
      "inputs": [
        {
          "indexed": true,
          "internalType": "uint256",
          "name": "proposalId",
          "type": "uint256"
        },
        {
          "indexed": true,
          "internalType": "address",
          "name": "validator",
          "type": "address"
        },
        {
          "indexed": false,
          "internalType": "uint256",
          "name": "currentApprovals",
          "type": "uint256"
        }
      ],
      "name": "VendorApprovalSigned",
      "type": "event"
    },
    {
      "anonymous": false,
      "inputs": [
        {
          "indexed": true,
          "internalType": "uint256",
          "name": "campaignId",
          "type": "uint256"
        },
        {
          "indexed": true,
          "internalType": "address",
          "name": "vendor",
          "type": "address"
        },
        {
          "indexed": false,
          "internalType": "uint256",
          "name": "cap",
          "type": "uint256"
        },
        {
          "indexed": false,
          "internalType": "string",
          "name": "instructions",
          "type": "string"
        }
      ],
      "name": "VendorAssociated",
      "type": "event"
    },
    {
      "anonymous": false,
      "inputs": [
        {
          "indexed": true,
          "internalType": "uint256",
          "name": "proposalId",
          "type": "uint256"
        },
        {
          "indexed": true,
          "internalType": "address",
          "name": "vendor",
          "type": "address"
        },
        {
          "indexed": false,
          "internalType": "string",
          "name": "vendorName",
          "type": "string"
        },
        {
          "indexed": true,
          "internalType": "address",
          "name": "proposedBy",
          "type": "address"
        }
      ],
      "name": "VendorProposed",
      "type": "event"
    },
    {
      "anonymous": false,
      "inputs": [
        {
          "indexed": true,
          "internalType": "uint256",
          "name": "campaignId",
          "type": "uint256"
        },
        {
          "indexed": true,
          "internalType": "address",
          "name": "vendor",
          "type": "address"
        },
        {
          "indexed": false,
          "internalType": "uint256",
          "name": "amount",
          "type": "uint256"
        }
      ],
      "name": "VendorRefundedCampaign",
      "type": "event"
    },
    {
      "anonymous": false,
      "inputs": [
        {
          "indexed": true,
          "internalType": "uint256",
          "name": "proposalId",
          "type": "uint256"
        },
        {
          "indexed": true,
          "internalType": "address",
          "name": "vendor",
          "type": "address"
        },
        {
          "indexed": false,
          "internalType": "string",
          "name": "vendorName",
          "type": "string"
        }
      ],
      "name": "VendorWhitelisted",
      "type": "event"
    },
    {
      "anonymous": false,
      "inputs": [
        {
          "indexed": true,
          "internalType": "uint256",
          "name": "campaignId",
          "type": "uint256"
        },
        {
          "indexed": true,
          "internalType": "address",
          "name": "vendor",
          "type": "address"
        },
        {
          "indexed": false,
          "internalType": "string",
          "name": "vendorName",
          "type": "string"
        },
        {
          "indexed": false,
          "internalType": "uint256",
          "name": "amount",
          "type": "uint256"
        }
      ],
      "name": "WithdrawalToVendor",
      "type": "event"
    },
    {
      "inputs": [],
      "name": "REQUIRED_APPROVALS",
      "outputs": [
        {
          "internalType": "uint256",
          "name": "",
          "type": "uint256"
        }
      ],
      "stateMutability": "view",
      "type": "function"
    },
    {
      "inputs": [
        {
          "internalType": "string",
          "name": "profileLinks",
          "type": "string"
        }
      ],
      "name": "applyForVerification",
      "outputs": [
        {
          "internalType": "uint256",
          "name": "proposalId",
          "type": "uint256"
        }
      ],
      "stateMutability": "nonpayable",
      "type": "function"
    },
    {
      "inputs": [
        {
          "internalType": "uint256",
          "name": "proposalId",
          "type": "uint256"
        }
      ],
      "name": "approveIdentity",
      "outputs": [],
      "stateMutability": "nonpayable",
      "type": "function"
    },
    {
      "inputs": [
        {
          "internalType": "uint256",
          "name": "proposalId",
          "type": "uint256"
        }
      ],
      "name": "approveVendor",
      "outputs": [],
      "stateMutability": "nonpayable",
      "type": "function"
    },
    {
      "inputs": [
        {
          "internalType": "uint256",
          "name": "campaignId",
          "type": "uint256"
        },
        {
          "internalType": "address",
          "name": "vendor",
          "type": "address"
        },
        {
          "internalType": "uint256",
          "name": "cap",
          "type": "uint256"
        },
        {
          "internalType": "string",
          "name": "instructions",
          "type": "string"
        }
      ],
      "name": "associateVendor",
      "outputs": [],
      "stateMutability": "nonpayable",
      "type": "function"
    },
    {
      "inputs": [],
      "name": "campaignCount",
      "outputs": [
        {
          "internalType": "uint256",
          "name": "",
          "type": "uint256"
        }
      ],
      "stateMutability": "view",
      "type": "function"
    },
    {
      "inputs": [
        {
          "internalType": "uint256",
          "name": "",
          "type": "uint256"
        },
        {
          "internalType": "address",
          "name": "",
          "type": "address"
        }
      ],
      "name": "campaignVendors",
      "outputs": [
        {
          "internalType": "uint256",
          "name": "cap",
          "type": "uint256"
        },
        {
          "internalType": "uint256",
          "name": "spent",
          "type": "uint256"
        },
        {
          "internalType": "string",
          "name": "instructions",
          "type": "string"
        },
        {
          "internalType": "bool",
          "name": "associated",
          "type": "bool"
        }
      ],
      "stateMutability": "view",
      "type": "function"
    },
    {
      "inputs": [
        {
          "internalType": "uint256",
          "name": "",
          "type": "uint256"
        }
      ],
      "name": "campaigns",
      "outputs": [
        {
          "internalType": "string",
          "name": "name",
          "type": "string"
        },
        {
          "internalType": "address",
          "name": "ngo",
          "type": "address"
        },
        {
          "internalType": "uint256",
          "name": "goalAmount",
          "type": "uint256"
        },
        {
          "internalType": "uint256",
          "name": "raisedAmount",
          "type": "uint256"
        },
        {
          "internalType": "uint256",
          "name": "withdrawnAmount",
          "type": "uint256"
        },
        {
          "internalType": "bool",
          "name": "active",
          "type": "bool"
        },
        {
          "internalType": "bool",
          "name": "refundsEnabled",
          "type": "bool"
        }
      ],
      "stateMutability": "view",
      "type": "function"
    },
    {
      "inputs": [
        {
          "internalType": "uint256",
          "name": "campaignId",
          "type": "uint256"
        }
      ],
      "name": "claimRefund",
      "outputs": [],
      "stateMutability": "nonpayable",
      "type": "function"
    },
    {
      "inputs": [
        {
          "internalType": "uint256",
          "name": "campaignId",
          "type": "uint256"
        }
      ],
      "name": "closeCampaign",
      "outputs": [],
      "stateMutability": "nonpayable",
      "type": "function"
    },
    {
      "inputs": [
        {
          "internalType": "string",
          "name": "_name",
          "type": "string"
        },
        {
          "internalType": "uint256",
          "name": "_goalAmount",
          "type": "uint256"
        }
      ],
      "name": "createCampaign",
      "outputs": [
        {
          "internalType": "uint256",
          "name": "campaignId",
          "type": "uint256"
        }
      ],
      "stateMutability": "nonpayable",
      "type": "function"
    },
    {
      "inputs": [
        {
          "internalType": "uint256",
          "name": "campaignId",
          "type": "uint256"
        }
      ],
      "name": "donate",
      "outputs": [],
      "stateMutability": "payable",
      "type": "function"
    },
    {
      "inputs": [
        {
          "internalType": "uint256",
          "name": "",
          "type": "uint256"
        },
        {
          "internalType": "address",
          "name": "",
          "type": "address"
        }
      ],
      "name": "donorAmounts",
      "outputs": [
        {
          "internalType": "uint256",
          "name": "",
          "type": "uint256"
        }
      ],
      "stateMutability": "view",
      "type": "function"
    },
    {
      "inputs": [
        {
          "internalType": "uint256",
          "name": "campaignId",
          "type": "uint256"
        }
      ],
      "name": "enableRefunds",
      "outputs": [],
      "stateMutability": "nonpayable",
      "type": "function"
    },
    {
      "inputs": [
        {
          "internalType": "uint256",
          "name": "campaignId",
          "type": "uint256"
        }
      ],
      "name": "getAvailableFunds",
      "outputs": [
        {
          "internalType": "uint256",
          "name": "",
          "type": "uint256"
        }
      ],
      "stateMutability": "view",
      "type": "function"
    },
    {
      "inputs": [
        {
          "internalType": "uint256",
          "name": "campaignId",
          "type": "uint256"
        }
      ],
      "name": "getCampaign",
      "outputs": [
        {
          "internalType": "string",
          "name": "name",
          "type": "string"
        },
        {
          "internalType": "address",
          "name": "ngo",
          "type": "address"
        },
        {
          "internalType": "uint256",
          "name": "goalAmount",
          "type": "uint256"
        },
        {
          "internalType": "uint256",
          "name": "raisedAmount",
          "type": "uint256"
        },
        {
          "internalType": "uint256",
          "name": "withdrawnAmount",
          "type": "uint256"
        },
        {
          "internalType": "bool",
          "name": "active",
          "type": "bool"
        },
        {
          "internalType": "bool",
          "name": "refundsEnabled",
          "type": "bool"
        }
      ],
      "stateMutability": "view",
      "type": "function"
    },
    {
      "inputs": [
        {
          "internalType": "uint256",
          "name": "campaignId",
          "type": "uint256"
        }
      ],
      "name": "getCampaignDonors",
      "outputs": [
        {
          "internalType": "address[]",
          "name": "",
          "type": "address[]"
        }
      ],
      "stateMutability": "view",
      "type": "function"
    },
    {
      "inputs": [
        {
          "internalType": "uint256",
          "name": "campaignId",
          "type": "uint256"
        },
        {
          "internalType": "address",
          "name": "vendor",
          "type": "address"
        }
      ],
      "name": "getCampaignVendor",
      "outputs": [
        {
          "internalType": "uint256",
          "name": "cap",
          "type": "uint256"
        },
        {
          "internalType": "uint256",
          "name": "spent",
          "type": "uint256"
        },
        {
          "internalType": "string",
          "name": "instructions",
          "type": "string"
        },
        {
          "internalType": "bool",
          "name": "associated",
          "type": "bool"
        }
      ],
      "stateMutability": "view",
      "type": "function"
    },
    {
      "inputs": [
        {
          "internalType": "uint256",
          "name": "campaignId",
          "type": "uint256"
        }
      ],
      "name": "getCampaignVendorList",
      "outputs": [
        {
          "internalType": "address[]",
          "name": "",
          "type": "address[]"
        }
      ],
      "stateMutability": "view",
      "type": "function"
    },
    {
      "inputs": [
        {
          "internalType": "address",
          "name": "wallet",
          "type": "address"
        }
      ],
      "name": "getIdentityInfo",
      "outputs": [
        {
          "internalType": "bool",
          "name": "verified",
          "type": "bool"
        },
        {
          "internalType": "string",
          "name": "links",
          "type": "string"
        }
      ],
      "stateMutability": "view",
      "type": "function"
    },
    {
      "inputs": [
        {
          "internalType": "uint256",
          "name": "proposalId",
          "type": "uint256"
        }
      ],
      "name": "getIdentityProposalStatus",
      "outputs": [
        {
          "internalType": "address",
          "name": "applicant",
          "type": "address"
        },
        {
          "internalType": "string",
          "name": "profileLinks",
          "type": "string"
        },
        {
          "internalType": "uint256",
          "name": "approvals",
          "type": "uint256"
        },
        {
          "internalType": "bool",
          "name": "executed",
          "type": "bool"
        }
      ],
      "stateMutability": "view",
      "type": "function"
    },
    {
      "inputs": [
        {
          "internalType": "uint256",
          "name": "proposalId",
          "type": "uint256"
        }
      ],
      "name": "getProposalStatus",
      "outputs": [
        {
          "internalType": "address",
          "name": "vendor",
          "type": "address"
        },
        {
          "internalType": "string",
          "name": "vendorName",
          "type": "string"
        },
        {
          "internalType": "uint256",
          "name": "approvals",
          "type": "uint256"
        },
        {
          "internalType": "bool",
          "name": "executed",
          "type": "bool"
        }
      ],
      "stateMutability": "view",
      "type": "function"
    },
    {
      "inputs": [
        {
          "internalType": "uint256",
          "name": "campaignId",
          "type": "uint256"
        },
        {
          "internalType": "address",
          "name": "donor",
          "type": "address"
        }
      ],
      "name": "getRefundAmount",
      "outputs": [
        {
          "internalType": "uint256",
          "name": "",
          "type": "uint256"
        }
      ],
      "stateMutability": "view",
      "type": "function"
    },
    {
      "inputs": [],
      "name": "getValidators",
      "outputs": [
        {
          "internalType": "address[5]",
          "name": "",
          "type": "address[5]"
        }
      ],
      "stateMutability": "view",
      "type": "function"
    },
    {
      "inputs": [],
      "name": "getWhitelistedVendors",
      "outputs": [
        {
          "internalType": "address[]",
          "name": "addresses",
          "type": "address[]"
        },
        {
          "internalType": "string[]",
          "name": "names",
          "type": "string[]"
        }
      ],
      "stateMutability": "view",
      "type": "function"
    },
    {
      "inputs": [
        {
          "internalType": "address",
          "name": "",
          "type": "address"
        }
      ],
      "name": "identityLinks",
      "outputs": [
        {
          "internalType": "string",
          "name": "",
          "type": "string"
        }
      ],
      "stateMutability": "view",
      "type": "function"
    },
    {
      "inputs": [
        {
          "internalType": "uint256",
          "name": "",
          "type": "uint256"
        }
      ],
      "name": "identityProposalApplicant",
      "outputs": [
        {
          "internalType": "address",
          "name": "",
          "type": "address"
        }
      ],
      "stateMutability": "view",
      "type": "function"
    },
    {
      "inputs": [
        {
          "internalType": "uint256",
          "name": "",
          "type": "uint256"
        }
      ],
      "name": "identityProposalApprovalCount",
      "outputs": [
        {
          "internalType": "uint256",
          "name": "",
          "type": "uint256"
        }
      ],
      "stateMutability": "view",
      "type": "function"
    },
    {
      "inputs": [
        {
          "internalType": "uint256",
          "name": "",
          "type": "uint256"
        },
        {
          "internalType": "address",
          "name": "",
          "type": "address"
        }
      ],
      "name": "identityProposalApprovals",
      "outputs": [
        {
          "internalType": "bool",
          "name": "",
          "type": "bool"
        }
      ],
      "stateMutability": "view",
      "type": "function"
    },
    {
      "inputs": [],
      "name": "identityProposalCount",
      "outputs": [
        {
          "internalType": "uint256",
          "name": "",
          "type": "uint256"
        }
      ],
      "stateMutability": "view",
      "type": "function"
    },
    {
      "inputs": [
        {
          "internalType": "uint256",
          "name": "",
          "type": "uint256"
        }
      ],
      "name": "identityProposalExecuted",
      "outputs": [
        {
          "internalType": "bool",
          "name": "",
          "type": "bool"
        }
      ],
      "stateMutability": "view",
      "type": "function"
    },
    {
      "inputs": [
        {
          "internalType": "uint256",
          "name": "",
          "type": "uint256"
        }
      ],
      "name": "identityProposalLinks",
      "outputs": [
        {
          "internalType": "string",
          "name": "",
          "type": "string"
        }
      ],
      "stateMutability": "view",
      "type": "function"
    },
    {
      "inputs": [
        {
          "internalType": "address",
          "name": "vendor",
          "type": "address"
        }
      ],
      "name": "isVendorWhitelisted",
      "outputs": [
        {
          "internalType": "bool",
          "name": "",
          "type": "bool"
        }
      ],
      "stateMutability": "view",
      "type": "function"
    },
    {
      "inputs": [],
      "name": "owner",
      "outputs": [
        {
          "internalType": "address",
          "name": "",
          "type": "address"
        }
      ],
      "stateMutability": "view",
      "type": "function"
    },
    {
      "inputs": [
        {
          "internalType": "uint256",
          "name": "",
          "type": "uint256"
        }
      ],
      "name": "proposalApprovalCount",
      "outputs": [
        {
          "internalType": "uint256",
          "name": "",
          "type": "uint256"
        }
      ],
      "stateMutability": "view",
      "type": "function"
    },
    {
      "inputs": [
        {
          "internalType": "uint256",
          "name": "",
          "type": "uint256"
        },
        {
          "internalType": "address",
          "name": "",
          "type": "address"
        }
      ],
      "name": "proposalApprovals",
      "outputs": [
        {
          "internalType": "bool",
          "name": "",
          "type": "bool"
        }
      ],
      "stateMutability": "view",
      "type": "function"
    },
    {
      "inputs": [],
      "name": "proposalCount",
      "outputs": [
        {
          "internalType": "uint256",
          "name": "",
          "type": "uint256"
        }
      ],
      "stateMutability": "view",
      "type": "function"
    },
    {
      "inputs": [
        {
          "internalType": "uint256",
          "name": "",
          "type": "uint256"
        }
      ],
      "name": "proposalExecuted",
      "outputs": [
        {
          "internalType": "bool",
          "name": "",
          "type": "bool"
        }
      ],
      "stateMutability": "view",
      "type": "function"
    },
    {
      "inputs": [
        {
          "internalType": "uint256",
          "name": "",
          "type": "uint256"
        }
      ],
      "name": "proposalVendorAddress",
      "outputs": [
        {
          "internalType": "address",
          "name": "",
          "type": "address"
        }
      ],
      "stateMutability": "view",
      "type": "function"
    },
    {
      "inputs": [
        {
          "internalType": "uint256",
          "name": "",
          "type": "uint256"
        }
      ],
      "name": "proposalVendorName",
      "outputs": [
        {
          "internalType": "string",
          "name": "",
          "type": "string"
        }
      ],
      "stateMutability": "view",
      "type": "function"
    },
    {
      "inputs": [
        {
          "internalType": "address",
          "name": "vendor",
          "type": "address"
        },
        {
          "internalType": "string",
          "name": "vendorName",
          "type": "string"
        }
      ],
      "name": "proposeVendor",
      "outputs": [
        {
          "internalType": "uint256",
          "name": "proposalId",
          "type": "uint256"
        }
      ],
      "stateMutability": "nonpayable",
      "type": "function"
    },
    {
      "inputs": [],
      "name": "validatorCount",
      "outputs": [
        {
          "internalType": "uint256",
          "name": "",
          "type": "uint256"
        }
      ],
      "stateMutability": "view",
      "type": "function"
    },
    {
      "inputs": [
        {
          "internalType": "uint256",
          "name": "",
          "type": "uint256"
        }
      ],
      "name": "validators",
      "outputs": [
        {
          "internalType": "address",
          "name": "",
          "type": "address"
        }
      ],
      "stateMutability": "view",
      "type": "function"
    },
    {
      "inputs": [
        {
          "internalType": "address",
          "name": "",
          "type": "address"
        }
      ],
      "name": "vendorNames",
      "outputs": [
        {
          "internalType": "string",
          "name": "",
          "type": "string"
        }
      ],
      "stateMutability": "view",
      "type": "function"
    },
    {
      "inputs": [
        {
          "internalType": "uint256",
          "name": "campaignId",
          "type": "uint256"
        }
      ],
      "name": "vendorRefundToCampaign",
      "outputs": [],
      "stateMutability": "payable",
      "type": "function"
    },
    {
      "inputs": [
        {
          "internalType": "address",
          "name": "",
          "type": "address"
        }
      ],
      "name": "verifiedIdentities",
      "outputs": [
        {
          "internalType": "bool",
          "name": "",
          "type": "bool"
        }
      ],
      "stateMutability": "view",
      "type": "function"
    },
    {
      "inputs": [
        {
          "internalType": "address",
          "name": "",
          "type": "address"
        }
      ],
      "name": "whitelistedVendors",
      "outputs": [
        {
          "internalType": "bool",
          "name": "",
          "type": "bool"
        }
      ],
      "stateMutability": "view",
      "type": "function"
    },
    {
      "inputs": [
        {
          "internalType": "uint256",
          "name": "campaignId",
          "type": "uint256"
        },
        {
          "internalType": "address payable",
          "name": "vendor",
          "type": "address"
        },
        {
          "internalType": "uint256",
          "name": "amount",
          "type": "uint256"
        }
      ],
      "name": "withdrawToVendor",
      "outputs": [],
      "stateMutability": "nonpayable",
      "type": "function"
    }
  ],
  "bytecode": "0x608060405234801561000f575f5ffd5b50604051615a95380380615a9583398181016040528101906100319190610389565b600381511080610042575060058151115b15610079576040517f32b0828800000000000000000000000000000000000000000000000000000000815260040160405180910390fd5b335f5f6101000a81548173ffffffffffffffffffffffffffffffffffffffff021916908373ffffffffffffffffffffffffffffffffffffffff1602179055508051600f819055505f5f90505b81518110156101c7575f73ffffffffffffffffffffffffffffffffffffffff168282815181106100f8576100f76103d0565b5b602002602001015173ffffffffffffffffffffffffffffffffffffffff160361014d576040517f713ce51100000000000000000000000000000000000000000000000000000000815260040160405180910390fd5b8181815181106101605761015f6103d0565b5b6020026020010151600a826005811061017c5761017b6103d0565b5b015f6101000a81548173ffffffffffffffffffffffffffffffffffffffff021916908373ffffffffffffffffffffffffffffffffffffffff16021790555080806001019150506100c5565b50506103fd565b5f604051905090565b5f5ffd5b5f5ffd5b5f5ffd5b5f601f19601f8301169050919050565b7f4e487b71000000000000000000000000000000000000000000000000000000005f52604160045260245ffd5b610229826101e3565b810181811067ffffffffffffffff82111715610248576102476101f3565b5b80604052505050565b5f61025a6101ce565b90506102668282610220565b919050565b5f67ffffffffffffffff821115610285576102846101f3565b5b602082029050602081019050919050565b5f5ffd5b5f73ffffffffffffffffffffffffffffffffffffffff82169050919050565b5f6102c38261029a565b9050919050565b6102d3816102b9565b81146102dd575f5ffd5b50565b5f815190506102ee816102ca565b92915050565b5f6103066103018461026b565b610251565b9050808382526020820190506020840283018581111561032957610328610296565b5b835b81811015610352578061033e88826102e0565b84526020840193505060208101905061032b565b5050509392505050565b5f82601f8301126103705761036f6101df565b5b81516103808482602086016102f4565b91505092915050565b5f6020828403121561039e5761039d6101d7565b5b5f82015167ffffffffffffffff8111156103bb576103ba6101db565b5b6103c78482850161035c565b91505092915050565b7f4e487b71000000000000000000000000000000000000000000000000000000005f52603260045260245ffd5b61568b8061040a5f395ff3fe608060405260043610610292575f3560e01c80636ce7178611610159578063b2bf6027116100c0578063da35c66411610079578063da35c66414610b70578063ef3e72d614610b9a578063f102a67c14610bd6578063f14faf6f14610c12578063f243ce2314610c2e578063f53bba0914610c5857610292565b8063b2bf602714610a4e578063b7ab4db514610a76578063c14eff9714610aa0578063c5f8b36214610adc578063c8c4f95a14610b18578063ccc0bde414610b3457610292565b806381b764fb1161011257806381b764fb1461090b5780638da5cb5b1461094857806398024fc814610972578063a53cf409146109ae578063b0e1c1e1146109ea578063b25117ba14610a1257610292565b80636ce71786146107c95780636e7bfc57146107f15780637274e30d1461082d5780637434261c1461085757806377db3bf914610893578063806e65dc146108cf57610292565b80633896927c116101fd5780634733c271116101b65780634733c271146106a957806352b23809146106e55780635598f8cc1461070d578063599c55331461074f5780635b7baf641461077957806366bb74d2146107a157610292565b80633896927c1461053b5780633896a8af14610577578063393aaf9a146105b35780633a0f38f7146105ef578063401853b71461062b57806340e8791a1461066a57610292565b8063158f695c1161024f578063158f695c146103e75780631689da821461040f578063209b7d5f1461044b5780632621ddf414610487578063283195c9146104c357806335aa2e44146104ff57610292565b806305730e22146102965780630f1aff0a146102c15780630f43a67714610300578063103616e81461032a5780631060cb6114610366578063141961bc146103a5575b5f5ffd5b3480156102a1575f5ffd5b506102aa610c94565b6040516102b8929190614956565b60405180910390f35b3480156102cc575f5ffd5b506102e760048036038101906102e291906149cf565b610f43565b6040516102f79493929190614a7a565b60405180910390f35b34801561030b575f5ffd5b5061031461108e565b6040516103219190614ac4565b60405180910390f35b348015610335575f5ffd5b50610350600480360381019061034b91906149cf565b611094565b60405161035d9190614add565b60405180910390f35b348015610371575f5ffd5b5061038c60048036038101906103879190614b20565b6110b1565b60405161039c9493929190614b5e565b60405180910390f35b3480156103b0575f5ffd5b506103cb60048036038101906103c691906149cf565b61117a565b6040516103de9796959493929190614ba8565b60405180910390f35b3480156103f2575f5ffd5b5061040d600480360381019061040891906149cf565b611276565b005b34801561041a575f5ffd5b5061043560048036038101906104309190614c1c565b61174f565b6040516104429190614c47565b60405180910390f35b348015610456575f5ffd5b50610471600480360381019061046c91906149cf565b6117ea565b60405161047e9190614c67565b60405180910390f35b348015610492575f5ffd5b506104ad60048036038101906104a891906149cf565b6118c3565b6040516104ba9190614ac4565b60405180910390f35b3480156104ce575f5ffd5b506104e960048036038101906104e49190614db3565b6118d8565b6040516104f69190614ac4565b60405180910390f35b34801561050a575f5ffd5b50610525600480360381019061052091906149cf565b611b6c565b6040516105329190614e0d565b60405180910390f35b348015610546575f5ffd5b50610561600480360381019061055c91906149cf565b611ba0565b60405161056e9190614ac4565b60405180910390f35b348015610582575f5ffd5b5061059d600480360381019061059891906149cf565b611bb5565b6040516105aa9190614add565b60405180910390f35b3480156105be575f5ffd5b506105d960048036038101906105d491906149cf565b611bd2565b6040516105e69190614c67565b60405180910390f35b3480156105fa575f5ffd5b50610615600480360381019061061091906149cf565b611cab565b6040516106229190614c47565b60405180910390f35b348015610636575f5ffd5b50610651600480360381019061064c91906149cf565b611d46565b6040516106619493929190614a7a565b60405180910390f35b348015610675575f5ffd5b50610690600480360381019061068b9190614b20565b611e91565b6040516106a09493929190614b5e565b60405180910390f35b3480156106b4575f5ffd5b506106cf60048036038101906106ca9190614b20565b611fdc565b6040516106dc9190614add565b60405180910390f35b3480156106f0575f5ffd5b5061070b600480360381019061070691906149cf565b612006565b005b348015610718575f5ffd5b50610733600480360381019061072e91906149cf565b6121c1565b6040516107469796959493929190614ba8565b60405180910390f35b34801561075a575f5ffd5b50610763612317565b6040516107709190614ac4565b60405180910390f35b348015610784575f5ffd5b5061079f600480360381019061079a91906149cf565b61231c565b005b3480156107ac575f5ffd5b506107c760048036038101906107c29190614e26565b6126cf565b005b3480156107d4575f5ffd5b506107ef60048036038101906107ea91906149cf565b612b05565b005b3480156107fc575f5ffd5b5061081760048036038101906108129190614c1c565b612fde565b6040516108249190614add565b60405180910390f35b348015610838575f5ffd5b50610841613030565b60405161084e9190614ac4565b60405180910390f35b348015610862575f5ffd5b5061087d600480360381019061087891906149cf565b613036565b60405161088a9190614c47565b60405180910390f35b34801561089e575f5ffd5b506108b960048036038101906108b49190614ea6565b6130d1565b6040516108c69190614ac4565b60405180910390f35b3480156108da575f5ffd5b506108f560048036038101906108f09190614b20565b6132ae565b6040516109029190614add565b60405180910390f35b348015610916575f5ffd5b50610931600480360381019061092c9190614c1c565b6132d8565b60405161093f929190614eed565b60405180910390f35b348015610953575f5ffd5b5061095c6133f5565b6040516109699190614e0d565b60405180910390f35b34801561097d575f5ffd5b5061099860048036038101906109939190614c1c565b613419565b6040516109a59190614add565b60405180910390f35b3480156109b9575f5ffd5b506109d460048036038101906109cf9190614c1c565b613436565b6040516109e19190614add565b60405180910390f35b3480156109f5575f5ffd5b50610a106004803603810190610a0b91906149cf565b613453565b005b348015610a1d575f5ffd5b50610a386004803603810190610a3391906149cf565b613585565b604051610a459190614e0d565b60405180910390f35b348015610a59575f5ffd5b50610a746004803603810190610a6f9190614f56565b6135b5565b005b348015610a81575f5ffd5b50610a8a613b2d565b604051610a979190615025565b60405180910390f35b348015610aab575f5ffd5b50610ac66004803603810190610ac191906149cf565b613bad565b604051610ad39190614ac4565b60405180910390f35b348015610ae7575f5ffd5b50610b026004803603810190610afd91906149cf565b613c1b565b604051610b0f9190614e0d565b60405180910390f35b610b326004803603810190610b2d91906149cf565b613c4b565b005b348015610b3f575f5ffd5b50610b5a6004803603810190610b559190614b20565b613eeb565b604051610b679190614ac4565b60405180910390f35b348015610b7b575f5ffd5b50610b84613f0b565b604051610b919190614ac4565b60405180910390f35b348015610ba5575f5ffd5b50610bc06004803603810190610bbb9190614c1c565b613f11565b604051610bcd9190614c47565b60405180910390f35b348015610be1575f5ffd5b50610bfc6004803603810190610bf7919061503e565b613fac565b604051610c099190614ac4565b60405180910390f35b610c2c6004803603810190610c2791906149cf565b6141ac565b005b348015610c39575f5ffd5b50610c42614570565b604051610c4f9190614ac4565b60405180910390f35b348015610c63575f5ffd5b50610c7e6004803603810190610c799190614b20565b614576565b604051610c8b9190614ac4565b60405180910390f35b6060805f5f90505f5f90505b601054811015610ce95760145f8281526020019081526020015f205f9054906101000a900460ff1615610cdc578180610cd8906150c5565b9250505b8080600101915050610ca0565b508067ffffffffffffffff811115610d0457610d03614c8f565b5b604051908082528060200260200182016040528015610d325781602001602082028036833780820191505090505b5092508067ffffffffffffffff811115610d4f57610d4e614c8f565b5b604051908082528060200260200182016040528015610d8257816020015b6060815260200190600190039081610d6d5790505b5091505f5f90505f5f90505b601054811015610f3c5760145f8281526020019081526020015f205f9054906101000a900460ff1615610f2f575f60115f8381526020019081526020015f205f9054906101000a900473ffffffffffffffffffffffffffffffffffffffff16905080868481518110610e0357610e0261510c565b5b602002602001019073ffffffffffffffffffffffffffffffffffffffff16908173ffffffffffffffffffffffffffffffffffffffff168152505060075f8273ffffffffffffffffffffffffffffffffffffffff1673ffffffffffffffffffffffffffffffffffffffff1681526020019081526020015f208054610e8590615166565b80601f0160208091040260200160405190810160405280929190818152602001828054610eb190615166565b8015610efc5780601f10610ed357610100808354040283529160200191610efc565b820191905f5260205f20905b815481529060010190602001808311610edf57829003601f168201915b5050505050858481518110610f1457610f1361510c565b5b60200260200101819052508280610f2a906150c5565b935050505b8080600101915050610d8e565b5050509091565b5f60605f5f6016548510610f83576040517fe8d659d800000000000000000000000000000000000000000000000000000000815260040160405180910390fd5b60175f8681526020019081526020015f205f9054906101000a900473ffffffffffffffffffffffffffffffffffffffff1660185f8781526020019081526020015f2060195f8881526020019081526020015f2054601a5f8981526020019081526020015f205f9054906101000a900460ff1682805461100190615166565b80601f016020809104026020016040519081016040528092919081815260200182805461102d90615166565b80156110785780601f1061104f57610100808354040283529160200191611078565b820191905f5260205f20905b81548152906001019060200180831161105b57829003601f168201915b5050505050925093509350935093509193509193565b600f5481565b6014602052805f5260405f205f915054906101000a900460ff1681565b6008602052815f5260405f20602052805f5260405f205f9150915050805f0154908060010154908060020180546110e790615166565b80601f016020809104026020016040519081016040528092919081815260200182805461111390615166565b801561115e5780601f106111355761010080835404028352916020019161115e565b820191905f5260205f20905b81548152906001019060200180831161114157829003601f168201915b505050505090806003015f9054906101000a900460ff16905084565b6002602052805f5260405f205f91509050805f01805461119990615166565b80601f01602080910402602001604051908101604052809291908181526020018280546111c590615166565b80156112105780601f106111e757610100808354040283529160200191611210565b820191905f5260205f20905b8154815290600101906020018083116111f357829003601f168201915b505050505090806001015f9054906101000a900473ffffffffffffffffffffffffffffffffffffffff1690806002015490806003015490806004015490806005015f9054906101000a900460ff16908060050160019054906101000a900460ff16905087565b5f5f90505f5f90505b600f54811015611306573373ffffffffffffffffffffffffffffffffffffffff16600a82600581106112b4576112b361510c565b5b015f9054906101000a900473ffffffffffffffffffffffffffffffffffffffff1673ffffffffffffffffffffffffffffffffffffffff16036112f95760019150611306565b808060010191505061127f565b508061133e576040517f2ec5b44900000000000000000000000000000000000000000000000000000000815260040160405180910390fd5b6016548210611379576040517fe8d659d800000000000000000000000000000000000000000000000000000000815260040160405180910390fd5b601a5f8381526020019081526020015f205f9054906101000a900460ff16156113ce576040517fda8556ff00000000000000000000000000000000000000000000000000000000815260040160405180910390fd5b601b5f8381526020019081526020015f205f3373ffffffffffffffffffffffffffffffffffffffff1673ffffffffffffffffffffffffffffffffffffffff1681526020019081526020015f205f9054906101000a900460ff161561145e576040517fcd42303e00000000000000000000000000000000000000000000000000000000815260040160405180910390fd5b6001601b5f8481526020019081526020015f205f3373ffffffffffffffffffffffffffffffffffffffff1673ffffffffffffffffffffffffffffffffffffffff1681526020019081526020015f205f6101000a81548160ff02191690831515021790555060195f8381526020019081526020015f205f8154809291906114e3906150c5565b91905055503373ffffffffffffffffffffffffffffffffffffffff16827f2446ca06f5cf205b8398fc0b34fc86ba8d0587c20beda7bceede0a39b1e2a90d60195f8681526020019081526020015f20546040516115409190614ac4565b60405180910390a3600360195f8481526020019081526020015f20541061174b575f60175f8481526020019081526020015f205f9054906101000a900473ffffffffffffffffffffffffffffffffffffffff1690505f60185f8581526020019081526020015f2080546115b290615166565b80601f01602080910402602001604051908101604052809291908181526020018280546115de90615166565b80156116295780601f1061160057610100808354040283529160200191611629565b820191905f5260205f20905b81548152906001019060200180831161160c57829003601f168201915b505050505090506001601c5f8473ffffffffffffffffffffffffffffffffffffffff1673ffffffffffffffffffffffffffffffffffffffff1681526020019081526020015f205f6101000a81548160ff02191690831515021790555080601d5f8473ffffffffffffffffffffffffffffffffffffffff1673ffffffffffffffffffffffffffffffffffffffff1681526020019081526020015f2090816116cf9190615336565b506001601a5f8681526020019081526020015f205f6101000a81548160ff0219169083151502179055508173ffffffffffffffffffffffffffffffffffffffff16847fbc7b9390c7ca1023f818f4c48284f90b0e4a8057b1dd89729eabdffa7b410c88836040516117409190614c47565b60405180910390a350505b5050565b6007602052805f5260405f205f91509050805461176b90615166565b80601f016020809104026020016040519081016040528092919081815260200182805461179790615166565b80156117e25780601f106117b9576101008083540402835291602001916117e2565b820191905f5260205f20905b8154815290600101906020018083116117c557829003601f168201915b505050505081565b6060816001548110611828576040517f9b35ed3b00000000000000000000000000000000000000000000000000000000815260040160405180910390fd5b60045f8481526020019081526020015f208054806020026020016040519081016040528092919081815260200182805480156118b657602002820191905f5260205f20905b815f9054906101000a900473ffffffffffffffffffffffffffffffffffffffff1673ffffffffffffffffffffffffffffffffffffffff168152602001906001019080831161186d575b5050505050915050919050565b6019602052805f5260405f205f915090505481565b5f5f73ffffffffffffffffffffffffffffffffffffffff168373ffffffffffffffffffffffffffffffffffffffff160361193e576040517f764be74800000000000000000000000000000000000000000000000000000000815260040160405180910390fd5b5f825103611978576040517f7ab8b59400000000000000000000000000000000000000000000000000000000815260040160405180910390fd5b60065f8473ffffffffffffffffffffffffffffffffffffffff1673ffffffffffffffffffffffffffffffffffffffff1681526020019081526020015f205f9054906101000a900460ff16156119f9576040517f11fe1dc200000000000000000000000000000000000000000000000000000000815260040160405180910390fd5b611a0282614686565b611a38576040517fac1eded500000000000000000000000000000000000000000000000000000000815260040160405180910390fd5b60105490508260115f8381526020019081526020015f205f6101000a81548173ffffffffffffffffffffffffffffffffffffffff021916908373ffffffffffffffffffffffffffffffffffffffff1602179055508160125f8381526020019081526020015f209081611aaa9190615336565b505f60135f8381526020019081526020015f20819055505f60145f8381526020019081526020015f205f6101000a81548160ff02191690831515021790555060105f815480929190611afb906150c5565b91905055503373ffffffffffffffffffffffffffffffffffffffff168373ffffffffffffffffffffffffffffffffffffffff16827f283919160e4663db5f89b51932d29899258afa8f45472dce627901b0d81a312985604051611b5e9190614c47565b60405180910390a492915050565b600a8160058110611b7b575f80fd5b015f915054906101000a900473ffffffffffffffffffffffffffffffffffffffff1681565b6013602052805f5260405f205f915090505481565b601a602052805f5260405f205f915054906101000a900460ff1681565b6060816001548110611c10576040517f9b35ed3b00000000000000000000000000000000000000000000000000000000815260040160405180910390fd5b60095f8481526020019081526020015f20805480602002602001604051908101604052809291908181526020018280548015611c9e57602002820191905f5260205f20905b815f9054906101000a900473ffffffffffffffffffffffffffffffffffffffff1673ffffffffffffffffffffffffffffffffffffffff1681526020019060010190808311611c55575b5050505050915050919050565b6012602052805f5260405f205f915090508054611cc790615166565b80601f0160208091040260200160405190810160405280929190818152602001828054611cf390615166565b8015611d3e5780601f10611d1557610100808354040283529160200191611d3e565b820191905f5260205f20905b815481529060010190602001808311611d2157829003601f168201915b505050505081565b5f60605f5f6010548510611d86576040517fd9c78e0200000000000000000000000000000000000000000000000000000000815260040160405180910390fd5b60115f8681526020019081526020015f205f9054906101000a900473ffffffffffffffffffffffffffffffffffffffff1660125f8781526020019081526020015f2060135f8881526020019081526020015f205460145f8981526020019081526020015f205f9054906101000a900460ff16828054611e0490615166565b80601f0160208091040260200160405190810160405280929190818152602001828054611e3090615166565b8015611e7b5780601f10611e5257610100808354040283529160200191611e7b565b820191905f5260205f20905b815481529060010190602001808311611e5e57829003601f168201915b5050505050925093509350935093509193509193565b5f5f60605f856001548110611ed2576040517f9b35ed3b00000000000000000000000000000000000000000000000000000000815260040160405180910390fd5b5f60085f8981526020019081526020015f205f8873ffffffffffffffffffffffffffffffffffffffff1673ffffffffffffffffffffffffffffffffffffffff1681526020019081526020015f209050805f0154816001015482600201836003015f9054906101000a900460ff16818054611f4b90615166565b80601f0160208091040260200160405190810160405280929190818152602001828054611f7790615166565b8015611fc25780601f10611f9957610100808354040283529160200191611fc2565b820191905f5260205f20905b815481529060010190602001808311611fa557829003601f168201915b505050505091509550955095509550505092959194509250565b6015602052815f5260405f20602052805f5260405f205f915091509054906101000a900460ff1681565b806001548110612042576040517f9b35ed3b00000000000000000000000000000000000000000000000000000000815260040160405180910390fd5b813373ffffffffffffffffffffffffffffffffffffffff1660025f8381526020019081526020015f206001015f9054906101000a900473ffffffffffffffffffffffffffffffffffffffff1673ffffffffffffffffffffffffffffffffffffffff16146120db576040517f7d762ee400000000000000000000000000000000000000000000000000000000815260040160405180910390fd5b5f60025f8581526020019081526020015f2090508060050160019054906101000a900460ff1615612138576040517ff5e6fbc600000000000000000000000000000000000000000000000000000000815260040160405180910390fd5b5f816005015f6101000a81548160ff02191690831515021790555060018160050160016101000a81548160ff021916908315150217905550837f9d89339efaabc79993cee28742c00a934cf47c83f7f84ded158cf05eb204a4ba826004015483600301546121a69190615405565b6040516121b39190614ac4565b60405180910390a250505050565b60605f5f5f5f5f5f876001548110612205576040517f9b35ed3b00000000000000000000000000000000000000000000000000000000815260040160405180910390fd5b5f60025f8b81526020019081526020015f209050805f01816001015f9054906101000a900473ffffffffffffffffffffffffffffffffffffffff16826002015483600301548460040154856005015f9054906101000a900460ff168660050160019054906101000a900460ff1686805461227e90615166565b80601f01602080910402602001604051908101604052809291908181526020018280546122aa90615166565b80156122f55780601f106122cc576101008083540402835291602001916122f5565b820191905f5260205f20905b8154815290600101906020018083116122d857829003601f168201915b5050505050965098509850985098509850985098505050919395979092949650565b600381565b806001548110612358576040517f9b35ed3b00000000000000000000000000000000000000000000000000000000815260040160405180910390fd5b5f60149054906101000a900460ff161561239e576040517f37ed32e800000000000000000000000000000000000000000000000000000000815260040160405180910390fd5b60015f60146101000a81548160ff0219169083151502179055505f60025f8481526020019081526020015f2090508060050160019054906101000a900460ff16612414576040517f64547e6900000000000000000000000000000000000000000000000000000000815260040160405180910390fd5b5f60035f8581526020019081526020015f205f3373ffffffffffffffffffffffffffffffffffffffff1673ffffffffffffffffffffffffffffffffffffffff1681526020019081526020015f205490505f810361249d576040517fe541d76e00000000000000000000000000000000000000000000000000000000815260040160405180910390fd5b5f826004015483600301546124b29190615405565b90505f836003015482846124c69190615438565b6124d091906154a6565b90505f810361250b576040517f97114f0f00000000000000000000000000000000000000000000000000000000815260040160405180910390fd5b5f60035f8881526020019081526020015f205f3373ffffffffffffffffffffffffffffffffffffffff1673ffffffffffffffffffffffffffffffffffffffff1681526020019081526020015f20819055505f60055f8881526020019081526020015f205f3373ffffffffffffffffffffffffffffffffffffffff1673ffffffffffffffffffffffffffffffffffffffff1681526020019081526020015f205f6101000a81548160ff0219169083151502179055505f3373ffffffffffffffffffffffffffffffffffffffff16826040516125e490615503565b5f6040518083038185875af1925050503d805f811461261e576040519150601f19603f3d011682016040523d82523d5f602084013e612623565b606091505b505090508061265e576040517fcbe4e8c300000000000000000000000000000000000000000000000000000000815260040160405180910390fd5b3373ffffffffffffffffffffffffffffffffffffffff16877ff3f402280ef0a7905e124aa621b65eaeb2725c343e8b36d398ed78c29daf285c846040516126a59190614ac4565b60405180910390a350505050505f5f60146101000a81548160ff0219169083151502179055505050565b83600154811061270b576040517f9b35ed3b00000000000000000000000000000000000000000000000000000000815260040160405180910390fd5b8460025f8281526020019081526020015f206005015f9054906101000a900460ff16612763576040517f433528b600000000000000000000000000000000000000000000000000000000815260040160405180910390fd5b853373ffffffffffffffffffffffffffffffffffffffff1660025f8381526020019081526020015f206001015f9054906101000a900473ffffffffffffffffffffffffffffffffffffffff1673ffffffffffffffffffffffffffffffffffffffff16146127fc576040517f7d762ee400000000000000000000000000000000000000000000000000000000815260040160405180910390fd5b60065f8773ffffffffffffffffffffffffffffffffffffffff1673ffffffffffffffffffffffffffffffffffffffff1681526020019081526020015f205f9054906101000a900460ff1661287c576040517f655a380300000000000000000000000000000000000000000000000000000000815260040160405180910390fd5b60085f8881526020019081526020015f205f8773ffffffffffffffffffffffffffffffffffffffff1673ffffffffffffffffffffffffffffffffffffffff1681526020019081526020015f206003015f9054906101000a900460ff161561290f576040517fc756f1c900000000000000000000000000000000000000000000000000000000815260040160405180910390fd5b5f8503612948576040517f4edc228c00000000000000000000000000000000000000000000000000000000815260040160405180910390fd5b5f845103612982576040517f91ea039700000000000000000000000000000000000000000000000000000000815260040160405180910390fd5b60405180608001604052808681526020015f81526020018581526020016001151581525060085f8981526020019081526020015f205f8873ffffffffffffffffffffffffffffffffffffffff1673ffffffffffffffffffffffffffffffffffffffff1681526020019081526020015f205f820151815f0155602082015181600101556040820151816002019081612a199190615336565b506060820151816003015f6101000a81548160ff02191690831515021790555090505060095f8881526020019081526020015f2086908060018154018082558091505060019003905f5260205f20015f9091909190916101000a81548173ffffffffffffffffffffffffffffffffffffffff021916908373ffffffffffffffffffffffffffffffffffffffff1602179055508573ffffffffffffffffffffffffffffffffffffffff16877fd7fd7b50460a5d11bb1dabdbb3fb5e184ebba96f5e1ca25597f43301c09effce8787604051612af4929190615517565b60405180910390a350505050505050565b5f5f90505f5f90505b600f54811015612b95573373ffffffffffffffffffffffffffffffffffffffff16600a8260058110612b4357612b4261510c565b5b015f9054906101000a900473ffffffffffffffffffffffffffffffffffffffff1673ffffffffffffffffffffffffffffffffffffffff1603612b885760019150612b95565b8080600101915050612b0e565b5080612bcd576040517f2ec5b44900000000000000000000000000000000000000000000000000000000815260040160405180910390fd5b6010548210612c08576040517fd9c78e0200000000000000000000000000000000000000000000000000000000815260040160405180910390fd5b60145f8381526020019081526020015f205f9054906101000a900460ff1615612c5d576040517f51618d5300000000000000000000000000000000000000000000000000000000815260040160405180910390fd5b60155f8381526020019081526020015f205f3373ffffffffffffffffffffffffffffffffffffffff1673ffffffffffffffffffffffffffffffffffffffff1681526020019081526020015f205f9054906101000a900460ff1615612ced576040517fffafa3af00000000000000000000000000000000000000000000000000000000815260040160405180910390fd5b600160155f8481526020019081526020015f205f3373ffffffffffffffffffffffffffffffffffffffff1673ffffffffffffffffffffffffffffffffffffffff1681526020019081526020015f205f6101000a81548160ff02191690831515021790555060135f8381526020019081526020015f205f815480929190612d72906150c5565b91905055503373ffffffffffffffffffffffffffffffffffffffff16827f67aa4bd29fe554ec4fe772990f621e4fff951c79197005dd4f3a008c0130a89e60135f8681526020019081526020015f2054604051612dcf9190614ac4565b60405180910390a3600360135f8481526020019081526020015f205410612fda575f60115f8481526020019081526020015f205f9054906101000a900473ffffffffffffffffffffffffffffffffffffffff1690505f60125f8581526020019081526020015f208054612e4190615166565b80601f0160208091040260200160405190810160405280929190818152602001828054612e6d90615166565b8015612eb85780601f10612e8f57610100808354040283529160200191612eb8565b820191905f5260205f20905b815481529060010190602001808311612e9b57829003601f168201915b50505050509050600160065f8473ffffffffffffffffffffffffffffffffffffffff1673ffffffffffffffffffffffffffffffffffffffff1681526020019081526020015f205f6101000a81548160ff0219169083151502179055508060075f8473ffffffffffffffffffffffffffffffffffffffff1673ffffffffffffffffffffffffffffffffffffffff1681526020019081526020015f209081612f5e9190615336565b50600160145f8681526020019081526020015f205f6101000a81548160ff0219169083151502179055508173ffffffffffffffffffffffffffffffffffffffff16847f5e10a2cd0896305954e023d35ecefc2116cfe2fa9e898222c92a5a4b5a2510b283604051612fcf9190614c47565b60405180910390a350505b5050565b5f60065f8373ffffffffffffffffffffffffffffffffffffffff1673ffffffffffffffffffffffffffffffffffffffff1681526020019081526020015f205f9054906101000a900460ff169050919050565b60015481565b6018602052805f5260405f205f91509050805461305290615166565b80601f016020809104026020016040519081016040528092919081815260200182805461307e90615166565b80156130c95780601f106130a0576101008083540402835291602001916130c9565b820191905f5260205f20905b8154815290600101906020018083116130ac57829003601f168201915b505050505081565b5f6130db82614686565b613111576040517fcab03e0d00000000000000000000000000000000000000000000000000000000815260040160405180910390fd5b601c5f3373ffffffffffffffffffffffffffffffffffffffff1673ffffffffffffffffffffffffffffffffffffffff1681526020019081526020015f205f9054906101000a900460ff1615613192576040517ffbbbb58900000000000000000000000000000000000000000000000000000000815260040160405180910390fd5b60165490503360175f8381526020019081526020015f205f6101000a81548173ffffffffffffffffffffffffffffffffffffffff021916908373ffffffffffffffffffffffffffffffffffffffff1602179055508160185f8381526020019081526020015f2090816132049190615336565b505f60195f8381526020019081526020015f20819055505f601a5f8381526020019081526020015f205f6101000a81548160ff02191690831515021790555060165f815480929190613255906150c5565b91905055503373ffffffffffffffffffffffffffffffffffffffff16817f520f95e8f98aed51c9a03468be080f3d4af2199fa84ca0d0aac846eee684d2e2846040516132a19190614c47565b60405180910390a3919050565b601b602052815f5260405f20602052805f5260405f205f915091509054906101000a900460ff1681565b5f6060601c5f8473ffffffffffffffffffffffffffffffffffffffff1673ffffffffffffffffffffffffffffffffffffffff1681526020019081526020015f205f9054906101000a900460ff16601d5f8573ffffffffffffffffffffffffffffffffffffffff1673ffffffffffffffffffffffffffffffffffffffff1681526020019081526020015f2080805461336e90615166565b80601f016020809104026020016040519081016040528092919081815260200182805461339a90615166565b80156133e55780601f106133bc576101008083540402835291602001916133e5565b820191905f5260205f20905b8154815290600101906020018083116133c857829003601f168201915b5050505050905091509150915091565b5f5f9054906101000a900473ffffffffffffffffffffffffffffffffffffffff1681565b6006602052805f5260405f205f915054906101000a900460ff1681565b601c602052805f5260405f205f915054906101000a900460ff1681565b80600154811061348f576040517f9b35ed3b00000000000000000000000000000000000000000000000000000000815260040160405180910390fd5b813373ffffffffffffffffffffffffffffffffffffffff1660025f8381526020019081526020015f206001015f9054906101000a900473ffffffffffffffffffffffffffffffffffffffff1673ffffffffffffffffffffffffffffffffffffffff1614613528576040517f7d762ee400000000000000000000000000000000000000000000000000000000815260040160405180910390fd5b5f60025f8581526020019081526020015f206005015f6101000a81548160ff021916908315150217905550827f5e6eb33a418de5dbbc17f989f7ae362cdfbb1748c5d603137c767027a354edbc60405160405180910390a2505050565b6011602052805f5260405f205f915054906101000a900473ffffffffffffffffffffffffffffffffffffffff1681565b8260015481106135f1576040517f9b35ed3b00000000000000000000000000000000000000000000000000000000815260040160405180910390fd5b8360025f8281526020019081526020015f206005015f9054906101000a900460ff16613649576040517f433528b600000000000000000000000000000000000000000000000000000000815260040160405180910390fd5b843373ffffffffffffffffffffffffffffffffffffffff1660025f8381526020019081526020015f206001015f9054906101000a900473ffffffffffffffffffffffffffffffffffffffff1673ffffffffffffffffffffffffffffffffffffffff16146136e2576040517f7d762ee400000000000000000000000000000000000000000000000000000000815260040160405180910390fd5b5f60149054906101000a900460ff1615613728576040517f37ed32e800000000000000000000000000000000000000000000000000000000815260040160405180910390fd5b60015f60146101000a81548160ff02191690831515021790555060065f8673ffffffffffffffffffffffffffffffffffffffff1673ffffffffffffffffffffffffffffffffffffffff1681526020019081526020015f205f9054906101000a900460ff166137c2576040517f88a76f3d00000000000000000000000000000000000000000000000000000000815260040160405180910390fd5b60085f8781526020019081526020015f205f8673ffffffffffffffffffffffffffffffffffffffff1673ffffffffffffffffffffffffffffffffffffffff1681526020019081526020015f206003015f9054906101000a900460ff16613854576040517f0ba82be300000000000000000000000000000000000000000000000000000000815260040160405180910390fd5b5f840361388d576040517f5e85ae7300000000000000000000000000000000000000000000000000000000815260040160405180910390fd5b5f60085f8881526020019081526020015f205f8773ffffffffffffffffffffffffffffffffffffffff1673ffffffffffffffffffffffffffffffffffffffff1681526020019081526020015f209050805f01548582600101546138f09190615545565b1115613928576040517f06ddbf2200000000000000000000000000000000000000000000000000000000815260040160405180910390fd5b5f60025f8981526020019081526020015f206004015460025f8a81526020019081526020015f206003015461395d9190615405565b905080861115613999576040517f69ffdadc00000000000000000000000000000000000000000000000000000000815260040160405180910390fd5b85826001015f8282546139ac9190615545565b925050819055508560025f8a81526020019081526020015f206004015f8282546139d69190615545565b925050819055505f8773ffffffffffffffffffffffffffffffffffffffff1687604051613a0290615503565b5f6040518083038185875af1925050503d805f8114613a3c576040519150601f19603f3d011682016040523d82523d5f602084013e613a41565b606091505b5050905080613a7c576040517ff5e9448800000000000000000000000000000000000000000000000000000000815260040160405180910390fd5b8773ffffffffffffffffffffffffffffffffffffffff16897f732cd91831afb5863a4f2409954bd8d5d26e45a12a6d70f603ded109ddc274b560075f8c73ffffffffffffffffffffffffffffffffffffffff1673ffffffffffffffffffffffffffffffffffffffff1681526020019081526020015f208a604051613b019291906155f9565b60405180910390a35050505f5f60146101000a81548160ff021916908315150217905550505050505050565b613b35614722565b600a600580602002604051908101604052809291908260058015613ba3576020028201915b815f9054906101000a900473ffffffffffffffffffffffffffffffffffffffff1673ffffffffffffffffffffffffffffffffffffffff1681526020019060010190808311613b5a575b5050505050905090565b5f816001548110613bea576040517f9b35ed3b00000000000000000000000000000000000000000000000000000000815260040160405180910390fd5b5f60025f8581526020019081526020015f20905080600401548160030154613c129190615405565b92505050919050565b6017602052805f5260405f205f915054906101000a900473ffffffffffffffffffffffffffffffffffffffff1681565b806001548110613c87576040517f9b35ed3b00000000000000000000000000000000000000000000000000000000815260040160405180910390fd5b5f60149054906101000a900460ff1615613ccd576040517f37ed32e800000000000000000000000000000000000000000000000000000000815260040160405180910390fd5b60015f60146101000a81548160ff0219169083151502179055505f3403613d20576040517fd7f2cb6200000000000000000000000000000000000000000000000000000000815260040160405180910390fd5b60085f8381526020019081526020015f205f3373ffffffffffffffffffffffffffffffffffffffff1673ffffffffffffffffffffffffffffffffffffffff1681526020019081526020015f206003015f9054906101000a900460ff16613db2576040517f66eec34500000000000000000000000000000000000000000000000000000000815260040160405180910390fd5b5f60085f8481526020019081526020015f205f3373ffffffffffffffffffffffffffffffffffffffff1673ffffffffffffffffffffffffffffffffffffffff1681526020019081526020015f20905080600101543411613e2b5734816001015f828254613e1f9190615405565b92505081905550613e35565b5f81600101819055505b5f60025f8581526020019081526020015f20905080600401543411613e735734816004015f828254613e679190615405565b92505081905550613e7d565b5f81600401819055505b3373ffffffffffffffffffffffffffffffffffffffff16847f51582bfd68edc3621bee64ac54a2b5e7c043a8555da24fda4f0abe2e65e83d2f34604051613ec49190614ac4565b60405180910390a350505f5f60146101000a81548160ff0219169083151502179055505050565b6003602052815f5260405f20602052805f5260405f205f91509150505481565b60105481565b601d602052805f5260405f205f915090508054613f2d90615166565b80601f0160208091040260200160405190810160405280929190818152602001828054613f5990615166565b8015613fa45780601f10613f7b57610100808354040283529160200191613fa4565b820191905f5260205f20905b815481529060010190602001808311613f8757829003601f168201915b505050505081565b5f5f835103613fe7576040517fcf48253200000000000000000000000000000000000000000000000000000000815260040160405180910390fd5b5f8203614020576040517fbf2cfade00000000000000000000000000000000000000000000000000000000815260040160405180910390fd5b60015490506040518060e001604052808481526020013373ffffffffffffffffffffffffffffffffffffffff1681526020018381526020015f81526020015f81526020016001151581526020015f151581525060025f8381526020019081526020015f205f820151815f0190816140979190615336565b506020820151816001015f6101000a81548173ffffffffffffffffffffffffffffffffffffffff021916908373ffffffffffffffffffffffffffffffffffffffff16021790555060408201518160020155606082015181600301556080820151816004015560a0820151816005015f6101000a81548160ff02191690831515021790555060c08201518160050160016101000a81548160ff02191690831515021790555090505060015f815480929190614150906150c5565b91905055503373ffffffffffffffffffffffffffffffffffffffff16817f85d038f2d0b3728e5fede2ce367934666edeabb735999e2be302dc035466b98b858560405161419e929190615627565b60405180910390a392915050565b8060015481106141e8576040517f9b35ed3b00000000000000000000000000000000000000000000000000000000815260040160405180910390fd5b8160025f8281526020019081526020015f206005015f9054906101000a900460ff16614240576040517f433528b600000000000000000000000000000000000000000000000000000000815260040160405180910390fd5b5f60149054906101000a900460ff1615614286576040517f37ed32e800000000000000000000000000000000000000000000000000000000815260040160405180910390fd5b60015f60146101000a81548160ff0219169083151502179055505f34036142d9576040517f4368db7400000000000000000000000000000000000000000000000000000000815260040160405180910390fd5b60025f8481526020019081526020015f20600201543460025f8681526020019081526020015f206003015461430e9190615545565b1115614346576040517f676cb4d900000000000000000000000000000000000000000000000000000000815260040160405180910390fd5b60055f8481526020019081526020015f205f3373ffffffffffffffffffffffffffffffffffffffff1673ffffffffffffffffffffffffffffffffffffffff1681526020019081526020015f205f9054906101000a900460ff1661447757600160055f8581526020019081526020015f205f3373ffffffffffffffffffffffffffffffffffffffff1673ffffffffffffffffffffffffffffffffffffffff1681526020019081526020015f205f6101000a81548160ff02191690831515021790555060045f8481526020019081526020015f2033908060018154018082558091505060019003905f5260205f20015f9091909190916101000a81548173ffffffffffffffffffffffffffffffffffffffff021916908373ffffffffffffffffffffffffffffffffffffffff1602179055505b3460035f8581526020019081526020015f205f3373ffffffffffffffffffffffffffffffffffffffff1673ffffffffffffffffffffffffffffffffffffffff1681526020019081526020015f205f8282546144d29190615545565b925050819055503460025f8581526020019081526020015f206003015f8282546144fc9190615545565b925050819055503373ffffffffffffffffffffffffffffffffffffffff16837f0b5b4c52969ff7329ecf7ee536409fda87812b15a8622bc6e8cdeab3aee14a263460405161454a9190614ac4565b60405180910390a35f5f60146101000a81548160ff021916908315150217905550505050565b60165481565b5f8260015481106145b3576040517f9b35ed3b00000000000000000000000000000000000000000000000000000000815260040160405180910390fd5b5f60025f8681526020019081526020015f2090508060050160019054906101000a900460ff166145e6575f92505061467f565b5f60035f8781526020019081526020015f205f8673ffffffffffffffffffffffffffffffffffffffff1673ffffffffffffffffffffffffffffffffffffffff1681526020019081526020015f205490505f8103614647575f9350505061467f565b5f8260040154836003015461465c9190615405565b90508260030154818361466f9190615438565b61467991906154a6565b94505050505b5092915050565b5f5f8290505f5f90505b8151811015614717577f7c000000000000000000000000000000000000000000000000000000000000008282815181106146cd576146cc61510c565b5b602001015160f81c60f81b7effffffffffffffffffffffffffffffffffffffffffffffffffffffffffffff19160361470a5760019250505061471d565b8080600101915050614690565b505f9150505b919050565b6040518060a00160405280600590602082028036833780820191505090505090565b5f81519050919050565b5f82825260208201905092915050565b5f819050602082019050919050565b5f73ffffffffffffffffffffffffffffffffffffffff82169050919050565b5f6147968261476d565b9050919050565b6147a68161478c565b82525050565b5f6147b7838361479d565b60208301905092915050565b5f602082019050919050565b5f6147d982614744565b6147e3818561474e565b93506147ee8361475e565b805f5b8381101561481e57815161480588826147ac565b9750614810836147c3565b9250506001810190506147f1565b5085935050505092915050565b5f81519050919050565b5f82825260208201905092915050565b5f819050602082019050919050565b5f81519050919050565b5f82825260208201905092915050565b8281835e5f83830152505050565b5f601f19601f8301169050919050565b5f61489682614854565b6148a0818561485e565b93506148b081856020860161486e565b6148b98161487c565b840191505092915050565b5f6148cf838361488c565b905092915050565b5f602082019050919050565b5f6148ed8261482b565b6148f78185614835565b93508360208202850161490985614845565b805f5b85811015614944578484038952815161492585826148c4565b9450614930836148d7565b925060208a0199505060018101905061490c565b50829750879550505050505092915050565b5f6040820190508181035f83015261496e81856147cf565b9050818103602083015261498281846148e3565b90509392505050565b5f604051905090565b5f5ffd5b5f5ffd5b5f819050919050565b6149ae8161499c565b81146149b8575f5ffd5b50565b5f813590506149c9816149a5565b92915050565b5f602082840312156149e4576149e3614994565b5b5f6149f1848285016149bb565b91505092915050565b614a038161478c565b82525050565b5f82825260208201905092915050565b5f614a2382614854565b614a2d8185614a09565b9350614a3d81856020860161486e565b614a468161487c565b840191505092915050565b614a5a8161499c565b82525050565b5f8115159050919050565b614a7481614a60565b82525050565b5f608082019050614a8d5f8301876149fa565b8181036020830152614a9f8186614a19565b9050614aae6040830185614a51565b614abb6060830184614a6b565b95945050505050565b5f602082019050614ad75f830184614a51565b92915050565b5f602082019050614af05f830184614a6b565b92915050565b614aff8161478c565b8114614b09575f5ffd5b50565b5f81359050614b1a81614af6565b92915050565b5f5f60408385031215614b3657614b35614994565b5b5f614b43858286016149bb565b9250506020614b5485828601614b0c565b9150509250929050565b5f608082019050614b715f830187614a51565b614b7e6020830186614a51565b8181036040830152614b908185614a19565b9050614b9f6060830184614a6b565b95945050505050565b5f60e0820190508181035f830152614bc0818a614a19565b9050614bcf60208301896149fa565b614bdc6040830188614a51565b614be96060830187614a51565b614bf66080830186614a51565b614c0360a0830185614a6b565b614c1060c0830184614a6b565b98975050505050505050565b5f60208284031215614c3157614c30614994565b5b5f614c3e84828501614b0c565b91505092915050565b5f6020820190508181035f830152614c5f8184614a19565b905092915050565b5f6020820190508181035f830152614c7f81846147cf565b905092915050565b5f5ffd5b5f5ffd5b7f4e487b71000000000000000000000000000000000000000000000000000000005f52604160045260245ffd5b614cc58261487c565b810181811067ffffffffffffffff82111715614ce457614ce3614c8f565b5b80604052505050565b5f614cf661498b565b9050614d028282614cbc565b919050565b5f67ffffffffffffffff821115614d2157614d20614c8f565b5b614d2a8261487c565b9050602081019050919050565b828183375f83830152505050565b5f614d57614d5284614d07565b614ced565b905082815260208101848484011115614d7357614d72614c8b565b5b614d7e848285614d37565b509392505050565b5f82601f830112614d9a57614d99614c87565b5b8135614daa848260208601614d45565b91505092915050565b5f5f60408385031215614dc957614dc8614994565b5b5f614dd685828601614b0c565b925050602083013567ffffffffffffffff811115614df757614df6614998565b5b614e0385828601614d86565b9150509250929050565b5f602082019050614e205f8301846149fa565b92915050565b5f5f5f5f60808587031215614e3e57614e3d614994565b5b5f614e4b878288016149bb565b9450506020614e5c87828801614b0c565b9350506040614e6d878288016149bb565b925050606085013567ffffffffffffffff811115614e8e57614e8d614998565b5b614e9a87828801614d86565b91505092959194509250565b5f60208284031215614ebb57614eba614994565b5b5f82013567ffffffffffffffff811115614ed857614ed7614998565b5b614ee484828501614d86565b91505092915050565b5f604082019050614f005f830185614a6b565b8181036020830152614f128184614a19565b90509392505050565b5f614f258261476d565b9050919050565b614f3581614f1b565b8114614f3f575f5ffd5b50565b5f81359050614f5081614f2c565b92915050565b5f5f5f60608486031215614f6d57614f6c614994565b5b5f614f7a868287016149bb565b9350506020614f8b86828701614f42565b9250506040614f9c868287016149bb565b9150509250925092565b5f60059050919050565b5f81905092915050565b5f819050919050565b5f602082019050919050565b614fd881614fa6565b614fe28184614fb0565b9250614fed82614fba565b805f5b8381101561501d57815161500487826147ac565b965061500f83614fc3565b925050600181019050614ff0565b505050505050565b5f60a0820190506150385f830184614fcf565b92915050565b5f5f6040838503121561505457615053614994565b5b5f83013567ffffffffffffffff81111561507157615070614998565b5b61507d85828601614d86565b925050602061508e858286016149bb565b9150509250929050565b7f4e487b71000000000000000000000000000000000000000000000000000000005f52601160045260245ffd5b5f6150cf8261499c565b91507fffffffffffffffffffffffffffffffffffffffffffffffffffffffffffffffff820361510157615100615098565b5b600182019050919050565b7f4e487b71000000000000000000000000000000000000000000000000000000005f52603260045260245ffd5b7f4e487b71000000000000000000000000000000000000000000000000000000005f52602260045260245ffd5b5f600282049050600182168061517d57607f821691505b6020821081036151905761518f615139565b5b50919050565b5f819050815f5260205f209050919050565b5f6020601f8301049050919050565b5f82821b905092915050565b5f600883026151f27fffffffffffffffffffffffffffffffffffffffffffffffffffffffffffffffff826151b7565b6151fc86836151b7565b95508019841693508086168417925050509392505050565b5f819050919050565b5f61523761523261522d8461499c565b615214565b61499c565b9050919050565b5f819050919050565b6152508361521d565b61526461525c8261523e565b8484546151c3565b825550505050565b5f5f905090565b61527b61526c565b615286818484615247565b505050565b5b818110156152a95761529e5f82615273565b60018101905061528c565b5050565b601f8211156152ee576152bf81615196565b6152c8846151a8565b810160208510156152d7578190505b6152eb6152e3856151a8565b83018261528b565b50505b505050565b5f82821c905092915050565b5f61530e5f19846008026152f3565b1980831691505092915050565b5f61532683836152ff565b9150826002028217905092915050565b61533f82614854565b67ffffffffffffffff81111561535857615357614c8f565b5b6153628254615166565b61536d8282856152ad565b5f60209050601f83116001811461539e575f841561538c578287015190505b615396858261531b565b8655506153fd565b601f1984166153ac86615196565b5f5b828110156153d3578489015182556001820191506020850194506020810190506153ae565b868310156153f057848901516153ec601f8916826152ff565b8355505b6001600288020188555050505b505050505050565b5f61540f8261499c565b915061541a8361499c565b925082820390508181111561543257615431615098565b5b92915050565b5f6154428261499c565b915061544d8361499c565b925082820261545b8161499c565b9150828204841483151761547257615471615098565b5b5092915050565b7f4e487b71000000000000000000000000000000000000000000000000000000005f52601260045260245ffd5b5f6154b08261499c565b91506154bb8361499c565b9250826154cb576154ca615479565b5b828204905092915050565b5f81905092915050565b50565b5f6154ee5f836154d6565b91506154f9826154e0565b5f82019050919050565b5f61550d826154e3565b9150819050919050565b5f60408201905061552a5f830185614a51565b818103602083015261553c8184614a19565b90509392505050565b5f61554f8261499c565b915061555a8361499c565b925082820190508082111561557257615571615098565b5b92915050565b5f815461558481615166565b61558e8186614a09565b9450600182165f81146155a857600181146155be576155f0565b60ff1983168652811515602002860193506155f0565b6155c785615196565b5f5b838110156155e8578154818901526001820191506020810190506155c9565b808801955050505b50505092915050565b5f6040820190508181035f8301526156118185615578565b90506156206020830184614a51565b9392505050565b5f6040820190508181035f83015261563f8185614a19565b905061564e6020830184614a51565b939250505056fea2646970667358221220aa00f4e0a4a49a5734eebeadc9612b2248a917f7dd5490930e56f94a7f7db44f64736f6c634300081c0033",
  "linkReferences": {},
  "deployedLinkReferences": {},
  "immutableReferences": {},
  "inputSourceName": "project/contracts/ClarityChain.sol",
  "buildInfoId": "solc-0_8_28-6389df1cb370cfe34438f32bde6f50a1c6c9e6d1"
}