{
  "_format": "hh3-artifact-1",
  "contractName": "ClarityChain",
  "sourceName": "contracts/ClarityChain.sol",
  "abi": [
    {
      "inputs": [
        {
          "internalType": "address[]",
          "name": "_validators",
          "type": "address[]"
        }
      ],
      "stateMutability": "nonpayable",
      "type": "constructor"
    },
    {
      "inputs": [],
      "name": "AlreadyApprovedIdentityProposal",
      "type": "error"
    },
    {
      "inputs": [],
      "name": "AlreadyApprovedProposal",
      "type": "error"
    },
    {
      "inputs": [],
      "name": "AmountExceedsVendorCap",
      "type": "error"
    },
    {
      "inputs": [],
      "name": "AmountMustBeGreaterThanZero",
      "type": "error"
    },
    {
      "inputs": [],
      "name": "CallerNotAssociatedVendor",
      "type": "error"
    },
    {
      "inputs": [],
      "name": "CampaignDoesNotExist",
      "type": "error"
    },
    {
      "inputs": [],
      "name": "CampaignNotActive",
      "type": "error"
    },
    {
      "inputs": [],
      "name": "CapMustBeGreaterThanZero",
      "type": "error"
    },
    {
      "inputs": [],
      "name": "DonationMustBeGreaterThanZero",
      "type": "error"
    },
    {
      "inputs": [],
      "name": "GoalMustBeGreaterThanZero",
      "type": "error"
    },
    {
      "inputs": [],
      "name": "IdentityProposalAlreadyExecuted",
      "type": "error"
    },
    {
      "inputs": [],
      "name": "IdentityProposalDoesNotExist",
      "type": "error"
    },
    {
      "inputs": [],
      "name": "InstructionsCannotBeEmpty",
      "type": "error"
    },
    {
      "inputs": [],
      "name": "InsufficientCampaignFunds",
      "type": "error"
    },
    {
      "inputs": [],
      "name": "InvalidValidatorAddress",
      "type": "error"
    },
    {
      "inputs": [],
      "name": "InvalidVendorAddress",
      "type": "error"
    },
    {
      "inputs": [],
      "name": "NameCannotBeEmpty",
      "type": "error"
    },
    {
      "inputs": [],
      "name": "NeedBetweenThreeAndFiveValidators",
      "type": "error"
    },
    {
      "inputs": [],
      "name": "NoDonationFoundForWallet",
      "type": "error"
    },
    {
      "inputs": [],
      "name": "NotCampaignNGO",
      "type": "error"
    },
    {
      "inputs": [],
      "name": "NotOwner",
      "type": "error"
    },
    {
      "inputs": [],
      "name": "NotValidator",
      "type": "error"
    },
    {
      "inputs": [],
      "name": "NothingLeftToRefund",
      "type": "error"
    },
    {
      "inputs": [],
      "name": "ProfileLinkRequired",
      "type": "error"
    },
    {
      "inputs": [],
      "name": "ProposalAlreadyExecuted",
      "type": "error"
    },
    {
      "inputs": [],
      "name": "ProposalDoesNotExist",
      "type": "error"
    },
    {
      "inputs": [],
      "name": "ReentrantCall",
      "type": "error"
    },
    {
      "inputs": [],
      "name": "RefundAmountMustBeGreaterThanZero",
      "type": "error"
    },
    {
      "inputs": [],
      "name": "RefundTransferFailed",
      "type": "error"
    },
    {
      "inputs": [],
      "name": "RefundsAlreadyEnabled",
      "type": "error"
    },
    {
      "inputs": [],
      "name": "RefundsNotEnabled",
      "type": "error"
    },
    {
      "inputs": [],
      "name": "TransferToVendorFailed",
      "type": "error"
    },
    {
      "inputs": [],
      "name": "VendorAlreadyAssociated",
      "type": "error"
    },
    {
      "inputs": [],
      "name": "VendorAlreadyWhitelisted",
      "type": "error"
    },
    {
      "inputs": [],
      "name": "VendorNameCannotBeEmpty",
      "type": "error"
    },
    {
      "inputs": [],
      "name": "VendorNotAssociatedWithCampaign",
      "type": "error"
    },
    {
      "inputs": [],
      "name": "VendorNotWhitelisted",
      "type": "error"
    },
    {
      "inputs": [],
      "name": "VendorNotWhitelistedRejected",
      "type": "error"
    },
    {
      "inputs": [],
      "name": "VerificationLinkRequired",
      "type": "error"
    },
    {
      "inputs": [],
      "name": "WalletAlreadyVerified",
      "type": "error"
    },
    {
      "anonymous": false,
      "inputs": [
        {
          "indexed": true,
          "internalType": "uint256",
          "name": "campaignId",
          "type": "uint256"
        }
      ],
      "name": "CampaignClosed",
      "type": "event"
    },
    {
      "anonymous": false,
      "inputs": [
        {
          "indexed": true,
          "internalType": "uint256",
          "name": "campaignId",
          "type": "uint256"
        },
        {
          "indexed": false,
          "internalType": "string",
          "name": "name",
          "type": "string"
        },
        {
          "indexed": true,
          "internalType": "address",
          "name": "ngo",
          "type": "address"
        },
        {
          "indexed": false,
          "internalType": "uint256",
          "name": "goalAmount",
          "type": "uint256"
        }
      ],
      "name": "CampaignCreated",
      "type": "event"
    },
    {
      "anonymous": false,
      "inputs": [
        {
          "indexed": true,
          "internalType": "uint256",
          "name": "campaignId",
          "type": "uint256"
        },
        {
          "indexed": true,
          "internalType": "address",
          "name": "donor",
          "type": "address"
        },
        {
          "indexed": false,
          "internalType": "uint256",
          "name": "amount",
          "type": "uint256"
        }
      ],
      "name": "DonationReceived",
      "type": "event"
    },
    {
      "anonymous": false,
      "inputs": [
        {
          "indexed": true,
          "internalType": "uint256",
          "name": "proposalId",
          "type": "uint256"
        },
        {
          "indexed": true,
          "internalType": "address",
          "name": "applicant",
          "type": "address"
        },
        {
          "indexed": false,
          "internalType": "string",
          "name": "profileLinks",
          "type": "string"
        }
      ],
      "name": "IdentityVerificationApplied",
      "type": "event"
    },
    {
      "anonymous": false,
      "inputs": [
        {
          "indexed": true,
          "internalType": "uint256",
          "name": "proposalId",
          "type": "uint256"
        },
        {
          "indexed": true,
          "internalType": "address",
          "name": "validator",
          "type": "address"
        },
        {
          "indexed": false,
          "internalType": "uint256",
          "name": "currentApprovals",
          "type": "uint256"
        }
      ],
      "name": "IdentityVerificationSigned",
      "type": "event"
    },
    {
      "anonymous": false,
      "inputs": [
        {
          "indexed": true,
          "internalType": "uint256",
          "name": "proposalId",
          "type": "uint256"
        },
        {
          "indexed": true,
          "internalType": "address",
          "name": "applicant",
          "type": "address"
        },
        {
          "indexed": false,
          "internalType": "string",
          "name": "profileLinks",
          "type": "string"
        }
      ],
      "name": "IdentityVerified",
      "type": "event"
    },
    {
      "anonymous": false,
      "inputs": [
        {
          "indexed": true,
          "internalType": "uint256",
          "name": "campaignId",
          "type": "uint256"
        },
        {
          "indexed": true,
          "internalType": "address",
          "name": "donor",
          "type": "address"
        },
        {
          "indexed": false,
          "internalType": "uint256",
          "name": "amount",
          "type": "uint256"
        }
      ],
      "name": "RefundClaimed",
      "type": "event"
    },
    {
      "anonymous": false,
      "inputs": [
        {
          "indexed": true,
          "internalType": "uint256",
          "name": "campaignId",
          "type": "uint256"
        },
        {
          "indexed": false,
          "internalType": "uint256",
          "name": "refundableAmount",
          "type": "uint256"
        }
      ],
      "name": "RefundsEnabled",
      "type": "event"
    },
    {
      "anonymous": false,
      "inputs": [
        {
          "indexed": true,
          "internalType": "uint256",
          "name": "proposalId",
          "type": "uint256"
        },
        {
          "indexed": true,
          "internalType": "address",
          "name": "validator",
          "type": "address"
        },
        {
          "indexed": false,
          "internalType": "uint256",
          "name": "currentApprovals",
          "type": "uint256"
        }
      ],
      "name": "VendorApprovalSigned",
      "type": "event"
    },
    {
      "anonymous": false,
      "inputs": [
        {
          "indexed": true,
          "internalType": "uint256",
          "name": "campaignId",
          "type": "uint256"
        },
        {
          "indexed": true,
          "internalType": "address",
          "name": "vendor",
          "type": "address"
        },
        {
          "indexed": false,
          "internalType": "uint256",
          "name": "cap",
          "type": "uint256"
        },
        {
          "indexed": false,
          "internalType": "string",
          "name": "instructions",
          "type": "string"
        }
      ],
      "name": "VendorAssociated",
      "type": "event"
    },
    {
      "anonymous": false,
      "inputs": [
        {
          "indexed": true,
          "internalType": "uint256",
          "name": "proposalId",
          "type": "uint256"
        },
        {
          "indexed": true,
          "internalType": "address",
          "name": "vendor",
          "type": "address"
        },
        {
          "indexed": false,
          "internalType": "string",
          "name": "vendorName",
          "type": "string"
        },
        {
          "indexed": true,
          "internalType": "address",
          "name": "proposedBy",
          "type": "address"
        }
      ],
      "name": "VendorProposed",
      "type": "event"
    },
    {
      "anonymous": false,
      "inputs": [
        {
          "indexed": true,
          "internalType": "uint256",
          "name": "campaignId",
          "type": "uint256"
        },
        {
          "indexed": true,
          "internalType": "address",
          "name": "vendor",
          "type": "address"
        },
        {
          "indexed": false,
          "internalType": "uint256",
          "name": "amount",
          "type": "uint256"
        }
      ],
      "name": "VendorRefundedCampaign",
      "type": "event"
    },
    {
      "anonymous": false,
      "inputs": [
        {
          "indexed": true,
          "internalType": "uint256",
          "name": "proposalId",
          "type": "uint256"
        },
        {
          "indexed": true,
          "internalType": "address",
          "name": "vendor",
          "type": "address"
        },
        {
          "indexed": false,
          "internalType": "string",
          "name": "vendorName",
          "type": "string"
        }
      ],
      "name": "VendorWhitelisted",
      "type": "event"
    },
    {
      "anonymous": false,
      "inputs": [
        {
          "indexed": true,
          "internalType": "uint256",
          "name": "campaignId",
          "type": "uint256"
        },
        {
          "indexed": true,
          "internalType": "address",
          "name": "vendor",
          "type": "address"
        },
        {
          "indexed": false,
          "internalType": "string",
          "name": "vendorName",
          "type": "string"
        },
        {
          "indexed": false,
          "internalType": "uint256",
          "name": "amount",
          "type": "uint256"
        }
      ],
      "name": "WithdrawalToVendor",
      "type": "event"
    },
    {
      "inputs": [],
      "name": "REQUIRED_APPROVALS",
      "outputs": [
        {
          "internalType": "uint256",
          "name": "",
          "type": "uint256"
        }
      ],
      "stateMutability": "view",
      "type": "function"
    },
    {
      "inputs": [
        {
          "internalType": "string",
          "name": "profileLinks",
          "type": "string"
        }
      ],
      "name": "applyForVerification",
      "outputs": [
        {
          "internalType": "uint256",
          "name": "proposalId",
          "type": "uint256"
        }
      ],
      "stateMutability": "nonpayable",
      "type": "function"
    },
    {
      "inputs": [
        {
          "internalType": "uint256",
          "name": "proposalId",
          "type": "uint256"
        }
      ],
      "name": "approveIdentity",
      "outputs": [],
      "stateMutability": "nonpayable",
      "type": "function"
    },
    {
      "inputs": [
        {
          "internalType": "uint256",
          "name": "proposalId",
          "type": "uint256"
        }
      ],
      "name": "approveVendor",
      "outputs": [],
      "stateMutability": "nonpayable",
      "type": "function"
    },
    {
      "inputs": [
        {
          "internalType": "uint256",
          "name": "campaignId",
          "type": "uint256"
        },
        {
          "internalType": "address",
          "name": "vendor",
          "type": "address"
        },
        {
          "internalType": "uint256",
          "name": "cap",
          "type": "uint256"
        },
        {
          "internalType": "string",
          "name": "instructions",
          "type": "string"
        }
      ],
      "name": "associateVendor",
      "outputs": [],
      "stateMutability": "nonpayable",
      "type": "function"
    },
    {
      "inputs": [],
      "name": "campaignCount",
      "outputs": [
        {
          "internalType": "uint256",
          "name": "",
          "type": "uint256"
        }
      ],
      "stateMutability": "view",
      "type": "function"
    },
    {
      "inputs": [
        {
          "internalType": "uint256",
          "name": "",
          "type": "uint256"
        },
        {
          "internalType": "address",
          "name": "",
          "type": "address"
        }
      ],
      "name": "campaignVendors",
      "outputs": [
        {
          "internalType": "uint256",
          "name": "cap",
          "type": "uint256"
        },
        {
          "internalType": "uint256",
          "name": "spent",
          "type": "uint256"
        },
        {
          "internalType": "string",
          "name": "instructions",
          "type": "string"
        },
        {
          "internalType": "bool",
          "name": "associated",
          "type": "bool"
        }
      ],
      "stateMutability": "view",
      "type": "function"
    },
    {
      "inputs": [
        {
          "internalType": "uint256",
          "name": "",
          "type": "uint256"
        }
      ],
      "name": "campaigns",
      "outputs": [
        {
          "internalType": "string",
          "name": "name",
          "type": "string"
        },
        {
          "internalType": "address",
          "name": "ngo",
          "type": "address"
        },
        {
          "internalType": "uint256",
          "name": "goalAmount",
          "type": "uint256"
        },
        {
          "internalType": "uint256",
          "name": "raisedAmount",
          "type": "uint256"
        },
        {
          "internalType": "uint256",
          "name": "withdrawnAmount",
          "type": "uint256"
        },
        {
          "internalType": "bool",
          "name": "active",
          "type": "bool"
        },
        {
          "internalType": "bool",
          "name": "refundsEnabled",
          "type": "bool"
        }
      ],
      "stateMutability": "view",
      "type": "function"
    },
    {
      "inputs": [
        {
          "internalType": "uint256",
          "name": "campaignId",
          "type": "uint256"
        }
      ],
      "name": "claimRefund",
      "outputs": [],
      "stateMutability": "nonpayable",
      "type": "function"
    },
    {
      "inputs": [
        {
          "internalType": "uint256",
          "name": "campaignId",
          "type": "uint256"
        }
      ],
      "name": "closeCampaign",
      "outputs": [],
      "stateMutability": "nonpayable",
      "type": "function"
    },
    {
      "inputs": [
        {
          "internalType": "string",
          "name": "_name",
          "type": "string"
        },
        {
          "internalType": "uint256",
          "name": "_goalAmount",
          "type": "uint256"
        }
      ],
      "name": "createCampaign",
      "outputs": [
        {
          "internalType": "uint256",
          "name": "campaignId",
          "type": "uint256"
        }
      ],
      "stateMutability": "nonpayable",
      "type": "function"
    },
    {
      "inputs": [
        {
          "internalType": "uint256",
          "name": "campaignId",
          "type": "uint256"
        }
      ],
      "name": "donate",
      "outputs": [],
      "stateMutability": "payable",
      "type": "function"
    },
    {
      "inputs": [
        {
          "internalType": "uint256",
          "name": "",
          "type": "uint256"
        },
        {
          "internalType": "address",
          "name": "",
          "type": "address"
        }
      ],
      "name": "donorAmounts",
      "outputs": [
        {
          "internalType": "uint256",
          "name": "",
          "type": "uint256"
        }
      ],
      "stateMutability": "view",
      "type": "function"
    },
    {
      "inputs": [
        {
          "internalType": "uint256",
          "name": "campaignId",
          "type": "uint256"
        }
      ],
      "name": "enableRefunds",
      "outputs": [],
      "stateMutability": "nonpayable",
      "type": "function"
    },
    {
      "inputs": [
        {
          "internalType": "uint256",
          "name": "campaignId",
          "type": "uint256"
        }
      ],
      "name": "getAvailableFunds",
      "outputs": [
        {
          "internalType": "uint256",
          "name": "",
          "type": "uint256"
        }
      ],
      "stateMutability": "view",
      "type": "function"
    },
    {
      "inputs": [
        {
          "internalType": "uint256",
          "name": "campaignId",
          "type": "uint256"
        }
      ],
      "name": "getCampaign",
      "outputs": [
        {
          "internalType": "string",
          "name": "name",
          "type": "string"
        },
        {
          "internalType": "address",
          "name": "ngo",
          "type": "address"
        },
        {
          "internalType": "uint256",
          "name": "goalAmount",
          "type": "uint256"
        },
        {
          "internalType": "uint256",
          "name": "raisedAmount",
          "type": "uint256"
        },
        {
          "internalType": "uint256",
          "name": "withdrawnAmount",
          "type": "uint256"
        },
        {
          "internalType": "bool",
          "name": "active",
          "type": "bool"
        },
        {
          "internalType": "bool",
          "name": "refundsEnabled",
          "type": "bool"
        }
      ],
      "stateMutability": "view",
      "type": "function"
    },
    {
      "inputs": [
        {
          "internalType": "uint256",
          "name": "campaignId",
          "type": "uint256"
        }
      ],
      "name": "getCampaignDonors",
      "outputs": [
        {
          "internalType": "address[]",
          "name": "",
          "type": "address[]"
        }
      ],
      "stateMutability": "view",
      "type": "function"
    },
    {
      "inputs": [
        {
          "internalType": "uint256",
          "name": "campaignId",
          "type": "uint256"
        },
        {
          "internalType": "address",
          "name": "vendor",
          "type": "address"
        }
      ],
      "name": "getCampaignVendor",
      "outputs": [
        {
          "internalType": "uint256",
          "name": "cap",
          "type": "uint256"
        },
        {
          "internalType": "uint256",
          "name": "spent",
          "type": "uint256"
        },
        {
          "internalType": "string",
          "name": "instructions",
          "type": "string"
        },
        {
          "internalType": "bool",
          "name": "associated",
          "type": "bool"
        }
      ],
      "stateMutability": "view",
      "type": "function"
    },
    {
      "inputs": [
        {
          "internalType": "uint256",
          "name": "campaignId",
          "type": "uint256"
        }
      ],
      "name": "getCampaignVendorList",
      "outputs": [
        {
          "internalType": "address[]",
          "name": "",
          "type": "address[]"
        }
      ],
      "stateMutability": "view",
      "type": "function"
    },
    {
      "inputs": [
        {
          "internalType": "address",
          "name": "wallet",
          "type": "address"
        }
      ],
      "name": "getIdentityInfo",
      "outputs": [
        {
          "internalType": "bool",
          "name": "verified",
          "type": "bool"
        },
        {
          "internalType": "string",
          "name": "links",
          "type": "string"
        }
      ],
      "stateMutability": "view",
      "type": "function"
    },
    {
      "inputs": [
        {
          "internalType": "uint256",
          "name": "proposalId",
          "type": "uint256"
        }
      ],
      "name": "getIdentityProposalStatus",
      "outputs": [
        {
          "internalType": "address",
          "name": "applicant",
          "type": "address"
        },
        {
          "internalType": "string",
          "name": "profileLinks",
          "type": "string"
        },
        {
          "internalType": "uint256",
          "name": "approvals",
          "type": "uint256"
        },
        {
          "internalType": "bool",
          "name": "executed",
          "type": "bool"
        }
      ],
      "stateMutability": "view",
      "type": "function"
    },
    {
      "inputs": [
        {
          "internalType": "uint256",
          "name": "proposalId",
          "type": "uint256"
        }
      ],
      "name": "getProposalStatus",
      "outputs": [
        {
          "internalType": "address",
          "name": "vendor",
          "type": "address"
        },
        {
          "internalType": "string",
          "name": "vendorName",
          "type": "string"
        },
        {
          "internalType": "uint256",
          "name": "approvals",
          "type": "uint256"
        },
        {
          "internalType": "bool",
          "name": "executed",
          "type": "bool"
        }
      ],
      "stateMutability": "view",
      "type": "function"
    },
    {
      "inputs": [
        {
          "internalType": "uint256",
          "name": "campaignId",
          "type": "uint256"
        },
        {
          "internalType": "address",
          "name": "donor",
          "type": "address"
        }
      ],
      "name": "getRefundAmount",
      "outputs": [
        {
          "internalType": "uint256",
          "name": "",
          "type": "uint256"
        }
      ],
      "stateMutability": "view",
      "type": "function"
    },
    {
      "inputs": [],
      "name": "getValidators",
      "outputs": [
        {
          "internalType": "address[5]",
          "name": "",
          "type": "address[5]"
        }
      ],
      "stateMutability": "view",
      "type": "function"
    },
    {
      "inputs": [
        {
          "internalType": "address",
          "name": "",
          "type": "address"
        }
      ],
      "name": "identityLinks",
      "outputs": [
        {
          "internalType": "string",
          "name": "",
          "type": "string"
        }
      ],
      "stateMutability": "view",
      "type": "function"
    },
    {
      "inputs": [
        {
          "internalType": "uint256",
          "name": "",
          "type": "uint256"
        }
      ],
      "name": "identityProposalApplicant",
      "outputs": [
        {
          "internalType": "address",
          "name": "",
          "type": "address"
        }
      ],
      "stateMutability": "view",
      "type": "function"
    },
    {
      "inputs": [
        {
          "internalType": "uint256",
          "name": "",
          "type": "uint256"
        }
      ],
      "name": "identityProposalApprovalCount",
      "outputs": [
        {
          "internalType": "uint256",
          "name": "",
          "type": "uint256"
        }
      ],
      "stateMutability": "view",
      "type": "function"
    },
    {
      "inputs": [
        {
          "internalType": "uint256",
          "name": "",
          "type": "uint256"
        },
        {
          "internalType": "address",
          "name": "",
          "type": "address"
        }
      ],
      "name": "identityProposalApprovals",
      "outputs": [
        {
          "internalType": "bool",
          "name": "",
          "type": "bool"
        }
      ],
      "stateMutability": "view",
      "type": "function"
    },
    {
      "inputs": [],
      "name": "identityProposalCount",
      "outputs": [
        {
          "internalType": "uint256",
          "name": "",
          "type": "uint256"
        }
      ],
      "stateMutability": "view",
      "type": "function"
    },
    {
      "inputs": [
        {
          "internalType": "uint256",
          "name": "",
          "type": "uint256"
        }
      ],
      "name": "identityProposalExecuted",
      "outputs": [
        {
          "internalType": "bool",
          "name": "",
          "type": "bool"
        }
      ],
      "stateMutability": "view",
      "type": "function"
    },
    {
      "inputs": [
        {
          "internalType": "uint256",
          "name": "",
          "type": "uint256"
        }
      ],
      "name": "identityProposalLinks",
      "outputs": [
        {
          "internalType": "string",
          "name": "",
          "type": "string"
        }
      ],
      "stateMutability": "view",
      "type": "function"
    },
    {
      "inputs": [
        {
          "internalType": "address",
          "name": "vendor",
          "type": "address"
        }
      ],
      "name": "isVendorWhitelisted",
      "outputs": [
        {
          "internalType": "bool",
          "name": "",
          "type": "bool"
        }
      ],
      "stateMutability": "view",
      "type": "function"
    },
    {
      "inputs": [],
      "name": "owner",
      "outputs": [
        {
          "internalType": "address",
          "name": "",
          "type": "address"
        }
      ],
      "stateMutability": "view",
      "type": "function"
    },
    {
      "inputs": [
        {
          "internalType": "uint256",
          "name": "",
          "type": "uint256"
        }
      ],
      "name": "proposalApprovalCount",
      "outputs": [
        {
          "internalType": "uint256",
          "name": "",
          "type": "uint256"
        }
      ],
      "stateMutability": "view",
      "type": "function"
    },
    {
      "inputs": [
        {
          "internalType": "uint256",
          "name": "",
          "type": "uint256"
        },
        {
          "internalType": "address",
          "name": "",
          "type": "address"
        }
      ],
      "name": "proposalApprovals",
      "outputs": [
        {
          "internalType": "bool",
          "name": "",
          "type": "bool"
        }
      ],
      "stateMutability": "view",
      "type": "function"
    },
    {
      "inputs": [],
      "name": "proposalCount",
      "outputs": [
        {
          "internalType": "uint256",
          "name": "",
          "type": "uint256"
        }
      ],
      "stateMutability": "view",
      "type": "function"
    },
    {
      "inputs": [
        {
          "internalType": "uint256",
          "name": "",
          "type": "uint256"
        }
      ],
      "name": "proposalExecuted",
      "outputs": [
        {
          "internalType": "bool",
          "name": "",
          "type": "bool"
        }
      ],
      "stateMutability": "view",
      "type": "function"
    },
    {
      "inputs": [
        {
          "internalType": "uint256",
          "name": "",
          "type": "uint256"
        }
      ],
      "name": "proposalVendorAddress",
      "outputs": [
        {
          "internalType": "address",
          "name": "",
          "type": "address"
        }
      ],
      "stateMutability": "view",
      "type": "function"
    },
    {
      "inputs": [
        {
          "internalType": "uint256",
          "name": "",
          "type": "uint256"
        }
      ],
      "name": "proposalVendorName",
      "outputs": [
        {
          "internalType": "string",
          "name": "",
          "type": "string"
        }
      ],
      "stateMutability": "view",
      "type": "function"
    },
    {
      "inputs": [
        {
          "internalType": "address",
          "name": "vendor",
          "type": "address"
        },
        {
          "internalType": "string",
          "name": "vendorName",
          "type": "string"
        }
      ],
      "name": "proposeVendor",
      "outputs": [
        {
          "internalType": "uint256",
          "name": "proposalId",
          "type": "uint256"
        }
      ],
      "stateMutability": "nonpayable",
      "type": "function"
    },
    {
      "inputs": [],
      "name": "validatorCount",
      "outputs": [
        {
          "internalType": "uint256",
          "name": "",
          "type": "uint256"
        }
      ],
      "stateMutability": "view",
      "type": "function"
    },
    {
      "inputs": [
        {
          "internalType": "uint256",
          "name": "",
          "type": "uint256"
        }
      ],
      "name": "validators",
      "outputs": [
        {
          "internalType": "address",
          "name": "",
          "type": "address"
        }
      ],
      "stateMutability": "view",
      "type": "function"
    },
    {
      "inputs": [
        {
          "internalType": "address",
          "name": "",
          "type": "address"
        }
      ],
      "name": "vendorNames",
      "outputs": [
        {
          "internalType": "string",
          "name": "",
          "type": "string"
        }
      ],
      "stateMutability": "view",
      "type": "function"
    },
    {
      "inputs": [
        {
          "internalType": "uint256",
          "name": "campaignId",
          "type": "uint256"
        }
      ],
      "name": "vendorRefundToCampaign",
      "outputs": [],
      "stateMutability": "payable",
      "type": "function"
    },
    {
      "inputs": [
        {
          "internalType": "address",
          "name": "",
          "type": "address"
        }
      ],
      "name": "verifiedIdentities",
      "outputs": [
        {
          "internalType": "bool",
          "name": "",
          "type": "bool"
        }
      ],
      "stateMutability": "view",
      "type": "function"
    },
    {
      "inputs": [
        {
          "internalType": "address",
          "name": "",
          "type": "address"
        }
      ],
      "name": "whitelistedVendors",
      "outputs": [
        {
          "internalType": "bool",
          "name": "",
          "type": "bool"
        }
      ],
      "stateMutability": "view",
      "type": "function"
    },
    {
      "inputs": [
        {
          "internalType": "uint256",
          "name": "campaignId",
          "type": "uint256"
        },
        {
          "internalType": "address payable",
          "name": "vendor",
          "type": "address"
        },
        {
          "internalType": "uint256",
          "name": "amount",
          "type": "uint256"
        }
      ],
      "name": "withdrawToVendor",
      "outputs": [],
      "stateMutability": "nonpayable",
      "type": "function"
    }
  ],
  "bytecode": "0x608060405234801561000f575f5ffd5b5060405161560b38038061560b83398181016040528101906100319190610389565b600381511080610042575060058151115b15610079576040517f32b0828800000000000000000000000000000000000000000000000000000000815260040160405180910390fd5b335f5f6101000a81548173ffffffffffffffffffffffffffffffffffffffff021916908373ffffffffffffffffffffffffffffffffffffffff1602179055508051600f819055505f5f90505b81518110156101c7575f73ffffffffffffffffffffffffffffffffffffffff168282815181106100f8576100f76103d0565b5b602002602001015173ffffffffffffffffffffffffffffffffffffffff160361014d576040517f713ce51100000000000000000000000000000000000000000000000000000000815260040160405180910390fd5b8181815181106101605761015f6103d0565b5b6020026020010151600a826005811061017c5761017b6103d0565b5b015f6101000a81548173ffffffffffffffffffffffffffffffffffffffff021916908373ffffffffffffffffffffffffffffffffffffffff16021790555080806001019150506100c5565b50506103fd565b5f604051905090565b5f5ffd5b5f5ffd5b5f5ffd5b5f601f19601f8301169050919050565b7f4e487b71000000000000000000000000000000000000000000000000000000005f52604160045260245ffd5b610229826101e3565b810181811067ffffffffffffffff82111715610248576102476101f3565b5b80604052505050565b5f61025a6101ce565b90506102668282610220565b919050565b5f67ffffffffffffffff821115610285576102846101f3565b5b602082029050602081019050919050565b5f5ffd5b5f73ffffffffffffffffffffffffffffffffffffffff82169050919050565b5f6102c38261029a565b9050919050565b6102d3816102b9565b81146102dd575f5ffd5b50565b5f815190506102ee816102ca565b92915050565b5f6103066103018461026b565b610251565b9050808382526020820190506020840283018581111561032957610328610296565b5b835b81811015610352578061033e88826102e0565b84526020840193505060208101905061032b565b5050509392505050565b5f82601f8301126103705761036f6101df565b5b81516103808482602086016102f4565b91505092915050565b5f6020828403121561039e5761039d6101d7565b5b5f82015167ffffffffffffffff8111156103bb576103ba6101db565b5b6103c78482850161035c565b91505092915050565b7f4e487b71000000000000000000000000000000000000000000000000000000005f52603260045260245ffd5b6152018061040a5f395ff3fe608060405260043610610287575f3560e01c80636ce7178611610159578063b2bf6027116100c0578063da35c66411610079578063da35c66414610b3a578063ef3e72d614610b64578063f102a67c14610ba0578063f14faf6f14610bdc578063f243ce2314610bf8578063f53bba0914610c2257610287565b8063b2bf602714610a18578063b7ab4db514610a40578063c14eff9714610a6a578063c5f8b36214610aa6578063c8c4f95a14610ae2578063ccc0bde414610afe57610287565b806381b764fb1161011257806381b764fb146108d55780638da5cb5b1461091257806398024fc81461093c578063a53cf40914610978578063b0e1c1e1146109b4578063b25117ba146109dc57610287565b80636ce71786146107935780636e7bfc57146107bb5780637274e30d146107f75780637434261c1461082157806377db3bf91461085d578063806e65dc1461089957610287565b80633896927c116101fd5780634733c271116101b65780634733c2711461067357806352b23809146106af5780635598f8cc146106d7578063599c5533146107195780635b7baf641461074357806366bb74d21461076b57610287565b80633896927c146105055780633896a8af14610541578063393aaf9a1461057d5780633a0f38f7146105b9578063401853b7146105f557806340e8791a1461063457610287565b8063158f695c1161024f578063158f695c146103b15780631689da82146103d9578063209b7d5f146104155780632621ddf414610451578063283195c91461048d57806335aa2e44146104c957610287565b80630f1aff0a1461028b5780630f43a677146102ca578063103616e8146102f45780631060cb6114610330578063141961bc1461036f575b5f5ffd5b348015610296575f5ffd5b506102b160048036038101906102ac9190614436565b610c5e565b6040516102c19493929190614539565b60405180910390f35b3480156102d5575f5ffd5b506102de610da9565b6040516102eb9190614583565b60405180910390f35b3480156102ff575f5ffd5b5061031a60048036038101906103159190614436565b610daf565b604051610327919061459c565b60405180910390f35b34801561033b575f5ffd5b50610356600480360381019061035191906145df565b610dcc565b604051610366949392919061461d565b60405180910390f35b34801561037a575f5ffd5b5061039560048036038101906103909190614436565b610e95565b6040516103a89796959493929190614667565b60405180910390f35b3480156103bc575f5ffd5b506103d760048036038101906103d29190614436565b610f91565b005b3480156103e4575f5ffd5b506103ff60048036038101906103fa91906146db565b61146a565b60405161040c9190614706565b60405180910390f35b348015610420575f5ffd5b5061043b60048036038101906104369190614436565b611505565b60405161044891906147dd565b60405180910390f35b34801561045c575f5ffd5b5061047760048036038101906104729190614436565b6115de565b6040516104849190614583565b60405180910390f35b348015610498575f5ffd5b506104b360048036038101906104ae9190614929565b6115f3565b6040516104c09190614583565b60405180910390f35b3480156104d4575f5ffd5b506104ef60048036038101906104ea9190614436565b611887565b6040516104fc9190614983565b60405180910390f35b348015610510575f5ffd5b5061052b60048036038101906105269190614436565b6118bb565b6040516105389190614583565b60405180910390f35b34801561054c575f5ffd5b5061056760048036038101906105629190614436565b6118d0565b604051610574919061459c565b60405180910390f35b348015610588575f5ffd5b506105a3600480360381019061059e9190614436565b6118ed565b6040516105b091906147dd565b60405180910390f35b3480156105c4575f5ffd5b506105df60048036038101906105da9190614436565b6119c6565b6040516105ec9190614706565b60405180910390f35b348015610600575f5ffd5b5061061b60048036038101906106169190614436565b611a61565b60405161062b9493929190614539565b60405180910390f35b34801561063f575f5ffd5b5061065a600480360381019061065591906145df565b611bac565b60405161066a949392919061461d565b60405180910390f35b34801561067e575f5ffd5b50610699600480360381019061069491906145df565b611cf7565b6040516106a6919061459c565b60405180910390f35b3480156106ba575f5ffd5b506106d560048036038101906106d09190614436565b611d21565b005b3480156106e2575f5ffd5b506106fd60048036038101906106f89190614436565b611edc565b6040516107109796959493929190614667565b60405180910390f35b348015610724575f5ffd5b5061072d612032565b60405161073a9190614583565b60405180910390f35b34801561074e575f5ffd5b5061076960048036038101906107649190614436565b612037565b005b348015610776575f5ffd5b50610791600480360381019061078c919061499c565b6123ea565b005b34801561079e575f5ffd5b506107b960048036038101906107b49190614436565b612820565b005b3480156107c6575f5ffd5b506107e160048036038101906107dc91906146db565b612cf9565b6040516107ee919061459c565b60405180910390f35b348015610802575f5ffd5b5061080b612d4b565b6040516108189190614583565b60405180910390f35b34801561082c575f5ffd5b5061084760048036038101906108429190614436565b612d51565b6040516108549190614706565b60405180910390f35b348015610868575f5ffd5b50610883600480360381019061087e9190614a1c565b612dec565b6040516108909190614583565b60405180910390f35b3480156108a4575f5ffd5b506108bf60048036038101906108ba91906145df565b612fc9565b6040516108cc919061459c565b60405180910390f35b3480156108e0575f5ffd5b506108fb60048036038101906108f691906146db565b612ff3565b604051610909929190614a63565b60405180910390f35b34801561091d575f5ffd5b50610926613110565b6040516109339190614983565b60405180910390f35b348015610947575f5ffd5b50610962600480360381019061095d91906146db565b613134565b60405161096f919061459c565b60405180910390f35b348015610983575f5ffd5b5061099e600480360381019061099991906146db565b613151565b6040516109ab919061459c565b60405180910390f35b3480156109bf575f5ffd5b506109da60048036038101906109d59190614436565b61316e565b005b3480156109e7575f5ffd5b50610a0260048036038101906109fd9190614436565b6132a0565b604051610a0f9190614983565b60405180910390f35b348015610a23575f5ffd5b50610a3e6004803603810190610a399190614acc565b6132d0565b005b348015610a4b575f5ffd5b50610a54613848565b604051610a619190614b9b565b60405180910390f35b348015610a75575f5ffd5b50610a906004803603810190610a8b9190614436565b6138c8565b604051610a9d9190614583565b60405180910390f35b348015610ab1575f5ffd5b50610acc6004803603810190610ac79190614436565b613936565b604051610ad99190614983565b60405180910390f35b610afc6004803603810190610af79190614436565b613966565b005b348015610b09575f5ffd5b50610b246004803603810190610b1f91906145df565b613c06565b604051610b319190614583565b60405180910390f35b348015610b45575f5ffd5b50610b4e613c26565b604051610b5b9190614583565b60405180910390f35b348015610b6f575f5ffd5b50610b8a6004803603810190610b8591906146db565b613c2c565b604051610b979190614706565b60405180910390f35b348015610bab575f5ffd5b50610bc66004803603810190610bc19190614bb4565b613cc7565b604051610bd39190614583565b60405180910390f35b610bf66004803603810190610bf19190614436565b613ec7565b005b348015610c03575f5ffd5b50610c0c61421e565b604051610c199190614583565b60405180910390f35b348015610c2d575f5ffd5b50610c486004803603810190610c4391906145df565b614224565b604051610c559190614583565b60405180910390f35b5f60605f5f6016548510610c9e576040517fe8d659d800000000000000000000000000000000000000000000000000000000815260040160405180910390fd5b60175f8681526020019081526020015f205f9054906101000a900473ffffffffffffffffffffffffffffffffffffffff1660185f8781526020019081526020015f2060195f8881526020019081526020015f2054601a5f8981526020019081526020015f205f9054906101000a900460ff16828054610d1c90614c3b565b80601f0160208091040260200160405190810160405280929190818152602001828054610d4890614c3b565b8015610d935780601f10610d6a57610100808354040283529160200191610d93565b820191905f5260205f20905b815481529060010190602001808311610d7657829003601f168201915b5050505050925093509350935093509193509193565b600f5481565b6014602052805f5260405f205f915054906101000a900460ff1681565b6008602052815f5260405f20602052805f5260405f205f9150915050805f015490806001015490806002018054610e0290614c3b565b80601f0160208091040260200160405190810160405280929190818152602001828054610e2e90614c3b565b8015610e795780601f10610e5057610100808354040283529160200191610e79565b820191905f5260205f20905b815481529060010190602001808311610e5c57829003601f168201915b505050505090806003015f9054906101000a900460ff16905084565b6002602052805f5260405f205f91509050805f018054610eb490614c3b565b80601f0160208091040260200160405190810160405280929190818152602001828054610ee090614c3b565b8015610f2b5780601f10610f0257610100808354040283529160200191610f2b565b820191905f5260205f20905b815481529060010190602001808311610f0e57829003601f168201915b505050505090806001015f9054906101000a900473ffffffffffffffffffffffffffffffffffffffff1690806002015490806003015490806004015490806005015f9054906101000a900460ff16908060050160019054906101000a900460ff16905087565b5f5f90505f5f90505b600f54811015611021573373ffffffffffffffffffffffffffffffffffffffff16600a8260058110610fcf57610fce614c6b565b5b015f9054906101000a900473ffffffffffffffffffffffffffffffffffffffff1673ffffffffffffffffffffffffffffffffffffffff16036110145760019150611021565b8080600101915050610f9a565b5080611059576040517f2ec5b44900000000000000000000000000000000000000000000000000000000815260040160405180910390fd5b6016548210611094576040517fe8d659d800000000000000000000000000000000000000000000000000000000815260040160405180910390fd5b601a5f8381526020019081526020015f205f9054906101000a900460ff16156110e9576040517fda8556ff00000000000000000000000000000000000000000000000000000000815260040160405180910390fd5b601b5f8381526020019081526020015f205f3373ffffffffffffffffffffffffffffffffffffffff1673ffffffffffffffffffffffffffffffffffffffff1681526020019081526020015f205f9054906101000a900460ff1615611179576040517fcd42303e00000000000000000000000000000000000000000000000000000000815260040160405180910390fd5b6001601b5f8481526020019081526020015f205f3373ffffffffffffffffffffffffffffffffffffffff1673ffffffffffffffffffffffffffffffffffffffff1681526020019081526020015f205f6101000a81548160ff02191690831515021790555060195f8381526020019081526020015f205f8154809291906111fe90614cc5565b91905055503373ffffffffffffffffffffffffffffffffffffffff16827f2446ca06f5cf205b8398fc0b34fc86ba8d0587c20beda7bceede0a39b1e2a90d60195f8681526020019081526020015f205460405161125b9190614583565b60405180910390a3600360195f8481526020019081526020015f205410611466575f60175f8481526020019081526020015f205f9054906101000a900473ffffffffffffffffffffffffffffffffffffffff1690505f60185f8581526020019081526020015f2080546112cd90614c3b565b80601f01602080910402602001604051908101604052809291908181526020018280546112f990614c3b565b80156113445780601f1061131b57610100808354040283529160200191611344565b820191905f5260205f20905b81548152906001019060200180831161132757829003601f168201915b505050505090506001601c5f8473ffffffffffffffffffffffffffffffffffffffff1673ffffffffffffffffffffffffffffffffffffffff1681526020019081526020015f205f6101000a81548160ff02191690831515021790555080601d5f8473ffffffffffffffffffffffffffffffffffffffff1673ffffffffffffffffffffffffffffffffffffffff1681526020019081526020015f2090816113ea9190614eac565b506001601a5f8681526020019081526020015f205f6101000a81548160ff0219169083151502179055508173ffffffffffffffffffffffffffffffffffffffff16847fbc7b9390c7ca1023f818f4c48284f90b0e4a8057b1dd89729eabdffa7b410c888360405161145b9190614706565b60405180910390a350505b5050565b6007602052805f5260405f205f91509050805461148690614c3b565b80601f01602080910402602001604051908101604052809291908181526020018280546114b290614c3b565b80156114fd5780601f106114d4576101008083540402835291602001916114fd565b820191905f5260205f20905b8154815290600101906020018083116114e057829003601f168201915b505050505081565b6060816001548110611543576040517f9b35ed3b00000000000000000000000000000000000000000000000000000000815260040160405180910390fd5b60045f8481526020019081526020015f208054806020026020016040519081016040528092919081815260200182805480156115d157602002820191905f5260205f20905b815f9054906101000a900473ffffffffffffffffffffffffffffffffffffffff1673ffffffffffffffffffffffffffffffffffffffff1681526020019060010190808311611588575b5050505050915050919050565b6019602052805f5260405f205f915090505481565b5f5f73ffffffffffffffffffffffffffffffffffffffff168373ffffffffffffffffffffffffffffffffffffffff1603611659576040517f764be74800000000000000000000000000000000000000000000000000000000815260040160405180910390fd5b5f825103611693576040517f7ab8b59400000000000000000000000000000000000000000000000000000000815260040160405180910390fd5b60065f8473ffffffffffffffffffffffffffffffffffffffff1673ffffffffffffffffffffffffffffffffffffffff1681526020019081526020015f205f9054906101000a900460ff1615611714576040517f11fe1dc200000000000000000000000000000000000000000000000000000000815260040160405180910390fd5b61171d82614334565b611753576040517fac1eded500000000000000000000000000000000000000000000000000000000815260040160405180910390fd5b60105490508260115f8381526020019081526020015f205f6101000a81548173ffffffffffffffffffffffffffffffffffffffff021916908373ffffffffffffffffffffffffffffffffffffffff1602179055508160125f8381526020019081526020015f2090816117c59190614eac565b505f60135f8381526020019081526020015f20819055505f60145f8381526020019081526020015f205f6101000a81548160ff02191690831515021790555060105f81548092919061181690614cc5565b91905055503373ffffffffffffffffffffffffffffffffffffffff168373ffffffffffffffffffffffffffffffffffffffff16827f283919160e4663db5f89b51932d29899258afa8f45472dce627901b0d81a3129856040516118799190614706565b60405180910390a492915050565b600a8160058110611896575f80fd5b015f915054906101000a900473ffffffffffffffffffffffffffffffffffffffff1681565b6013602052805f5260405f205f915090505481565b601a602052805f5260405f205f915054906101000a900460ff1681565b606081600154811061192b576040517f9b35ed3b00000000000000000000000000000000000000000000000000000000815260040160405180910390fd5b60095f8481526020019081526020015f208054806020026020016040519081016040528092919081815260200182805480156119b957602002820191905f5260205f20905b815f9054906101000a900473ffffffffffffffffffffffffffffffffffffffff1673ffffffffffffffffffffffffffffffffffffffff1681526020019060010190808311611970575b5050505050915050919050565b6012602052805f5260405f205f9150905080546119e290614c3b565b80601f0160208091040260200160405190810160405280929190818152602001828054611a0e90614c3b565b8015611a595780601f10611a3057610100808354040283529160200191611a59565b820191905f5260205f20905b815481529060010190602001808311611a3c57829003601f168201915b505050505081565b5f60605f5f6010548510611aa1576040517fd9c78e0200000000000000000000000000000000000000000000000000000000815260040160405180910390fd5b60115f8681526020019081526020015f205f9054906101000a900473ffffffffffffffffffffffffffffffffffffffff1660125f8781526020019081526020015f2060135f8881526020019081526020015f205460145f8981526020019081526020015f205f9054906101000a900460ff16828054611b1f90614c3b565b80601f0160208091040260200160405190810160405280929190818152602001828054611b4b90614c3b565b8015611b965780601f10611b6d57610100808354040283529160200191611b96565b820191905f5260205f20905b815481529060010190602001808311611b7957829003601f168201915b5050505050925093509350935093509193509193565b5f5f60605f856001548110611bed576040517f9b35ed3b00000000000000000000000000000000000000000000000000000000815260040160405180910390fd5b5f60085f8981526020019081526020015f205f8873ffffffffffffffffffffffffffffffffffffffff1673ffffffffffffffffffffffffffffffffffffffff1681526020019081526020015f209050805f0154816001015482600201836003015f9054906101000a900460ff16818054611c6690614c3b565b80601f0160208091040260200160405190810160405280929190818152602001828054611c9290614c3b565b8015611cdd5780601f10611cb457610100808354040283529160200191611cdd565b820191905f5260205f20905b815481529060010190602001808311611cc057829003601f168201915b505050505091509550955095509550505092959194509250565b6015602052815f5260405f20602052805f5260405f205f915091509054906101000a900460ff1681565b806001548110611d5d576040517f9b35ed3b00000000000000000000000000000000000000000000000000000000815260040160405180910390fd5b813373ffffffffffffffffffffffffffffffffffffffff1660025f8381526020019081526020015f206001015f9054906101000a900473ffffffffffffffffffffffffffffffffffffffff1673ffffffffffffffffffffffffffffffffffffffff1614611df6576040517f7d762ee400000000000000000000000000000000000000000000000000000000815260040160405180910390fd5b5f60025f8581526020019081526020015f2090508060050160019054906101000a900460ff1615611e53576040517ff5e6fbc600000000000000000000000000000000000000000000000000000000815260040160405180910390fd5b5f816005015f6101000a81548160ff02191690831515021790555060018160050160016101000a81548160ff021916908315150217905550837f9d89339efaabc79993cee28742c00a934cf47c83f7f84ded158cf05eb204a4ba82600401548360030154611ec19190614f7b565b604051611ece9190614583565b60405180910390a250505050565b60605f5f5f5f5f5f876001548110611f20576040517f9b35ed3b00000000000000000000000000000000000000000000000000000000815260040160405180910390fd5b5f60025f8b81526020019081526020015f209050805f01816001015f9054906101000a900473ffffffffffffffffffffffffffffffffffffffff16826002015483600301548460040154856005015f9054906101000a900460ff168660050160019054906101000a900460ff16868054611f9990614c3b565b80601f0160208091040260200160405190810160405280929190818152602001828054611fc590614c3b565b80156120105780601f10611fe757610100808354040283529160200191612010565b820191905f5260205f20905b815481529060010190602001808311611ff357829003601f168201915b5050505050965098509850985098509850985098505050919395979092949650565b600381565b806001548110612073576040517f9b35ed3b00000000000000000000000000000000000000000000000000000000815260040160405180910390fd5b5f60149054906101000a900460ff16156120b9576040517f37ed32e800000000000000000000000000000000000000000000000000000000815260040160405180910390fd5b60015f60146101000a81548160ff0219169083151502179055505f60025f8481526020019081526020015f2090508060050160019054906101000a900460ff1661212f576040517f64547e6900000000000000000000000000000000000000000000000000000000815260040160405180910390fd5b5f60035f8581526020019081526020015f205f3373ffffffffffffffffffffffffffffffffffffffff1673ffffffffffffffffffffffffffffffffffffffff1681526020019081526020015f205490505f81036121b8576040517fe541d76e00000000000000000000000000000000000000000000000000000000815260040160405180910390fd5b5f826004015483600301546121cd9190614f7b565b90505f836003015482846121e19190614fae565b6121eb919061501c565b90505f8103612226576040517f97114f0f00000000000000000000000000000000000000000000000000000000815260040160405180910390fd5b5f60035f8881526020019081526020015f205f3373ffffffffffffffffffffffffffffffffffffffff1673ffffffffffffffffffffffffffffffffffffffff1681526020019081526020015f20819055505f60055f8881526020019081526020015f205f3373ffffffffffffffffffffffffffffffffffffffff1673ffffffffffffffffffffffffffffffffffffffff1681526020019081526020015f205f6101000a81548160ff0219169083151502179055505f3373ffffffffffffffffffffffffffffffffffffffff16826040516122ff90615079565b5f6040518083038185875af1925050503d805f8114612339576040519150601f19603f3d011682016040523d82523d5f602084013e61233e565b606091505b5050905080612379576040517fcbe4e8c300000000000000000000000000000000000000000000000000000000815260040160405180910390fd5b3373ffffffffffffffffffffffffffffffffffffffff16877ff3f402280ef0a7905e124aa621b65eaeb2725c343e8b36d398ed78c29daf285c846040516123c09190614583565b60405180910390a350505050505f5f60146101000a81548160ff0219169083151502179055505050565b836001548110612426576040517f9b35ed3b00000000000000000000000000000000000000000000000000000000815260040160405180910390fd5b8460025f8281526020019081526020015f206005015f9054906101000a900460ff1661247e576040517f433528b600000000000000000000000000000000000000000000000000000000815260040160405180910390fd5b853373ffffffffffffffffffffffffffffffffffffffff1660025f8381526020019081526020015f206001015f9054906101000a900473ffffffffffffffffffffffffffffffffffffffff1673ffffffffffffffffffffffffffffffffffffffff1614612517576040517f7d762ee400000000000000000000000000000000000000000000000000000000815260040160405180910390fd5b60065f8773ffffffffffffffffffffffffffffffffffffffff1673ffffffffffffffffffffffffffffffffffffffff1681526020019081526020015f205f9054906101000a900460ff16612597576040517f655a380300000000000000000000000000000000000000000000000000000000815260040160405180910390fd5b60085f8881526020019081526020015f205f8773ffffffffffffffffffffffffffffffffffffffff1673ffffffffffffffffffffffffffffffffffffffff1681526020019081526020015f206003015f9054906101000a900460ff161561262a576040517fc756f1c900000000000000000000000000000000000000000000000000000000815260040160405180910390fd5b5f8503612663576040517f4edc228c00000000000000000000000000000000000000000000000000000000815260040160405180910390fd5b5f84510361269d576040517f91ea039700000000000000000000000000000000000000000000000000000000815260040160405180910390fd5b60405180608001604052808681526020015f81526020018581526020016001151581525060085f8981526020019081526020015f205f8873ffffffffffffffffffffffffffffffffffffffff1673ffffffffffffffffffffffffffffffffffffffff1681526020019081526020015f205f820151815f01556020820151816001015560408201518160020190816127349190614eac565b506060820151816003015f6101000a81548160ff02191690831515021790555090505060095f8881526020019081526020015f2086908060018154018082558091505060019003905f5260205f20015f9091909190916101000a81548173ffffffffffffffffffffffffffffffffffffffff021916908373ffffffffffffffffffffffffffffffffffffffff1602179055508573ffffffffffffffffffffffffffffffffffffffff16877fd7fd7b50460a5d11bb1dabdbb3fb5e184ebba96f5e1ca25597f43301c09effce878760405161280f92919061508d565b60405180910390a350505050505050565b5f5f90505f5f90505b600f548110156128b0573373ffffffffffffffffffffffffffffffffffffffff16600a826005811061285e5761285d614c6b565b5b015f9054906101000a900473ffffffffffffffffffffffffffffffffffffffff1673ffffffffffffffffffffffffffffffffffffffff16036128a357600191506128b0565b8080600101915050612829565b50806128e8576040517f2ec5b44900000000000000000000000000000000000000000000000000000000815260040160405180910390fd5b6010548210612923576040517fd9c78e0200000000000000000000000000000000000000000000000000000000815260040160405180910390fd5b60145f8381526020019081526020015f205f9054906101000a900460ff1615612978576040517f51618d5300000000000000000000000000000000000000000000000000000000815260040160405180910390fd5b60155f8381526020019081526020015f205f3373ffffffffffffffffffffffffffffffffffffffff1673ffffffffffffffffffffffffffffffffffffffff1681526020019081526020015f205f9054906101000a900460ff1615612a08576040517fffafa3af00000000000000000000000000000000000000000000000000000000815260040160405180910390fd5b600160155f8481526020019081526020015f205f3373ffffffffffffffffffffffffffffffffffffffff1673ffffffffffffffffffffffffffffffffffffffff1681526020019081526020015f205f6101000a81548160ff02191690831515021790555060135f8381526020019081526020015f205f815480929190612a8d90614cc5565b91905055503373ffffffffffffffffffffffffffffffffffffffff16827f67aa4bd29fe554ec4fe772990f621e4fff951c79197005dd4f3a008c0130a89e60135f8681526020019081526020015f2054604051612aea9190614583565b60405180910390a3600360135f8481526020019081526020015f205410612cf5575f60115f8481526020019081526020015f205f9054906101000a900473ffffffffffffffffffffffffffffffffffffffff1690505f60125f8581526020019081526020015f208054612b5c90614c3b565b80601f0160208091040260200160405190810160405280929190818152602001828054612b8890614c3b565b8015612bd35780601f10612baa57610100808354040283529160200191612bd3565b820191905f5260205f20905b815481529060010190602001808311612bb657829003601f168201915b50505050509050600160065f8473ffffffffffffffffffffffffffffffffffffffff1673ffffffffffffffffffffffffffffffffffffffff1681526020019081526020015f205f6101000a81548160ff0219169083151502179055508060075f8473ffffffffffffffffffffffffffffffffffffffff1673ffffffffffffffffffffffffffffffffffffffff1681526020019081526020015f209081612c799190614eac565b50600160145f8681526020019081526020015f205f6101000a81548160ff0219169083151502179055508173ffffffffffffffffffffffffffffffffffffffff16847f5e10a2cd0896305954e023d35ecefc2116cfe2fa9e898222c92a5a4b5a2510b283604051612cea9190614706565b60405180910390a350505b5050565b5f60065f8373ffffffffffffffffffffffffffffffffffffffff1673ffffffffffffffffffffffffffffffffffffffff1681526020019081526020015f205f9054906101000a900460ff169050919050565b60015481565b6018602052805f5260405f205f915090508054612d6d90614c3b565b80601f0160208091040260200160405190810160405280929190818152602001828054612d9990614c3b565b8015612de45780601f10612dbb57610100808354040283529160200191612de4565b820191905f5260205f20905b815481529060010190602001808311612dc757829003601f168201915b505050505081565b5f612df682614334565b612e2c576040517fcab03e0d00000000000000000000000000000000000000000000000000000000815260040160405180910390fd5b601c5f3373ffffffffffffffffffffffffffffffffffffffff1673ffffffffffffffffffffffffffffffffffffffff1681526020019081526020015f205f9054906101000a900460ff1615612ead576040517ffbbbb58900000000000000000000000000000000000000000000000000000000815260040160405180910390fd5b60165490503360175f8381526020019081526020015f205f6101000a81548173ffffffffffffffffffffffffffffffffffffffff021916908373ffffffffffffffffffffffffffffffffffffffff1602179055508160185f8381526020019081526020015f209081612f1f9190614eac565b505f60195f8381526020019081526020015f20819055505f601a5f8381526020019081526020015f205f6101000a81548160ff02191690831515021790555060165f815480929190612f7090614cc5565b91905055503373ffffffffffffffffffffffffffffffffffffffff16817f520f95e8f98aed51c9a03468be080f3d4af2199fa84ca0d0aac846eee684d2e284604051612fbc9190614706565b60405180910390a3919050565b601b602052815f5260405f20602052805f5260405f205f915091509054906101000a900460ff1681565b5f6060601c5f8473ffffffffffffffffffffffffffffffffffffffff1673ffffffffffffffffffffffffffffffffffffffff1681526020019081526020015f205f9054906101000a900460ff16601d5f8573ffffffffffffffffffffffffffffffffffffffff1673ffffffffffffffffffffffffffffffffffffffff1681526020019081526020015f2080805461308990614c3b565b80601f01602080910402602001604051908101604052809291908181526020018280546130b590614c3b565b80156131005780601f106130d757610100808354040283529160200191613100565b820191905f5260205f20905b8154815290600101906020018083116130e357829003601f168201915b5050505050905091509150915091565b5f5f9054906101000a900473ffffffffffffffffffffffffffffffffffffffff1681565b6006602052805f5260405f205f915054906101000a900460ff1681565b601c602052805f5260405f205f915054906101000a900460ff1681565b8060015481106131aa576040517f9b35ed3b00000000000000000000000000000000000000000000000000000000815260040160405180910390fd5b813373ffffffffffffffffffffffffffffffffffffffff1660025f8381526020019081526020015f206001015f9054906101000a900473ffffffffffffffffffffffffffffffffffffffff1673ffffffffffffffffffffffffffffffffffffffff1614613243576040517f7d762ee400000000000000000000000000000000000000000000000000000000815260040160405180910390fd5b5f60025f8581526020019081526020015f206005015f6101000a81548160ff021916908315150217905550827f5e6eb33a418de5dbbc17f989f7ae362cdfbb1748c5d603137c767027a354edbc60405160405180910390a2505050565b6011602052805f5260405f205f915054906101000a900473ffffffffffffffffffffffffffffffffffffffff1681565b82600154811061330c576040517f9b35ed3b00000000000000000000000000000000000000000000000000000000815260040160405180910390fd5b8360025f8281526020019081526020015f206005015f9054906101000a900460ff16613364576040517f433528b600000000000000000000000000000000000000000000000000000000815260040160405180910390fd5b843373ffffffffffffffffffffffffffffffffffffffff1660025f8381526020019081526020015f206001015f9054906101000a900473ffffffffffffffffffffffffffffffffffffffff1673ffffffffffffffffffffffffffffffffffffffff16146133fd576040517f7d762ee400000000000000000000000000000000000000000000000000000000815260040160405180910390fd5b5f60149054906101000a900460ff1615613443576040517f37ed32e800000000000000000000000000000000000000000000000000000000815260040160405180910390fd5b60015f60146101000a81548160ff02191690831515021790555060065f8673ffffffffffffffffffffffffffffffffffffffff1673ffffffffffffffffffffffffffffffffffffffff1681526020019081526020015f205f9054906101000a900460ff166134dd576040517f88a76f3d00000000000000000000000000000000000000000000000000000000815260040160405180910390fd5b60085f8781526020019081526020015f205f8673ffffffffffffffffffffffffffffffffffffffff1673ffffffffffffffffffffffffffffffffffffffff1681526020019081526020015f206003015f9054906101000a900460ff1661356f576040517f0ba82be300000000000000000000000000000000000000000000000000000000815260040160405180910390fd5b5f84036135a8576040517f5e85ae7300000000000000000000000000000000000000000000000000000000815260040160405180910390fd5b5f60085f8881526020019081526020015f205f8773ffffffffffffffffffffffffffffffffffffffff1673ffffffffffffffffffffffffffffffffffffffff1681526020019081526020015f209050805f015485826001015461360b91906150bb565b1115613643576040517f06ddbf2200000000000000000000000000000000000000000000000000000000815260040160405180910390fd5b5f60025f8981526020019081526020015f206004015460025f8a81526020019081526020015f20600301546136789190614f7b565b9050808611156136b4576040517f69ffdadc00000000000000000000000000000000000000000000000000000000815260040160405180910390fd5b85826001015f8282546136c791906150bb565b925050819055508560025f8a81526020019081526020015f206004015f8282546136f191906150bb565b925050819055505f8773ffffffffffffffffffffffffffffffffffffffff168760405161371d90615079565b5f6040518083038185875af1925050503d805f8114613757576040519150601f19603f3d011682016040523d82523d5f602084013e61375c565b606091505b5050905080613797576040517ff5e9448800000000000000000000000000000000000000000000000000000000815260040160405180910390fd5b8773ffffffffffffffffffffffffffffffffffffffff16897f732cd91831afb5863a4f2409954bd8d5d26e45a12a6d70f603ded109ddc274b560075f8c73ffffffffffffffffffffffffffffffffffffffff1673ffffffffffffffffffffffffffffffffffffffff1681526020019081526020015f208a60405161381c92919061516f565b60405180910390a35050505f5f60146101000a81548160ff021916908315150217905550505050505050565b6138506143d0565b600a6005806020026040519081016040528092919082600580156138be576020028201915b815f9054906101000a900473ffffffffffffffffffffffffffffffffffffffff1673ffffffffffffffffffffffffffffffffffffffff1681526020019060010190808311613875575b5050505050905090565b5f816001548110613905576040517f9b35ed3b00000000000000000000000000000000000000000000000000000000815260040160405180910390fd5b5f60025f8581526020019081526020015f2090508060040154816003015461392d9190614f7b565b92505050919050565b6017602052805f5260405f205f915054906101000a900473ffffffffffffffffffffffffffffffffffffffff1681565b8060015481106139a2576040517f9b35ed3b00000000000000000000000000000000000000000000000000000000815260040160405180910390fd5b5f60149054906101000a900460ff16156139e8576040517f37ed32e800000000000000000000000000000000000000000000000000000000815260040160405180910390fd5b60015f60146101000a81548160ff0219169083151502179055505f3403613a3b576040517fd7f2cb6200000000000000000000000000000000000000000000000000000000815260040160405180910390fd5b60085f8381526020019081526020015f205f3373ffffffffffffffffffffffffffffffffffffffff1673ffffffffffffffffffffffffffffffffffffffff1681526020019081526020015f206003015f9054906101000a900460ff16613acd576040517f66eec34500000000000000000000000000000000000000000000000000000000815260040160405180910390fd5b5f60085f8481526020019081526020015f205f3373ffffffffffffffffffffffffffffffffffffffff1673ffffffffffffffffffffffffffffffffffffffff1681526020019081526020015f20905080600101543411613b465734816001015f828254613b3a9190614f7b565b92505081905550613b50565b5f81600101819055505b5f60025f8581526020019081526020015f20905080600401543411613b8e5734816004015f828254613b829190614f7b565b92505081905550613b98565b5f81600401819055505b3373ffffffffffffffffffffffffffffffffffffffff16847f51582bfd68edc3621bee64ac54a2b5e7c043a8555da24fda4f0abe2e65e83d2f34604051613bdf9190614583565b60405180910390a350505f5f60146101000a81548160ff0219169083151502179055505050565b6003602052815f5260405f20602052805f5260405f205f91509150505481565b60105481565b601d602052805f5260405f205f915090508054613c4890614c3b565b80601f0160208091040260200160405190810160405280929190818152602001828054613c7490614c3b565b8015613cbf5780601f10613c9657610100808354040283529160200191613cbf565b820191905f5260205f20905b815481529060010190602001808311613ca257829003601f168201915b505050505081565b5f5f835103613d02576040517fcf48253200000000000000000000000000000000000000000000000000000000815260040160405180910390fd5b5f8203613d3b576040517fbf2cfade00000000000000000000000000000000000000000000000000000000815260040160405180910390fd5b60015490506040518060e001604052808481526020013373ffffffffffffffffffffffffffffffffffffffff1681526020018381526020015f81526020015f81526020016001151581526020015f151581525060025f8381526020019081526020015f205f820151815f019081613db29190614eac565b506020820151816001015f6101000a81548173ffffffffffffffffffffffffffffffffffffffff021916908373ffffffffffffffffffffffffffffffffffffffff16021790555060408201518160020155606082015181600301556080820151816004015560a0820151816005015f6101000a81548160ff02191690831515021790555060c08201518160050160016101000a81548160ff02191690831515021790555090505060015f815480929190613e6b90614cc5565b91905055503373ffffffffffffffffffffffffffffffffffffffff16817f85d038f2d0b3728e5fede2ce367934666edeabb735999e2be302dc035466b98b8585604051613eb992919061519d565b60405180910390a392915050565b806001548110613f03576040517f9b35ed3b00000000000000000000000000000000000000000000000000000000815260040160405180910390fd5b8160025f8281526020019081526020015f206005015f9054906101000a900460ff16613f5b576040517f433528b600000000000000000000000000000000000000000000000000000000815260040160405180910390fd5b5f60149054906101000a900460ff1615613fa1576040517f37ed32e800000000000000000000000000000000000000000000000000000000815260040160405180910390fd5b60015f60146101000a81548160ff0219169083151502179055505f3403613ff4576040517f4368db7400000000000000000000000000000000000000000000000000000000815260040160405180910390fd5b60055f8481526020019081526020015f205f3373ffffffffffffffffffffffffffffffffffffffff1673ffffffffffffffffffffffffffffffffffffffff1681526020019081526020015f205f9054906101000a900460ff1661412557600160055f8581526020019081526020015f205f3373ffffffffffffffffffffffffffffffffffffffff1673ffffffffffffffffffffffffffffffffffffffff1681526020019081526020015f205f6101000a81548160ff02191690831515021790555060045f8481526020019081526020015f2033908060018154018082558091505060019003905f5260205f20015f9091909190916101000a81548173ffffffffffffffffffffffffffffffffffffffff021916908373ffffffffffffffffffffffffffffffffffffffff1602179055505b3460035f8581526020019081526020015f205f3373ffffffffffffffffffffffffffffffffffffffff1673ffffffffffffffffffffffffffffffffffffffff1681526020019081526020015f205f82825461418091906150bb565b925050819055503460025f8581526020019081526020015f206003015f8282546141aa91906150bb565b925050819055503373ffffffffffffffffffffffffffffffffffffffff16837f0b5b4c52969ff7329ecf7ee536409fda87812b15a8622bc6e8cdeab3aee14a26346040516141f89190614583565b60405180910390a35f5f60146101000a81548160ff021916908315150217905550505050565b60165481565b5f826001548110614261576040517f9b35ed3b00000000000000000000000000000000000000000000000000000000815260040160405180910390fd5b5f60025f8681526020019081526020015f2090508060050160019054906101000a900460ff16614294575f92505061432d565b5f60035f8781526020019081526020015f205f8673ffffffffffffffffffffffffffffffffffffffff1673ffffffffffffffffffffffffffffffffffffffff1681526020019081526020015f205490505f81036142f5575f9350505061432d565b5f8260040154836003015461430a9190614f7b565b90508260030154818361431d9190614fae565b614327919061501c565b94505050505b5092915050565b5f5f8290505f5f90505b81518110156143c5577f7c0000000000000000000000000000000000000000000000000000000000000082828151811061437b5761437a614c6b565b5b602001015160f81c60f81b7effffffffffffffffffffffffffffffffffffffffffffffffffffffffffffff1916036143b8576001925050506143cb565b808060010191505061433e565b505f9150505b919050565b6040518060a00160405280600590602082028036833780820191505090505090565b5f604051905090565b5f5ffd5b5f5ffd5b5f819050919050565b61441581614403565b811461441f575f5ffd5b50565b5f813590506144308161440c565b92915050565b5f6020828403121561444b5761444a6143fb565b5b5f61445884828501614422565b91505092915050565b5f73ffffffffffffffffffffffffffffffffffffffff82169050919050565b5f61448a82614461565b9050919050565b61449a81614480565b82525050565b5f81519050919050565b5f82825260208201905092915050565b8281835e5f83830152505050565b5f601f19601f8301169050919050565b5f6144e2826144a0565b6144ec81856144aa565b93506144fc8185602086016144ba565b614505816144c8565b840191505092915050565b61451981614403565b82525050565b5f8115159050919050565b6145338161451f565b82525050565b5f60808201905061454c5f830187614491565b818103602083015261455e81866144d8565b905061456d6040830185614510565b61457a606083018461452a565b95945050505050565b5f6020820190506145965f830184614510565b92915050565b5f6020820190506145af5f83018461452a565b92915050565b6145be81614480565b81146145c8575f5ffd5b50565b5f813590506145d9816145b5565b92915050565b5f5f604083850312156145f5576145f46143fb565b5b5f61460285828601614422565b9250506020614613858286016145cb565b9150509250929050565b5f6080820190506146305f830187614510565b61463d6020830186614510565b818103604083015261464f81856144d8565b905061465e606083018461452a565b95945050505050565b5f60e0820190508181035f83015261467f818a6144d8565b905061468e6020830189614491565b61469b6040830188614510565b6146a86060830187614510565b6146b56080830186614510565b6146c260a083018561452a565b6146cf60c083018461452a565b98975050505050505050565b5f602082840312156146f0576146ef6143fb565b5b5f6146fd848285016145cb565b91505092915050565b5f6020820190508181035f83015261471e81846144d8565b905092915050565b5f81519050919050565b5f82825260208201905092915050565b5f819050602082019050919050565b61475881614480565b82525050565b5f614769838361474f565b60208301905092915050565b5f602082019050919050565b5f61478b82614726565b6147958185614730565b93506147a083614740565b805f5b838110156147d05781516147b7888261475e565b97506147c283614775565b9250506001810190506147a3565b5085935050505092915050565b5f6020820190508181035f8301526147f58184614781565b905092915050565b5f5ffd5b5f5ffd5b7f4e487b71000000000000000000000000000000000000000000000000000000005f52604160045260245ffd5b61483b826144c8565b810181811067ffffffffffffffff8211171561485a57614859614805565b5b80604052505050565b5f61486c6143f2565b90506148788282614832565b919050565b5f67ffffffffffffffff82111561489757614896614805565b5b6148a0826144c8565b9050602081019050919050565b828183375f83830152505050565b5f6148cd6148c88461487d565b614863565b9050828152602081018484840111156148e9576148e8614801565b5b6148f48482856148ad565b509392505050565b5f82601f8301126149105761490f6147fd565b5b81356149208482602086016148bb565b91505092915050565b5f5f6040838503121561493f5761493e6143fb565b5b5f61494c858286016145cb565b925050602083013567ffffffffffffffff81111561496d5761496c6143ff565b5b614979858286016148fc565b9150509250929050565b5f6020820190506149965f830184614491565b92915050565b5f5f5f5f608085870312156149b4576149b36143fb565b5b5f6149c187828801614422565b94505060206149d2878288016145cb565b93505060406149e387828801614422565b925050606085013567ffffffffffffffff811115614a0457614a036143ff565b5b614a10878288016148fc565b91505092959194509250565b5f60208284031215614a3157614a306143fb565b5b5f82013567ffffffffffffffff811115614a4e57614a4d6143ff565b5b614a5a848285016148fc565b91505092915050565b5f604082019050614a765f83018561452a565b8181036020830152614a8881846144d8565b90509392505050565b5f614a9b82614461565b9050919050565b614aab81614a91565b8114614ab5575f5ffd5b50565b5f81359050614ac681614aa2565b92915050565b5f5f5f60608486031215614ae357614ae26143fb565b5b5f614af086828701614422565b9350506020614b0186828701614ab8565b9250506040614b1286828701614422565b9150509250925092565b5f60059050919050565b5f81905092915050565b5f819050919050565b5f602082019050919050565b614b4e81614b1c565b614b588184614b26565b9250614b6382614b30565b805f5b83811015614b93578151614b7a878261475e565b9650614b8583614b39565b925050600181019050614b66565b505050505050565b5f60a082019050614bae5f830184614b45565b92915050565b5f5f60408385031215614bca57614bc96143fb565b5b5f83013567ffffffffffffffff811115614be757614be66143ff565b5b614bf3858286016148fc565b9250506020614c0485828601614422565b9150509250929050565b7f4e487b71000000000000000000000000000000000000000000000000000000005f52602260045260245ffd5b5f6002820490506001821680614c5257607f821691505b602082108103614c6557614c64614c0e565b5b50919050565b7f4e487b71000000000000000000000000000000000000000000000000000000005f52603260045260245ffd5b7f4e487b71000000000000000000000000000000000000000000000000000000005f52601160045260245ffd5b5f614ccf82614403565b91507fffffffffffffffffffffffffffffffffffffffffffffffffffffffffffffffff8203614d0157614d00614c98565b5b600182019050919050565b5f819050815f5260205f209050919050565b5f6020601f8301049050919050565b5f82821b905092915050565b5f60088302614d687fffffffffffffffffffffffffffffffffffffffffffffffffffffffffffffffff82614d2d565b614d728683614d2d565b95508019841693508086168417925050509392505050565b5f819050919050565b5f614dad614da8614da384614403565b614d8a565b614403565b9050919050565b5f819050919050565b614dc683614d93565b614dda614dd282614db4565b848454614d39565b825550505050565b5f5f905090565b614df1614de2565b614dfc818484614dbd565b505050565b5b81811015614e1f57614e145f82614de9565b600181019050614e02565b5050565b601f821115614e6457614e3581614d0c565b614e3e84614d1e565b81016020851015614e4d578190505b614e61614e5985614d1e565b830182614e01565b50505b505050565b5f82821c905092915050565b5f614e845f1984600802614e69565b1980831691505092915050565b5f614e9c8383614e75565b9150826002028217905092915050565b614eb5826144a0565b67ffffffffffffffff811115614ece57614ecd614805565b5b614ed88254614c3b565b614ee3828285614e23565b5f60209050601f831160018114614f14575f8415614f02578287015190505b614f0c8582614e91565b865550614f73565b601f198416614f2286614d0c565b5f5b82811015614f4957848901518255600182019150602085019450602081019050614f24565b86831015614f665784890151614f62601f891682614e75565b8355505b6001600288020188555050505b505050505050565b5f614f8582614403565b9150614f9083614403565b9250828203905081811115614fa857614fa7614c98565b5b92915050565b5f614fb882614403565b9150614fc383614403565b9250828202614fd181614403565b91508282048414831517614fe857614fe7614c98565b5b5092915050565b7f4e487b71000000000000000000000000000000000000000000000000000000005f52601260045260245ffd5b5f61502682614403565b915061503183614403565b92508261504157615040614fef565b5b828204905092915050565b5f81905092915050565b50565b5f6150645f8361504c565b915061506f82615056565b5f82019050919050565b5f61508382615059565b9150819050919050565b5f6040820190506150a05f830185614510565b81810360208301526150b281846144d8565b90509392505050565b5f6150c582614403565b91506150d083614403565b92508282019050808211156150e8576150e7614c98565b5b92915050565b5f81546150fa81614c3b565b61510481866144aa565b9450600182165f811461511e576001811461513457615166565b60ff198316865281151560200286019350615166565b61513d85614d0c565b5f5b8381101561515e5781548189015260018201915060208101905061513f565b808801955050505b50505092915050565b5f6040820190508181035f83015261518781856150ee565b90506151966020830184614510565b9392505050565b5f6040820190508181035f8301526151b581856144d8565b90506151c46020830184614510565b939250505056fea26469706673582212205f7c7fcbd63eedca5ac3bc07925671a743cab7391c19054c820ca96a29dda13064736f6c634300081c0033",
  "linkReferences": {},
  "deployedLinkReferences": {},
  "immutableReferences": {},
  "inputSourceName": "project/contracts/ClarityChain.sol",
  "buildInfoId": "solc-0_8_28-d50b1bb0de301568a8e1f22f6cd06291fbc51e0e"
}