{
  "_format": "hh3-artifact-1",
  "contractName": "ClarityChain",
  "sourceName": "contracts/ClarityChain.sol",
  "abi": [
    {
      "inputs": [
        {
          "internalType": "address[]",
          "name": "_validators",
          "type": "address[]"
        }
      ],
      "stateMutability": "nonpayable",
      "type": "constructor"
    },
    {
      "anonymous": false,
      "inputs": [
        {
          "indexed": true,
          "internalType": "uint256",
          "name": "campaignId",
          "type": "uint256"
        }
      ],
      "name": "CampaignClosed",
      "type": "event"
    },
    {
      "anonymous": false,
      "inputs": [
        {
          "indexed": true,
          "internalType": "uint256",
          "name": "campaignId",
          "type": "uint256"
        },
        {
          "indexed": false,
          "internalType": "string",
          "name": "name",
          "type": "string"
        },
        {
          "indexed": true,
          "internalType": "address",
          "name": "ngo",
          "type": "address"
        },
        {
          "indexed": false,
          "internalType": "uint256",
          "name": "goalAmount",
          "type": "uint256"
        }
      ],
      "name": "CampaignCreated",
      "type": "event"
    },
    {
      "anonymous": false,
      "inputs": [
        {
          "indexed": true,
          "internalType": "uint256",
          "name": "campaignId",
          "type": "uint256"
        },
        {
          "indexed": true,
          "internalType": "address",
          "name": "donor",
          "type": "address"
        },
        {
          "indexed": false,
          "internalType": "uint256",
          "name": "amount",
          "type": "uint256"
        }
      ],
      "name": "DonationReceived",
      "type": "event"
    },
    {
      "anonymous": false,
      "inputs": [
        {
          "indexed": true,
          "internalType": "uint256",
          "name": "proposalId",
          "type": "uint256"
        },
        {
          "indexed": true,
          "internalType": "address",
          "name": "validator",
          "type": "address"
        },
        {
          "indexed": false,
          "internalType": "uint256",
          "name": "currentApprovals",
          "type": "uint256"
        }
      ],
      "name": "VendorApprovalSigned",
      "type": "event"
    },
    {
      "anonymous": false,
      "inputs": [
        {
          "indexed": true,
          "internalType": "uint256",
          "name": "proposalId",
          "type": "uint256"
        },
        {
          "indexed": true,
          "internalType": "address",
          "name": "vendor",
          "type": "address"
        },
        {
          "indexed": false,
          "internalType": "string",
          "name": "vendorName",
          "type": "string"
        },
        {
          "indexed": true,
          "internalType": "address",
          "name": "proposedBy",
          "type": "address"
        }
      ],
      "name": "VendorProposed",
      "type": "event"
    },
    {
      "anonymous": false,
      "inputs": [
        {
          "indexed": true,
          "internalType": "uint256",
          "name": "proposalId",
          "type": "uint256"
        },
        {
          "indexed": true,
          "internalType": "address",
          "name": "vendor",
          "type": "address"
        },
        {
          "indexed": false,
          "internalType": "string",
          "name": "vendorName",
          "type": "string"
        }
      ],
      "name": "VendorWhitelisted",
      "type": "event"
    },
    {
      "anonymous": false,
      "inputs": [
        {
          "indexed": true,
          "internalType": "uint256",
          "name": "campaignId",
          "type": "uint256"
        },
        {
          "indexed": true,
          "internalType": "address",
          "name": "vendor",
          "type": "address"
        },
        {
          "indexed": false,
          "internalType": "string",
          "name": "vendorName",
          "type": "string"
        },
        {
          "indexed": false,
          "internalType": "uint256",
          "name": "amount",
          "type": "uint256"
        }
      ],
      "name": "WithdrawalToVendor",
      "type": "event"
    },
    {
      "inputs": [],
      "name": "REQUIRED_APPROVALS",
      "outputs": [
        {
          "internalType": "uint256",
          "name": "",
          "type": "uint256"
        }
      ],
      "stateMutability": "view",
      "type": "function"
    },
    {
      "inputs": [
        {
          "internalType": "uint256",
          "name": "proposalId",
          "type": "uint256"
        }
      ],
      "name": "approveVendor",
      "outputs": [],
      "stateMutability": "nonpayable",
      "type": "function"
    },
    {
      "inputs": [],
      "name": "campaignCount",
      "outputs": [
        {
          "internalType": "uint256",
          "name": "",
          "type": "uint256"
        }
      ],
      "stateMutability": "view",
      "type": "function"
    },
    {
      "inputs": [
        {
          "internalType": "uint256",
          "name": "",
          "type": "uint256"
        }
      ],
      "name": "campaigns",
      "outputs": [
        {
          "internalType": "string",
          "name": "name",
          "type": "string"
        },
        {
          "internalType": "address",
          "name": "ngo",
          "type": "address"
        },
        {
          "internalType": "uint256",
          "name": "goalAmount",
          "type": "uint256"
        },
        {
          "internalType": "uint256",
          "name": "raisedAmount",
          "type": "uint256"
        },
        {
          "internalType": "uint256",
          "name": "withdrawnAmount",
          "type": "uint256"
        },
        {
          "internalType": "bool",
          "name": "active",
          "type": "bool"
        }
      ],
      "stateMutability": "view",
      "type": "function"
    },
    {
      "inputs": [
        {
          "internalType": "uint256",
          "name": "campaignId",
          "type": "uint256"
        }
      ],
      "name": "closeCampaign",
      "outputs": [],
      "stateMutability": "nonpayable",
      "type": "function"
    },
    {
      "inputs": [
        {
          "internalType": "string",
          "name": "_name",
          "type": "string"
        },
        {
          "internalType": "uint256",
          "name": "_goalAmount",
          "type": "uint256"
        }
      ],
      "name": "createCampaign",
      "outputs": [
        {
          "internalType": "uint256",
          "name": "campaignId",
          "type": "uint256"
        }
      ],
      "stateMutability": "nonpayable",
      "type": "function"
    },
    {
      "inputs": [
        {
          "internalType": "uint256",
          "name": "campaignId",
          "type": "uint256"
        }
      ],
      "name": "donate",
      "outputs": [],
      "stateMutability": "payable",
      "type": "function"
    },
    {
      "inputs": [
        {
          "internalType": "uint256",
          "name": "campaignId",
          "type": "uint256"
        }
      ],
      "name": "getAvailableFunds",
      "outputs": [
        {
          "internalType": "uint256",
          "name": "",
          "type": "uint256"
        }
      ],
      "stateMutability": "view",
      "type": "function"
    },
    {
      "inputs": [
        {
          "internalType": "uint256",
          "name": "campaignId",
          "type": "uint256"
        }
      ],
      "name": "getCampaign",
      "outputs": [
        {
          "internalType": "string",
          "name": "name",
          "type": "string"
        },
        {
          "internalType": "address",
          "name": "ngo",
          "type": "address"
        },
        {
          "internalType": "uint256",
          "name": "goalAmount",
          "type": "uint256"
        },
        {
          "internalType": "uint256",
          "name": "raisedAmount",
          "type": "uint256"
        },
        {
          "internalType": "uint256",
          "name": "withdrawnAmount",
          "type": "uint256"
        },
        {
          "internalType": "bool",
          "name": "active",
          "type": "bool"
        }
      ],
      "stateMutability": "view",
      "type": "function"
    },
    {
      "inputs": [
        {
          "internalType": "uint256",
          "name": "proposalId",
          "type": "uint256"
        }
      ],
      "name": "getProposalStatus",
      "outputs": [
        {
          "internalType": "address",
          "name": "vendor",
          "type": "address"
        },
        {
          "internalType": "string",
          "name": "vendorName",
          "type": "string"
        },
        {
          "internalType": "uint256",
          "name": "approvals",
          "type": "uint256"
        },
        {
          "internalType": "bool",
          "name": "executed",
          "type": "bool"
        }
      ],
      "stateMutability": "view",
      "type": "function"
    },
    {
      "inputs": [],
      "name": "getValidators",
      "outputs": [
        {
          "internalType": "address[5]",
          "name": "",
          "type": "address[5]"
        }
      ],
      "stateMutability": "view",
      "type": "function"
    },
    {
      "inputs": [
        {
          "internalType": "address",
          "name": "vendor",
          "type": "address"
        }
      ],
      "name": "isVendorWhitelisted",
      "outputs": [
        {
          "internalType": "bool",
          "name": "",
          "type": "bool"
        }
      ],
      "stateMutability": "view",
      "type": "function"
    },
    {
      "inputs": [],
      "name": "owner",
      "outputs": [
        {
          "internalType": "address",
          "name": "",
          "type": "address"
        }
      ],
      "stateMutability": "view",
      "type": "function"
    },
    {
      "inputs": [
        {
          "internalType": "uint256",
          "name": "",
          "type": "uint256"
        }
      ],
      "name": "proposalApprovalCount",
      "outputs": [
        {
          "internalType": "uint256",
          "name": "",
          "type": "uint256"
        }
      ],
      "stateMutability": "view",
      "type": "function"
    },
    {
      "inputs": [
        {
          "internalType": "uint256",
          "name": "",
          "type": "uint256"
        },
        {
          "internalType": "address",
          "name": "",
          "type": "address"
        }
      ],
      "name": "proposalApprovals",
      "outputs": [
        {
          "internalType": "bool",
          "name": "",
          "type": "bool"
        }
      ],
      "stateMutability": "view",
      "type": "function"
    },
    {
      "inputs": [],
      "name": "proposalCount",
      "outputs": [
        {
          "internalType": "uint256",
          "name": "",
          "type": "uint256"
        }
      ],
      "stateMutability": "view",
      "type": "function"
    },
    {
      "inputs": [
        {
          "internalType": "uint256",
          "name": "",
          "type": "uint256"
        }
      ],
      "name": "proposalExecuted",
      "outputs": [
        {
          "internalType": "bool",
          "name": "",
          "type": "bool"
        }
      ],
      "stateMutability": "view",
      "type": "function"
    },
    {
      "inputs": [
        {
          "internalType": "uint256",
          "name": "",
          "type": "uint256"
        }
      ],
      "name": "proposalVendorAddress",
      "outputs": [
        {
          "internalType": "address",
          "name": "",
          "type": "address"
        }
      ],
      "stateMutability": "view",
      "type": "function"
    },
    {
      "inputs": [
        {
          "internalType": "uint256",
          "name": "",
          "type": "uint256"
        }
      ],
      "name": "proposalVendorName",
      "outputs": [
        {
          "internalType": "string",
          "name": "",
          "type": "string"
        }
      ],
      "stateMutability": "view",
      "type": "function"
    },
    {
      "inputs": [
        {
          "internalType": "address",
          "name": "vendor",
          "type": "address"
        },
        {
          "internalType": "string",
          "name": "vendorName",
          "type": "string"
        }
      ],
      "name": "proposeVendor",
      "outputs": [
        {
          "internalType": "uint256",
          "name": "proposalId",
          "type": "uint256"
        }
      ],
      "stateMutability": "nonpayable",
      "type": "function"
    },
    {
      "inputs": [],
      "name": "validatorCount",
      "outputs": [
        {
          "internalType": "uint256",
          "name": "",
          "type": "uint256"
        }
      ],
      "stateMutability": "view",
      "type": "function"
    },
    {
      "inputs": [
        {
          "internalType": "uint256",
          "name": "",
          "type": "uint256"
        }
      ],
      "name": "validators",
      "outputs": [
        {
          "internalType": "address",
          "name": "",
          "type": "address"
        }
      ],
      "stateMutability": "view",
      "type": "function"
    },
    {
      "inputs": [
        {
          "internalType": "address",
          "name": "",
          "type": "address"
        }
      ],
      "name": "vendorNames",
      "outputs": [
        {
          "internalType": "string",
          "name": "",
          "type": "string"
        }
      ],
      "stateMutability": "view",
      "type": "function"
    },
    {
      "inputs": [
        {
          "internalType": "address",
          "name": "",
          "type": "address"
        }
      ],
      "name": "whitelistedVendors",
      "outputs": [
        {
          "internalType": "bool",
          "name": "",
          "type": "bool"
        }
      ],
      "stateMutability": "view",
      "type": "function"
    },
    {
      "inputs": [
        {
          "internalType": "uint256",
          "name": "campaignId",
          "type": "uint256"
        },
        {
          "internalType": "address payable",
          "name": "vendor",
          "type": "address"
        },
        {
          "internalType": "uint256",
          "name": "amount",
          "type": "uint256"
        }
      ],
      "name": "withdrawToVendor",
      "outputs": [],
      "stateMutability": "nonpayable",
      "type": "function"
    }
  ],
  "bytecode": "0x608060405234801561000f575f5ffd5b506040516139f93803806139f98339818101604052810190610031919061039d565b600381511015801561004557506005815111155b610084576040517f08c379a000000000000000000000000000000000000000000000000000000000815260040161007b90610464565b60405180910390fd5b335f5f6101000a81548173ffffffffffffffffffffffffffffffffffffffff021916908373ffffffffffffffffffffffffffffffffffffffff1602179055508051600a819055505f5f90505b81518110156101db575f73ffffffffffffffffffffffffffffffffffffffff1682828151811061010357610102610482565b5b602002602001015173ffffffffffffffffffffffffffffffffffffffff1603610161576040517f08c379a00000000000000000000000000000000000000000000000000000000081526004016101589061051f565b60405180910390fd5b81818151811061017457610173610482565b5b6020026020010151600582600581106101905761018f610482565b5b015f6101000a81548173ffffffffffffffffffffffffffffffffffffffff021916908373ffffffffffffffffffffffffffffffffffffffff16021790555080806001019150506100d0565b505061053d565b5f604051905090565b5f5ffd5b5f5ffd5b5f5ffd5b5f601f19601f8301169050919050565b7f4e487b71000000000000000000000000000000000000000000000000000000005f52604160045260245ffd5b61023d826101f7565b810181811067ffffffffffffffff8211171561025c5761025b610207565b5b80604052505050565b5f61026e6101e2565b905061027a8282610234565b919050565b5f67ffffffffffffffff82111561029957610298610207565b5b602082029050602081019050919050565b5f5ffd5b5f73ffffffffffffffffffffffffffffffffffffffff82169050919050565b5f6102d7826102ae565b9050919050565b6102e7816102cd565b81146102f1575f5ffd5b50565b5f81519050610302816102de565b92915050565b5f61031a6103158461027f565b610265565b9050808382526020820190506020840283018581111561033d5761033c6102aa565b5b835b81811015610366578061035288826102f4565b84526020840193505060208101905061033f565b5050509392505050565b5f82601f830112610384576103836101f3565b5b8151610394848260208601610308565b91505092915050565b5f602082840312156103b2576103b16101eb565b5b5f82015167ffffffffffffffff8111156103cf576103ce6101ef565b5b6103db84828501610370565b91505092915050565b5f82825260208201905092915050565b7f436c6172697479436861696e3a204e656564206265747765656e203320616e645f8201527f20352076616c696461746f727300000000000000000000000000000000000000602082015250565b5f61044e602d836103e4565b9150610459826103f4565b604082019050919050565b5f6020820190508181035f83015261047b81610442565b9050919050565b7f4e487b71000000000000000000000000000000000000000000000000000000005f52603260045260245ffd5b7f436c6172697479436861696e3a20496e76616c69642076616c696461746f72205f8201527f6164647265737300000000000000000000000000000000000000000000000000602082015250565b5f6105096027836103e4565b9150610514826104af565b604082019050919050565b5f6020820190508181035f830152610536816104fd565b9050919050565b6134af8061054a5f395ff3fe608060405260043610610165575f3560e01c80636ce71786116100d0578063b25117ba11610089578063c14eff9711610063578063c14eff97146105cc578063da35c66414610608578063f102a67c14610632578063f14faf6f1461066e57610165565b8063b25117ba1461053e578063b2bf60271461057a578063b7ab4db5146105a257610165565b80636ce71786146104225780636e7bfc571461044a5780637274e30d146104865780638da5cb5b146104b057806398024fc8146104da578063b0e1c1e11461051657610165565b80633896927c116101225780633896927c146102c45780633a0f38f714610300578063401853b71461033c5780634733c2711461037b5780635598f8cc146103b7578063599c5533146103f857610165565b80630f43a67714610169578063103616e814610193578063141961bc146101cf5780631689da8214610210578063283195c91461024c57806335aa2e4414610288575b5f5ffd5b348015610174575f5ffd5b5061017d61068a565b60405161018a9190611fac565b60405180910390f35b34801561019e575f5ffd5b506101b960048036038101906101b49190612000565b610690565b6040516101c69190612045565b60405180910390f35b3480156101da575f5ffd5b506101f560048036038101906101f09190612000565b6106ad565b6040516102079695949392919061210d565b60405180910390f35b34801561021b575f5ffd5b506102366004803603810190610231919061219d565b610796565b60405161024391906121c8565b60405180910390f35b348015610257575f5ffd5b50610272600480360381019061026d9190612314565b610831565b60405161027f9190611fac565b60405180910390f35b348015610293575f5ffd5b506102ae60048036038101906102a99190612000565b610b73565b6040516102bb919061236e565b60405180910390f35b3480156102cf575f5ffd5b506102ea60048036038101906102e59190612000565b610ba7565b6040516102f79190611fac565b60405180910390f35b34801561030b575f5ffd5b5061032660048036038101906103219190612000565b610bbc565b60405161033391906121c8565b60405180910390f35b348015610347575f5ffd5b50610362600480360381019061035d9190612000565b610c57565b6040516103729493929190612387565b60405180910390f35b348015610386575f5ffd5b506103a1600480360381019061039c91906123d1565b610dab565b6040516103ae9190612045565b60405180910390f35b3480156103c2575f5ffd5b506103dd60048036038101906103d89190612000565b610dd5565b6040516103ef9695949392919061210d565b60405180910390f35b348015610403575f5ffd5b5061040c610f1d565b6040516104199190611fac565b60405180910390f35b34801561042d575f5ffd5b5061044860048036038101906104439190612000565b610f22565b005b348015610455575f5ffd5b50610470600480360381019061046b919061219d565b61141f565b60405161047d9190612045565b60405180910390f35b348015610491575f5ffd5b5061049a611471565b6040516104a79190611fac565b60405180910390f35b3480156104bb575f5ffd5b506104c4611477565b6040516104d1919061236e565b60405180910390f35b3480156104e5575f5ffd5b5061050060048036038101906104fb919061219d565b61149b565b60405161050d9190612045565b60405180910390f35b348015610521575f5ffd5b5061053c60048036038101906105379190612000565b6114b8565b005b348015610549575f5ffd5b50610564600480360381019061055f9190612000565b6115fc565b604051610571919061236e565b60405180910390f35b348015610585575f5ffd5b506105a0600480360381019061059b919061244a565b61162c565b005b3480156105ad575f5ffd5b506105b6611aa4565b6040516105c3919061253f565b60405180910390f35b3480156105d7575f5ffd5b506105f260048036038101906105ed9190612000565b611b23565b6040516105ff9190611fac565b60405180910390f35b348015610613575f5ffd5b5061061c611b9a565b6040516106299190611fac565b60405180910390f35b34801561063d575f5ffd5b5061065860048036038101906106539190612558565b611ba0565b6040516106659190611fac565b60405180910390f35b61068860048036038101906106839190612000565b611d8a565b005b600a5481565b600f602052805f5260405f205f915054906101000a900460ff1681565b6002602052805f5260405f205f91509050805f0180546106cc906125df565b80601f01602080910402602001604051908101604052809291908181526020018280546106f8906125df565b80156107435780601f1061071a57610100808354040283529160200191610743565b820191905f5260205f20905b81548152906001019060200180831161072657829003601f168201915b505050505090806001015f9054906101000a900473ffffffffffffffffffffffffffffffffffffffff1690806002015490806003015490806004015490806005015f9054906101000a900460ff16905086565b6004602052805f5260405f205f9150905080546107b2906125df565b80601f01602080910402602001604051908101604052809291908181526020018280546107de906125df565b80156108295780601f1061080057610100808354040283529160200191610829565b820191905f5260205f20905b81548152906001019060200180831161080c57829003601f168201915b505050505081565b5f5f5f90505f5f90505b600a548110156108c2573373ffffffffffffffffffffffffffffffffffffffff16600582600581106108705761086f61260f565b5b015f9054906101000a900473ffffffffffffffffffffffffffffffffffffffff1673ffffffffffffffffffffffffffffffffffffffff16036108b557600191506108c2565b808060010191505061083b565b5080610903576040517f08c379a00000000000000000000000000000000000000000000000000000000081526004016108fa90612686565b60405180910390fd5b5f73ffffffffffffffffffffffffffffffffffffffff168473ffffffffffffffffffffffffffffffffffffffff1603610971576040517f08c379a000000000000000000000000000000000000000000000000000000000815260040161096890612714565b60405180910390fd5b5f8351116109b4576040517f08c379a00000000000000000000000000000000000000000000000000000000081526004016109ab906127a2565b60405180910390fd5b60035f8573ffffffffffffffffffffffffffffffffffffffff1673ffffffffffffffffffffffffffffffffffffffff1681526020019081526020015f205f9054906101000a900460ff1615610a3e576040517f08c379a0000000000000000000000000000000000000000000000000000000008152600401610a3590612830565b60405180910390fd5b600b54915083600c5f8481526020019081526020015f205f6101000a81548173ffffffffffffffffffffffffffffffffffffffff021916908373ffffffffffffffffffffffffffffffffffffffff16021790555082600d5f8481526020019081526020015f209081610ab091906129ee565b505f600e5f8481526020019081526020015f20819055505f600f5f8481526020019081526020015f205f6101000a81548160ff021916908315150217905550600b5f815480929190610b0190612aea565b91905055503373ffffffffffffffffffffffffffffffffffffffff168473ffffffffffffffffffffffffffffffffffffffff16837f283919160e4663db5f89b51932d29899258afa8f45472dce627901b0d81a312986604051610b6491906121c8565b60405180910390a45092915050565b60058160058110610b82575f80fd5b015f915054906101000a900473ffffffffffffffffffffffffffffffffffffffff1681565b600e602052805f5260405f205f915090505481565b600d602052805f5260405f205f915090508054610bd8906125df565b80601f0160208091040260200160405190810160405280929190818152602001828054610c04906125df565b8015610c4f5780601f10610c2657610100808354040283529160200191610c4f565b820191905f5260205f20905b815481529060010190602001808311610c3257829003601f168201915b505050505081565b5f60605f5f600b548510610ca0576040517f08c379a0000000000000000000000000000000000000000000000000000000008152600401610c9790612ba1565b60405180910390fd5b600c5f8681526020019081526020015f205f9054906101000a900473ffffffffffffffffffffffffffffffffffffffff16600d5f8781526020019081526020015f20600e5f8881526020019081526020015f2054600f5f8981526020019081526020015f205f9054906101000a900460ff16828054610d1e906125df565b80601f0160208091040260200160405190810160405280929190818152602001828054610d4a906125df565b8015610d955780601f10610d6c57610100808354040283529160200191610d95565b820191905f5260205f20905b815481529060010190602001808311610d7857829003601f168201915b5050505050925093509350935093509193509193565b6010602052815f5260405f20602052805f5260405f205f915091509054906101000a900460ff1681565b60605f5f5f5f5f866001548110610e21576040517f08c379a0000000000000000000000000000000000000000000000000000000008152600401610e1890612c2f565b60405180910390fd5b5f60025f8a81526020019081526020015f209050805f01816001015f9054906101000a900473ffffffffffffffffffffffffffffffffffffffff16826002015483600301548460040154856005015f9054906101000a900460ff16858054610e88906125df565b80601f0160208091040260200160405190810160405280929190818152602001828054610eb4906125df565b8015610eff5780601f10610ed657610100808354040283529160200191610eff565b820191905f5260205f20905b815481529060010190602001808311610ee257829003601f168201915b50505050509550975097509750975097509750505091939550919395565b600381565b5f5f90505f5f90505b600a54811015610fb2573373ffffffffffffffffffffffffffffffffffffffff1660058260058110610f6057610f5f61260f565b5b015f9054906101000a900473ffffffffffffffffffffffffffffffffffffffff1673ffffffffffffffffffffffffffffffffffffffff1603610fa55760019150610fb2565b8080600101915050610f2b565b5080610ff3576040517f08c379a0000000000000000000000000000000000000000000000000000000008152600401610fea90612686565b60405180910390fd5b600b548210611037576040517f08c379a000000000000000000000000000000000000000000000000000000000815260040161102e90612ba1565b60405180910390fd5b600f5f8381526020019081526020015f205f9054906101000a900460ff1615611095576040517f08c379a000000000000000000000000000000000000000000000000000000000815260040161108c90612cbd565b60405180910390fd5b60105f8381526020019081526020015f205f3373ffffffffffffffffffffffffffffffffffffffff1673ffffffffffffffffffffffffffffffffffffffff1681526020019081526020015f205f9054906101000a900460ff161561112e576040517f08c379a000000000000000000000000000000000000000000000000000000000815260040161112590612d4b565b60405180910390fd5b600160105f8481526020019081526020015f205f3373ffffffffffffffffffffffffffffffffffffffff1673ffffffffffffffffffffffffffffffffffffffff1681526020019081526020015f205f6101000a81548160ff021916908315150217905550600e5f8381526020019081526020015f205f8154809291906111b390612aea565b91905055503373ffffffffffffffffffffffffffffffffffffffff16827f67aa4bd29fe554ec4fe772990f621e4fff951c79197005dd4f3a008c0130a89e600e5f8681526020019081526020015f20546040516112109190611fac565b60405180910390a36003600e5f8481526020019081526020015f20541061141b575f600c5f8481526020019081526020015f205f9054906101000a900473ffffffffffffffffffffffffffffffffffffffff1690505f600d5f8581526020019081526020015f208054611282906125df565b80601f01602080910402602001604051908101604052809291908181526020018280546112ae906125df565b80156112f95780601f106112d0576101008083540402835291602001916112f9565b820191905f5260205f20905b8154815290600101906020018083116112dc57829003601f168201915b50505050509050600160035f8473ffffffffffffffffffffffffffffffffffffffff1673ffffffffffffffffffffffffffffffffffffffff1681526020019081526020015f205f6101000a81548160ff0219169083151502179055508060045f8473ffffffffffffffffffffffffffffffffffffffff1673ffffffffffffffffffffffffffffffffffffffff1681526020019081526020015f20908161139f91906129ee565b506001600f5f8681526020019081526020015f205f6101000a81548160ff0219169083151502179055508173ffffffffffffffffffffffffffffffffffffffff16847f5e10a2cd0896305954e023d35ecefc2116cfe2fa9e898222c92a5a4b5a2510b28360405161141091906121c8565b60405180910390a350505b5050565b5f60035f8373ffffffffffffffffffffffffffffffffffffffff1673ffffffffffffffffffffffffffffffffffffffff1681526020019081526020015f205f9054906101000a900460ff169050919050565b60015481565b5f5f9054906101000a900473ffffffffffffffffffffffffffffffffffffffff1681565b6003602052805f5260405f205f915054906101000a900460ff1681565b8060015481106114fd576040517f08c379a00000000000000000000000000000000000000000000000000000000081526004016114f490612c2f565b60405180910390fd5b813373ffffffffffffffffffffffffffffffffffffffff1660025f8381526020019081526020015f206001015f9054906101000a900473ffffffffffffffffffffffffffffffffffffffff1673ffffffffffffffffffffffffffffffffffffffff161461159f576040517f08c379a000000000000000000000000000000000000000000000000000000000815260040161159690612dd9565b60405180910390fd5b5f60025f8581526020019081526020015f206005015f6101000a81548160ff021916908315150217905550827f5e6eb33a418de5dbbc17f989f7ae362cdfbb1748c5d603137c767027a354edbc60405160405180910390a2505050565b600c602052805f5260405f205f915054906101000a900473ffffffffffffffffffffffffffffffffffffffff1681565b826001548110611671576040517f08c379a000000000000000000000000000000000000000000000000000000000815260040161166890612c2f565b60405180910390fd5b8360025f8281526020019081526020015f206005015f9054906101000a900460ff166116d2576040517f08c379a00000000000000000000000000000000000000000000000000000000081526004016116c990612e67565b60405180910390fd5b843373ffffffffffffffffffffffffffffffffffffffff1660025f8381526020019081526020015f206001015f9054906101000a900473ffffffffffffffffffffffffffffffffffffffff1673ffffffffffffffffffffffffffffffffffffffff1614611774576040517f08c379a000000000000000000000000000000000000000000000000000000000815260040161176b90612dd9565b60405180910390fd5b5f60149054906101000a900460ff16156117c3576040517f08c379a00000000000000000000000000000000000000000000000000000000081526004016117ba90612ef5565b60405180910390fd5b60015f60146101000a81548160ff02191690831515021790555060035f8673ffffffffffffffffffffffffffffffffffffffff1673ffffffffffffffffffffffffffffffffffffffff1681526020019081526020015f205f9054906101000a900460ff16611866576040517f08c379a000000000000000000000000000000000000000000000000000000000815260040161185d90612f83565b60405180910390fd5b5f84116118a8576040517f08c379a000000000000000000000000000000000000000000000000000000000815260040161189f90613011565b60405180910390fd5b5f60025f8881526020019081526020015f206004015460025f8981526020019081526020015f20600301546118dd919061302f565b905080851115611922576040517f08c379a0000000000000000000000000000000000000000000000000000000008152600401611919906130d2565b60405180910390fd5b8460025f8981526020019081526020015f206004015f82825461194591906130f0565b925050819055505f8673ffffffffffffffffffffffffffffffffffffffff168660405161197190613150565b5f6040518083038185875af1925050503d805f81146119ab576040519150601f19603f3d011682016040523d82523d5f602084013e6119b0565b606091505b50509050806119f4576040517f08c379a00000000000000000000000000000000000000000000000000000000081526004016119eb906131d4565b60405180910390fd5b8673ffffffffffffffffffffffffffffffffffffffff16887f732cd91831afb5863a4f2409954bd8d5d26e45a12a6d70f603ded109ddc274b560045f8b73ffffffffffffffffffffffffffffffffffffffff1673ffffffffffffffffffffffffffffffffffffffff1681526020019081526020015f2089604051611a79929190613273565b60405180910390a350505f5f60146101000a81548160ff021916908315150217905550505050505050565b611aac611f72565b60058080602002604051908101604052809291908260058015611b19576020028201915b815f9054906101000a900473ffffffffffffffffffffffffffffffffffffffff1673ffffffffffffffffffffffffffffffffffffffff1681526020019060010190808311611ad0575b5050505050905090565b5f816001548110611b69576040517f08c379a0000000000000000000000000000000000000000000000000000000008152600401611b6090612c2f565b60405180910390fd5b5f60025f8581526020019081526020015f20905080600401548160030154611b91919061302f565b92505050919050565b600b5481565b5f5f835111611be4576040517f08c379a0000000000000000000000000000000000000000000000000000000008152600401611bdb90613311565b60405180910390fd5b5f8211611c26576040517f08c379a0000000000000000000000000000000000000000000000000000000008152600401611c1d9061339f565b60405180910390fd5b60015490506040518060c001604052808481526020013373ffffffffffffffffffffffffffffffffffffffff1681526020018381526020015f81526020015f81526020016001151581525060025f8381526020019081526020015f205f820151815f019081611c9591906129ee565b506020820151816001015f6101000a81548173ffffffffffffffffffffffffffffffffffffffff021916908373ffffffffffffffffffffffffffffffffffffffff16021790555060408201518160020155606082015181600301556080820151816004015560a0820151816005015f6101000a81548160ff02191690831515021790555090505060015f815480929190611d2e90612aea565b91905055503373ffffffffffffffffffffffffffffffffffffffff16817f85d038f2d0b3728e5fede2ce367934666edeabb735999e2be302dc035466b98b8585604051611d7c9291906133bd565b60405180910390a392915050565b806001548110611dcf576040517f08c379a0000000000000000000000000000000000000000000000000000000008152600401611dc690612c2f565b60405180910390fd5b8160025f8281526020019081526020015f206005015f9054906101000a900460ff16611e30576040517f08c379a0000000000000000000000000000000000000000000000000000000008152600401611e2790612e67565b60405180910390fd5b5f60149054906101000a900460ff1615611e7f576040517f08c379a0000000000000000000000000000000000000000000000000000000008152600401611e7690612ef5565b60405180910390fd5b60015f60146101000a81548160ff0219169083151502179055505f3411611edb576040517f08c379a0000000000000000000000000000000000000000000000000000000008152600401611ed29061345b565b60405180910390fd5b3460025f8581526020019081526020015f206003015f828254611efe91906130f0565b925050819055503373ffffffffffffffffffffffffffffffffffffffff16837f0b5b4c52969ff7329ecf7ee536409fda87812b15a8622bc6e8cdeab3aee14a2634604051611f4c9190611fac565b60405180910390a35f5f60146101000a81548160ff021916908315150217905550505050565b6040518060a00160405280600590602082028036833780820191505090505090565b5f819050919050565b611fa681611f94565b82525050565b5f602082019050611fbf5f830184611f9d565b92915050565b5f604051905090565b5f5ffd5b5f5ffd5b611fdf81611f94565b8114611fe9575f5ffd5b50565b5f81359050611ffa81611fd6565b92915050565b5f6020828403121561201557612014611fce565b5b5f61202284828501611fec565b91505092915050565b5f8115159050919050565b61203f8161202b565b82525050565b5f6020820190506120585f830184612036565b92915050565b5f81519050919050565b5f82825260208201905092915050565b8281835e5f83830152505050565b5f601f19601f8301169050919050565b5f6120a08261205e565b6120aa8185612068565b93506120ba818560208601612078565b6120c381612086565b840191505092915050565b5f73ffffffffffffffffffffffffffffffffffffffff82169050919050565b5f6120f7826120ce565b9050919050565b612107816120ed565b82525050565b5f60c0820190508181035f8301526121258189612096565b905061213460208301886120fe565b6121416040830187611f9d565b61214e6060830186611f9d565b61215b6080830185611f9d565b61216860a0830184612036565b979650505050505050565b61217c816120ed565b8114612186575f5ffd5b50565b5f8135905061219781612173565b92915050565b5f602082840312156121b2576121b1611fce565b5b5f6121bf84828501612189565b91505092915050565b5f6020820190508181035f8301526121e08184612096565b905092915050565b5f5ffd5b5f5ffd5b7f4e487b71000000000000000000000000000000000000000000000000000000005f52604160045260245ffd5b61222682612086565b810181811067ffffffffffffffff82111715612245576122446121f0565b5b80604052505050565b5f612257611fc5565b9050612263828261221d565b919050565b5f67ffffffffffffffff821115612282576122816121f0565b5b61228b82612086565b9050602081019050919050565b828183375f83830152505050565b5f6122b86122b384612268565b61224e565b9050828152602081018484840111156122d4576122d36121ec565b5b6122df848285612298565b509392505050565b5f82601f8301126122fb576122fa6121e8565b5b813561230b8482602086016122a6565b91505092915050565b5f5f6040838503121561232a57612329611fce565b5b5f61233785828601612189565b925050602083013567ffffffffffffffff81111561235857612357611fd2565b5b612364858286016122e7565b9150509250929050565b5f6020820190506123815f8301846120fe565b92915050565b5f60808201905061239a5f8301876120fe565b81810360208301526123ac8186612096565b90506123bb6040830185611f9d565b6123c86060830184612036565b95945050505050565b5f5f604083850312156123e7576123e6611fce565b5b5f6123f485828601611fec565b925050602061240585828601612189565b9150509250929050565b5f612419826120ce565b9050919050565b6124298161240f565b8114612433575f5ffd5b50565b5f8135905061244481612420565b92915050565b5f5f5f6060848603121561246157612460611fce565b5b5f61246e86828701611fec565b935050602061247f86828701612436565b925050604061249086828701611fec565b9150509250925092565b5f60059050919050565b5f81905092915050565b5f819050919050565b6124c0816120ed565b82525050565b5f6124d183836124b7565b60208301905092915050565b5f602082019050919050565b6124f28161249a565b6124fc81846124a4565b9250612507826124ae565b805f5b8381101561253757815161251e87826124c6565b9650612529836124dd565b92505060018101905061250a565b505050505050565b5f60a0820190506125525f8301846124e9565b92915050565b5f5f6040838503121561256e5761256d611fce565b5b5f83013567ffffffffffffffff81111561258b5761258a611fd2565b5b612597858286016122e7565b92505060206125a885828601611fec565b9150509250929050565b7f4e487b71000000000000000000000000000000000000000000000000000000005f52602260045260245ffd5b5f60028204905060018216806125f657607f821691505b602082108103612609576126086125b2565b5b50919050565b7f4e487b71000000000000000000000000000000000000000000000000000000005f52603260045260245ffd5b7f436c6172697479436861696e3a204e6f7420612076616c696461746f720000005f82015250565b5f612670601d83612068565b915061267b8261263c565b602082019050919050565b5f6020820190508181035f83015261269d81612664565b9050919050565b7f436c6172697479436861696e3a20496e76616c69642076656e646f72206164645f8201527f7265737300000000000000000000000000000000000000000000000000000000602082015250565b5f6126fe602483612068565b9150612709826126a4565b604082019050919050565b5f6020820190508181035f83015261272b816126f2565b9050919050565b7f436c6172697479436861696e3a2056656e646f72206e616d652063616e6e6f745f8201527f20626520656d7074790000000000000000000000000000000000000000000000602082015250565b5f61278c602983612068565b915061279782612732565b604082019050919050565b5f6020820190508181035f8301526127b981612780565b9050919050565b7f436c6172697479436861696e3a2056656e646f7220616c7265616479207768695f8201527f74656c6973746564000000000000000000000000000000000000000000000000602082015250565b5f61281a602883612068565b9150612825826127c0565b604082019050919050565b5f6020820190508181035f8301526128478161280e565b9050919050565b5f819050815f5260205f209050919050565b5f6020601f8301049050919050565b5f82821b905092915050565b5f600883026128aa7fffffffffffffffffffffffffffffffffffffffffffffffffffffffffffffffff8261286f565b6128b4868361286f565b95508019841693508086168417925050509392505050565b5f819050919050565b5f6128ef6128ea6128e584611f94565b6128cc565b611f94565b9050919050565b5f819050919050565b612908836128d5565b61291c612914826128f6565b84845461287b565b825550505050565b5f5f905090565b612933612924565b61293e8184846128ff565b505050565b5b81811015612961576129565f8261292b565b600181019050612944565b5050565b601f8211156129a6576129778161284e565b61298084612860565b8101602085101561298f578190505b6129a361299b85612860565b830182612943565b50505b505050565b5f82821c905092915050565b5f6129c65f19846008026129ab565b1980831691505092915050565b5f6129de83836129b7565b9150826002028217905092915050565b6129f78261205e565b67ffffffffffffffff811115612a1057612a0f6121f0565b5b612a1a82546125df565b612a25828285612965565b5f60209050601f831160018114612a56575f8415612a44578287015190505b612a4e85826129d3565b865550612ab5565b601f198416612a648661284e565b5f5b82811015612a8b57848901518255600182019150602085019450602081019050612a66565b86831015612aa85784890151612aa4601f8916826129b7565b8355505b6001600288020188555050505b505050505050565b7f4e487b71000000000000000000000000000000000000000000000000000000005f52601160045260245ffd5b5f612af482611f94565b91507fffffffffffffffffffffffffffffffffffffffffffffffffffffffffffffffff8203612b2657612b25612abd565b5b600182019050919050565b7f436c6172697479436861696e3a2050726f706f73616c20646f6573206e6f74205f8201527f6578697374000000000000000000000000000000000000000000000000000000602082015250565b5f612b8b602583612068565b9150612b9682612b31565b604082019050919050565b5f6020820190508181035f830152612bb881612b7f565b9050919050565b7f436c6172697479436861696e3a2043616d706169676e20646f6573206e6f74205f8201527f6578697374000000000000000000000000000000000000000000000000000000602082015250565b5f612c19602583612068565b9150612c2482612bbf565b604082019050919050565b5f6020820190508181035f830152612c4681612c0d565b9050919050565b7f436c6172697479436861696e3a2050726f706f73616c20616c726561647920655f8201527f7865637574656400000000000000000000000000000000000000000000000000602082015250565b5f612ca7602783612068565b9150612cb282612c4d565b604082019050919050565b5f6020820190508181035f830152612cd481612c9b565b9050919050565b7f436c6172697479436861696e3a20596f7520616c726561647920617070726f765f8201527f656420746869732070726f706f73616c00000000000000000000000000000000602082015250565b5f612d35603083612068565b9150612d4082612cdb565b604082019050919050565b5f6020820190508181035f830152612d6281612d29565b9050919050565b7f436c6172697479436861696e3a204e6f74207468652063616d706169676e204e5f8201527f474f000000000000000000000000000000000000000000000000000000000000602082015250565b5f612dc3602283612068565b9150612dce82612d69565b604082019050919050565b5f6020820190508181035f830152612df081612db7565b9050919050565b7f436c6172697479436861696e3a2043616d706169676e206973206e6f742061635f8201527f7469766500000000000000000000000000000000000000000000000000000000602082015250565b5f612e51602483612068565b9150612e5c82612df7565b604082019050919050565b5f6020820190508181035f830152612e7e81612e45565b9050919050565b7f436c6172697479436861696e3a205265656e7472616e742063616c6c20626c6f5f8201527f636b656400000000000000000000000000000000000000000000000000000000602082015250565b5f612edf602483612068565b9150612eea82612e85565b604082019050919050565b5f6020820190508181035f830152612f0c81612ed3565b9050919050565b7f436c6172697479436861696e3a2056656e646f72206e6f742077686974656c695f8201527f73746564202d2d2052454a454354454400000000000000000000000000000000602082015250565b5f612f6d603083612068565b9150612f7882612f13565b604082019050919050565b5f6020820190508181035f830152612f9a81612f61565b9050919050565b7f436c6172697479436861696e3a20416d6f756e74206d757374206265206772655f8201527f61746572207468616e2030000000000000000000000000000000000000000000602082015250565b5f612ffb602b83612068565b915061300682612fa1565b604082019050919050565b5f6020820190508181035f83015261302881612fef565b9050919050565b5f61303982611f94565b915061304483611f94565b925082820390508181111561305c5761305b612abd565b5b92915050565b7f436c6172697479436861696e3a20496e73756666696369656e742063616d70615f8201527f69676e2066756e64730000000000000000000000000000000000000000000000602082015250565b5f6130bc602983612068565b91506130c782613062565b604082019050919050565b5f6020820190508181035f8301526130e9816130b0565b9050919050565b5f6130fa82611f94565b915061310583611f94565b925082820190508082111561311d5761311c612abd565b5b92915050565b5f81905092915050565b50565b5f61313b5f83613123565b91506131468261312d565b5f82019050919050565b5f61315a82613130565b9150819050919050565b7f436c6172697479436861696e3a205472616e7366657220746f2076656e646f725f8201527f206661696c656400000000000000000000000000000000000000000000000000602082015250565b5f6131be602783612068565b91506131c982613164565b604082019050919050565b5f6020820190508181035f8301526131eb816131b2565b9050919050565b5f81546131fe816125df565b6132088186612068565b9450600182165f811461322257600181146132385761326a565b60ff19831686528115156020028601935061326a565b6132418561284e565b5f5b8381101561326257815481890152600182019150602081019050613243565b808801955050505b50505092915050565b5f6040820190508181035f83015261328b81856131f2565b905061329a6020830184611f9d565b9392505050565b7f436c6172697479436861696e3a204e616d652063616e6e6f7420626520656d705f8201527f7479000000000000000000000000000000000000000000000000000000000000602082015250565b5f6132fb602283612068565b9150613306826132a1565b604082019050919050565b5f6020820190508181035f830152613328816132ef565b9050919050565b7f436c6172697479436861696e3a20476f616c206d7573742062652067726561745f8201527f6572207468616e20300000000000000000000000000000000000000000000000602082015250565b5f613389602983612068565b91506133948261332f565b604082019050919050565b5f6020820190508181035f8301526133b68161337d565b9050919050565b5f6040820190508181035f8301526133d58185612096565b90506133e46020830184611f9d565b9392505050565b7f436c6172697479436861696e3a20446f6e6174696f6e206d75737420626520675f8201527f726561746572207468616e203000000000000000000000000000000000000000602082015250565b5f613445602d83612068565b9150613450826133eb565b604082019050919050565b5f6020820190508181035f83015261347281613439565b905091905056fea264697066735822122038d9dd799dfc999f4f5edc5f44bb45e3df5a273012ef1e66dd5336fc73e5dbae64736f6c634300081c0033",
  "linkReferences": {},
  "deployedLinkReferences": {},
  "immutableReferences": {},
  "inputSourceName": "project/contracts/ClarityChain.sol",
  "buildInfoId": "solc-0_8_28-2f31a68a68e8913818b5a894fe6cefea1a2e213b"
}